{
  "abi": [
    {
      "inputs": [
        {
          "internalType": "address",
          "name": "_stakingToken",
          "type": "address"
        }
      ],
      "stateMutability": "nonpayable",
      "type": "constructor"
    },
    {
      "anonymous": false,
      "inputs": [
        {
          "indexed": true,
          "internalType": "address",
          "name": "user",
          "type": "address"
        },
        {
          "indexed": false,
          "internalType": "uint256",
          "name": "amount",
          "type": "uint256"
        }
      ],
      "name": "Claimed",
      "type": "event"
    },
    {
      "anonymous": false,
      "inputs": [
        {
          "indexed": true,
          "internalType": "address",
          "name": "previousOwner",
          "type": "address"
        },
        {
          "indexed": true,
          "internalType": "address",
          "name": "newOwner",
          "type": "address"
        }
      ],
      "name": "OwnershipTransferred",
      "type": "event"
    },
    {
      "inputs": [],
      "name": "claimToken",
      "outputs": [],
      "stateMutability": "nonpayable",
      "type": "function"
    },
    {
      "inputs": [
        {
          "internalType": "uint256",
          "name": "_amount",
          "type": "uint256"
        }
      ],
      "name": "depositTokens",
      "outputs": [],
      "stateMutability": "nonpayable",
      "type": "function"
    },
    {
      "inputs": [],
      "name": "getDepositedSupply",
      "outputs": [
        {
          "internalType": "uint256",
          "name": "",
          "type": "uint256"
        }
      ],
      "stateMutability": "view",
      "type": "function"
    },
    {
      "inputs": [
        {
          "internalType": "address",
          "name": "",
          "type": "address"
        }
      ],
      "name": "hasClaimed",
      "outputs": [
        {
          "internalType": "bool",
          "name": "",
          "type": "bool"
        }
      ],
      "stateMutability": "view",
      "type": "function"
    },
    {
      "inputs": [],
      "name": "owner",
      "outputs": [
        {
          "internalType": "address",
          "name": "",
          "type": "address"
        }
      ],
      "stateMutability": "view",
      "type": "function"
    },
    {
      "inputs": [],
      "name": "renounceOwnership",
      "outputs": [],
      "stateMutability": "nonpayable",
      "type": "function"
    },
    {
      "inputs": [],
      "name": "stakingToken",
      "outputs": [
        {
          "internalType": "contract IERC20",
          "name": "",
          "type": "address"
        }
      ],
      "stateMutability": "view",
      "type": "function"
    },
    {
      "inputs": [
        {
          "internalType": "address",
          "name": "newOwner",
          "type": "address"
        }
      ],
      "name": "transferOwnership",
      "outputs": [],
      "stateMutability": "nonpayable",
      "type": "function"
    },
    {
      "inputs": [
        {
          "internalType": "uint256",
          "name": "_amount",
          "type": "uint256"
        }
      ],
      "name": "withdrawTokens",
      "outputs": [],
      "stateMutability": "nonpayable",
      "type": "function"
    }
  ],
  "devdoc": {
    "kind": "dev",
    "methods": {},
    "version": 1
  },
  "evm": {
    "assembly": "    /* \"04_TokenDrop.sol\":4118:5380  contract TokenDrop is Ownable {... */\n  mstore(0x40, 0x80)\n    /* \"04_TokenDrop.sol\":4331:4421  constructor(address _stakingToken) {... */\n  callvalue\n  dup1\n  iszero\n  tag_1\n  jumpi\n  0x00\n  dup1\n  revert\ntag_1:\n  pop\n  mload(0x40)\n  sub(codesize, bytecodeSize)\n  dup1\n  bytecodeSize\n  dup4\n  codecopy\n  dup2\n  add\n  0x40\n  dup2\n  swap1\n  mstore\n  tag_2\n  swap2\n  tag_3\n  jump\t// in\ntag_2:\n    /* \"04_TokenDrop.sol\":2563:2595  _transferOwnership(_msgSender()) */\n  tag_7\n    /* \"04_TokenDrop.sol\":2126:2136  msg.sender */\n  caller\n    /* \"04_TokenDrop.sol\":2563:2581  _transferOwnership */\n  tag_10\n    /* \"04_TokenDrop.sol\":2563:2595  _transferOwnership(_msgSender()) */\n  jump\t// in\ntag_7:\n    /* \"04_TokenDrop.sol\":4377:4389  stakingToken */\n  0x01\n    /* \"04_TokenDrop.sol\":4377:4413  stakingToken = IERC20(_stakingToken) */\n  dup1\n  sload\n  not(sub(shl(0xa0, 0x01), 0x01))\n  and\n  sub(shl(0xa0, 0x01), 0x01)\n  swap3\n  swap1\n  swap3\n  and\n  swap2\n  swap1\n  swap2\n  or\n  swap1\n  sstore\n    /* \"04_TokenDrop.sol\":4118:5380  contract TokenDrop is Ownable {... */\n  jump(tag_15)\n    /* \"04_TokenDrop.sol\":3239:3430  function _transferOwnership(address newOwner) internal virtual {... */\ntag_10:\n    /* \"04_TokenDrop.sol\":3313:3329  address oldOwner */\n  0x00\n    /* \"04_TokenDrop.sol\":3332:3338  _owner */\n  dup1\n  sload\n  sub(shl(0xa0, 0x01), 0x01)\n    /* \"04_TokenDrop.sol\":3349:3366  _owner = newOwner */\n  dup4\n  dup2\n  and\n  not(sub(shl(0xa0, 0x01), 0x01))\n  dup4\n  and\n  dup2\n  or\n  dup5\n  sstore\n    /* \"04_TokenDrop.sol\":3382:3422  OwnershipTransferred(oldOwner, newOwner) */\n  mload(0x40)\n    /* \"04_TokenDrop.sol\":3332:3338  _owner */\n  swap2\n  swap1\n  swap3\n  and\n  swap3\n  dup4\n  swap2\n    /* \"04_TokenDrop.sol\":3382:3422  OwnershipTransferred(oldOwner, newOwner) */\n  0x8be0079c531659141344cd1fd0a4f28419497f9722a3daafe3b4186f6b6457e0\n  swap2\n    /* \"04_TokenDrop.sol\":3313:3329  address oldOwner */\n  swap1\n    /* \"04_TokenDrop.sol\":3382:3422  OwnershipTransferred(oldOwner, newOwner) */\n  log3\n    /* \"04_TokenDrop.sol\":3302:3430  {... */\n  pop\n    /* \"04_TokenDrop.sol\":3239:3430  function _transferOwnership(address newOwner) internal virtual {... */\n  pop\n  jump\t// out\n    /* \"#utility.yul\":14:304   */\ntag_3:\n    /* \"#utility.yul\":84:90   */\n  0x00\n    /* \"#utility.yul\":137:139   */\n  0x20\n    /* \"#utility.yul\":125:134   */\n  dup3\n    /* \"#utility.yul\":116:123   */\n  dup5\n    /* \"#utility.yul\":112:135   */\n  sub\n    /* \"#utility.yul\":108:140   */\n  slt\n    /* \"#utility.yul\":105:157   */\n  iszero\n  tag_17\n  jumpi\n    /* \"#utility.yul\":153:154   */\n  0x00\n    /* \"#utility.yul\":150:151   */\n  dup1\n    /* \"#utility.yul\":143:155   */\n  revert\n    /* \"#utility.yul\":105:157   */\ntag_17:\n    /* \"#utility.yul\":179:195   */\n  dup2\n  mload\n  sub(shl(0xa0, 0x01), 0x01)\n    /* \"#utility.yul\":224:255   */\n  dup2\n  and\n    /* \"#utility.yul\":214:256   */\n  dup2\n  eq\n    /* \"#utility.yul\":204:274   */\n  tag_18\n  jumpi\n    /* \"#utility.yul\":270:271   */\n  0x00\n    /* \"#utility.yul\":267:268   */\n  dup1\n    /* \"#utility.yul\":260:272   */\n  revert\n    /* \"#utility.yul\":204:274   */\ntag_18:\n    /* \"#utility.yul\":293:298   */\n  swap4\n    /* \"#utility.yul\":14:304   */\n  swap3\n  pop\n  pop\n  pop\n  jump\t// out\ntag_15:\n    /* \"04_TokenDrop.sol\":4118:5380  contract TokenDrop is Ownable {... */\n  dataSize(sub_0)\n  dup1\n  dataOffset(sub_0)\n  0x00\n  codecopy\n  0x00\n  return\nstop\n\nsub_0: assembly {\n        /* \"04_TokenDrop.sol\":4118:5380  contract TokenDrop is Ownable {... */\n      mstore(0x40, 0x80)\n      callvalue\n      dup1\n      iszero\n      tag_1\n      jumpi\n      0x00\n      dup1\n      revert\n    tag_1:\n      pop\n      jumpi(tag_2, lt(calldatasize, 0x04))\n      shr(0xe0, calldataload(0x00))\n      dup1\n      0x73b2e80e\n      gt\n      tag_12\n      jumpi\n      dup1\n      0xd46dabbb\n      gt\n      tag_13\n      jumpi\n      dup1\n      0xd46dabbb\n      eq\n      tag_9\n      jumpi\n      dup1\n      0xdd49756e\n      eq\n      tag_10\n      jumpi\n      dup1\n      0xf2fde38b\n      eq\n      tag_11\n      jumpi\n      0x00\n      dup1\n      revert\n    tag_13:\n      dup1\n      0x73b2e80e\n      eq\n      tag_7\n      jumpi\n      dup1\n      0x8da5cb5b\n      eq\n      tag_8\n      jumpi\n      0x00\n      dup1\n      revert\n    tag_12:\n      dup1\n      0x315a095d\n      eq\n      tag_3\n      jumpi\n      dup1\n      0x4451d89f\n      eq\n      tag_4\n      jumpi\n      dup1\n      0x715018a6\n      eq\n      tag_5\n      jumpi\n      dup1\n      0x72f702f3\n      eq\n      tag_6\n      jumpi\n    tag_2:\n      0x00\n      dup1\n      revert\n        /* \"04_TokenDrop.sol\":5049:5170  function withdrawTokens(uint256 _amount) external onlyOwner {... */\n    tag_3:\n      tag_14\n      tag_15\n      calldatasize\n      0x04\n      tag_16\n      jump\t// in\n    tag_15:\n      tag_17\n      jump\t// in\n    tag_14:\n      stop\n        /* \"04_TokenDrop.sol\":4470:4775  function claimToken() external {... */\n    tag_4:\n      tag_14\n      tag_19\n      jump\t// in\n        /* \"04_TokenDrop.sol\":2919:3022  function renounceOwnership() public virtual onlyOwner {... */\n    tag_5:\n      tag_14\n      tag_21\n      jump\t// in\n        /* \"04_TokenDrop.sol\":4155:4181  IERC20 public stakingToken */\n    tag_6:\n      sload(0x01)\n      tag_22\n      swap1\n      sub(shl(0xa0, 0x01), 0x01)\n      and\n      dup2\n      jump\n    tag_22:\n      mload(0x40)\n      sub(shl(0xa0, 0x01), 0x01)\n        /* \"#utility.yul\":378:433   */\n      swap1\n      swap2\n      and\n        /* \"#utility.yul\":360:434   */\n      dup2\n      mstore\n        /* \"#utility.yul\":348:350   */\n      0x20\n        /* \"#utility.yul\":333:351   */\n      add\n        /* \"04_TokenDrop.sol\":4155:4181  IERC20 public stakingToken */\n    tag_24:\n      mload(0x40)\n      dup1\n      swap2\n      sub\n      swap1\n      return\n        /* \"04_TokenDrop.sol\":4188:4230  mapping(address => bool) public hasClaimed */\n    tag_7:\n      tag_26\n      tag_27\n      calldatasize\n      0x04\n      tag_28\n      jump\t// in\n    tag_27:\n      mstore(0x20, 0x02)\n      0x00\n      swap1\n      dup2\n      mstore\n      0x40\n      swap1\n      keccak256\n      sload\n      0xff\n      and\n      dup2\n      jump\n    tag_26:\n      mload(0x40)\n        /* \"#utility.yul\":924:938   */\n      swap1\n      iszero\n        /* \"#utility.yul\":917:939   */\n      iszero\n        /* \"#utility.yul\":899:940   */\n      dup2\n      mstore\n        /* \"#utility.yul\":887:889   */\n      0x20\n        /* \"#utility.yul\":872:890   */\n      add\n        /* \"04_TokenDrop.sol\":4188:4230  mapping(address => bool) public hasClaimed */\n      tag_24\n        /* \"#utility.yul\":759:946   */\n      jump\n        /* \"04_TokenDrop.sol\":2684:2771  function owner() public view virtual returns (address) {... */\n    tag_8:\n        /* \"04_TokenDrop.sol\":2730:2737  address */\n      0x00\n        /* \"04_TokenDrop.sol\":2757:2763  _owner */\n      sload\n      sub(shl(0xa0, 0x01), 0x01)\n      and\n        /* \"04_TokenDrop.sol\":2684:2771  function owner() public view virtual returns (address) {... */\n      jump(tag_22)\n        /* \"04_TokenDrop.sol\":5252:5377  function getDepositedSupply() external view returns (uint256) {... */\n    tag_9:\n      tag_36\n      tag_37\n      jump\t// in\n    tag_36:\n      mload(0x40)\n        /* \"#utility.yul\":1328:1353   */\n      swap1\n      dup2\n      mstore\n        /* \"#utility.yul\":1316:1318   */\n      0x20\n        /* \"#utility.yul\":1301:1319   */\n      add\n        /* \"04_TokenDrop.sol\":5252:5377  function getDepositedSupply() external view returns (uint256) {... */\n      tag_24\n        /* \"#utility.yul\":1182:1359   */\n      jump\n        /* \"04_TokenDrop.sol\":4847:4986  function depositTokens(uint256 _amount) external onlyOwner {... */\n    tag_10:\n      tag_14\n      tag_41\n      calldatasize\n      0x04\n      tag_16\n      jump\t// in\n    tag_41:\n      tag_42\n      jump\t// in\n        /* \"04_TokenDrop.sol\":3030:3231  function transferOwnership(address newOwner) public virtual onlyOwner {... */\n    tag_11:\n      tag_14\n      tag_44\n      calldatasize\n      0x04\n      tag_28\n      jump\t// in\n    tag_44:\n      tag_45\n      jump\t// in\n        /* \"04_TokenDrop.sol\":5049:5170  function withdrawTokens(uint256 _amount) external onlyOwner {... */\n    tag_17:\n        /* \"04_TokenDrop.sol\":2643:2656  _checkOwner() */\n      tag_47\n        /* \"04_TokenDrop.sol\":2643:2654  _checkOwner */\n      tag_48\n        /* \"04_TokenDrop.sol\":2643:2656  _checkOwner() */\n      jump\t// in\n    tag_47:\n        /* \"04_TokenDrop.sol\":5120:5132  stakingToken */\n      sload(0x01)\n        /* \"04_TokenDrop.sol\":5120:5162  stakingToken.transfer(msg.sender, _amount) */\n      mload(0x40)\n      shl(0xe0, 0xa9059cbb)\n      dup2\n      mstore\n        /* \"04_TokenDrop.sol\":5142:5152  msg.sender */\n      caller\n        /* \"04_TokenDrop.sol\":5120:5162  stakingToken.transfer(msg.sender, _amount) */\n      0x04\n      dup3\n      add\n        /* \"#utility.yul\":1538:1612   */\n      mstore\n        /* \"#utility.yul\":1628:1646   */\n      0x24\n      dup2\n      add\n        /* \"#utility.yul\":1621:1655   */\n      dup4\n      swap1\n      mstore\n      sub(shl(0xa0, 0x01), 0x01)\n        /* \"04_TokenDrop.sol\":5120:5132  stakingToken */\n      swap1\n      swap2\n      and\n      swap1\n        /* \"04_TokenDrop.sol\":5120:5141  stakingToken.transfer */\n      0xa9059cbb\n      swap1\n        /* \"#utility.yul\":1511:1529   */\n      0x44\n      add\n        /* \"04_TokenDrop.sol\":5120:5162  stakingToken.transfer(msg.sender, _amount) */\n    tag_50:\n      0x20\n      mload(0x40)\n      dup1\n      dup4\n      sub\n      dup2\n      0x00\n      dup8\n      gas\n      call\n      iszero\n      dup1\n      iszero\n      tag_53\n      jumpi\n      returndatasize\n      0x00\n      dup1\n      returndatacopy\n      revert(0x00, returndatasize)\n    tag_53:\n      pop\n      pop\n      pop\n      pop\n      mload(0x40)\n      returndatasize\n      not(0x1f)\n      0x1f\n      dup3\n      add\n      and\n      dup3\n      add\n      dup1\n      0x40\n      mstore\n      pop\n      dup2\n      add\n      swap1\n      tag_54\n      swap2\n      swap1\n      tag_55\n      jump\t// in\n    tag_54:\n      pop\n        /* \"04_TokenDrop.sol\":5049:5170  function withdrawTokens(uint256 _amount) external onlyOwner {... */\n      pop\n      jump\t// out\n        /* \"04_TokenDrop.sol\":4470:4775  function claimToken() external {... */\n    tag_19:\n        /* \"04_TokenDrop.sol\":4532:4542  msg.sender */\n      caller\n        /* \"04_TokenDrop.sol\":4521:4543  hasClaimed[msg.sender] */\n      0x00\n      swap1\n      dup2\n      mstore\n        /* \"04_TokenDrop.sol\":4521:4531  hasClaimed */\n      0x02\n        /* \"04_TokenDrop.sol\":4521:4543  hasClaimed[msg.sender] */\n      0x20\n      mstore\n      0x40\n      swap1\n      keccak256\n      sload\n      0xff\n      and\n        /* \"04_TokenDrop.sol\":4520:4543  !hasClaimed[msg.sender] */\n      iszero\n        /* \"04_TokenDrop.sol\":4512:4572  require(!hasClaimed[msg.sender], \"You have already claimed\") */\n      tag_57\n      jumpi\n      mload(0x40)\n      shl(0xe5, 0x461bcd)\n      dup2\n      mstore\n        /* \"#utility.yul\":2150:2152   */\n      0x20\n        /* \"04_TokenDrop.sol\":4512:4572  require(!hasClaimed[msg.sender], \"You have already claimed\") */\n      0x04\n      dup3\n      add\n        /* \"#utility.yul\":2132:2153   */\n      mstore\n        /* \"#utility.yul\":2189:2191   */\n      0x18\n        /* \"#utility.yul\":2169:2187   */\n      0x24\n      dup3\n      add\n        /* \"#utility.yul\":2162:2192   */\n      mstore\n        /* \"#utility.yul\":2228:2254   */\n      0x596f75206861766520616c726561647920636c61696d65640000000000000000\n        /* \"#utility.yul\":2208:2226   */\n      0x44\n      dup3\n      add\n        /* \"#utility.yul\":2201:2255   */\n      mstore\n        /* \"#utility.yul\":2272:2290   */\n      0x64\n      add\n        /* \"04_TokenDrop.sol\":4512:4572  require(!hasClaimed[msg.sender], \"You have already claimed\") */\n    tag_58:\n      mload(0x40)\n      dup1\n      swap2\n      sub\n      swap1\n      revert\n    tag_57:\n        /* \"04_TokenDrop.sol\":4596:4606  msg.sender */\n      caller\n        /* \"04_TokenDrop.sol\":4585:4607  hasClaimed[msg.sender] */\n      0x00\n      dup2\n      dup2\n      mstore\n        /* \"04_TokenDrop.sol\":4585:4595  hasClaimed */\n      0x02\n        /* \"04_TokenDrop.sol\":4585:4607  hasClaimed[msg.sender] */\n      0x20\n      mstore\n      0x40\n      swap1\n      dup2\n      swap1\n      keccak256\n        /* \"04_TokenDrop.sol\":4585:4614  hasClaimed[msg.sender] = true */\n      dup1\n      sload\n      not(0xff)\n      and\n        /* \"04_TokenDrop.sol\":4610:4614  true */\n      0x01\n        /* \"04_TokenDrop.sol\":4585:4614  hasClaimed[msg.sender] = true */\n      swap1\n      dup2\n      or\n      swap1\n      swap2\n      sstore\n        /* \"04_TokenDrop.sol\":4625:4637  stakingToken */\n      sload\n        /* \"04_TokenDrop.sol\":4625:4674  stakingToken.transfer(msg.sender, 1 * (10 ** 18)) */\n      swap1\n      mload\n      shl(0xe0, 0xa9059cbb)\n      dup2\n      mstore\n      0x04\n      dup2\n      add\n        /* \"#utility.yul\":1538:1612   */\n      swap3\n      swap1\n      swap3\n      mstore\n        /* \"04_TokenDrop.sol\":4659:4673  1 * (10 ** 18) */\n      0x0de0b6b3a7640000\n        /* \"#utility.yul\":1628:1646   */\n      0x24\n      dup4\n      add\n        /* \"#utility.yul\":1621:1655   */\n      mstore\n      sub(shl(0xa0, 0x01), 0x01)\n        /* \"04_TokenDrop.sol\":4625:4637  stakingToken */\n      and\n      swap1\n        /* \"04_TokenDrop.sol\":4625:4646  stakingToken.transfer */\n      0xa9059cbb\n      swap1\n        /* \"#utility.yul\":1511:1529   */\n      0x44\n      add\n        /* \"04_TokenDrop.sol\":4625:4674  stakingToken.transfer(msg.sender, 1 * (10 ** 18)) */\n      0x20\n      mload(0x40)\n      dup1\n      dup4\n      sub\n      dup2\n      0x00\n      dup8\n      gas\n      call\n      iszero\n      dup1\n      iszero\n      tag_63\n      jumpi\n      returndatasize\n      0x00\n      dup1\n      returndatacopy\n      revert(0x00, returndatasize)\n    tag_63:\n      pop\n      pop\n      pop\n      pop\n      mload(0x40)\n      returndatasize\n      not(0x1f)\n      0x1f\n      dup3\n      add\n      and\n      dup3\n      add\n      dup1\n      0x40\n      mstore\n      pop\n      dup2\n      add\n      swap1\n      tag_64\n      swap2\n      swap1\n      tag_55\n      jump\t// in\n    tag_64:\n      pop\n        /* \"04_TokenDrop.sol\":4732:4767  Claimed(msg.sender, 1 * (10 ** 18)) */\n      mload(0x40)\n        /* \"04_TokenDrop.sol\":4752:4766  1 * (10 ** 18) */\n      0x0de0b6b3a7640000\n        /* \"#utility.yul\":1328:1353   */\n      dup2\n      mstore\n        /* \"04_TokenDrop.sol\":4740:4750  msg.sender */\n      caller\n      swap1\n        /* \"04_TokenDrop.sol\":4732:4767  Claimed(msg.sender, 1 * (10 ** 18)) */\n      0xd8138f8a3f377c5259ca548e70e4c2de94f129f5a11036a15b69513cba2b426a\n      swap1\n        /* \"#utility.yul\":1316:1318   */\n      0x20\n        /* \"#utility.yul\":1301:1319   */\n      add\n        /* \"04_TokenDrop.sol\":4732:4767  Claimed(msg.sender, 1 * (10 ** 18)) */\n      mload(0x40)\n      dup1\n      swap2\n      sub\n      swap1\n      log2\n        /* \"04_TokenDrop.sol\":4470:4775  function claimToken() external {... */\n      jump\t// out\n        /* \"04_TokenDrop.sol\":2919:3022  function renounceOwnership() public virtual onlyOwner {... */\n    tag_21:\n        /* \"04_TokenDrop.sol\":2643:2656  _checkOwner() */\n      tag_68\n        /* \"04_TokenDrop.sol\":2643:2654  _checkOwner */\n      tag_48\n        /* \"04_TokenDrop.sol\":2643:2656  _checkOwner() */\n      jump\t// in\n    tag_68:\n        /* \"04_TokenDrop.sol\":2984:3014  _transferOwnership(address(0)) */\n      tag_70\n        /* \"04_TokenDrop.sol\":3011:3012  0 */\n      0x00\n        /* \"04_TokenDrop.sol\":2984:3002  _transferOwnership */\n      tag_71\n        /* \"04_TokenDrop.sol\":2984:3014  _transferOwnership(address(0)) */\n      jump\t// in\n    tag_70:\n        /* \"04_TokenDrop.sol\":2919:3022  function renounceOwnership() public virtual onlyOwner {... */\n      jump\t// out\n        /* \"04_TokenDrop.sol\":5252:5377  function getDepositedSupply() external view returns (uint256) {... */\n    tag_37:\n        /* \"04_TokenDrop.sol\":5332:5344  stakingToken */\n      sload(0x01)\n        /* \"04_TokenDrop.sol\":5332:5369  stakingToken.balanceOf(address(this)) */\n      mload(0x40)\n      shl(0xe0, 0x70a08231)\n      dup2\n      mstore\n        /* \"04_TokenDrop.sol\":5363:5367  this */\n      address\n        /* \"04_TokenDrop.sol\":5332:5369  stakingToken.balanceOf(address(this)) */\n      0x04\n      dup3\n      add\n        /* \"#utility.yul\":360:434   */\n      mstore\n        /* \"04_TokenDrop.sol\":5305:5312  uint256 */\n      0x00\n      swap2\n      sub(shl(0xa0, 0x01), 0x01)\n        /* \"04_TokenDrop.sol\":5332:5344  stakingToken */\n      and\n      swap1\n        /* \"04_TokenDrop.sol\":5332:5354  stakingToken.balanceOf */\n      0x70a08231\n      swap1\n        /* \"#utility.yul\":333:351   */\n      0x24\n      add\n        /* \"04_TokenDrop.sol\":5332:5369  stakingToken.balanceOf(address(this)) */\n      0x20\n      mload(0x40)\n      dup1\n      dup4\n      sub\n      dup2\n      dup7\n      gas\n      staticcall\n      iszero\n      dup1\n      iszero\n      tag_76\n      jumpi\n      returndatasize\n      0x00\n      dup1\n      returndatacopy\n      revert(0x00, returndatasize)\n    tag_76:\n      pop\n      pop\n      pop\n      pop\n      mload(0x40)\n      returndatasize\n      not(0x1f)\n      0x1f\n      dup3\n      add\n      and\n      dup3\n      add\n      dup1\n      0x40\n      mstore\n      pop\n      dup2\n      add\n      swap1\n      tag_77\n      swap2\n      swap1\n      tag_78\n      jump\t// in\n    tag_77:\n        /* \"04_TokenDrop.sol\":5325:5369  return stakingToken.balanceOf(address(this)) */\n      swap1\n      pop\n        /* \"04_TokenDrop.sol\":5252:5377  function getDepositedSupply() external view returns (uint256) {... */\n      swap1\n      jump\t// out\n        /* \"04_TokenDrop.sol\":4847:4986  function depositTokens(uint256 _amount) external onlyOwner {... */\n    tag_42:\n        /* \"04_TokenDrop.sol\":2643:2656  _checkOwner() */\n      tag_80\n        /* \"04_TokenDrop.sol\":2643:2654  _checkOwner */\n      tag_48\n        /* \"04_TokenDrop.sol\":2643:2656  _checkOwner() */\n      jump\t// in\n    tag_80:\n        /* \"04_TokenDrop.sol\":4917:4929  stakingToken */\n      sload(0x01)\n        /* \"04_TokenDrop.sol\":4917:4978  stakingToken.transferFrom(msg.sender, address(this), _amount) */\n      mload(0x40)\n      shl(0xe0, 0x23b872dd)\n      dup2\n      mstore\n        /* \"04_TokenDrop.sol\":4943:4953  msg.sender */\n      caller\n        /* \"04_TokenDrop.sol\":4917:4978  stakingToken.transferFrom(msg.sender, address(this), _amount) */\n      0x04\n      dup3\n      add\n        /* \"#utility.yul\":3289:3323   */\n      mstore\n        /* \"04_TokenDrop.sol\":4963:4967  this */\n      address\n        /* \"#utility.yul\":3339:3357   */\n      0x24\n      dup3\n      add\n        /* \"#utility.yul\":3332:3375   */\n      mstore\n        /* \"#utility.yul\":3391:3409   */\n      0x44\n      dup2\n      add\n        /* \"#utility.yul\":3384:3418   */\n      dup4\n      swap1\n      mstore\n      sub(shl(0xa0, 0x01), 0x01)\n        /* \"04_TokenDrop.sol\":4917:4929  stakingToken */\n      swap1\n      swap2\n      and\n      swap1\n        /* \"04_TokenDrop.sol\":4917:4942  stakingToken.transferFrom */\n      0x23b872dd\n      swap1\n        /* \"#utility.yul\":3201:3219   */\n      0x64\n      add\n        /* \"04_TokenDrop.sol\":4917:4978  stakingToken.transferFrom(msg.sender, address(this), _amount) */\n      tag_50\n        /* \"#utility.yul\":3026:3424   */\n      jump\n        /* \"04_TokenDrop.sol\":3030:3231  function transferOwnership(address newOwner) public virtual onlyOwner {... */\n    tag_45:\n        /* \"04_TokenDrop.sol\":2643:2656  _checkOwner() */\n      tag_88\n        /* \"04_TokenDrop.sol\":2643:2654  _checkOwner */\n      tag_48\n        /* \"04_TokenDrop.sol\":2643:2656  _checkOwner() */\n      jump\t// in\n    tag_88:\n      sub(shl(0xa0, 0x01), 0x01)\n        /* \"04_TokenDrop.sol\":3119:3141  newOwner != address(0) */\n      dup2\n      and\n        /* \"04_TokenDrop.sol\":3111:3184  require(newOwner != address(0), \"Ownable: new owner is the zero address\") */\n      tag_90\n      jumpi\n      mload(0x40)\n      shl(0xe5, 0x461bcd)\n      dup2\n      mstore\n        /* \"#utility.yul\":3631:3633   */\n      0x20\n        /* \"04_TokenDrop.sol\":3111:3184  require(newOwner != address(0), \"Ownable: new owner is the zero address\") */\n      0x04\n      dup3\n      add\n        /* \"#utility.yul\":3613:3634   */\n      mstore\n        /* \"#utility.yul\":3670:3672   */\n      0x26\n        /* \"#utility.yul\":3650:3668   */\n      0x24\n      dup3\n      add\n        /* \"#utility.yul\":3643:3673   */\n      mstore\n        /* \"#utility.yul\":3709:3743   */\n      0x4f776e61626c653a206e6577206f776e657220697320746865207a65726f2061\n        /* \"#utility.yul\":3689:3707   */\n      0x44\n      dup3\n      add\n        /* \"#utility.yul\":3682:3744   */\n      mstore\n        /* \"#utility.yul\":3780:3788   */\n      0x6464726573730000000000000000000000000000000000000000000000000000\n        /* \"#utility.yul\":3760:3778   */\n      0x64\n      dup3\n      add\n        /* \"#utility.yul\":3753:3789   */\n      mstore\n        /* \"#utility.yul\":3806:3825   */\n      0x84\n      add\n        /* \"04_TokenDrop.sol\":3111:3184  require(newOwner != address(0), \"Ownable: new owner is the zero address\") */\n      tag_58\n        /* \"#utility.yul\":3429:3831   */\n      jump\n        /* \"04_TokenDrop.sol\":3111:3184  require(newOwner != address(0), \"Ownable: new owner is the zero address\") */\n    tag_90:\n        /* \"04_TokenDrop.sol\":3195:3223  _transferOwnership(newOwner) */\n      tag_93\n        /* \"04_TokenDrop.sol\":3214:3222  newOwner */\n      dup2\n        /* \"04_TokenDrop.sol\":3195:3213  _transferOwnership */\n      tag_71\n        /* \"04_TokenDrop.sol\":3195:3223  _transferOwnership(newOwner) */\n      jump\t// in\n    tag_93:\n        /* \"04_TokenDrop.sol\":3030:3231  function transferOwnership(address newOwner) public virtual onlyOwner {... */\n      pop\n      jump\t// out\n        /* \"04_TokenDrop.sol\":2779:2911  function _checkOwner() internal view virtual {... */\n    tag_48:\n        /* \"04_TokenDrop.sol\":2730:2737  address */\n      0x00\n        /* \"04_TokenDrop.sol\":2757:2763  _owner */\n      sload\n      sub(shl(0xa0, 0x01), 0x01)\n      and\n        /* \"04_TokenDrop.sol\":2126:2136  msg.sender */\n      caller\n        /* \"04_TokenDrop.sol\":2843:2866  owner() == _msgSender() */\n      eq\n        /* \"04_TokenDrop.sol\":2835:2903  require(owner() == _msgSender(), \"Ownable: caller is not the owner\") */\n      tag_70\n      jumpi\n      mload(0x40)\n      shl(0xe5, 0x461bcd)\n      dup2\n      mstore\n        /* \"#utility.yul\":4038:4040   */\n      0x20\n        /* \"04_TokenDrop.sol\":2835:2903  require(owner() == _msgSender(), \"Ownable: caller is not the owner\") */\n      0x04\n      dup3\n      add\n        /* \"#utility.yul\":4020:4041   */\n      dup2\n      swap1\n      mstore\n        /* \"#utility.yul\":4057:4075   */\n      0x24\n      dup3\n      add\n        /* \"#utility.yul\":4050:4080   */\n      mstore\n        /* \"#utility.yul\":4116:4150   */\n      0x4f776e61626c653a2063616c6c6572206973206e6f7420746865206f776e6572\n        /* \"#utility.yul\":4096:4114   */\n      0x44\n      dup3\n      add\n        /* \"#utility.yul\":4089:4151   */\n      mstore\n        /* \"#utility.yul\":4168:4186   */\n      0x64\n      add\n        /* \"04_TokenDrop.sol\":2835:2903  require(owner() == _msgSender(), \"Ownable: caller is not the owner\") */\n      tag_58\n        /* \"#utility.yul\":3836:4192   */\n      jump\n        /* \"04_TokenDrop.sol\":3239:3430  function _transferOwnership(address newOwner) internal virtual {... */\n    tag_71:\n        /* \"04_TokenDrop.sol\":3313:3329  address oldOwner */\n      0x00\n        /* \"04_TokenDrop.sol\":3332:3338  _owner */\n      dup1\n      sload\n      sub(shl(0xa0, 0x01), 0x01)\n        /* \"04_TokenDrop.sol\":3349:3366  _owner = newOwner */\n      dup4\n      dup2\n      and\n      0xffffffffffffffffffffffff0000000000000000000000000000000000000000\n      dup4\n      and\n      dup2\n      or\n      dup5\n      sstore\n        /* \"04_TokenDrop.sol\":3382:3422  OwnershipTransferred(oldOwner, newOwner) */\n      mload(0x40)\n        /* \"04_TokenDrop.sol\":3332:3338  _owner */\n      swap2\n      swap1\n      swap3\n      and\n      swap3\n      dup4\n      swap2\n        /* \"04_TokenDrop.sol\":3382:3422  OwnershipTransferred(oldOwner, newOwner) */\n      0x8be0079c531659141344cd1fd0a4f28419497f9722a3daafe3b4186f6b6457e0\n      swap2\n        /* \"04_TokenDrop.sol\":3313:3329  address oldOwner */\n      swap1\n        /* \"04_TokenDrop.sol\":3382:3422  OwnershipTransferred(oldOwner, newOwner) */\n      log3\n        /* \"04_TokenDrop.sol\":3302:3430  {... */\n      pop\n        /* \"04_TokenDrop.sol\":3239:3430  function _transferOwnership(address newOwner) internal virtual {... */\n      pop\n      jump\t// out\n        /* \"#utility.yul\":14:194   */\n    tag_16:\n        /* \"#utility.yul\":73:79   */\n      0x00\n        /* \"#utility.yul\":126:128   */\n      0x20\n        /* \"#utility.yul\":114:123   */\n      dup3\n        /* \"#utility.yul\":105:112   */\n      dup5\n        /* \"#utility.yul\":101:124   */\n      sub\n        /* \"#utility.yul\":97:129   */\n      slt\n        /* \"#utility.yul\":94:146   */\n      iszero\n      tag_105\n      jumpi\n        /* \"#utility.yul\":142:143   */\n      0x00\n        /* \"#utility.yul\":139:140   */\n      dup1\n        /* \"#utility.yul\":132:144   */\n      revert\n        /* \"#utility.yul\":94:146   */\n    tag_105:\n      pop\n        /* \"#utility.yul\":165:188   */\n      calldataload\n      swap2\n        /* \"#utility.yul\":14:194   */\n      swap1\n      pop\n      jump\t// out\n        /* \"#utility.yul\":445:754   */\n    tag_28:\n        /* \"#utility.yul\":504:510   */\n      0x00\n        /* \"#utility.yul\":557:559   */\n      0x20\n        /* \"#utility.yul\":545:554   */\n      dup3\n        /* \"#utility.yul\":536:543   */\n      dup5\n        /* \"#utility.yul\":532:555   */\n      sub\n        /* \"#utility.yul\":528:560   */\n      slt\n        /* \"#utility.yul\":525:577   */\n      iszero\n      tag_108\n      jumpi\n        /* \"#utility.yul\":573:574   */\n      0x00\n        /* \"#utility.yul\":570:571   */\n      dup1\n        /* \"#utility.yul\":563:575   */\n      revert\n        /* \"#utility.yul\":525:577   */\n    tag_108:\n        /* \"#utility.yul\":612:621   */\n      dup2\n        /* \"#utility.yul\":599:622   */\n      calldataload\n      sub(shl(0xa0, 0x01), 0x01)\n        /* \"#utility.yul\":655:660   */\n      dup2\n        /* \"#utility.yul\":651:705   */\n      and\n        /* \"#utility.yul\":644:649   */\n      dup2\n        /* \"#utility.yul\":641:706   */\n      eq\n        /* \"#utility.yul\":631:724   */\n      tag_109\n      jumpi\n        /* \"#utility.yul\":720:721   */\n      0x00\n        /* \"#utility.yul\":717:718   */\n      dup1\n        /* \"#utility.yul\":710:722   */\n      revert\n        /* \"#utility.yul\":631:724   */\n    tag_109:\n        /* \"#utility.yul\":743:748   */\n      swap4\n        /* \"#utility.yul\":445:754   */\n      swap3\n      pop\n      pop\n      pop\n      jump\t// out\n        /* \"#utility.yul\":1666:1943   */\n    tag_55:\n        /* \"#utility.yul\":1733:1739   */\n      0x00\n        /* \"#utility.yul\":1786:1788   */\n      0x20\n        /* \"#utility.yul\":1774:1783   */\n      dup3\n        /* \"#utility.yul\":1765:1772   */\n      dup5\n        /* \"#utility.yul\":1761:1784   */\n      sub\n        /* \"#utility.yul\":1757:1789   */\n      slt\n        /* \"#utility.yul\":1754:1806   */\n      iszero\n      tag_115\n      jumpi\n        /* \"#utility.yul\":1802:1803   */\n      0x00\n        /* \"#utility.yul\":1799:1800   */\n      dup1\n        /* \"#utility.yul\":1792:1804   */\n      revert\n        /* \"#utility.yul\":1754:1806   */\n    tag_115:\n        /* \"#utility.yul\":1834:1843   */\n      dup2\n        /* \"#utility.yul\":1828:1844   */\n      mload\n        /* \"#utility.yul\":1887:1892   */\n      dup1\n        /* \"#utility.yul\":1880:1893   */\n      iszero\n        /* \"#utility.yul\":1873:1894   */\n      iszero\n        /* \"#utility.yul\":1866:1871   */\n      dup2\n        /* \"#utility.yul\":1863:1895   */\n      eq\n        /* \"#utility.yul\":1853:1913   */\n      tag_109\n      jumpi\n        /* \"#utility.yul\":1909:1910   */\n      0x00\n        /* \"#utility.yul\":1906:1907   */\n      dup1\n        /* \"#utility.yul\":1899:1911   */\n      revert\n        /* \"#utility.yul\":2837:3021   */\n    tag_78:\n        /* \"#utility.yul\":2907:2913   */\n      0x00\n        /* \"#utility.yul\":2960:2962   */\n      0x20\n        /* \"#utility.yul\":2948:2957   */\n      dup3\n        /* \"#utility.yul\":2939:2946   */\n      dup5\n        /* \"#utility.yul\":2935:2958   */\n      sub\n        /* \"#utility.yul\":2931:2963   */\n      slt\n        /* \"#utility.yul\":2928:2980   */\n      iszero\n      tag_121\n      jumpi\n        /* \"#utility.yul\":2976:2977   */\n      0x00\n        /* \"#utility.yul\":2973:2974   */\n      dup1\n        /* \"#utility.yul\":2966:2978   */\n      revert\n        /* \"#utility.yul\":2928:2980   */\n    tag_121:\n      pop\n        /* \"#utility.yul\":2999:3015   */\n      mload\n      swap2\n        /* \"#utility.yul\":2837:3021   */\n      swap1\n      pop\n      jump\t// out\n\n    auxdata: 0xa26469706673582212200a146972553506cc46b7969b57db702d405833d953b54241826d32b8a1a8a72c64736f6c63430008190033\n}\n",
    "bytecode": {
      "linkReferences": {},
      "object": "6080604052348015600e575f80fd5b506040516106d13803806106d1833981016040819052602b9160a5565b6032336056565b600180546001600160a01b0319166001600160a01b039290921691909117905560d0565b5f80546001600160a01b038381166001600160a01b0319831681178455604051919092169283917f8be0079c531659141344cd1fd0a4f28419497f9722a3daafe3b4186f6b6457e09190a35050565b5f6020828403121560b4575f80fd5b81516001600160a01b038116811460c9575f80fd5b9392505050565b6105f4806100dd5f395ff3fe608060405234801561000f575f80fd5b506004361061009f575f3560e01c806373b2e80e11610072578063d46dabbb11610058578063d46dabbb1461013a578063dd49756e14610150578063f2fde38b14610163575f80fd5b806373b2e80e146100f85780638da5cb5b1461012a575f80fd5b8063315a095d146100a35780634451d89f146100b8578063715018a6146100c057806372f702f3146100c8575b5f80fd5b6100b66100b1366004610544565b610176565b005b6100b66101f5565b6100b661032d565b6001546100db906001600160a01b031681565b6040516001600160a01b0390911681526020015b60405180910390f35b61011a61010636600461055b565b60026020525f908152604090205460ff1681565b60405190151581526020016100ef565b5f546001600160a01b03166100db565b610142610340565b6040519081526020016100ef565b6100b661015e366004610544565b6103af565b6100b661017136600461055b565b6103f4565b61017e610484565b60015460405163a9059cbb60e01b8152336004820152602481018390526001600160a01b039091169063a9059cbb906044015b6020604051808303815f875af11580156101cd573d5f803e3d5ffd5b505050506040513d601f19601f820116820180604052508101906101f19190610588565b5050565b335f9081526002602052604090205460ff16156102595760405162461bcd60e51b815260206004820152601860248201527f596f75206861766520616c726561647920636c61696d6564000000000000000060448201526064015b60405180910390fd5b335f8181526002602052604090819020805460ff1916600190811790915554905163a9059cbb60e01b81526004810192909252670de0b6b3a764000060248301526001600160a01b03169063a9059cbb906044016020604051808303815f875af11580156102c9573d5f803e3d5ffd5b505050506040513d601f19601f820116820180604052508101906102ed9190610588565b50604051670de0b6b3a7640000815233907fd8138f8a3f377c5259ca548e70e4c2de94f129f5a11036a15b69513cba2b426a9060200160405180910390a2565b610335610484565b61033e5f6104dd565b565b6001546040516370a0823160e01b81523060048201525f916001600160a01b0316906370a0823190602401602060405180830381865afa158015610386573d5f803e3d5ffd5b505050506040513d601f19601f820116820180604052508101906103aa91906105a7565b905090565b6103b7610484565b6001546040516323b872dd60e01b8152336004820152306024820152604481018390526001600160a01b03909116906323b872dd906064016101b1565b6103fc610484565b6001600160a01b0381166104785760405162461bcd60e51b815260206004820152602660248201527f4f776e61626c653a206e6577206f776e657220697320746865207a65726f206160448201527f64647265737300000000000000000000000000000000000000000000000000006064820152608401610250565b610481816104dd565b50565b5f546001600160a01b0316331461033e5760405162461bcd60e51b815260206004820181905260248201527f4f776e61626c653a2063616c6c6572206973206e6f7420746865206f776e65726044820152606401610250565b5f80546001600160a01b038381167fffffffffffffffffffffffff0000000000000000000000000000000000000000831681178455604051919092169283917f8be0079c531659141344cd1fd0a4f28419497f9722a3daafe3b4186f6b6457e09190a35050565b5f60208284031215610554575f80fd5b5035919050565b5f6020828403121561056b575f80fd5b81356001600160a01b0381168114610581575f80fd5b9392505050565b5f60208284031215610598575f80fd5b81518015158114610581575f80fd5b5f602082840312156105b7575f80fd5b505191905056fea26469706673582212200a146972553506cc46b7969b57db702d405833d953b54241826d32b8a1a8a72c64736f6c63430008190033",
      "opcodes": "PUSH1 0x80 PUSH1 0x40 MSTORE CALLVALUE DUP1 ISZERO PUSH1 0xE JUMPI PUSH0 DUP1 REVERT JUMPDEST POP PUSH1 0x40 MLOAD PUSH2 0x6D1 CODESIZE SUB DUP1 PUSH2 0x6D1 DUP4 CODECOPY DUP2 ADD PUSH1 0x40 DUP2 SWAP1 MSTORE PUSH1 0x2B SWAP2 PUSH1 0xA5 JUMP JUMPDEST PUSH1 0x32 CALLER PUSH1 0x56 JUMP JUMPDEST PUSH1 0x1 DUP1 SLOAD PUSH1 0x1 PUSH1 0x1 PUSH1 0xA0 SHL SUB NOT AND PUSH1 0x1 PUSH1 0x1 PUSH1 0xA0 SHL SUB SWAP3 SWAP1 SWAP3 AND SWAP2 SWAP1 SWAP2 OR SWAP1 SSTORE PUSH1 0xD0 JUMP JUMPDEST PUSH0 DUP1 SLOAD PUSH1 0x1 PUSH1 0x1 PUSH1 0xA0 SHL SUB DUP4 DUP2 AND PUSH1 0x1 PUSH1 0x1 PUSH1 0xA0 SHL SUB NOT DUP4 AND DUP2 OR DUP5 SSTORE PUSH1 0x40 MLOAD SWAP2 SWAP1 SWAP3 AND SWAP3 DUP4 SWAP2 PUSH32 0x8BE0079C531659141344CD1FD0A4F28419497F9722A3DAAFE3B4186F6B6457E0 SWAP2 SWAP1 LOG3 POP POP JUMP JUMPDEST PUSH0 PUSH1 0x20 DUP3 DUP5 SUB SLT ISZERO PUSH1 0xB4 JUMPI PUSH0 DUP1 REVERT JUMPDEST DUP2 MLOAD PUSH1 0x1 PUSH1 0x1 PUSH1 0xA0 SHL SUB DUP2 AND DUP2 EQ PUSH1 0xC9 JUMPI PUSH0 DUP1 REVERT JUMPDEST SWAP4 SWAP3 POP POP POP JUMP JUMPDEST PUSH2 0x5F4 DUP1 PUSH2 0xDD PUSH0 CODECOPY PUSH0 RETURN INVALID PUSH1 0x80 PUSH1 0x40 MSTORE CALLVALUE DUP1 ISZERO PUSH2 0xF JUMPI PUSH0 DUP1 REVERT JUMPDEST POP PUSH1 0x4 CALLDATASIZE LT PUSH2 0x9F JUMPI PUSH0 CALLDATALOAD PUSH1 0xE0 SHR DUP1 PUSH4 0x73B2E80E GT PUSH2 0x72 JUMPI DUP1 PUSH4 0xD46DABBB GT PUSH2 0x58 JUMPI DUP1 PUSH4 0xD46DABBB EQ PUSH2 0x13A JUMPI DUP1 PUSH4 0xDD49756E EQ PUSH2 0x150 JUMPI DUP1 PUSH4 0xF2FDE38B EQ PUSH2 0x163 JUMPI PUSH0 DUP1 REVERT JUMPDEST DUP1 PUSH4 0x73B2E80E EQ PUSH2 0xF8 JUMPI DUP1 PUSH4 0x8DA5CB5B EQ PUSH2 0x12A JUMPI PUSH0 DUP1 REVERT JUMPDEST DUP1 PUSH4 0x315A095D EQ PUSH2 0xA3 JUMPI DUP1 PUSH4 0x4451D89F EQ PUSH2 0xB8 JUMPI DUP1 PUSH4 0x715018A6 EQ PUSH2 0xC0 JUMPI DUP1 PUSH4 0x72F702F3 EQ PUSH2 0xC8 JUMPI JUMPDEST PUSH0 DUP1 REVERT JUMPDEST PUSH2 0xB6 PUSH2 0xB1 CALLDATASIZE PUSH1 0x4 PUSH2 0x544 JUMP JUMPDEST PUSH2 0x176 JUMP JUMPDEST STOP JUMPDEST PUSH2 0xB6 PUSH2 0x1F5 JUMP JUMPDEST PUSH2 0xB6 PUSH2 0x32D JUMP JUMPDEST PUSH1 0x1 SLOAD PUSH2 0xDB SWAP1 PUSH1 0x1 PUSH1 0x1 PUSH1 0xA0 SHL SUB AND DUP2 JUMP JUMPDEST PUSH1 0x40 MLOAD PUSH1 0x1 PUSH1 0x1 PUSH1 0xA0 SHL SUB SWAP1 SWAP2 AND DUP2 MSTORE PUSH1 0x20 ADD JUMPDEST PUSH1 0x40 MLOAD DUP1 SWAP2 SUB SWAP1 RETURN JUMPDEST PUSH2 0x11A PUSH2 0x106 CALLDATASIZE PUSH1 0x4 PUSH2 0x55B JUMP JUMPDEST PUSH1 0x2 PUSH1 0x20 MSTORE PUSH0 SWAP1 DUP2 MSTORE PUSH1 0x40 SWAP1 KECCAK256 SLOAD PUSH1 0xFF AND DUP2 JUMP JUMPDEST PUSH1 0x40 MLOAD SWAP1 ISZERO ISZERO DUP2 MSTORE PUSH1 0x20 ADD PUSH2 0xEF JUMP JUMPDEST PUSH0 SLOAD PUSH1 0x1 PUSH1 0x1 PUSH1 0xA0 SHL SUB AND PUSH2 0xDB JUMP JUMPDEST PUSH2 0x142 PUSH2 0x340 JUMP JUMPDEST PUSH1 0x40 MLOAD SWAP1 DUP2 MSTORE PUSH1 0x20 ADD PUSH2 0xEF JUMP JUMPDEST PUSH2 0xB6 PUSH2 0x15E CALLDATASIZE PUSH1 0x4 PUSH2 0x544 JUMP JUMPDEST PUSH2 0x3AF JUMP JUMPDEST PUSH2 0xB6 PUSH2 0x171 CALLDATASIZE PUSH1 0x4 PUSH2 0x55B JUMP JUMPDEST PUSH2 0x3F4 JUMP JUMPDEST PUSH2 0x17E PUSH2 0x484 JUMP JUMPDEST PUSH1 0x1 SLOAD PUSH1 0x40 MLOAD PUSH4 0xA9059CBB PUSH1 0xE0 SHL DUP2 MSTORE CALLER PUSH1 0x4 DUP3 ADD MSTORE PUSH1 0x24 DUP2 ADD DUP4 SWAP1 MSTORE PUSH1 0x1 PUSH1 0x1 PUSH1 0xA0 SHL SUB SWAP1 SWAP2 AND SWAP1 PUSH4 0xA9059CBB SWAP1 PUSH1 0x44 ADD JUMPDEST PUSH1 0x20 PUSH1 0x40 MLOAD DUP1 DUP4 SUB DUP2 PUSH0 DUP8 GAS CALL ISZERO DUP1 ISZERO PUSH2 0x1CD JUMPI RETURNDATASIZE PUSH0 DUP1 RETURNDATACOPY RETURNDATASIZE PUSH0 REVERT JUMPDEST POP POP POP POP PUSH1 0x40 MLOAD RETURNDATASIZE PUSH1 0x1F NOT PUSH1 0x1F DUP3 ADD AND DUP3 ADD DUP1 PUSH1 0x40 MSTORE POP DUP2 ADD SWAP1 PUSH2 0x1F1 SWAP2 SWAP1 PUSH2 0x588 JUMP JUMPDEST POP POP JUMP JUMPDEST CALLER PUSH0 SWAP1 DUP2 MSTORE PUSH1 0x2 PUSH1 0x20 MSTORE PUSH1 0x40 SWAP1 KECCAK256 SLOAD PUSH1 0xFF AND ISZERO PUSH2 0x259 JUMPI PUSH1 0x40 MLOAD PUSH3 0x461BCD PUSH1 0xE5 SHL DUP2 MSTORE PUSH1 0x20 PUSH1 0x4 DUP3 ADD MSTORE PUSH1 0x18 PUSH1 0x24 DUP3 ADD MSTORE PUSH32 0x596F75206861766520616C726561647920636C61696D65640000000000000000 PUSH1 0x44 DUP3 ADD MSTORE PUSH1 0x64 ADD JUMPDEST PUSH1 0x40 MLOAD DUP1 SWAP2 SUB SWAP1 REVERT JUMPDEST CALLER PUSH0 DUP2 DUP2 MSTORE PUSH1 0x2 PUSH1 0x20 MSTORE PUSH1 0x40 SWAP1 DUP2 SWAP1 KECCAK256 DUP1 SLOAD PUSH1 0xFF NOT AND PUSH1 0x1 SWAP1 DUP2 OR SWAP1 SWAP2 SSTORE SLOAD SWAP1 MLOAD PUSH4 0xA9059CBB PUSH1 0xE0 SHL DUP2 MSTORE PUSH1 0x4 DUP2 ADD SWAP3 SWAP1 SWAP3 MSTORE PUSH8 0xDE0B6B3A7640000 PUSH1 0x24 DUP4 ADD MSTORE PUSH1 0x1 PUSH1 0x1 PUSH1 0xA0 SHL SUB AND SWAP1 PUSH4 0xA9059CBB SWAP1 PUSH1 0x44 ADD PUSH1 0x20 PUSH1 0x40 MLOAD DUP1 DUP4 SUB DUP2 PUSH0 DUP8 GAS CALL ISZERO DUP1 ISZERO PUSH2 0x2C9 JUMPI RETURNDATASIZE PUSH0 DUP1 RETURNDATACOPY RETURNDATASIZE PUSH0 REVERT JUMPDEST POP POP POP POP PUSH1 0x40 MLOAD RETURNDATASIZE PUSH1 0x1F NOT PUSH1 0x1F DUP3 ADD AND DUP3 ADD DUP1 PUSH1 0x40 MSTORE POP DUP2 ADD SWAP1 PUSH2 0x2ED SWAP2 SWAP1 PUSH2 0x588 JUMP JUMPDEST POP PUSH1 0x40 MLOAD PUSH8 0xDE0B6B3A7640000 DUP2 MSTORE CALLER SWAP1 PUSH32 0xD8138F8A3F377C5259CA548E70E4C2DE94F129F5A11036A15B69513CBA2B426A SWAP1 PUSH1 0x20 ADD PUSH1 0x40 MLOAD DUP1 SWAP2 SUB SWAP1 LOG2 JUMP JUMPDEST PUSH2 0x335 PUSH2 0x484 JUMP JUMPDEST PUSH2 0x33E PUSH0 PUSH2 0x4DD JUMP JUMPDEST JUMP JUMPDEST PUSH1 0x1 SLOAD PUSH1 0x40 MLOAD PUSH4 0x70A08231 PUSH1 0xE0 SHL DUP2 MSTORE ADDRESS PUSH1 0x4 DUP3 ADD MSTORE PUSH0 SWAP2 PUSH1 0x1 PUSH1 0x1 PUSH1 0xA0 SHL SUB AND SWAP1 PUSH4 0x70A08231 SWAP1 PUSH1 0x24 ADD PUSH1 0x20 PUSH1 0x40 MLOAD DUP1 DUP4 SUB DUP2 DUP7 GAS STATICCALL ISZERO DUP1 ISZERO PUSH2 0x386 JUMPI RETURNDATASIZE PUSH0 DUP1 RETURNDATACOPY RETURNDATASIZE PUSH0 REVERT JUMPDEST POP POP POP POP PUSH1 0x40 MLOAD RETURNDATASIZE PUSH1 0x1F NOT PUSH1 0x1F DUP3 ADD AND DUP3 ADD DUP1 PUSH1 0x40 MSTORE POP DUP2 ADD SWAP1 PUSH2 0x3AA SWAP2 SWAP1 PUSH2 0x5A7 JUMP JUMPDEST SWAP1 POP SWAP1 JUMP JUMPDEST PUSH2 0x3B7 PUSH2 0x484 JUMP JUMPDEST PUSH1 0x1 SLOAD PUSH1 0x40 MLOAD PUSH4 0x23B872DD PUSH1 0xE0 SHL DUP2 MSTORE CALLER PUSH1 0x4 DUP3 ADD MSTORE ADDRESS PUSH1 0x24 DUP3 ADD MSTORE PUSH1 0x44 DUP2 ADD DUP4 SWAP1 MSTORE PUSH1 0x1 PUSH1 0x1 PUSH1 0xA0 SHL SUB SWAP1 SWAP2 AND SWAP1 PUSH4 0x23B872DD SWAP1 PUSH1 0x64 ADD PUSH2 0x1B1 JUMP JUMPDEST PUSH2 0x3FC PUSH2 0x484 JUMP JUMPDEST PUSH1 0x1 PUSH1 0x1 PUSH1 0xA0 SHL SUB DUP2 AND PUSH2 0x478 JUMPI PUSH1 0x40 MLOAD PUSH3 0x461BCD PUSH1 0xE5 SHL DUP2 MSTORE PUSH1 0x20 PUSH1 0x4 DUP3 ADD MSTORE PUSH1 0x26 PUSH1 0x24 DUP3 ADD MSTORE PUSH32 0x4F776E61626C653A206E6577206F776E657220697320746865207A65726F2061 PUSH1 0x44 DUP3 ADD MSTORE PUSH32 0x6464726573730000000000000000000000000000000000000000000000000000 PUSH1 0x64 DUP3 ADD MSTORE PUSH1 0x84 ADD PUSH2 0x250 JUMP JUMPDEST PUSH2 0x481 DUP2 PUSH2 0x4DD JUMP JUMPDEST POP JUMP JUMPDEST PUSH0 SLOAD PUSH1 0x1 PUSH1 0x1 PUSH1 0xA0 SHL SUB AND CALLER EQ PUSH2 0x33E JUMPI PUSH1 0x40 MLOAD PUSH3 0x461BCD PUSH1 0xE5 SHL DUP2 MSTORE PUSH1 0x20 PUSH1 0x4 DUP3 ADD DUP2 SWAP1 MSTORE PUSH1 0x24 DUP3 ADD MSTORE PUSH32 0x4F776E61626C653A2063616C6C6572206973206E6F7420746865206F776E6572 PUSH1 0x44 DUP3 ADD MSTORE PUSH1 0x64 ADD PUSH2 0x250 JUMP JUMPDEST PUSH0 DUP1 SLOAD PUSH1 0x1 PUSH1 0x1 PUSH1 0xA0 SHL SUB DUP4 DUP2 AND PUSH32 0xFFFFFFFFFFFFFFFFFFFFFFFF0000000000000000000000000000000000000000 DUP4 AND DUP2 OR DUP5 SSTORE PUSH1 0x40 MLOAD SWAP2 SWAP1 SWAP3 AND SWAP3 DUP4 SWAP2 PUSH32 0x8BE0079C531659141344CD1FD0A4F28419497F9722A3DAAFE3B4186F6B6457E0 SWAP2 SWAP1 LOG3 POP POP JUMP JUMPDEST PUSH0 PUSH1 0x20 DUP3 DUP5 SUB SLT ISZERO PUSH2 0x554 JUMPI PUSH0 DUP1 REVERT JUMPDEST POP CALLDATALOAD SWAP2 SWAP1 POP JUMP JUMPDEST PUSH0 PUSH1 0x20 DUP3 DUP5 SUB SLT ISZERO PUSH2 0x56B JUMPI PUSH0 DUP1 REVERT JUMPDEST DUP2 CALLDATALOAD PUSH1 0x1 PUSH1 0x1 PUSH1 0xA0 SHL SUB DUP2 AND DUP2 EQ PUSH2 0x581 JUMPI PUSH0 DUP1 REVERT JUMPDEST SWAP4 SWAP3 POP POP POP JUMP JUMPDEST PUSH0 PUSH1 0x20 DUP3 DUP5 SUB SLT ISZERO PUSH2 0x598 JUMPI PUSH0 DUP1 REVERT JUMPDEST DUP2 MLOAD DUP1 ISZERO ISZERO DUP2 EQ PUSH2 0x581 JUMPI PUSH0 DUP1 REVERT JUMPDEST PUSH0 PUSH1 0x20 DUP3 DUP5 SUB SLT ISZERO PUSH2 0x5B7 JUMPI PUSH0 DUP1 REVERT JUMPDEST POP MLOAD SWAP2 SWAP1 POP JUMP INVALID LOG2 PUSH5 0x6970667358 0x22 SLT KECCAK256 EXP EQ PUSH10 0x72553506CC46B7969B57 0xDB PUSH17 0x2D405833D953B54241826D32B8A1A8A72C PUSH5 0x736F6C6343 STOP ADDMOD NOT STOP CALLER "
    },
    "gasEstimates": {
      "creation": {
        "codeDepositCost": "304800",
        "executionCost": "infinite",
        "totalCost": "infinite"
      },
      "external": {
        "claimToken()": "infinite",
        "depositTokens(uint256)": "infinite",
        "getDepositedSupply()": "infinite",
        "hasClaimed(address)": "2516",
        "owner()": "2363",
        "renounceOwnership()": "infinite",
        "stakingToken()": "2392",
        "transferOwnership(address)": "28345",
        "withdrawTokens(uint256)": "infinite"
      }
    },
    "methodIdentifiers": {
      "claimToken()": "4451d89f",
      "depositTokens(uint256)": "dd49756e",
      "getDepositedSupply()": "d46dabbb",
      "hasClaimed(address)": "73b2e80e",
      "owner()": "8da5cb5b",
      "renounceOwnership()": "715018a6",
      "stakingToken()": "72f702f3",
      "transferOwnership(address)": "f2fde38b",
      "withdrawTokens(uint256)": "315a095d"
    }
  },
  "storageLayout": {
    "storage": [
      {
        "astId": 932,
        "contract": "04_TokenDrop.sol:TokenDrop",
        "label": "_owner",
        "offset": 0,
        "slot": "0",
        "type": "t_address"
      },
      {
        "astId": 1102,
        "contract": "04_TokenDrop.sol:TokenDrop",
        "label": "stakingToken",
        "offset": 0,
        "slot": "1",
        "type": "t_contract(IERC20)1097"
      },
      {
        "astId": 1106,
        "contract": "04_TokenDrop.sol:TokenDrop",
        "label": "hasClaimed",
        "offset": 0,
        "slot": "2",
        "type": "t_mapping(t_address,t_bool)"
      }
    ],
    "types": {
      "t_address": {
        "encoding": "inplace",
        "label": "address",
        "numberOfBytes": "20"
      },
      "t_bool": {
        "encoding": "inplace",
        "label": "bool",
        "numberOfBytes": "1"
      },
      "t_contract(IERC20)1097": {
        "encoding": "inplace",
        "label": "contract IERC20",
        "numberOfBytes": "20"
      },
      "t_mapping(t_address,t_bool)": {
        "encoding": "mapping",
        "key": "t_address",
        "label": "mapping(address => bool)",
        "numberOfBytes": "32",
        "value": "t_bool"
      }
    }
  },
  "userdoc": {
    "kind": "user",
    "methods": {},
    "version": 1
  }
}