{
  "abi": [
    {
      "inputs": [
        {
          "internalType": "address",
          "name": "_rewardToken",
          "type": "address"
        },
        {
          "internalType": "address",
          "name": "_stakingToken",
          "type": "address"
        },
        {
          "internalType": "uint80",
          "name": "_timeUnit",
          "type": "uint80"
        },
        {
          "internalType": "uint256",
          "name": "_rewardRatioNumerator",
          "type": "uint256"
        },
        {
          "internalType": "uint256",
          "name": "_rewardRatioDenominator",
          "type": "uint256"
        }
      ],
      "stateMutability": "nonpayable",
      "type": "constructor"
    },
    {
      "anonymous": false,
      "inputs": [
        {
          "indexed": true,
          "internalType": "address",
          "name": "user",
          "type": "address"
        },
        {
          "indexed": false,
          "internalType": "uint256",
          "name": "amount",
          "type": "uint256"
        }
      ],
      "name": "RewardClaimed",
      "type": "event"
    },
    {
      "anonymous": false,
      "inputs": [
        {
          "indexed": false,
          "internalType": "uint256",
          "name": "amount",
          "type": "uint256"
        }
      ],
      "name": "RewardDeposited",
      "type": "event"
    },
    {
      "anonymous": false,
      "inputs": [
        {
          "indexed": false,
          "internalType": "uint256",
          "name": "amount",
          "type": "uint256"
        }
      ],
      "name": "RewardWithdrawn",
      "type": "event"
    },
    {
      "anonymous": false,
      "inputs": [
        {
          "indexed": true,
          "internalType": "address",
          "name": "user",
          "type": "address"
        },
        {
          "indexed": false,
          "internalType": "uint256",
          "name": "amount",
          "type": "uint256"
        }
      ],
      "name": "Staked",
      "type": "event"
    },
    {
      "anonymous": false,
      "inputs": [
        {
          "indexed": true,
          "internalType": "address",
          "name": "user",
          "type": "address"
        },
        {
          "indexed": false,
          "internalType": "uint256",
          "name": "amount",
          "type": "uint256"
        }
      ],
      "name": "Unstaked",
      "type": "event"
    },
    {
      "inputs": [],
      "name": "admin",
      "outputs": [
        {
          "internalType": "address",
          "name": "",
          "type": "address"
        }
      ],
      "stateMutability": "view",
      "type": "function"
    },
    {
      "inputs": [
        {
          "internalType": "address",
          "name": "_user",
          "type": "address"
        }
      ],
      "name": "calculateReward",
      "outputs": [
        {
          "internalType": "uint256",
          "name": "",
          "type": "uint256"
        }
      ],
      "stateMutability": "view",
      "type": "function"
    },
    {
      "inputs": [],
      "name": "claimRewards",
      "outputs": [],
      "stateMutability": "nonpayable",
      "type": "function"
    },
    {
      "inputs": [
        {
          "internalType": "uint256",
          "name": "_amount",
          "type": "uint256"
        }
      ],
      "name": "depositRewardTokens",
      "outputs": [],
      "stateMutability": "nonpayable",
      "type": "function"
    },
    {
      "inputs": [
        {
          "internalType": "address",
          "name": "_user",
          "type": "address"
        }
      ],
      "name": "getStakeInfo",
      "outputs": [
        {
          "internalType": "uint256",
          "name": "stakedAmount",
          "type": "uint256"
        },
        {
          "internalType": "uint256",
          "name": "rewardAmount",
          "type": "uint256"
        }
      ],
      "stateMutability": "view",
      "type": "function"
    },
    {
      "inputs": [],
      "name": "rewardRatioDenominator",
      "outputs": [
        {
          "internalType": "uint256",
          "name": "",
          "type": "uint256"
        }
      ],
      "stateMutability": "view",
      "type": "function"
    },
    {
      "inputs": [],
      "name": "rewardRatioNumerator",
      "outputs": [
        {
          "internalType": "uint256",
          "name": "",
          "type": "uint256"
        }
      ],
      "stateMutability": "view",
      "type": "function"
    },
    {
      "inputs": [],
      "name": "rewardToken",
      "outputs": [
        {
          "internalType": "address",
          "name": "",
          "type": "address"
        }
      ],
      "stateMutability": "view",
      "type": "function"
    },
    {
      "inputs": [
        {
          "internalType": "uint256",
          "name": "_amount",
          "type": "uint256"
        }
      ],
      "name": "stake",
      "outputs": [],
      "stateMutability": "nonpayable",
      "type": "function"
    },
    {
      "inputs": [
        {
          "internalType": "address",
          "name": "",
          "type": "address"
        }
      ],
      "name": "stakedBalances",
      "outputs": [
        {
          "internalType": "uint256",
          "name": "",
          "type": "uint256"
        }
      ],
      "stateMutability": "view",
      "type": "function"
    },
    {
      "inputs": [
        {
          "internalType": "address",
          "name": "",
          "type": "address"
        }
      ],
      "name": "stakingTimestamps",
      "outputs": [
        {
          "internalType": "uint256",
          "name": "",
          "type": "uint256"
        }
      ],
      "stateMutability": "view",
      "type": "function"
    },
    {
      "inputs": [],
      "name": "stakingToken",
      "outputs": [
        {
          "internalType": "address",
          "name": "",
          "type": "address"
        }
      ],
      "stateMutability": "view",
      "type": "function"
    },
    {
      "inputs": [],
      "name": "timeUnit",
      "outputs": [
        {
          "internalType": "uint80",
          "name": "",
          "type": "uint80"
        }
      ],
      "stateMutability": "view",
      "type": "function"
    },
    {
      "inputs": [
        {
          "internalType": "uint256",
          "name": "_amount",
          "type": "uint256"
        }
      ],
      "name": "unstake",
      "outputs": [],
      "stateMutability": "nonpayable",
      "type": "function"
    },
    {
      "inputs": [
        {
          "internalType": "uint256",
          "name": "_amount",
          "type": "uint256"
        }
      ],
      "name": "withdrawRewardTokens",
      "outputs": [],
      "stateMutability": "nonpayable",
      "type": "function"
    }
  ],
  "devdoc": {
    "kind": "dev",
    "methods": {},
    "version": 1
  },
  "evm": {
    "assembly": "    /* \"05_StakingBaru.sol\":271:3912  contract StakingBaru2 {... */\n  mstore(0x40, 0x80)\n    /* \"05_StakingBaru.sol\":1004:1453  constructor(... */\n  callvalue\n  dup1\n  iszero\n  tag_1\n  jumpi\n  0x00\n  dup1\n  revert\ntag_1:\n  pop\n  mload(0x40)\n  sub(codesize, bytecodeSize)\n  dup1\n  bytecodeSize\n  dup4\n  codecopy\n  dup2\n  add\n  0x40\n  dup2\n  swap1\n  mstore\n  tag_2\n  swap2\n  tag_3\n  jump\t// in\ntag_2:\n    /* \"05_StakingBaru.sol\":1206:1211  admin */\n  0x02\n    /* \"05_StakingBaru.sol\":1206:1224  admin = msg.sender */\n  dup1\n  sload\n    /* \"05_StakingBaru.sol\":1206:1211  admin */\n  0x00\n    /* \"05_StakingBaru.sol\":1235:1261  rewardToken = _rewardToken */\n  dup1\n  sload\n  sub(shl(0xa0, 0x01), 0x01)\n  swap9\n  dup10\n  and\n  not(sub(shl(0xa0, 0x01), 0x01))\n  swap2\n  dup3\n  and\n  or\n  swap1\n  swap2\n  sstore\n    /* \"05_StakingBaru.sol\":1206:1224  admin = msg.sender */\n  0x01\n    /* \"05_StakingBaru.sol\":1272:1300  stakingToken = _stakingToken */\n  dup1\n  sload\n  swap8\n  swap1\n  swap9\n  and\n  swap7\n  and\n  swap6\n  swap1\n  swap6\n  or\n  swap1\n  swap6\n  sstore\n  sub(shl(0x50, 0x01), 0x01)\n    /* \"05_StakingBaru.sol\":1311:1331  timeUnit = _timeUnit */\n  swap1\n  swap3\n  and\n  shl(0xa0, 0x01)\n  mul\n  not(sub(shl(0xf0, 0x01), shl(0xa0, 0x01)))\n    /* \"05_StakingBaru.sol\":1214:1224  msg.sender */\n  caller\n    /* \"05_StakingBaru.sol\":1311:1331  timeUnit = _timeUnit */\n  and\n  not(sub(shl(0xf0, 0x01), 0x01))\n  swap1\n  swap5\n  and\n  swap4\n  swap1\n  swap4\n  or\n  swap3\n  swap1\n  swap3\n  or\n  swap1\n  swap3\n  sstore\n    /* \"05_StakingBaru.sol\":1342:1362  rewardRatioNumerator */\n  0x03\n    /* \"05_StakingBaru.sol\":1342:1386  rewardRatioNumerator = _rewardRatioNumerator */\n  sstore\n    /* \"05_StakingBaru.sol\":1397:1419  rewardRatioDenominator */\n  0x04\n    /* \"05_StakingBaru.sol\":1397:1445  rewardRatioDenominator = _rewardRatioDenominator */\n  sstore\n    /* \"05_StakingBaru.sol\":271:3912  contract StakingBaru2 {... */\n  jump(tag_8)\n    /* \"#utility.yul\":14:191   */\ntag_7:\n    /* \"#utility.yul\":93:106   */\n  dup1\n  mload\n  sub(shl(0xa0, 0x01), 0x01)\n    /* \"#utility.yul\":135:166   */\n  dup2\n  and\n    /* \"#utility.yul\":125:167   */\n  dup2\n  eq\n    /* \"#utility.yul\":115:185   */\n  tag_10\n  jumpi\n    /* \"#utility.yul\":181:182   */\n  0x00\n    /* \"#utility.yul\":178:179   */\n  dup1\n    /* \"#utility.yul\":171:183   */\n  revert\n    /* \"#utility.yul\":115:185   */\ntag_10:\n    /* \"#utility.yul\":14:191   */\n  swap2\n  swap1\n  pop\n  jump\t// out\n    /* \"#utility.yul\":196:778   */\ntag_3:\n    /* \"#utility.yul\":301:307   */\n  0x00\n    /* \"#utility.yul\":309:315   */\n  dup1\n    /* \"#utility.yul\":317:323   */\n  0x00\n    /* \"#utility.yul\":325:331   */\n  dup1\n    /* \"#utility.yul\":333:339   */\n  0x00\n    /* \"#utility.yul\":386:389   */\n  0xa0\n    /* \"#utility.yul\":374:383   */\n  dup7\n    /* \"#utility.yul\":365:372   */\n  dup9\n    /* \"#utility.yul\":361:384   */\n  sub\n    /* \"#utility.yul\":357:390   */\n  slt\n    /* \"#utility.yul\":354:407   */\n  iszero\n  tag_12\n  jumpi\n    /* \"#utility.yul\":403:404   */\n  0x00\n    /* \"#utility.yul\":400:401   */\n  dup1\n    /* \"#utility.yul\":393:405   */\n  revert\n    /* \"#utility.yul\":354:407   */\ntag_12:\n    /* \"#utility.yul\":426:466   */\n  tag_13\n    /* \"#utility.yul\":456:465   */\n  dup7\n    /* \"#utility.yul\":426:466   */\n  tag_7\n  jump\t// in\ntag_13:\n    /* \"#utility.yul\":416:466   */\n  swap5\n  pop\n    /* \"#utility.yul\":485:534   */\n  tag_14\n    /* \"#utility.yul\":530:532   */\n  0x20\n    /* \"#utility.yul\":519:528   */\n  dup8\n    /* \"#utility.yul\":515:533   */\n  add\n    /* \"#utility.yul\":485:534   */\n  tag_7\n  jump\t// in\ntag_14:\n    /* \"#utility.yul\":577:579   */\n  0x40\n    /* \"#utility.yul\":562:580   */\n  dup8\n  add\n    /* \"#utility.yul\":556:581   */\n  mload\n    /* \"#utility.yul\":475:534   */\n  swap1\n  swap5\n  pop\n  sub(shl(0x50, 0x01), 0x01)\n    /* \"#utility.yul\":610:640   */\n  dup2\n  and\n    /* \"#utility.yul\":600:641   */\n  dup2\n  eq\n    /* \"#utility.yul\":590:659   */\n  tag_15\n  jumpi\n    /* \"#utility.yul\":655:656   */\n  0x00\n    /* \"#utility.yul\":652:653   */\n  dup1\n    /* \"#utility.yul\":645:657   */\n  revert\n    /* \"#utility.yul\":590:659   */\ntag_15:\n    /* \"#utility.yul\":723:725   */\n  0x60\n    /* \"#utility.yul\":708:726   */\n  dup8\n  add\n    /* \"#utility.yul\":702:727   */\n  mload\n    /* \"#utility.yul\":767:770   */\n  0x80\n    /* \"#utility.yul\":752:771   */\n  swap1\n  swap8\n  add\n    /* \"#utility.yul\":746:772   */\n  mload\n    /* \"#utility.yul\":196:778   */\n  swap6\n  swap9\n  swap5\n  swap8\n  pop\n    /* \"#utility.yul\":678:683   */\n  swap6\n    /* \"#utility.yul\":702:727   */\n  swap5\n    /* \"#utility.yul\":746:772   */\n  swap4\n    /* \"#utility.yul\":196:778   */\n  swap3\n  pop\n  pop\n  pop\n  jump\t// out\ntag_8:\n    /* \"05_StakingBaru.sol\":271:3912  contract StakingBaru2 {... */\n  dataSize(sub_0)\n  dup1\n  dataOffset(sub_0)\n  0x00\n  codecopy\n  0x00\n  return\nstop\n\nsub_0: assembly {\n        /* \"05_StakingBaru.sol\":271:3912  contract StakingBaru2 {... */\n      mstore(0x40, 0x80)\n      callvalue\n      dup1\n      iszero\n      tag_1\n      jumpi\n      0x00\n      dup1\n      revert\n    tag_1:\n      pop\n      jumpi(tag_2, lt(calldatasize, 0x04))\n      shr(0xe0, calldataload(0x00))\n      dup1\n      0xa694fc3a\n      gt\n      tag_18\n      jumpi\n      dup1\n      0xcc317f31\n      gt\n      tag_19\n      jumpi\n      dup1\n      0xcc317f31\n      eq\n      tag_14\n      jumpi\n      dup1\n      0xd82e3962\n      eq\n      tag_15\n      jumpi\n      dup1\n      0xf7c618c1\n      eq\n      tag_16\n      jumpi\n      dup1\n      0xf851a440\n      eq\n      tag_17\n      jumpi\n      0x00\n      dup1\n      revert\n    tag_19:\n      dup1\n      0xa694fc3a\n      eq\n      tag_10\n      jumpi\n      dup1\n      0xb5d90dc0\n      eq\n      tag_11\n      jumpi\n      dup1\n      0xc3453153\n      eq\n      tag_12\n      jumpi\n      dup1\n      0xcb43b2dd\n      eq\n      tag_13\n      jumpi\n      0x00\n      dup1\n      revert\n    tag_18:\n      dup1\n      0x372500ab\n      gt\n      tag_20\n      jumpi\n      dup1\n      0x372500ab\n      eq\n      tag_6\n      jumpi\n      dup1\n      0x3c6a7f9b\n      eq\n      tag_7\n      jumpi\n      dup1\n      0x72f702f3\n      eq\n      tag_8\n      jumpi\n      dup1\n      0x937b983b\n      eq\n      tag_9\n      jumpi\n      0x00\n      dup1\n      revert\n    tag_20:\n      dup1\n      0x1460fa87\n      eq\n      tag_3\n      jumpi\n      dup1\n      0x16c621e0\n      eq\n      tag_4\n      jumpi\n      dup1\n      0x2e17de78\n      eq\n      tag_5\n      jumpi\n    tag_2:\n      0x00\n      dup1\n      revert\n        /* \"05_StakingBaru.sol\":511:560  mapping(address => uint256) public stakedBalances */\n    tag_3:\n      tag_21\n      tag_22\n      calldatasize\n      0x04\n      tag_23\n      jump\t// in\n    tag_22:\n      mstore(0x20, 0x05)\n      0x00\n      swap1\n      dup2\n      mstore\n      0x40\n      swap1\n      keccak256\n      sload\n      dup2\n      jump\n    tag_21:\n      mload(0x40)\n        /* \"#utility.yul\":474:499   */\n      swap1\n      dup2\n      mstore\n        /* \"#utility.yul\":462:464   */\n      0x20\n        /* \"#utility.yul\":447:465   */\n      add\n        /* \"05_StakingBaru.sol\":511:560  mapping(address => uint256) public stakedBalances */\n    tag_25:\n      mload(0x40)\n      dup1\n      swap2\n      sub\n      swap1\n      return\n        /* \"05_StakingBaru.sol\":2770:3129  function depositRewardTokens(uint256 _amount) external onlyAdmin {... */\n    tag_4:\n      tag_27\n      tag_28\n      calldatasize\n      0x04\n      tag_29\n      jump\t// in\n    tag_28:\n      tag_30\n      jump\t// in\n    tag_27:\n      stop\n        /* \"05_StakingBaru.sol\":1900:2285  function unstake(uint256 _amount) external {... */\n    tag_5:\n      tag_27\n      tag_32\n      calldatasize\n      0x04\n      tag_29\n      jump\t// in\n    tag_32:\n      tag_33\n      jump\t// in\n        /* \"05_StakingBaru.sol\":2293:2762  function claimRewards() external {... */\n    tag_6:\n      tag_27\n      tag_35\n      jump\t// in\n        /* \"05_StakingBaru.sol\":394:416  uint80 public timeUnit */\n    tag_7:\n      sload(0x02)\n      tag_36\n      swap1\n      shl(0xa0, 0x01)\n      swap1\n      div\n      0xffffffffffffffffffff\n      and\n      dup2\n      jump\n    tag_36:\n      mload(0x40)\n        /* \"#utility.yul\":869:891   */\n      0xffffffffffffffffffff\n        /* \"#utility.yul\":857:892   */\n      swap1\n      swap2\n      and\n        /* \"#utility.yul\":839:893   */\n      dup2\n      mstore\n        /* \"#utility.yul\":827:829   */\n      0x20\n        /* \"#utility.yul\":812:830   */\n      add\n        /* \"05_StakingBaru.sol\":394:416  uint80 public timeUnit */\n      tag_25\n        /* \"#utility.yul\":695:899   */\n      jump\n        /* \"05_StakingBaru.sol\":333:360  address public stakingToken */\n    tag_8:\n      sload(0x01)\n      tag_40\n      swap1\n      sub(shl(0xa0, 0x01), 0x01)\n      and\n      dup2\n      jump\n    tag_40:\n      mload(0x40)\n      sub(shl(0xa0, 0x01), 0x01)\n        /* \"#utility.yul\":1068:1123   */\n      swap1\n      swap2\n      and\n        /* \"#utility.yul\":1050:1124   */\n      dup2\n      mstore\n        /* \"#utility.yul\":1038:1040   */\n      0x20\n        /* \"#utility.yul\":1023:1041   */\n      add\n        /* \"05_StakingBaru.sol\":333:360  address public stakingToken */\n      tag_25\n        /* \"#utility.yul\":904:1130   */\n      jump\n        /* \"05_StakingBaru.sol\":567:619  mapping(address => uint256) public stakingTimestamps */\n    tag_9:\n      tag_21\n      tag_45\n      calldatasize\n      0x04\n      tag_23\n      jump\t// in\n    tag_45:\n      mstore(0x20, 0x06)\n      0x00\n      swap1\n      dup2\n      mstore\n      0x40\n      swap1\n      keccak256\n      sload\n      dup2\n      jump\n        /* \"05_StakingBaru.sol\":1461:1892  function stake(uint256 _amount) external {... */\n    tag_10:\n      tag_27\n      tag_49\n      calldatasize\n      0x04\n      tag_29\n      jump\t// in\n    tag_49:\n      tag_50\n      jump\t// in\n        /* \"05_StakingBaru.sol\":465:502  uint256 public rewardRatioDenominator */\n    tag_11:\n      tag_21\n      sload(0x04)\n      dup2\n      jump\n        /* \"05_StakingBaru.sol\":3702:3909  function getStakeInfo(address _user) external view returns (uint256 stakedAmount, uint256 rewardAmount) {... */\n    tag_12:\n      tag_54\n      tag_55\n      calldatasize\n      0x04\n      tag_23\n      jump\t// in\n    tag_55:\n      tag_56\n      jump\t// in\n    tag_54:\n      0x40\n      dup1\n      mload\n        /* \"#utility.yul\":1309:1334   */\n      swap3\n      dup4\n      mstore\n        /* \"#utility.yul\":1365:1367   */\n      0x20\n        /* \"#utility.yul\":1350:1368   */\n      dup4\n      add\n        /* \"#utility.yul\":1343:1377   */\n      swap2\n      swap1\n      swap2\n      mstore\n        /* \"#utility.yul\":1282:1300   */\n      add\n        /* \"05_StakingBaru.sol\":3702:3909  function getStakeInfo(address _user) external view returns (uint256 stakedAmount, uint256 rewardAmount) {... */\n      tag_25\n        /* \"#utility.yul\":1135:1383   */\n      jump\n        /* \"05_StakingBaru.sol\":3137:3396  function withdrawRewardTokens(uint256 _amount) external onlyAdmin {... */\n    tag_13:\n      tag_27\n      tag_60\n      calldatasize\n      0x04\n      tag_29\n      jump\t// in\n    tag_60:\n      tag_61\n      jump\t// in\n        /* \"05_StakingBaru.sol\":423:458  uint256 public rewardRatioNumerator */\n    tag_14:\n      tag_21\n      sload(0x03)\n      dup2\n      jump\n        /* \"05_StakingBaru.sol\":3404:3694  function calculateReward(address _user) public view returns (uint256) {... */\n    tag_15:\n      tag_21\n      tag_66\n      calldatasize\n      0x04\n      tag_23\n      jump\t// in\n    tag_66:\n      tag_67\n      jump\t// in\n        /* \"05_StakingBaru.sol\":300:326  address public rewardToken */\n    tag_16:\n      sload(0x00)\n      tag_40\n      swap1\n      sub(shl(0xa0, 0x01), 0x01)\n      and\n      dup2\n      jump\n        /* \"05_StakingBaru.sol\":367:387  address public admin */\n    tag_17:\n      sload(0x02)\n      tag_40\n      swap1\n      sub(shl(0xa0, 0x01), 0x01)\n      and\n      dup2\n      jump\n        /* \"05_StakingBaru.sol\":2770:3129  function depositRewardTokens(uint256 _amount) external onlyAdmin {... */\n    tag_30:\n        /* \"05_StakingBaru.sol\":952:957  admin */\n      and(sub(shl(0xa0, 0x01), 0x01), sload(0x02))\n        /* \"05_StakingBaru.sol\":938:948  msg.sender */\n      caller\n        /* \"05_StakingBaru.sol\":938:957  msg.sender == admin */\n      eq\n        /* \"05_StakingBaru.sol\":930:976  require(msg.sender == admin, \"Not authorized\") */\n      tag_76\n      jumpi\n      mload(0x40)\n      shl(0xe5, 0x461bcd)\n      dup2\n      mstore\n        /* \"#utility.yul\":1590:1592   */\n      0x20\n        /* \"05_StakingBaru.sol\":930:976  require(msg.sender == admin, \"Not authorized\") */\n      0x04\n      dup3\n      add\n        /* \"#utility.yul\":1572:1593   */\n      mstore\n        /* \"#utility.yul\":1629:1631   */\n      0x0e\n        /* \"#utility.yul\":1609:1627   */\n      0x24\n      dup3\n      add\n        /* \"#utility.yul\":1602:1632   */\n      mstore\n      shl(0x92, 0x139bdd08185d5d1a1bdc9a5e9959)\n        /* \"#utility.yul\":1648:1666   */\n      0x44\n      dup3\n      add\n        /* \"#utility.yul\":1641:1685   */\n      mstore\n        /* \"#utility.yul\":1702:1720   */\n      0x64\n      add\n        /* \"05_StakingBaru.sol\":930:976  require(msg.sender == admin, \"Not authorized\") */\n    tag_77:\n      mload(0x40)\n      dup1\n      swap2\n      sub\n      swap1\n      revert\n    tag_76:\n        /* \"05_StakingBaru.sol\":2864:2865  0 */\n      0x00\n        /* \"05_StakingBaru.sol\":2854:2861  _amount */\n      dup2\n        /* \"05_StakingBaru.sol\":2854:2865  _amount > 0 */\n      gt\n        /* \"05_StakingBaru.sol\":2846:2902  require(_amount > 0, \"Amount must be greater than zero\") */\n      tag_80\n      jumpi\n      mload(0x40)\n      shl(0xe5, 0x461bcd)\n      dup2\n      mstore\n        /* \"#utility.yul\":1933:1935   */\n      0x20\n        /* \"05_StakingBaru.sol\":2846:2902  require(_amount > 0, \"Amount must be greater than zero\") */\n      0x04\n      dup3\n      add\n        /* \"#utility.yul\":1915:1936   */\n      dup2\n      swap1\n      mstore\n        /* \"#utility.yul\":1952:1970   */\n      0x24\n      dup3\n      add\n        /* \"#utility.yul\":1945:1975   */\n      mstore\n        /* \"#utility.yul\":2011:2045   */\n      0x416d6f756e74206d7573742062652067726561746572207468616e207a65726f\n        /* \"#utility.yul\":1991:2009   */\n      0x44\n      dup3\n      add\n        /* \"#utility.yul\":1984:2046   */\n      mstore\n        /* \"#utility.yul\":2063:2081   */\n      0x64\n      add\n        /* \"05_StakingBaru.sol\":2846:2902  require(_amount > 0, \"Amount must be greater than zero\") */\n      tag_77\n        /* \"#utility.yul\":1731:2087   */\n      jump\n        /* \"05_StakingBaru.sol\":2846:2902  require(_amount > 0, \"Amount must be greater than zero\") */\n    tag_80:\n        /* \"05_StakingBaru.sol\":2992:3003  rewardToken */\n      sload(0x00)\n        /* \"05_StakingBaru.sol\":2985:3053  IERC20(rewardToken).transferFrom(msg.sender, address(this), _amount) */\n      mload(0x40)\n      shl(0xe0, 0x23b872dd)\n      dup2\n      mstore\n        /* \"05_StakingBaru.sol\":3018:3028  msg.sender */\n      caller\n        /* \"05_StakingBaru.sol\":2985:3053  IERC20(rewardToken).transferFrom(msg.sender, address(this), _amount) */\n      0x04\n      dup3\n      add\n        /* \"#utility.yul\":2355:2389   */\n      mstore\n        /* \"05_StakingBaru.sol\":3038:3042  this */\n      address\n        /* \"#utility.yul\":2405:2423   */\n      0x24\n      dup3\n      add\n        /* \"#utility.yul\":2398:2441   */\n      mstore\n        /* \"#utility.yul\":2457:2475   */\n      0x44\n      dup2\n      add\n        /* \"#utility.yul\":2450:2484   */\n      dup4\n      swap1\n      mstore\n      sub(shl(0xa0, 0x01), 0x01)\n        /* \"05_StakingBaru.sol\":2992:3003  rewardToken */\n      swap1\n      swap2\n      and\n      swap1\n        /* \"05_StakingBaru.sol\":2985:3017  IERC20(rewardToken).transferFrom */\n      0x23b872dd\n      swap1\n        /* \"#utility.yul\":2267:2285   */\n      0x64\n      add\n        /* \"05_StakingBaru.sol\":2985:3053  IERC20(rewardToken).transferFrom(msg.sender, address(this), _amount) */\n      0x20\n      mload(0x40)\n      dup1\n      dup4\n      sub\n      dup2\n      0x00\n      dup8\n      gas\n      call\n      iszero\n      dup1\n      iszero\n      tag_86\n      jumpi\n      returndatasize\n      0x00\n      dup1\n      returndatacopy\n      revert(0x00, returndatasize)\n    tag_86:\n      pop\n      pop\n      pop\n      pop\n      mload(0x40)\n      returndatasize\n      not(0x1f)\n      0x1f\n      dup3\n      add\n      and\n      dup3\n      add\n      dup1\n      0x40\n      mstore\n      pop\n      dup2\n      add\n      swap1\n      tag_87\n      swap2\n      swap1\n      tag_88\n      jump\t// in\n    tag_87:\n        /* \"05_StakingBaru.sol\":2977:3079  require(IERC20(rewardToken).transferFrom(msg.sender, address(this), _amount), \"Reward deposit failed\") */\n      tag_89\n      jumpi\n      mload(0x40)\n      shl(0xe5, 0x461bcd)\n      dup2\n      mstore\n        /* \"#utility.yul\":2979:2981   */\n      0x20\n        /* \"05_StakingBaru.sol\":2977:3079  require(IERC20(rewardToken).transferFrom(msg.sender, address(this), _amount), \"Reward deposit failed\") */\n      0x04\n      dup3\n      add\n        /* \"#utility.yul\":2961:2982   */\n      mstore\n        /* \"#utility.yul\":3018:3020   */\n      0x15\n        /* \"#utility.yul\":2998:3016   */\n      0x24\n      dup3\n      add\n        /* \"#utility.yul\":2991:3021   */\n      mstore\n        /* \"#utility.yul\":3057:3080   */\n      0x526577617264206465706f736974206661696c65640000000000000000000000\n        /* \"#utility.yul\":3037:3055   */\n      0x44\n      dup3\n      add\n        /* \"#utility.yul\":3030:3081   */\n      mstore\n        /* \"#utility.yul\":3098:3116   */\n      0x64\n      add\n        /* \"05_StakingBaru.sol\":2977:3079  require(IERC20(rewardToken).transferFrom(msg.sender, address(this), _amount), \"Reward deposit failed\") */\n      tag_77\n        /* \"#utility.yul\":2777:3122   */\n      jump\n        /* \"05_StakingBaru.sol\":2977:3079  require(IERC20(rewardToken).transferFrom(msg.sender, address(this), _amount), \"Reward deposit failed\") */\n    tag_89:\n        /* \"05_StakingBaru.sol\":3097:3121  RewardDeposited(_amount) */\n      mload(0x40)\n        /* \"#utility.yul\":474:499   */\n      dup2\n      dup2\n      mstore\n        /* \"05_StakingBaru.sol\":3097:3121  RewardDeposited(_amount) */\n      0x4b19cb5d8df041d8b4d367efa19af33a21d398f599fb445a29acd9d5e56318c6\n      swap1\n        /* \"#utility.yul\":462:464   */\n      0x20\n        /* \"#utility.yul\":447:465   */\n      add\n        /* \"05_StakingBaru.sol\":3097:3121  RewardDeposited(_amount) */\n    tag_92:\n      mload(0x40)\n      dup1\n      swap2\n      sub\n      swap1\n      log1\n        /* \"05_StakingBaru.sol\":2770:3129  function depositRewardTokens(uint256 _amount) external onlyAdmin {... */\n      pop\n      jump\t// out\n        /* \"05_StakingBaru.sol\":1900:2285  function unstake(uint256 _amount) external {... */\n    tag_33:\n        /* \"05_StakingBaru.sol\":1977:1987  msg.sender */\n      caller\n        /* \"05_StakingBaru.sol\":1962:1988  stakedBalances[msg.sender] */\n      0x00\n      swap1\n      dup2\n      mstore\n        /* \"05_StakingBaru.sol\":1962:1976  stakedBalances */\n      0x05\n        /* \"05_StakingBaru.sol\":1962:1988  stakedBalances[msg.sender] */\n      0x20\n      mstore\n      0x40\n      swap1\n      keccak256\n      sload\n        /* \"05_StakingBaru.sol\":1962:1999  stakedBalances[msg.sender] >= _amount */\n      dup2\n      gt\n      iszero\n        /* \"05_StakingBaru.sol\":1954:2031  require(stakedBalances[msg.sender] >= _amount, \"Insufficient staked balance\") */\n      tag_94\n      jumpi\n      mload(0x40)\n      shl(0xe5, 0x461bcd)\n      dup2\n      mstore\n        /* \"#utility.yul\":3329:3331   */\n      0x20\n        /* \"05_StakingBaru.sol\":1954:2031  require(stakedBalances[msg.sender] >= _amount, \"Insufficient staked balance\") */\n      0x04\n      dup3\n      add\n        /* \"#utility.yul\":3311:3332   */\n      mstore\n        /* \"#utility.yul\":3368:3370   */\n      0x1b\n        /* \"#utility.yul\":3348:3366   */\n      0x24\n      dup3\n      add\n        /* \"#utility.yul\":3341:3371   */\n      mstore\n        /* \"#utility.yul\":3407:3436   */\n      0x496e73756666696369656e74207374616b65642062616c616e63650000000000\n        /* \"#utility.yul\":3387:3405   */\n      0x44\n      dup3\n      add\n        /* \"#utility.yul\":3380:3437   */\n      mstore\n        /* \"#utility.yul\":3454:3472   */\n      0x64\n      add\n        /* \"05_StakingBaru.sol\":1954:2031  require(stakedBalances[msg.sender] >= _amount, \"Insufficient staked balance\") */\n      tag_77\n        /* \"#utility.yul\":3127:3478   */\n      jump\n        /* \"05_StakingBaru.sol\":1954:2031  require(stakedBalances[msg.sender] >= _amount, \"Insufficient staked balance\") */\n    tag_94:\n        /* \"05_StakingBaru.sol\":2059:2069  msg.sender */\n      caller\n        /* \"05_StakingBaru.sol\":2044:2070  stakedBalances[msg.sender] */\n      0x00\n      swap1\n      dup2\n      mstore\n        /* \"05_StakingBaru.sol\":2044:2058  stakedBalances */\n      0x05\n        /* \"05_StakingBaru.sol\":2044:2070  stakedBalances[msg.sender] */\n      0x20\n      mstore\n      0x40\n      dup2\n      keccak256\n        /* \"05_StakingBaru.sol\":2044:2081  stakedBalances[msg.sender] -= _amount */\n      dup1\n      sload\n        /* \"05_StakingBaru.sol\":2074:2081  _amount */\n      dup4\n      swap3\n        /* \"05_StakingBaru.sol\":2044:2070  stakedBalances[msg.sender] */\n      swap1\n        /* \"05_StakingBaru.sol\":2044:2081  stakedBalances[msg.sender] -= _amount */\n      tag_97\n      swap1\n        /* \"05_StakingBaru.sol\":2074:2081  _amount */\n      dup5\n      swap1\n        /* \"05_StakingBaru.sol\":2044:2081  stakedBalances[msg.sender] -= _amount */\n      tag_98\n      jump\t// in\n    tag_97:\n      swap1\n      swap2\n      sstore\n      pop\n      pop\n        /* \"05_StakingBaru.sol\":2157:2169  stakingToken */\n      sload(0x01)\n        /* \"05_StakingBaru.sol\":2150:2200  IERC20(stakingToken).transfer(msg.sender, _amount) */\n      mload(0x40)\n      shl(0xe0, 0xa9059cbb)\n      dup2\n      mstore\n        /* \"05_StakingBaru.sol\":2180:2190  msg.sender */\n      caller\n        /* \"05_StakingBaru.sol\":2150:2200  IERC20(stakingToken).transfer(msg.sender, _amount) */\n      0x04\n      dup3\n      add\n        /* \"#utility.yul\":3922:3996   */\n      mstore\n        /* \"#utility.yul\":4012:4030   */\n      0x24\n      dup2\n      add\n        /* \"#utility.yul\":4005:4039   */\n      dup4\n      swap1\n      mstore\n      sub(shl(0xa0, 0x01), 0x01)\n        /* \"05_StakingBaru.sol\":2157:2169  stakingToken */\n      swap1\n      swap2\n      and\n      swap1\n        /* \"05_StakingBaru.sol\":2150:2179  IERC20(stakingToken).transfer */\n      0xa9059cbb\n      swap1\n        /* \"#utility.yul\":3895:3913   */\n      0x44\n      add\n        /* \"05_StakingBaru.sol\":2150:2200  IERC20(stakingToken).transfer(msg.sender, _amount) */\n      0x20\n      mload(0x40)\n      dup1\n      dup4\n      sub\n      dup2\n      0x00\n      dup8\n      gas\n      call\n      iszero\n      dup1\n      iszero\n      tag_102\n      jumpi\n      returndatasize\n      0x00\n      dup1\n      returndatacopy\n      revert(0x00, returndatasize)\n    tag_102:\n      pop\n      pop\n      pop\n      pop\n      mload(0x40)\n      returndatasize\n      not(0x1f)\n      0x1f\n      dup3\n      add\n      and\n      dup3\n      add\n      dup1\n      0x40\n      mstore\n      pop\n      dup2\n      add\n      swap1\n      tag_103\n      swap2\n      swap1\n      tag_88\n      jump\t// in\n    tag_103:\n        /* \"05_StakingBaru.sol\":2142:2230  require(IERC20(stakingToken).transfer(msg.sender, _amount), \"Unstaking transfer failed\") */\n      tag_104\n      jumpi\n      mload(0x40)\n      shl(0xe5, 0x461bcd)\n      dup2\n      mstore\n        /* \"#utility.yul\":4252:4254   */\n      0x20\n        /* \"05_StakingBaru.sol\":2142:2230  require(IERC20(stakingToken).transfer(msg.sender, _amount), \"Unstaking transfer failed\") */\n      0x04\n      dup3\n      add\n        /* \"#utility.yul\":4234:4255   */\n      mstore\n        /* \"#utility.yul\":4291:4293   */\n      0x19\n        /* \"#utility.yul\":4271:4289   */\n      0x24\n      dup3\n      add\n        /* \"#utility.yul\":4264:4294   */\n      mstore\n        /* \"#utility.yul\":4330:4357   */\n      0x556e7374616b696e67207472616e73666572206661696c656400000000000000\n        /* \"#utility.yul\":4310:4328   */\n      0x44\n      dup3\n      add\n        /* \"#utility.yul\":4303:4358   */\n      mstore\n        /* \"#utility.yul\":4375:4393   */\n      0x64\n      add\n        /* \"05_StakingBaru.sol\":2142:2230  require(IERC20(stakingToken).transfer(msg.sender, _amount), \"Unstaking transfer failed\") */\n      tag_77\n        /* \"#utility.yul\":4050:4399   */\n      jump\n        /* \"05_StakingBaru.sol\":2142:2230  require(IERC20(stakingToken).transfer(msg.sender, _amount), \"Unstaking transfer failed\") */\n    tag_104:\n        /* \"05_StakingBaru.sol\":2248:2277  Unstaked(msg.sender, _amount) */\n      mload(0x40)\n        /* \"#utility.yul\":474:499   */\n      dup2\n      dup2\n      mstore\n        /* \"05_StakingBaru.sol\":2257:2267  msg.sender */\n      caller\n      swap1\n        /* \"05_StakingBaru.sol\":2248:2277  Unstaked(msg.sender, _amount) */\n      0x0f5bb82176feb1b5e747e28471aa92156a04d9f3ab9f45f28e2d704232b93f75\n      swap1\n        /* \"#utility.yul\":462:464   */\n      0x20\n        /* \"#utility.yul\":447:465   */\n      add\n        /* \"05_StakingBaru.sol\":2248:2277  Unstaked(msg.sender, _amount) */\n    tag_107:\n      mload(0x40)\n      dup1\n      swap2\n      sub\n      swap1\n      log2\n        /* \"05_StakingBaru.sol\":1900:2285  function unstake(uint256 _amount) external {... */\n      pop\n      jump\t// out\n        /* \"05_StakingBaru.sol\":2293:2762  function claimRewards() external {... */\n    tag_35:\n        /* \"05_StakingBaru.sol\":2360:2370  msg.sender */\n      caller\n        /* \"05_StakingBaru.sol\":2374:2375  0 */\n      0x00\n        /* \"05_StakingBaru.sol\":2345:2371  stakedBalances[msg.sender] */\n      swap1\n      dup2\n      mstore\n        /* \"05_StakingBaru.sol\":2345:2359  stakedBalances */\n      0x05\n        /* \"05_StakingBaru.sol\":2345:2371  stakedBalances[msg.sender] */\n      0x20\n      mstore\n      0x40\n      swap1\n      keccak256\n      sload\n        /* \"05_StakingBaru.sol\":2337:2396  require(stakedBalances[msg.sender] > 0, \"No staked tokens\") */\n      tag_109\n      jumpi\n      mload(0x40)\n      shl(0xe5, 0x461bcd)\n      dup2\n      mstore\n        /* \"#utility.yul\":4606:4608   */\n      0x20\n        /* \"05_StakingBaru.sol\":2337:2396  require(stakedBalances[msg.sender] > 0, \"No staked tokens\") */\n      0x04\n      dup3\n      add\n        /* \"#utility.yul\":4588:4609   */\n      mstore\n        /* \"#utility.yul\":4645:4647   */\n      0x10\n        /* \"#utility.yul\":4625:4643   */\n      0x24\n      dup3\n      add\n        /* \"#utility.yul\":4618:4648   */\n      mstore\n        /* \"#utility.yul\":4684:4702   */\n      0x4e6f207374616b656420746f6b656e7300000000000000000000000000000000\n        /* \"#utility.yul\":4664:4682   */\n      0x44\n      dup3\n      add\n        /* \"#utility.yul\":4657:4703   */\n      mstore\n        /* \"#utility.yul\":4720:4738   */\n      0x64\n      add\n        /* \"05_StakingBaru.sol\":2337:2396  require(stakedBalances[msg.sender] > 0, \"No staked tokens\") */\n      tag_77\n        /* \"#utility.yul\":4404:4744   */\n      jump\n        /* \"05_StakingBaru.sol\":2337:2396  require(stakedBalances[msg.sender] > 0, \"No staked tokens\") */\n    tag_109:\n        /* \"05_StakingBaru.sol\":2409:2423  uint256 reward */\n      0x00\n        /* \"05_StakingBaru.sol\":2426:2453  calculateReward(msg.sender) */\n      tag_112\n        /* \"05_StakingBaru.sol\":2442:2452  msg.sender */\n      caller\n        /* \"05_StakingBaru.sol\":2426:2441  calculateReward */\n      tag_67\n        /* \"05_StakingBaru.sol\":2426:2453  calculateReward(msg.sender) */\n      jump\t// in\n    tag_112:\n        /* \"05_StakingBaru.sol\":2409:2453  uint256 reward = calculateReward(msg.sender) */\n      swap1\n      pop\n        /* \"05_StakingBaru.sol\":2481:2482  0 */\n      0x00\n        /* \"05_StakingBaru.sol\":2472:2478  reward */\n      dup2\n        /* \"05_StakingBaru.sol\":2472:2482  reward > 0 */\n      gt\n        /* \"05_StakingBaru.sol\":2464:2505  require(reward > 0, \"No reward to claim\") */\n      tag_113\n      jumpi\n      mload(0x40)\n      shl(0xe5, 0x461bcd)\n      dup2\n      mstore\n        /* \"#utility.yul\":4951:4953   */\n      0x20\n        /* \"05_StakingBaru.sol\":2464:2505  require(reward > 0, \"No reward to claim\") */\n      0x04\n      dup3\n      add\n        /* \"#utility.yul\":4933:4954   */\n      mstore\n        /* \"#utility.yul\":4990:4992   */\n      0x12\n        /* \"#utility.yul\":4970:4988   */\n      0x24\n      dup3\n      add\n        /* \"#utility.yul\":4963:4993   */\n      mstore\n        /* \"#utility.yul\":5029:5049   */\n      0x4e6f2072657761726420746f20636c61696d0000000000000000000000000000\n        /* \"#utility.yul\":5009:5027   */\n      0x44\n      dup3\n      add\n        /* \"#utility.yul\":5002:5050   */\n      mstore\n        /* \"#utility.yul\":5067:5085   */\n      0x64\n      add\n        /* \"05_StakingBaru.sol\":2464:2505  require(reward > 0, \"No reward to claim\") */\n      tag_77\n        /* \"#utility.yul\":4749:5091   */\n      jump\n        /* \"05_StakingBaru.sol\":2464:2505  require(reward > 0, \"No reward to claim\") */\n    tag_113:\n        /* \"05_StakingBaru.sol\":2536:2546  msg.sender */\n      caller\n        /* \"05_StakingBaru.sol\":2518:2547  stakingTimestamps[msg.sender] */\n      0x00\n      dup2\n      dup2\n      mstore\n        /* \"05_StakingBaru.sol\":2518:2535  stakingTimestamps */\n      0x06\n        /* \"05_StakingBaru.sol\":2518:2547  stakingTimestamps[msg.sender] */\n      0x20\n      mstore\n      0x40\n      dup1\n      dup3\n      keccak256\n        /* \"05_StakingBaru.sol\":2550:2565  block.timestamp */\n      timestamp\n        /* \"05_StakingBaru.sol\":2518:2565  stakingTimestamps[msg.sender] = block.timestamp */\n      swap1\n      sstore\n        /* \"05_StakingBaru.sol\":2635:2646  rewardToken */\n      swap1\n      sload\n        /* \"05_StakingBaru.sol\":2628:2676  IERC20(rewardToken).transfer(msg.sender, reward) */\n      swap1\n      mload\n      shl(0xe0, 0xa9059cbb)\n      dup2\n      mstore\n      0x04\n      dup2\n      add\n        /* \"#utility.yul\":3922:3996   */\n      swap3\n      swap1\n      swap3\n      mstore\n        /* \"#utility.yul\":4012:4030   */\n      0x24\n      dup3\n      add\n        /* \"#utility.yul\":4005:4039   */\n      dup4\n      swap1\n      mstore\n      sub(shl(0xa0, 0x01), 0x01)\n        /* \"05_StakingBaru.sol\":2635:2646  rewardToken */\n      and\n      swap1\n        /* \"05_StakingBaru.sol\":2628:2656  IERC20(rewardToken).transfer */\n      0xa9059cbb\n      swap1\n        /* \"#utility.yul\":3895:3913   */\n      0x44\n      add\n        /* \"05_StakingBaru.sol\":2628:2676  IERC20(rewardToken).transfer(msg.sender, reward) */\n      0x20\n      mload(0x40)\n      dup1\n      dup4\n      sub\n      dup2\n      0x00\n      dup8\n      gas\n      call\n      iszero\n      dup1\n      iszero\n      tag_118\n      jumpi\n      returndatasize\n      0x00\n      dup1\n      returndatacopy\n      revert(0x00, returndatasize)\n    tag_118:\n      pop\n      pop\n      pop\n      pop\n      mload(0x40)\n      returndatasize\n      not(0x1f)\n      0x1f\n      dup3\n      add\n      and\n      dup3\n      add\n      dup1\n      0x40\n      mstore\n      pop\n      dup2\n      add\n      swap1\n      tag_119\n      swap2\n      swap1\n      tag_88\n      jump\t// in\n    tag_119:\n        /* \"05_StakingBaru.sol\":2620:2703  require(IERC20(rewardToken).transfer(msg.sender, reward), \"Reward transfer failed\") */\n      tag_120\n      jumpi\n      mload(0x40)\n      shl(0xe5, 0x461bcd)\n      dup2\n      mstore\n        /* \"#utility.yul\":5298:5300   */\n      0x20\n        /* \"05_StakingBaru.sol\":2620:2703  require(IERC20(rewardToken).transfer(msg.sender, reward), \"Reward transfer failed\") */\n      0x04\n      dup3\n      add\n        /* \"#utility.yul\":5280:5301   */\n      mstore\n        /* \"#utility.yul\":5337:5339   */\n      0x16\n        /* \"#utility.yul\":5317:5335   */\n      0x24\n      dup3\n      add\n        /* \"#utility.yul\":5310:5340   */\n      mstore\n        /* \"#utility.yul\":5376:5400   */\n      0x526577617264207472616e73666572206661696c656400000000000000000000\n        /* \"#utility.yul\":5356:5374   */\n      0x44\n      dup3\n      add\n        /* \"#utility.yul\":5349:5401   */\n      mstore\n        /* \"#utility.yul\":5418:5436   */\n      0x64\n      add\n        /* \"05_StakingBaru.sol\":2620:2703  require(IERC20(rewardToken).transfer(msg.sender, reward), \"Reward transfer failed\") */\n      tag_77\n        /* \"#utility.yul\":5096:5442   */\n      jump\n        /* \"05_StakingBaru.sol\":2620:2703  require(IERC20(rewardToken).transfer(msg.sender, reward), \"Reward transfer failed\") */\n    tag_120:\n        /* \"05_StakingBaru.sol\":2721:2754  RewardClaimed(msg.sender, reward) */\n      mload(0x40)\n        /* \"#utility.yul\":474:499   */\n      dup2\n      dup2\n      mstore\n        /* \"05_StakingBaru.sol\":2735:2745  msg.sender */\n      caller\n      swap1\n        /* \"05_StakingBaru.sol\":2721:2754  RewardClaimed(msg.sender, reward) */\n      0x106f923f993c2149d49b4255ff723acafa1f2d94393f561d3eda32ae348f7241\n      swap1\n        /* \"#utility.yul\":462:464   */\n      0x20\n        /* \"#utility.yul\":447:465   */\n      add\n        /* \"05_StakingBaru.sol\":2721:2754  RewardClaimed(msg.sender, reward) */\n      tag_107\n        /* \"#utility.yul\":328:505   */\n      jump\n        /* \"05_StakingBaru.sol\":1461:1892  function stake(uint256 _amount) external {... */\n    tag_50:\n        /* \"05_StakingBaru.sol\":1531:1532  0 */\n      0x00\n        /* \"05_StakingBaru.sol\":1521:1528  _amount */\n      dup2\n        /* \"05_StakingBaru.sol\":1521:1532  _amount > 0 */\n      gt\n        /* \"05_StakingBaru.sol\":1513:1551  require(_amount > 0, \"Cannot stake 0\") */\n      tag_125\n      jumpi\n      mload(0x40)\n      shl(0xe5, 0x461bcd)\n      dup2\n      mstore\n        /* \"#utility.yul\":5649:5651   */\n      0x20\n        /* \"05_StakingBaru.sol\":1513:1551  require(_amount > 0, \"Cannot stake 0\") */\n      0x04\n      dup3\n      add\n        /* \"#utility.yul\":5631:5652   */\n      mstore\n        /* \"#utility.yul\":5688:5690   */\n      0x0e\n        /* \"#utility.yul\":5668:5686   */\n      0x24\n      dup3\n      add\n        /* \"#utility.yul\":5661:5691   */\n      mstore\n        /* \"#utility.yul\":5727:5743   */\n      0x43616e6e6f74207374616b652030000000000000000000000000000000000000\n        /* \"#utility.yul\":5707:5725   */\n      0x44\n      dup3\n      add\n        /* \"#utility.yul\":5700:5744   */\n      mstore\n        /* \"#utility.yul\":5761:5779   */\n      0x64\n      add\n        /* \"05_StakingBaru.sol\":1513:1551  require(_amount > 0, \"Cannot stake 0\") */\n      tag_77\n        /* \"#utility.yul\":5447:5785   */\n      jump\n        /* \"05_StakingBaru.sol\":1513:1551  require(_amount > 0, \"Cannot stake 0\") */\n    tag_125:\n        /* \"05_StakingBaru.sol\":1641:1653  stakingToken */\n      sload(0x01)\n        /* \"05_StakingBaru.sol\":1634:1703  IERC20(stakingToken).transferFrom(msg.sender, address(this), _amount) */\n      mload(0x40)\n      shl(0xe0, 0x23b872dd)\n      dup2\n      mstore\n        /* \"05_StakingBaru.sol\":1668:1678  msg.sender */\n      caller\n        /* \"05_StakingBaru.sol\":1634:1703  IERC20(stakingToken).transferFrom(msg.sender, address(this), _amount) */\n      0x04\n      dup3\n      add\n        /* \"#utility.yul\":2355:2389   */\n      mstore\n        /* \"05_StakingBaru.sol\":1688:1692  this */\n      address\n        /* \"#utility.yul\":2405:2423   */\n      0x24\n      dup3\n      add\n        /* \"#utility.yul\":2398:2441   */\n      mstore\n        /* \"#utility.yul\":2457:2475   */\n      0x44\n      dup2\n      add\n        /* \"#utility.yul\":2450:2484   */\n      dup4\n      swap1\n      mstore\n      sub(shl(0xa0, 0x01), 0x01)\n        /* \"05_StakingBaru.sol\":1641:1653  stakingToken */\n      swap1\n      swap2\n      and\n      swap1\n        /* \"05_StakingBaru.sol\":1634:1667  IERC20(stakingToken).transferFrom */\n      0x23b872dd\n      swap1\n        /* \"#utility.yul\":2267:2285   */\n      0x64\n      add\n        /* \"05_StakingBaru.sol\":1634:1703  IERC20(stakingToken).transferFrom(msg.sender, address(this), _amount) */\n      0x20\n      mload(0x40)\n      dup1\n      dup4\n      sub\n      dup2\n      0x00\n      dup8\n      gas\n      call\n      iszero\n      dup1\n      iszero\n      tag_130\n      jumpi\n      returndatasize\n      0x00\n      dup1\n      returndatacopy\n      revert(0x00, returndatasize)\n    tag_130:\n      pop\n      pop\n      pop\n      pop\n      mload(0x40)\n      returndatasize\n      not(0x1f)\n      0x1f\n      dup3\n      add\n      and\n      dup3\n      add\n      dup1\n      0x40\n      mstore\n      pop\n      dup2\n      add\n      swap1\n      tag_131\n      swap2\n      swap1\n      tag_88\n      jump\t// in\n    tag_131:\n        /* \"05_StakingBaru.sol\":1626:1731  require(IERC20(stakingToken).transferFrom(msg.sender, address(this), _amount), \"Staking transfer failed\") */\n      tag_132\n      jumpi\n      mload(0x40)\n      shl(0xe5, 0x461bcd)\n      dup2\n      mstore\n        /* \"#utility.yul\":5992:5994   */\n      0x20\n        /* \"05_StakingBaru.sol\":1626:1731  require(IERC20(stakingToken).transferFrom(msg.sender, address(this), _amount), \"Staking transfer failed\") */\n      0x04\n      dup3\n      add\n        /* \"#utility.yul\":5974:5995   */\n      mstore\n        /* \"#utility.yul\":6031:6033   */\n      0x17\n        /* \"#utility.yul\":6011:6029   */\n      0x24\n      dup3\n      add\n        /* \"#utility.yul\":6004:6034   */\n      mstore\n        /* \"#utility.yul\":6070:6095   */\n      0x5374616b696e67207472616e73666572206661696c6564000000000000000000\n        /* \"#utility.yul\":6050:6068   */\n      0x44\n      dup3\n      add\n        /* \"#utility.yul\":6043:6096   */\n      mstore\n        /* \"#utility.yul\":6113:6131   */\n      0x64\n      add\n        /* \"05_StakingBaru.sol\":1626:1731  require(IERC20(stakingToken).transferFrom(msg.sender, address(this), _amount), \"Staking transfer failed\") */\n      tag_77\n        /* \"#utility.yul\":5790:6137   */\n      jump\n        /* \"05_StakingBaru.sol\":1626:1731  require(IERC20(stakingToken).transferFrom(msg.sender, address(this), _amount), \"Staking transfer failed\") */\n    tag_132:\n        /* \"05_StakingBaru.sol\":1759:1769  msg.sender */\n      caller\n        /* \"05_StakingBaru.sol\":1744:1770  stakedBalances[msg.sender] */\n      0x00\n      swap1\n      dup2\n      mstore\n        /* \"05_StakingBaru.sol\":1744:1758  stakedBalances */\n      0x05\n        /* \"05_StakingBaru.sol\":1744:1770  stakedBalances[msg.sender] */\n      0x20\n      mstore\n      0x40\n      dup2\n      keccak256\n        /* \"05_StakingBaru.sol\":1744:1781  stakedBalances[msg.sender] += _amount */\n      dup1\n      sload\n        /* \"05_StakingBaru.sol\":1774:1781  _amount */\n      dup4\n      swap3\n        /* \"05_StakingBaru.sol\":1744:1770  stakedBalances[msg.sender] */\n      swap1\n        /* \"05_StakingBaru.sol\":1744:1781  stakedBalances[msg.sender] += _amount */\n      tag_135\n      swap1\n        /* \"05_StakingBaru.sol\":1774:1781  _amount */\n      dup5\n      swap1\n        /* \"05_StakingBaru.sol\":1744:1781  stakedBalances[msg.sender] += _amount */\n      tag_136\n      jump\t// in\n    tag_135:\n      swap1\n      swap2\n      sstore\n      pop\n      pop\n        /* \"05_StakingBaru.sol\":1810:1820  msg.sender */\n      caller\n        /* \"05_StakingBaru.sol\":1792:1821  stakingTimestamps[msg.sender] */\n      0x00\n      dup2\n      dup2\n      mstore\n        /* \"05_StakingBaru.sol\":1792:1809  stakingTimestamps */\n      0x06\n        /* \"05_StakingBaru.sol\":1792:1821  stakingTimestamps[msg.sender] */\n      0x20\n      mstore\n      0x40\n      swap1\n      dup2\n      swap1\n      keccak256\n        /* \"05_StakingBaru.sol\":1824:1839  block.timestamp */\n      timestamp\n        /* \"05_StakingBaru.sol\":1792:1839  stakingTimestamps[msg.sender] = block.timestamp */\n      swap1\n      sstore\n        /* \"05_StakingBaru.sol\":1857:1884  Staked(msg.sender, _amount) */\n      mload\n      0x9e71bc8eea02a63969f509818f2dafb9254532904319f9dbda79b67bd34a5f3d\n      swap1\n      tag_107\n      swap1\n        /* \"05_StakingBaru.sol\":1876:1883  _amount */\n      dup5\n        /* \"#utility.yul\":474:499   */\n      dup2\n      mstore\n        /* \"#utility.yul\":462:464   */\n      0x20\n        /* \"#utility.yul\":447:465   */\n      add\n      swap1\n        /* \"#utility.yul\":328:505   */\n      jump\n        /* \"05_StakingBaru.sol\":3702:3909  function getStakeInfo(address _user) external view returns (uint256 stakedAmount, uint256 rewardAmount) {... */\n    tag_56:\n      sub(shl(0xa0, 0x01), 0x01)\n        /* \"05_StakingBaru.sol\":3832:3853  stakedBalances[_user] */\n      dup2\n      and\n        /* \"05_StakingBaru.sol\":3762:3782  uint256 stakedAmount */\n      0x00\n        /* \"05_StakingBaru.sol\":3832:3853  stakedBalances[_user] */\n      swap1\n      dup2\n      mstore\n        /* \"05_StakingBaru.sol\":3832:3846  stakedBalances */\n      0x05\n        /* \"05_StakingBaru.sol\":3832:3853  stakedBalances[_user] */\n      0x20\n      mstore\n      0x40\n      dup2\n      keccak256\n      sload\n      swap1\n        /* \"05_StakingBaru.sol\":3879:3901  calculateReward(_user) */\n      tag_139\n        /* \"05_StakingBaru.sol\":3847:3852  _user */\n      dup4\n        /* \"05_StakingBaru.sol\":3879:3894  calculateReward */\n      tag_67\n        /* \"05_StakingBaru.sol\":3879:3901  calculateReward(_user) */\n      jump\t// in\n    tag_139:\n        /* \"05_StakingBaru.sol\":3864:3901  rewardAmount = calculateReward(_user) */\n      swap1\n      pop\n        /* \"05_StakingBaru.sol\":3702:3909  function getStakeInfo(address _user) external view returns (uint256 stakedAmount, uint256 rewardAmount) {... */\n      swap2\n      pop\n      swap2\n      jump\t// out\n        /* \"05_StakingBaru.sol\":3137:3396  function withdrawRewardTokens(uint256 _amount) external onlyAdmin {... */\n    tag_61:\n        /* \"05_StakingBaru.sol\":952:957  admin */\n      and(sub(shl(0xa0, 0x01), 0x01), sload(0x02))\n        /* \"05_StakingBaru.sol\":938:948  msg.sender */\n      caller\n        /* \"05_StakingBaru.sol\":938:957  msg.sender == admin */\n      eq\n        /* \"05_StakingBaru.sol\":930:976  require(msg.sender == admin, \"Not authorized\") */\n      tag_141\n      jumpi\n      mload(0x40)\n      shl(0xe5, 0x461bcd)\n      dup2\n      mstore\n        /* \"#utility.yul\":1590:1592   */\n      0x20\n        /* \"05_StakingBaru.sol\":930:976  require(msg.sender == admin, \"Not authorized\") */\n      0x04\n      dup3\n      add\n        /* \"#utility.yul\":1572:1593   */\n      mstore\n        /* \"#utility.yul\":1629:1631   */\n      0x0e\n        /* \"#utility.yul\":1609:1627   */\n      0x24\n      dup3\n      add\n        /* \"#utility.yul\":1602:1632   */\n      mstore\n      shl(0x92, 0x139bdd08185d5d1a1bdc9a5e9959)\n        /* \"#utility.yul\":1648:1666   */\n      0x44\n      dup3\n      add\n        /* \"#utility.yul\":1641:1685   */\n      mstore\n        /* \"#utility.yul\":1702:1720   */\n      0x64\n      add\n        /* \"05_StakingBaru.sol\":930:976  require(msg.sender == admin, \"Not authorized\") */\n      tag_77\n        /* \"#utility.yul\":1388:1726   */\n      jump\n        /* \"05_StakingBaru.sol\":930:976  require(msg.sender == admin, \"Not authorized\") */\n    tag_141:\n        /* \"05_StakingBaru.sol\":3277:3288  rewardToken */\n      sload(0x00)\n        /* \"05_StakingBaru.sol\":3270:3319  IERC20(rewardToken).transfer(msg.sender, _amount) */\n      mload(0x40)\n      shl(0xe0, 0xa9059cbb)\n      dup2\n      mstore\n        /* \"05_StakingBaru.sol\":3299:3309  msg.sender */\n      caller\n        /* \"05_StakingBaru.sol\":3270:3319  IERC20(rewardToken).transfer(msg.sender, _amount) */\n      0x04\n      dup3\n      add\n        /* \"#utility.yul\":3922:3996   */\n      mstore\n        /* \"#utility.yul\":4012:4030   */\n      0x24\n      dup2\n      add\n        /* \"#utility.yul\":4005:4039   */\n      dup4\n      swap1\n      mstore\n      sub(shl(0xa0, 0x01), 0x01)\n        /* \"05_StakingBaru.sol\":3277:3288  rewardToken */\n      swap1\n      swap2\n      and\n      swap1\n        /* \"05_StakingBaru.sol\":3270:3298  IERC20(rewardToken).transfer */\n      0xa9059cbb\n      swap1\n        /* \"#utility.yul\":3895:3913   */\n      0x44\n      add\n        /* \"05_StakingBaru.sol\":3270:3319  IERC20(rewardToken).transfer(msg.sender, _amount) */\n      0x20\n      mload(0x40)\n      dup1\n      dup4\n      sub\n      dup2\n      0x00\n      dup8\n      gas\n      call\n      iszero\n      dup1\n      iszero\n      tag_146\n      jumpi\n      returndatasize\n      0x00\n      dup1\n      returndatacopy\n      revert(0x00, returndatasize)\n    tag_146:\n      pop\n      pop\n      pop\n      pop\n      mload(0x40)\n      returndatasize\n      not(0x1f)\n      0x1f\n      dup3\n      add\n      and\n      dup3\n      add\n      dup1\n      0x40\n      mstore\n      pop\n      dup2\n      add\n      swap1\n      tag_147\n      swap2\n      swap1\n      tag_88\n      jump\t// in\n    tag_147:\n        /* \"05_StakingBaru.sol\":3262:3346  require(IERC20(rewardToken).transfer(msg.sender, _amount), \"Reward withdraw failed\") */\n      tag_148\n      jumpi\n      mload(0x40)\n      shl(0xe5, 0x461bcd)\n      dup2\n      mstore\n        /* \"#utility.yul\":6474:6476   */\n      0x20\n        /* \"05_StakingBaru.sol\":3262:3346  require(IERC20(rewardToken).transfer(msg.sender, _amount), \"Reward withdraw failed\") */\n      0x04\n      dup3\n      add\n        /* \"#utility.yul\":6456:6477   */\n      mstore\n        /* \"#utility.yul\":6513:6515   */\n      0x16\n        /* \"#utility.yul\":6493:6511   */\n      0x24\n      dup3\n      add\n        /* \"#utility.yul\":6486:6516   */\n      mstore\n        /* \"#utility.yul\":6552:6576   */\n      0x526577617264207769746864726177206661696c656400000000000000000000\n        /* \"#utility.yul\":6532:6550   */\n      0x44\n      dup3\n      add\n        /* \"#utility.yul\":6525:6577   */\n      mstore\n        /* \"#utility.yul\":6594:6612   */\n      0x64\n      add\n        /* \"05_StakingBaru.sol\":3262:3346  require(IERC20(rewardToken).transfer(msg.sender, _amount), \"Reward withdraw failed\") */\n      tag_77\n        /* \"#utility.yul\":6272:6618   */\n      jump\n        /* \"05_StakingBaru.sol\":3262:3346  require(IERC20(rewardToken).transfer(msg.sender, _amount), \"Reward withdraw failed\") */\n    tag_148:\n        /* \"05_StakingBaru.sol\":3364:3388  RewardWithdrawn(_amount) */\n      mload(0x40)\n        /* \"#utility.yul\":474:499   */\n      dup2\n      dup2\n      mstore\n        /* \"05_StakingBaru.sol\":3364:3388  RewardWithdrawn(_amount) */\n      0x150a6ec0e6f4e9ddcaaaa1674f157d91165a42d60653016f87a9fc870a39f050\n      swap1\n        /* \"#utility.yul\":462:464   */\n      0x20\n        /* \"#utility.yul\":447:465   */\n      add\n        /* \"05_StakingBaru.sol\":3364:3388  RewardWithdrawn(_amount) */\n      tag_92\n        /* \"#utility.yul\":328:505   */\n      jump\n        /* \"05_StakingBaru.sol\":3404:3694  function calculateReward(address _user) public view returns (uint256) {... */\n    tag_67:\n      sub(shl(0xa0, 0x01), 0x01)\n        /* \"05_StakingBaru.sol\":3529:3553  stakingTimestamps[_user] */\n      dup2\n      and\n        /* \"05_StakingBaru.sol\":3465:3472  uint256 */\n      0x00\n        /* \"05_StakingBaru.sol\":3529:3553  stakingTimestamps[_user] */\n      swap1\n      dup2\n      mstore\n        /* \"05_StakingBaru.sol\":3529:3546  stakingTimestamps */\n      0x06\n        /* \"05_StakingBaru.sol\":3529:3553  stakingTimestamps[_user] */\n      0x20\n      mstore\n      0x40\n      dup2\n      keccak256\n      sload\n        /* \"05_StakingBaru.sol\":3465:3472  uint256 */\n      dup2\n      swap1\n        /* \"05_StakingBaru.sol\":3511:3553  block.timestamp - stakingTimestamps[_user] */\n      tag_153\n      swap1\n        /* \"05_StakingBaru.sol\":3511:3526  block.timestamp */\n      timestamp\n        /* \"05_StakingBaru.sol\":3511:3553  block.timestamp - stakingTimestamps[_user] */\n      tag_98\n      jump\t// in\n    tag_153:\n        /* \"05_StakingBaru.sol\":3663:3685  rewardRatioDenominator */\n      sload(0x04)\n        /* \"05_StakingBaru.sol\":3652:3660  timeUnit */\n      sload(0x02)\n        /* \"05_StakingBaru.sol\":3485:3553  uint256 stakingDuration = block.timestamp - stakingTimestamps[_user] */\n      swap2\n      swap3\n      pop\n        /* \"05_StakingBaru.sol\":3652:3685  timeUnit * rewardRatioDenominator */\n      tag_154\n      swap2\n      shl(0xa0, 0x01)\n        /* \"05_StakingBaru.sol\":3652:3660  timeUnit */\n      swap1\n      div\n      0xffffffffffffffffffff\n      and\n        /* \"05_StakingBaru.sol\":3652:3685  timeUnit * rewardRatioDenominator */\n      tag_155\n      jump\t// in\n    tag_154:\n        /* \"05_StakingBaru.sol\":3614:3634  rewardRatioNumerator */\n      sload(0x03)\n      sub(shl(0xa0, 0x01), 0x01)\n        /* \"05_StakingBaru.sol\":3572:3593  stakedBalances[_user] */\n      dup6\n      and\n      0x00\n      swap1\n      dup2\n      mstore\n        /* \"05_StakingBaru.sol\":3572:3586  stakedBalances */\n      0x05\n        /* \"05_StakingBaru.sol\":3572:3593  stakedBalances[_user] */\n      0x20\n      mstore\n      0x40\n      swap1\n      keccak256\n      sload\n        /* \"05_StakingBaru.sol\":3572:3611  stakedBalances[_user] * stakingDuration */\n      tag_156\n      swap1\n        /* \"05_StakingBaru.sol\":3596:3611  stakingDuration */\n      dup5\n      swap1\n        /* \"05_StakingBaru.sol\":3572:3611  stakedBalances[_user] * stakingDuration */\n      tag_155\n      jump\t// in\n    tag_156:\n        /* \"05_StakingBaru.sol\":3572:3634  stakedBalances[_user] * stakingDuration * rewardRatioNumerator */\n      tag_157\n      swap2\n      swap1\n      tag_155\n      jump\t// in\n    tag_157:\n        /* \"05_StakingBaru.sol\":3571:3686  (stakedBalances[_user] * stakingDuration * rewardRatioNumerator) /... */\n      tag_158\n      swap2\n      swap1\n      tag_159\n      jump\t// in\n    tag_158:\n        /* \"05_StakingBaru.sol\":3564:3686  return (stakedBalances[_user] * stakingDuration * rewardRatioNumerator) /... */\n      swap4\n        /* \"05_StakingBaru.sol\":3404:3694  function calculateReward(address _user) public view returns (uint256) {... */\n      swap3\n      pop\n      pop\n      pop\n      jump\t// out\n        /* \"#utility.yul\":14:323   */\n    tag_23:\n        /* \"#utility.yul\":73:79   */\n      0x00\n        /* \"#utility.yul\":126:128   */\n      0x20\n        /* \"#utility.yul\":114:123   */\n      dup3\n        /* \"#utility.yul\":105:112   */\n      dup5\n        /* \"#utility.yul\":101:124   */\n      sub\n        /* \"#utility.yul\":97:129   */\n      slt\n        /* \"#utility.yul\":94:146   */\n      iszero\n      tag_163\n      jumpi\n        /* \"#utility.yul\":142:143   */\n      0x00\n        /* \"#utility.yul\":139:140   */\n      dup1\n        /* \"#utility.yul\":132:144   */\n      revert\n        /* \"#utility.yul\":94:146   */\n    tag_163:\n        /* \"#utility.yul\":181:190   */\n      dup2\n        /* \"#utility.yul\":168:191   */\n      calldataload\n      sub(shl(0xa0, 0x01), 0x01)\n        /* \"#utility.yul\":224:229   */\n      dup2\n        /* \"#utility.yul\":220:274   */\n      and\n        /* \"#utility.yul\":213:218   */\n      dup2\n        /* \"#utility.yul\":210:275   */\n      eq\n        /* \"#utility.yul\":200:293   */\n      tag_158\n      jumpi\n        /* \"#utility.yul\":289:290   */\n      0x00\n        /* \"#utility.yul\":286:287   */\n      dup1\n        /* \"#utility.yul\":279:291   */\n      revert\n        /* \"#utility.yul\":510:690   */\n    tag_29:\n        /* \"#utility.yul\":569:575   */\n      0x00\n        /* \"#utility.yul\":622:624   */\n      0x20\n        /* \"#utility.yul\":610:619   */\n      dup3\n        /* \"#utility.yul\":601:608   */\n      dup5\n        /* \"#utility.yul\":597:620   */\n      sub\n        /* \"#utility.yul\":593:625   */\n      slt\n        /* \"#utility.yul\":590:642   */\n      iszero\n      tag_167\n      jumpi\n        /* \"#utility.yul\":638:639   */\n      0x00\n        /* \"#utility.yul\":635:636   */\n      dup1\n        /* \"#utility.yul\":628:640   */\n      revert\n        /* \"#utility.yul\":590:642   */\n    tag_167:\n      pop\n        /* \"#utility.yul\":661:684   */\n      calldataload\n      swap2\n        /* \"#utility.yul\":510:690   */\n      swap1\n      pop\n      jump\t// out\n        /* \"#utility.yul\":2495:2772   */\n    tag_88:\n        /* \"#utility.yul\":2562:2568   */\n      0x00\n        /* \"#utility.yul\":2615:2617   */\n      0x20\n        /* \"#utility.yul\":2603:2612   */\n      dup3\n        /* \"#utility.yul\":2594:2601   */\n      dup5\n        /* \"#utility.yul\":2590:2613   */\n      sub\n        /* \"#utility.yul\":2586:2618   */\n      slt\n        /* \"#utility.yul\":2583:2635   */\n      iszero\n      tag_175\n      jumpi\n        /* \"#utility.yul\":2631:2632   */\n      0x00\n        /* \"#utility.yul\":2628:2629   */\n      dup1\n        /* \"#utility.yul\":2621:2633   */\n      revert\n        /* \"#utility.yul\":2583:2635   */\n    tag_175:\n        /* \"#utility.yul\":2663:2672   */\n      dup2\n        /* \"#utility.yul\":2657:2673   */\n      mload\n        /* \"#utility.yul\":2716:2721   */\n      dup1\n        /* \"#utility.yul\":2709:2722   */\n      iszero\n        /* \"#utility.yul\":2702:2723   */\n      iszero\n        /* \"#utility.yul\":2695:2700   */\n      dup2\n        /* \"#utility.yul\":2692:2724   */\n      eq\n        /* \"#utility.yul\":2682:2742   */\n      tag_158\n      jumpi\n        /* \"#utility.yul\":2738:2739   */\n      0x00\n        /* \"#utility.yul\":2735:2736   */\n      dup1\n        /* \"#utility.yul\":2728:2740   */\n      revert\n        /* \"#utility.yul\":3483:3610   */\n    tag_160:\n        /* \"#utility.yul\":3544:3554   */\n      0x4e487b71\n        /* \"#utility.yul\":3539:3542   */\n      0xe0\n        /* \"#utility.yul\":3535:3555   */\n      shl\n        /* \"#utility.yul\":3532:3533   */\n      0x00\n        /* \"#utility.yul\":3525:3556   */\n      mstore\n        /* \"#utility.yul\":3575:3579   */\n      0x11\n        /* \"#utility.yul\":3572:3573   */\n      0x04\n        /* \"#utility.yul\":3565:3580   */\n      mstore\n        /* \"#utility.yul\":3599:3603   */\n      0x24\n        /* \"#utility.yul\":3596:3597   */\n      0x00\n        /* \"#utility.yul\":3589:3604   */\n      revert\n        /* \"#utility.yul\":3615:3743   */\n    tag_98:\n        /* \"#utility.yul\":3682:3691   */\n      dup2\n      dup2\n      sub\n        /* \"#utility.yul\":3703:3714   */\n      dup2\n      dup2\n      gt\n        /* \"#utility.yul\":3700:3737   */\n      iszero\n      tag_182\n      jumpi\n        /* \"#utility.yul\":3717:3735   */\n      tag_182\n      tag_160\n      jump\t// in\n    tag_182:\n        /* \"#utility.yul\":3615:3743   */\n      swap3\n      swap2\n      pop\n      pop\n      jump\t// out\n        /* \"#utility.yul\":6142:6267   */\n    tag_136:\n        /* \"#utility.yul\":6207:6216   */\n      dup1\n      dup3\n      add\n        /* \"#utility.yul\":6228:6238   */\n      dup1\n      dup3\n      gt\n        /* \"#utility.yul\":6225:6261   */\n      iszero\n      tag_182\n      jumpi\n        /* \"#utility.yul\":6241:6259   */\n      tag_182\n      tag_160\n      jump\t// in\n        /* \"#utility.yul\":6623:6791   */\n    tag_155:\n        /* \"#utility.yul\":6696:6705   */\n      dup1\n      dup3\n      mul\n        /* \"#utility.yul\":6727:6736   */\n      dup2\n      iszero\n        /* \"#utility.yul\":6744:6759   */\n      dup3\n      dup3\n      div\n        /* \"#utility.yul\":6738:6760   */\n      dup5\n      eq\n        /* \"#utility.yul\":6724:6761   */\n      or\n        /* \"#utility.yul\":6714:6785   */\n      tag_182\n      jumpi\n        /* \"#utility.yul\":6765:6783   */\n      tag_182\n      tag_160\n      jump\t// in\n        /* \"#utility.yul\":6796:7013   */\n    tag_159:\n        /* \"#utility.yul\":6836:6837   */\n      0x00\n        /* \"#utility.yul\":6862:6863   */\n      dup3\n        /* \"#utility.yul\":6852:6984   */\n      tag_198\n      jumpi\n        /* \"#utility.yul\":6906:6916   */\n      0x4e487b71\n        /* \"#utility.yul\":6901:6904   */\n      0xe0\n        /* \"#utility.yul\":6897:6917   */\n      shl\n        /* \"#utility.yul\":6894:6895   */\n      0x00\n        /* \"#utility.yul\":6887:6918   */\n      mstore\n        /* \"#utility.yul\":6941:6945   */\n      0x12\n        /* \"#utility.yul\":6938:6939   */\n      0x04\n        /* \"#utility.yul\":6931:6946   */\n      mstore\n        /* \"#utility.yul\":6969:6973   */\n      0x24\n        /* \"#utility.yul\":6966:6967   */\n      0x00\n        /* \"#utility.yul\":6959:6974   */\n      revert\n        /* \"#utility.yul\":6852:6984   */\n    tag_198:\n      pop\n        /* \"#utility.yul\":6998:7007   */\n      div\n      swap1\n        /* \"#utility.yul\":6796:7013   */\n      jump\t// out\n\n    auxdata: 0xa2646970667358221220cd4a355d681cd4fb4b98323727f16d7678ead2f2614e6d82455f3ff6c6bb7cf664736f6c63430008190033\n}\n",
    "bytecode": {
      "linkReferences": {},
      "object": "608060405234801561000f575f80fd5b50604051610ccd380380610ccd83398101604081905261002e916100bd565b600280545f80546001600160a01b039889166001600160a01b03199182161790915560018054979098169616959095179095556001600160501b03909216600160a01b02600160a01b600160f01b031933166001600160f01b0319909416939093179290921790925560035560045561011d565b80516001600160a01b03811681146100b8575f80fd5b919050565b5f805f805f60a086880312156100d1575f80fd5b6100da866100a2565b94506100e8602087016100a2565b60408701519094506001600160501b0381168114610104575f80fd5b6060870151608090970151959894975095949392505050565b610ba38061012a5f395ff3fe608060405234801561000f575f80fd5b50600436106100f0575f3560e01c8063a694fc3a11610093578063cc317f3111610063578063cc317f311461022f578063d82e396214610238578063f7c618c11461024b578063f851a4401461025d575f80fd5b8063a694fc3a146101d8578063b5d90dc0146101eb578063c3453153146101f4578063cb43b2dd1461021c575f80fd5b8063372500ab116100ce578063372500ab1461014e5780633c6a7f9b1461015657806372f702f31461018e578063937b983b146101b9575f80fd5b80631460fa87146100f457806316c621e0146101265780632e17de781461013b575b5f80fd5b610113610102366004610a9b565b60056020525f908152604090205481565b6040519081526020015b60405180910390f35b610139610134366004610ac1565b610270565b005b610139610149366004610ac1565b610409565b610139610581565b60025461017390600160a01b900469ffffffffffffffffffff1681565b60405169ffffffffffffffffffff909116815260200161011d565b6001546101a1906001600160a01b031681565b6040516001600160a01b03909116815260200161011d565b6101136101c7366004610a9b565b60066020525f908152604090205481565b6101396101e6366004610ac1565b610737565b61011360045481565b610207610202366004610a9b565b6108b0565b6040805192835260208301919091520161011d565b61013961022a366004610ac1565b6108d9565b61011360035481565b610113610246366004610a9b565b610a11565b5f546101a1906001600160a01b031681565b6002546101a1906001600160a01b031681565b6002546001600160a01b031633146102c05760405162461bcd60e51b815260206004820152600e60248201526d139bdd08185d5d1a1bdc9a5e995960921b60448201526064015b60405180910390fd5b5f811161030f5760405162461bcd60e51b815260206004820181905260248201527f416d6f756e74206d7573742062652067726561746572207468616e207a65726f60448201526064016102b7565b5f546040516323b872dd60e01b8152336004820152306024820152604481018390526001600160a01b03909116906323b872dd906064016020604051808303815f875af1158015610362573d5f803e3d5ffd5b505050506040513d601f19601f820116820180604052508101906103869190610ad8565b6103d25760405162461bcd60e51b815260206004820152601560248201527f526577617264206465706f736974206661696c6564000000000000000000000060448201526064016102b7565b6040518181527f4b19cb5d8df041d8b4d367efa19af33a21d398f599fb445a29acd9d5e56318c6906020015b60405180910390a150565b335f908152600560205260409020548111156104675760405162461bcd60e51b815260206004820152601b60248201527f496e73756666696369656e74207374616b65642062616c616e6365000000000060448201526064016102b7565b335f9081526005602052604081208054839290610485908490610b0b565b909155505060015460405163a9059cbb60e01b8152336004820152602481018390526001600160a01b039091169063a9059cbb906044016020604051808303815f875af11580156104d8573d5f803e3d5ffd5b505050506040513d601f19601f820116820180604052508101906104fc9190610ad8565b6105485760405162461bcd60e51b815260206004820152601960248201527f556e7374616b696e67207472616e73666572206661696c65640000000000000060448201526064016102b7565b60405181815233907f0f5bb82176feb1b5e747e28471aa92156a04d9f3ab9f45f28e2d704232b93f75906020015b60405180910390a250565b335f908152600560205260409020546105dc5760405162461bcd60e51b815260206004820152601060248201527f4e6f207374616b656420746f6b656e730000000000000000000000000000000060448201526064016102b7565b5f6105e633610a11565b90505f81116106375760405162461bcd60e51b815260206004820152601260248201527f4e6f2072657761726420746f20636c61696d000000000000000000000000000060448201526064016102b7565b335f818152600660205260408082204290559054905163a9059cbb60e01b81526004810192909252602482018390526001600160a01b03169063a9059cbb906044016020604051808303815f875af1158015610695573d5f803e3d5ffd5b505050506040513d601f19601f820116820180604052508101906106b99190610ad8565b6107055760405162461bcd60e51b815260206004820152601660248201527f526577617264207472616e73666572206661696c65640000000000000000000060448201526064016102b7565b60405181815233907f106f923f993c2149d49b4255ff723acafa1f2d94393f561d3eda32ae348f724190602001610576565b5f81116107865760405162461bcd60e51b815260206004820152600e60248201527f43616e6e6f74207374616b65203000000000000000000000000000000000000060448201526064016102b7565b6001546040516323b872dd60e01b8152336004820152306024820152604481018390526001600160a01b03909116906323b872dd906064016020604051808303815f875af11580156107da573d5f803e3d5ffd5b505050506040513d601f19601f820116820180604052508101906107fe9190610ad8565b61084a5760405162461bcd60e51b815260206004820152601760248201527f5374616b696e67207472616e73666572206661696c656400000000000000000060448201526064016102b7565b335f9081526005602052604081208054839290610868908490610b24565b9091555050335f8181526006602052604090819020429055517f9e71bc8eea02a63969f509818f2dafb9254532904319f9dbda79b67bd34a5f3d906105769084815260200190565b6001600160a01b0381165f90815260056020526040812054906108d283610a11565b9050915091565b6002546001600160a01b031633146109245760405162461bcd60e51b815260206004820152600e60248201526d139bdd08185d5d1a1bdc9a5e995960921b60448201526064016102b7565b5f5460405163a9059cbb60e01b8152336004820152602481018390526001600160a01b039091169063a9059cbb906044016020604051808303815f875af1158015610971573d5f803e3d5ffd5b505050506040513d601f19601f820116820180604052508101906109959190610ad8565b6109e15760405162461bcd60e51b815260206004820152601660248201527f526577617264207769746864726177206661696c65640000000000000000000060448201526064016102b7565b6040518181527f150a6ec0e6f4e9ddcaaaa1674f157d91165a42d60653016f87a9fc870a39f050906020016103fe565b6001600160a01b0381165f908152600660205260408120548190610a359042610b0b565b600454600254919250610a5a91600160a01b900469ffffffffffffffffffff16610b37565b6003546001600160a01b0385165f90815260056020526040902054610a80908490610b37565b610a8a9190610b37565b610a949190610b4e565b9392505050565b5f60208284031215610aab575f80fd5b81356001600160a01b0381168114610a94575f80fd5b5f60208284031215610ad1575f80fd5b5035919050565b5f60208284031215610ae8575f80fd5b81518015158114610a94575f80fd5b634e487b7160e01b5f52601160045260245ffd5b81810381811115610b1e57610b1e610af7565b92915050565b80820180821115610b1e57610b1e610af7565b8082028115828204841417610b1e57610b1e610af7565b5f82610b6857634e487b7160e01b5f52601260045260245ffd5b50049056fea2646970667358221220cd4a355d681cd4fb4b98323727f16d7678ead2f2614e6d82455f3ff6c6bb7cf664736f6c63430008190033",
      "opcodes": "PUSH1 0x80 PUSH1 0x40 MSTORE CALLVALUE DUP1 ISZERO PUSH2 0xF JUMPI PUSH0 DUP1 REVERT JUMPDEST POP PUSH1 0x40 MLOAD PUSH2 0xCCD CODESIZE SUB DUP1 PUSH2 0xCCD DUP4 CODECOPY DUP2 ADD PUSH1 0x40 DUP2 SWAP1 MSTORE PUSH2 0x2E SWAP2 PUSH2 0xBD JUMP JUMPDEST PUSH1 0x2 DUP1 SLOAD PUSH0 DUP1 SLOAD PUSH1 0x1 PUSH1 0x1 PUSH1 0xA0 SHL SUB SWAP9 DUP10 AND PUSH1 0x1 PUSH1 0x1 PUSH1 0xA0 SHL SUB NOT SWAP2 DUP3 AND OR SWAP1 SWAP2 SSTORE PUSH1 0x1 DUP1 SLOAD SWAP8 SWAP1 SWAP9 AND SWAP7 AND SWAP6 SWAP1 SWAP6 OR SWAP1 SWAP6 SSTORE PUSH1 0x1 PUSH1 0x1 PUSH1 0x50 SHL SUB SWAP1 SWAP3 AND PUSH1 0x1 PUSH1 0xA0 SHL MUL PUSH1 0x1 PUSH1 0xA0 SHL PUSH1 0x1 PUSH1 0xF0 SHL SUB NOT CALLER AND PUSH1 0x1 PUSH1 0x1 PUSH1 0xF0 SHL SUB NOT SWAP1 SWAP5 AND SWAP4 SWAP1 SWAP4 OR SWAP3 SWAP1 SWAP3 OR SWAP1 SWAP3 SSTORE PUSH1 0x3 SSTORE PUSH1 0x4 SSTORE PUSH2 0x11D JUMP JUMPDEST DUP1 MLOAD PUSH1 0x1 PUSH1 0x1 PUSH1 0xA0 SHL SUB DUP2 AND DUP2 EQ PUSH2 0xB8 JUMPI PUSH0 DUP1 REVERT JUMPDEST SWAP2 SWAP1 POP JUMP JUMPDEST PUSH0 DUP1 PUSH0 DUP1 PUSH0 PUSH1 0xA0 DUP7 DUP9 SUB SLT ISZERO PUSH2 0xD1 JUMPI PUSH0 DUP1 REVERT JUMPDEST PUSH2 0xDA DUP7 PUSH2 0xA2 JUMP JUMPDEST SWAP5 POP PUSH2 0xE8 PUSH1 0x20 DUP8 ADD PUSH2 0xA2 JUMP JUMPDEST PUSH1 0x40 DUP8 ADD MLOAD SWAP1 SWAP5 POP PUSH1 0x1 PUSH1 0x1 PUSH1 0x50 SHL SUB DUP2 AND DUP2 EQ PUSH2 0x104 JUMPI PUSH0 DUP1 REVERT JUMPDEST PUSH1 0x60 DUP8 ADD MLOAD PUSH1 0x80 SWAP1 SWAP8 ADD MLOAD SWAP6 SWAP9 SWAP5 SWAP8 POP SWAP6 SWAP5 SWAP4 SWAP3 POP POP POP JUMP JUMPDEST PUSH2 0xBA3 DUP1 PUSH2 0x12A PUSH0 CODECOPY PUSH0 RETURN INVALID PUSH1 0x80 PUSH1 0x40 MSTORE CALLVALUE DUP1 ISZERO PUSH2 0xF JUMPI PUSH0 DUP1 REVERT JUMPDEST POP PUSH1 0x4 CALLDATASIZE LT PUSH2 0xF0 JUMPI PUSH0 CALLDATALOAD PUSH1 0xE0 SHR DUP1 PUSH4 0xA694FC3A GT PUSH2 0x93 JUMPI DUP1 PUSH4 0xCC317F31 GT PUSH2 0x63 JUMPI DUP1 PUSH4 0xCC317F31 EQ PUSH2 0x22F JUMPI DUP1 PUSH4 0xD82E3962 EQ PUSH2 0x238 JUMPI DUP1 PUSH4 0xF7C618C1 EQ PUSH2 0x24B JUMPI DUP1 PUSH4 0xF851A440 EQ PUSH2 0x25D JUMPI PUSH0 DUP1 REVERT JUMPDEST DUP1 PUSH4 0xA694FC3A EQ PUSH2 0x1D8 JUMPI DUP1 PUSH4 0xB5D90DC0 EQ PUSH2 0x1EB JUMPI DUP1 PUSH4 0xC3453153 EQ PUSH2 0x1F4 JUMPI DUP1 PUSH4 0xCB43B2DD EQ PUSH2 0x21C JUMPI PUSH0 DUP1 REVERT JUMPDEST DUP1 PUSH4 0x372500AB GT PUSH2 0xCE JUMPI DUP1 PUSH4 0x372500AB EQ PUSH2 0x14E JUMPI DUP1 PUSH4 0x3C6A7F9B EQ PUSH2 0x156 JUMPI DUP1 PUSH4 0x72F702F3 EQ PUSH2 0x18E JUMPI DUP1 PUSH4 0x937B983B EQ PUSH2 0x1B9 JUMPI PUSH0 DUP1 REVERT JUMPDEST DUP1 PUSH4 0x1460FA87 EQ PUSH2 0xF4 JUMPI DUP1 PUSH4 0x16C621E0 EQ PUSH2 0x126 JUMPI DUP1 PUSH4 0x2E17DE78 EQ PUSH2 0x13B JUMPI JUMPDEST PUSH0 DUP1 REVERT JUMPDEST PUSH2 0x113 PUSH2 0x102 CALLDATASIZE PUSH1 0x4 PUSH2 0xA9B JUMP JUMPDEST PUSH1 0x5 PUSH1 0x20 MSTORE PUSH0 SWAP1 DUP2 MSTORE PUSH1 0x40 SWAP1 KECCAK256 SLOAD DUP2 JUMP JUMPDEST PUSH1 0x40 MLOAD SWAP1 DUP2 MSTORE PUSH1 0x20 ADD JUMPDEST PUSH1 0x40 MLOAD DUP1 SWAP2 SUB SWAP1 RETURN JUMPDEST PUSH2 0x139 PUSH2 0x134 CALLDATASIZE PUSH1 0x4 PUSH2 0xAC1 JUMP JUMPDEST PUSH2 0x270 JUMP JUMPDEST STOP JUMPDEST PUSH2 0x139 PUSH2 0x149 CALLDATASIZE PUSH1 0x4 PUSH2 0xAC1 JUMP JUMPDEST PUSH2 0x409 JUMP JUMPDEST PUSH2 0x139 PUSH2 0x581 JUMP JUMPDEST PUSH1 0x2 SLOAD PUSH2 0x173 SWAP1 PUSH1 0x1 PUSH1 0xA0 SHL SWAP1 DIV PUSH10 0xFFFFFFFFFFFFFFFFFFFF AND DUP2 JUMP JUMPDEST PUSH1 0x40 MLOAD PUSH10 0xFFFFFFFFFFFFFFFFFFFF SWAP1 SWAP2 AND DUP2 MSTORE PUSH1 0x20 ADD PUSH2 0x11D JUMP JUMPDEST PUSH1 0x1 SLOAD PUSH2 0x1A1 SWAP1 PUSH1 0x1 PUSH1 0x1 PUSH1 0xA0 SHL SUB AND DUP2 JUMP JUMPDEST PUSH1 0x40 MLOAD PUSH1 0x1 PUSH1 0x1 PUSH1 0xA0 SHL SUB SWAP1 SWAP2 AND DUP2 MSTORE PUSH1 0x20 ADD PUSH2 0x11D JUMP JUMPDEST PUSH2 0x113 PUSH2 0x1C7 CALLDATASIZE PUSH1 0x4 PUSH2 0xA9B JUMP JUMPDEST PUSH1 0x6 PUSH1 0x20 MSTORE PUSH0 SWAP1 DUP2 MSTORE PUSH1 0x40 SWAP1 KECCAK256 SLOAD DUP2 JUMP JUMPDEST PUSH2 0x139 PUSH2 0x1E6 CALLDATASIZE PUSH1 0x4 PUSH2 0xAC1 JUMP JUMPDEST PUSH2 0x737 JUMP JUMPDEST PUSH2 0x113 PUSH1 0x4 SLOAD DUP2 JUMP JUMPDEST PUSH2 0x207 PUSH2 0x202 CALLDATASIZE PUSH1 0x4 PUSH2 0xA9B JUMP JUMPDEST PUSH2 0x8B0 JUMP JUMPDEST PUSH1 0x40 DUP1 MLOAD SWAP3 DUP4 MSTORE PUSH1 0x20 DUP4 ADD SWAP2 SWAP1 SWAP2 MSTORE ADD PUSH2 0x11D JUMP JUMPDEST PUSH2 0x139 PUSH2 0x22A CALLDATASIZE PUSH1 0x4 PUSH2 0xAC1 JUMP JUMPDEST PUSH2 0x8D9 JUMP JUMPDEST PUSH2 0x113 PUSH1 0x3 SLOAD DUP2 JUMP JUMPDEST PUSH2 0x113 PUSH2 0x246 CALLDATASIZE PUSH1 0x4 PUSH2 0xA9B JUMP JUMPDEST PUSH2 0xA11 JUMP JUMPDEST PUSH0 SLOAD PUSH2 0x1A1 SWAP1 PUSH1 0x1 PUSH1 0x1 PUSH1 0xA0 SHL SUB AND DUP2 JUMP JUMPDEST PUSH1 0x2 SLOAD PUSH2 0x1A1 SWAP1 PUSH1 0x1 PUSH1 0x1 PUSH1 0xA0 SHL SUB AND DUP2 JUMP JUMPDEST PUSH1 0x2 SLOAD PUSH1 0x1 PUSH1 0x1 PUSH1 0xA0 SHL SUB AND CALLER EQ PUSH2 0x2C0 JUMPI PUSH1 0x40 MLOAD PUSH3 0x461BCD PUSH1 0xE5 SHL DUP2 MSTORE PUSH1 0x20 PUSH1 0x4 DUP3 ADD MSTORE PUSH1 0xE PUSH1 0x24 DUP3 ADD MSTORE PUSH14 0x139BDD08185D5D1A1BDC9A5E9959 PUSH1 0x92 SHL PUSH1 0x44 DUP3 ADD MSTORE PUSH1 0x64 ADD JUMPDEST PUSH1 0x40 MLOAD DUP1 SWAP2 SUB SWAP1 REVERT JUMPDEST PUSH0 DUP2 GT PUSH2 0x30F JUMPI PUSH1 0x40 MLOAD PUSH3 0x461BCD PUSH1 0xE5 SHL DUP2 MSTORE PUSH1 0x20 PUSH1 0x4 DUP3 ADD DUP2 SWAP1 MSTORE PUSH1 0x24 DUP3 ADD MSTORE PUSH32 0x416D6F756E74206D7573742062652067726561746572207468616E207A65726F PUSH1 0x44 DUP3 ADD MSTORE PUSH1 0x64 ADD PUSH2 0x2B7 JUMP JUMPDEST PUSH0 SLOAD PUSH1 0x40 MLOAD PUSH4 0x23B872DD PUSH1 0xE0 SHL DUP2 MSTORE CALLER PUSH1 0x4 DUP3 ADD MSTORE ADDRESS PUSH1 0x24 DUP3 ADD MSTORE PUSH1 0x44 DUP2 ADD DUP4 SWAP1 MSTORE PUSH1 0x1 PUSH1 0x1 PUSH1 0xA0 SHL SUB SWAP1 SWAP2 AND SWAP1 PUSH4 0x23B872DD SWAP1 PUSH1 0x64 ADD PUSH1 0x20 PUSH1 0x40 MLOAD DUP1 DUP4 SUB DUP2 PUSH0 DUP8 GAS CALL ISZERO DUP1 ISZERO PUSH2 0x362 JUMPI RETURNDATASIZE PUSH0 DUP1 RETURNDATACOPY RETURNDATASIZE PUSH0 REVERT JUMPDEST POP POP POP POP PUSH1 0x40 MLOAD RETURNDATASIZE PUSH1 0x1F NOT PUSH1 0x1F DUP3 ADD AND DUP3 ADD DUP1 PUSH1 0x40 MSTORE POP DUP2 ADD SWAP1 PUSH2 0x386 SWAP2 SWAP1 PUSH2 0xAD8 JUMP JUMPDEST PUSH2 0x3D2 JUMPI PUSH1 0x40 MLOAD PUSH3 0x461BCD PUSH1 0xE5 SHL DUP2 MSTORE PUSH1 0x20 PUSH1 0x4 DUP3 ADD MSTORE PUSH1 0x15 PUSH1 0x24 DUP3 ADD MSTORE PUSH32 0x526577617264206465706F736974206661696C65640000000000000000000000 PUSH1 0x44 DUP3 ADD MSTORE PUSH1 0x64 ADD PUSH2 0x2B7 JUMP JUMPDEST PUSH1 0x40 MLOAD DUP2 DUP2 MSTORE PUSH32 0x4B19CB5D8DF041D8B4D367EFA19AF33A21D398F599FB445A29ACD9D5E56318C6 SWAP1 PUSH1 0x20 ADD JUMPDEST PUSH1 0x40 MLOAD DUP1 SWAP2 SUB SWAP1 LOG1 POP JUMP JUMPDEST CALLER PUSH0 SWAP1 DUP2 MSTORE PUSH1 0x5 PUSH1 0x20 MSTORE PUSH1 0x40 SWAP1 KECCAK256 SLOAD DUP2 GT ISZERO PUSH2 0x467 JUMPI PUSH1 0x40 MLOAD PUSH3 0x461BCD PUSH1 0xE5 SHL DUP2 MSTORE PUSH1 0x20 PUSH1 0x4 DUP3 ADD MSTORE PUSH1 0x1B PUSH1 0x24 DUP3 ADD MSTORE PUSH32 0x496E73756666696369656E74207374616B65642062616C616E63650000000000 PUSH1 0x44 DUP3 ADD MSTORE PUSH1 0x64 ADD PUSH2 0x2B7 JUMP JUMPDEST CALLER PUSH0 SWAP1 DUP2 MSTORE PUSH1 0x5 PUSH1 0x20 MSTORE PUSH1 0x40 DUP2 KECCAK256 DUP1 SLOAD DUP4 SWAP3 SWAP1 PUSH2 0x485 SWAP1 DUP5 SWAP1 PUSH2 0xB0B JUMP JUMPDEST SWAP1 SWAP2 SSTORE POP POP PUSH1 0x1 SLOAD PUSH1 0x40 MLOAD PUSH4 0xA9059CBB PUSH1 0xE0 SHL DUP2 MSTORE CALLER PUSH1 0x4 DUP3 ADD MSTORE PUSH1 0x24 DUP2 ADD DUP4 SWAP1 MSTORE PUSH1 0x1 PUSH1 0x1 PUSH1 0xA0 SHL SUB SWAP1 SWAP2 AND SWAP1 PUSH4 0xA9059CBB SWAP1 PUSH1 0x44 ADD PUSH1 0x20 PUSH1 0x40 MLOAD DUP1 DUP4 SUB DUP2 PUSH0 DUP8 GAS CALL ISZERO DUP1 ISZERO PUSH2 0x4D8 JUMPI RETURNDATASIZE PUSH0 DUP1 RETURNDATACOPY RETURNDATASIZE PUSH0 REVERT JUMPDEST POP POP POP POP PUSH1 0x40 MLOAD RETURNDATASIZE PUSH1 0x1F NOT PUSH1 0x1F DUP3 ADD AND DUP3 ADD DUP1 PUSH1 0x40 MSTORE POP DUP2 ADD SWAP1 PUSH2 0x4FC SWAP2 SWAP1 PUSH2 0xAD8 JUMP JUMPDEST PUSH2 0x548 JUMPI PUSH1 0x40 MLOAD PUSH3 0x461BCD PUSH1 0xE5 SHL DUP2 MSTORE PUSH1 0x20 PUSH1 0x4 DUP3 ADD MSTORE PUSH1 0x19 PUSH1 0x24 DUP3 ADD MSTORE PUSH32 0x556E7374616B696E67207472616E73666572206661696C656400000000000000 PUSH1 0x44 DUP3 ADD MSTORE PUSH1 0x64 ADD PUSH2 0x2B7 JUMP JUMPDEST PUSH1 0x40 MLOAD DUP2 DUP2 MSTORE CALLER SWAP1 PUSH32 0xF5BB82176FEB1B5E747E28471AA92156A04D9F3AB9F45F28E2D704232B93F75 SWAP1 PUSH1 0x20 ADD JUMPDEST PUSH1 0x40 MLOAD DUP1 SWAP2 SUB SWAP1 LOG2 POP JUMP JUMPDEST CALLER PUSH0 SWAP1 DUP2 MSTORE PUSH1 0x5 PUSH1 0x20 MSTORE PUSH1 0x40 SWAP1 KECCAK256 SLOAD PUSH2 0x5DC JUMPI PUSH1 0x40 MLOAD PUSH3 0x461BCD PUSH1 0xE5 SHL DUP2 MSTORE PUSH1 0x20 PUSH1 0x4 DUP3 ADD MSTORE PUSH1 0x10 PUSH1 0x24 DUP3 ADD MSTORE PUSH32 0x4E6F207374616B656420746F6B656E7300000000000000000000000000000000 PUSH1 0x44 DUP3 ADD MSTORE PUSH1 0x64 ADD PUSH2 0x2B7 JUMP JUMPDEST PUSH0 PUSH2 0x5E6 CALLER PUSH2 0xA11 JUMP JUMPDEST SWAP1 POP PUSH0 DUP2 GT PUSH2 0x637 JUMPI PUSH1 0x40 MLOAD PUSH3 0x461BCD PUSH1 0xE5 SHL DUP2 MSTORE PUSH1 0x20 PUSH1 0x4 DUP3 ADD MSTORE PUSH1 0x12 PUSH1 0x24 DUP3 ADD MSTORE PUSH32 0x4E6F2072657761726420746F20636C61696D0000000000000000000000000000 PUSH1 0x44 DUP3 ADD MSTORE PUSH1 0x64 ADD PUSH2 0x2B7 JUMP JUMPDEST CALLER PUSH0 DUP2 DUP2 MSTORE PUSH1 0x6 PUSH1 0x20 MSTORE PUSH1 0x40 DUP1 DUP3 KECCAK256 TIMESTAMP SWAP1 SSTORE SWAP1 SLOAD SWAP1 MLOAD PUSH4 0xA9059CBB PUSH1 0xE0 SHL DUP2 MSTORE PUSH1 0x4 DUP2 ADD SWAP3 SWAP1 SWAP3 MSTORE PUSH1 0x24 DUP3 ADD DUP4 SWAP1 MSTORE PUSH1 0x1 PUSH1 0x1 PUSH1 0xA0 SHL SUB AND SWAP1 PUSH4 0xA9059CBB SWAP1 PUSH1 0x44 ADD PUSH1 0x20 PUSH1 0x40 MLOAD DUP1 DUP4 SUB DUP2 PUSH0 DUP8 GAS CALL ISZERO DUP1 ISZERO PUSH2 0x695 JUMPI RETURNDATASIZE PUSH0 DUP1 RETURNDATACOPY RETURNDATASIZE PUSH0 REVERT JUMPDEST POP POP POP POP PUSH1 0x40 MLOAD RETURNDATASIZE PUSH1 0x1F NOT PUSH1 0x1F DUP3 ADD AND DUP3 ADD DUP1 PUSH1 0x40 MSTORE POP DUP2 ADD SWAP1 PUSH2 0x6B9 SWAP2 SWAP1 PUSH2 0xAD8 JUMP JUMPDEST PUSH2 0x705 JUMPI PUSH1 0x40 MLOAD PUSH3 0x461BCD PUSH1 0xE5 SHL DUP2 MSTORE PUSH1 0x20 PUSH1 0x4 DUP3 ADD MSTORE PUSH1 0x16 PUSH1 0x24 DUP3 ADD MSTORE PUSH32 0x526577617264207472616E73666572206661696C656400000000000000000000 PUSH1 0x44 DUP3 ADD MSTORE PUSH1 0x64 ADD PUSH2 0x2B7 JUMP JUMPDEST PUSH1 0x40 MLOAD DUP2 DUP2 MSTORE CALLER SWAP1 PUSH32 0x106F923F993C2149D49B4255FF723ACAFA1F2D94393F561D3EDA32AE348F7241 SWAP1 PUSH1 0x20 ADD PUSH2 0x576 JUMP JUMPDEST PUSH0 DUP2 GT PUSH2 0x786 JUMPI PUSH1 0x40 MLOAD PUSH3 0x461BCD PUSH1 0xE5 SHL DUP2 MSTORE PUSH1 0x20 PUSH1 0x4 DUP3 ADD MSTORE PUSH1 0xE PUSH1 0x24 DUP3 ADD MSTORE PUSH32 0x43616E6E6F74207374616B652030000000000000000000000000000000000000 PUSH1 0x44 DUP3 ADD MSTORE PUSH1 0x64 ADD PUSH2 0x2B7 JUMP JUMPDEST PUSH1 0x1 SLOAD PUSH1 0x40 MLOAD PUSH4 0x23B872DD PUSH1 0xE0 SHL DUP2 MSTORE CALLER PUSH1 0x4 DUP3 ADD MSTORE ADDRESS PUSH1 0x24 DUP3 ADD MSTORE PUSH1 0x44 DUP2 ADD DUP4 SWAP1 MSTORE PUSH1 0x1 PUSH1 0x1 PUSH1 0xA0 SHL SUB SWAP1 SWAP2 AND SWAP1 PUSH4 0x23B872DD SWAP1 PUSH1 0x64 ADD PUSH1 0x20 PUSH1 0x40 MLOAD DUP1 DUP4 SUB DUP2 PUSH0 DUP8 GAS CALL ISZERO DUP1 ISZERO PUSH2 0x7DA JUMPI RETURNDATASIZE PUSH0 DUP1 RETURNDATACOPY RETURNDATASIZE PUSH0 REVERT JUMPDEST POP POP POP POP PUSH1 0x40 MLOAD RETURNDATASIZE PUSH1 0x1F NOT PUSH1 0x1F DUP3 ADD AND DUP3 ADD DUP1 PUSH1 0x40 MSTORE POP DUP2 ADD SWAP1 PUSH2 0x7FE SWAP2 SWAP1 PUSH2 0xAD8 JUMP JUMPDEST PUSH2 0x84A JUMPI PUSH1 0x40 MLOAD PUSH3 0x461BCD PUSH1 0xE5 SHL DUP2 MSTORE PUSH1 0x20 PUSH1 0x4 DUP3 ADD MSTORE PUSH1 0x17 PUSH1 0x24 DUP3 ADD MSTORE PUSH32 0x5374616B696E67207472616E73666572206661696C6564000000000000000000 PUSH1 0x44 DUP3 ADD MSTORE PUSH1 0x64 ADD PUSH2 0x2B7 JUMP JUMPDEST CALLER PUSH0 SWAP1 DUP2 MSTORE PUSH1 0x5 PUSH1 0x20 MSTORE PUSH1 0x40 DUP2 KECCAK256 DUP1 SLOAD DUP4 SWAP3 SWAP1 PUSH2 0x868 SWAP1 DUP5 SWAP1 PUSH2 0xB24 JUMP JUMPDEST SWAP1 SWAP2 SSTORE POP POP CALLER PUSH0 DUP2 DUP2 MSTORE PUSH1 0x6 PUSH1 0x20 MSTORE PUSH1 0x40 SWAP1 DUP2 SWAP1 KECCAK256 TIMESTAMP SWAP1 SSTORE MLOAD PUSH32 0x9E71BC8EEA02A63969F509818F2DAFB9254532904319F9DBDA79B67BD34A5F3D SWAP1 PUSH2 0x576 SWAP1 DUP5 DUP2 MSTORE PUSH1 0x20 ADD SWAP1 JUMP JUMPDEST PUSH1 0x1 PUSH1 0x1 PUSH1 0xA0 SHL SUB DUP2 AND PUSH0 SWAP1 DUP2 MSTORE PUSH1 0x5 PUSH1 0x20 MSTORE PUSH1 0x40 DUP2 KECCAK256 SLOAD SWAP1 PUSH2 0x8D2 DUP4 PUSH2 0xA11 JUMP JUMPDEST SWAP1 POP SWAP2 POP SWAP2 JUMP JUMPDEST PUSH1 0x2 SLOAD PUSH1 0x1 PUSH1 0x1 PUSH1 0xA0 SHL SUB AND CALLER EQ PUSH2 0x924 JUMPI PUSH1 0x40 MLOAD PUSH3 0x461BCD PUSH1 0xE5 SHL DUP2 MSTORE PUSH1 0x20 PUSH1 0x4 DUP3 ADD MSTORE PUSH1 0xE PUSH1 0x24 DUP3 ADD MSTORE PUSH14 0x139BDD08185D5D1A1BDC9A5E9959 PUSH1 0x92 SHL PUSH1 0x44 DUP3 ADD MSTORE PUSH1 0x64 ADD PUSH2 0x2B7 JUMP JUMPDEST PUSH0 SLOAD PUSH1 0x40 MLOAD PUSH4 0xA9059CBB PUSH1 0xE0 SHL DUP2 MSTORE CALLER PUSH1 0x4 DUP3 ADD MSTORE PUSH1 0x24 DUP2 ADD DUP4 SWAP1 MSTORE PUSH1 0x1 PUSH1 0x1 PUSH1 0xA0 SHL SUB SWAP1 SWAP2 AND SWAP1 PUSH4 0xA9059CBB SWAP1 PUSH1 0x44 ADD PUSH1 0x20 PUSH1 0x40 MLOAD DUP1 DUP4 SUB DUP2 PUSH0 DUP8 GAS CALL ISZERO DUP1 ISZERO PUSH2 0x971 JUMPI RETURNDATASIZE PUSH0 DUP1 RETURNDATACOPY RETURNDATASIZE PUSH0 REVERT JUMPDEST POP POP POP POP PUSH1 0x40 MLOAD RETURNDATASIZE PUSH1 0x1F NOT PUSH1 0x1F DUP3 ADD AND DUP3 ADD DUP1 PUSH1 0x40 MSTORE POP DUP2 ADD SWAP1 PUSH2 0x995 SWAP2 SWAP1 PUSH2 0xAD8 JUMP JUMPDEST PUSH2 0x9E1 JUMPI PUSH1 0x40 MLOAD PUSH3 0x461BCD PUSH1 0xE5 SHL DUP2 MSTORE PUSH1 0x20 PUSH1 0x4 DUP3 ADD MSTORE PUSH1 0x16 PUSH1 0x24 DUP3 ADD MSTORE PUSH32 0x526577617264207769746864726177206661696C656400000000000000000000 PUSH1 0x44 DUP3 ADD MSTORE PUSH1 0x64 ADD PUSH2 0x2B7 JUMP JUMPDEST PUSH1 0x40 MLOAD DUP2 DUP2 MSTORE PUSH32 0x150A6EC0E6F4E9DDCAAAA1674F157D91165A42D60653016F87A9FC870A39F050 SWAP1 PUSH1 0x20 ADD PUSH2 0x3FE JUMP JUMPDEST PUSH1 0x1 PUSH1 0x1 PUSH1 0xA0 SHL SUB DUP2 AND PUSH0 SWAP1 DUP2 MSTORE PUSH1 0x6 PUSH1 0x20 MSTORE PUSH1 0x40 DUP2 KECCAK256 SLOAD DUP2 SWAP1 PUSH2 0xA35 SWAP1 TIMESTAMP PUSH2 0xB0B JUMP JUMPDEST PUSH1 0x4 SLOAD PUSH1 0x2 SLOAD SWAP2 SWAP3 POP PUSH2 0xA5A SWAP2 PUSH1 0x1 PUSH1 0xA0 SHL SWAP1 DIV PUSH10 0xFFFFFFFFFFFFFFFFFFFF AND PUSH2 0xB37 JUMP JUMPDEST PUSH1 0x3 SLOAD PUSH1 0x1 PUSH1 0x1 PUSH1 0xA0 SHL SUB DUP6 AND PUSH0 SWAP1 DUP2 MSTORE PUSH1 0x5 PUSH1 0x20 MSTORE PUSH1 0x40 SWAP1 KECCAK256 SLOAD PUSH2 0xA80 SWAP1 DUP5 SWAP1 PUSH2 0xB37 JUMP JUMPDEST PUSH2 0xA8A SWAP2 SWAP1 PUSH2 0xB37 JUMP JUMPDEST PUSH2 0xA94 SWAP2 SWAP1 PUSH2 0xB4E JUMP JUMPDEST SWAP4 SWAP3 POP POP POP JUMP JUMPDEST PUSH0 PUSH1 0x20 DUP3 DUP5 SUB SLT ISZERO PUSH2 0xAAB JUMPI PUSH0 DUP1 REVERT JUMPDEST DUP2 CALLDATALOAD PUSH1 0x1 PUSH1 0x1 PUSH1 0xA0 SHL SUB DUP2 AND DUP2 EQ PUSH2 0xA94 JUMPI PUSH0 DUP1 REVERT JUMPDEST PUSH0 PUSH1 0x20 DUP3 DUP5 SUB SLT ISZERO PUSH2 0xAD1 JUMPI PUSH0 DUP1 REVERT JUMPDEST POP CALLDATALOAD SWAP2 SWAP1 POP JUMP JUMPDEST PUSH0 PUSH1 0x20 DUP3 DUP5 SUB SLT ISZERO PUSH2 0xAE8 JUMPI PUSH0 DUP1 REVERT JUMPDEST DUP2 MLOAD DUP1 ISZERO ISZERO DUP2 EQ PUSH2 0xA94 JUMPI PUSH0 DUP1 REVERT JUMPDEST PUSH4 0x4E487B71 PUSH1 0xE0 SHL PUSH0 MSTORE PUSH1 0x11 PUSH1 0x4 MSTORE PUSH1 0x24 PUSH0 REVERT JUMPDEST DUP2 DUP2 SUB DUP2 DUP2 GT ISZERO PUSH2 0xB1E JUMPI PUSH2 0xB1E PUSH2 0xAF7 JUMP JUMPDEST SWAP3 SWAP2 POP POP JUMP JUMPDEST DUP1 DUP3 ADD DUP1 DUP3 GT ISZERO PUSH2 0xB1E JUMPI PUSH2 0xB1E PUSH2 0xAF7 JUMP JUMPDEST DUP1 DUP3 MUL DUP2 ISZERO DUP3 DUP3 DIV DUP5 EQ OR PUSH2 0xB1E JUMPI PUSH2 0xB1E PUSH2 0xAF7 JUMP JUMPDEST PUSH0 DUP3 PUSH2 0xB68 JUMPI PUSH4 0x4E487B71 PUSH1 0xE0 SHL PUSH0 MSTORE PUSH1 0x12 PUSH1 0x4 MSTORE PUSH1 0x24 PUSH0 REVERT JUMPDEST POP DIV SWAP1 JUMP INVALID LOG2 PUSH5 0x6970667358 0x22 SLT KECCAK256 0xCD BLOBBASEFEE CALLDATALOAD TSTORE PUSH9 0x1CD4FB4B98323727F1 PUSH14 0x7678EAD2F2614E6D82455F3FF6C6 0xBB PUSH29 0xF664736F6C634300081900330000000000000000000000000000000000 "
    },
    "gasEstimates": {
      "creation": {
        "codeDepositCost": "595800",
        "executionCost": "infinite",
        "totalCost": "infinite"
      },
      "external": {
        "admin()": "2424",
        "calculateReward(address)": "infinite",
        "claimRewards()": "infinite",
        "depositRewardTokens(uint256)": "infinite",
        "getStakeInfo(address)": "infinite",
        "rewardRatioDenominator()": "2328",
        "rewardRatioNumerator()": "2305",
        "rewardToken()": "2401",
        "stake(uint256)": "infinite",
        "stakedBalances(address)": "2494",
        "stakingTimestamps(address)": "2559",
        "stakingToken()": "2403",
        "timeUnit()": "2374",
        "unstake(uint256)": "infinite",
        "withdrawRewardTokens(uint256)": "infinite"
      }
    },
    "methodIdentifiers": {
      "admin()": "f851a440",
      "calculateReward(address)": "d82e3962",
      "claimRewards()": "372500ab",
      "depositRewardTokens(uint256)": "16c621e0",
      "getStakeInfo(address)": "c3453153",
      "rewardRatioDenominator()": "b5d90dc0",
      "rewardRatioNumerator()": "cc317f31",
      "rewardToken()": "f7c618c1",
      "stake(uint256)": "a694fc3a",
      "stakedBalances(address)": "1460fa87",
      "stakingTimestamps(address)": "937b983b",
      "stakingToken()": "72f702f3",
      "timeUnit()": "3c6a7f9b",
      "unstake(uint256)": "2e17de78",
      "withdrawRewardTokens(uint256)": "cb43b2dd"
    }
  },
  "storageLayout": {
    "storage": [
      {
        "astId": 1564,
        "contract": "05_StakingBaru.sol:StakingBaru2",
        "label": "rewardToken",
        "offset": 0,
        "slot": "0",
        "type": "t_address"
      },
      {
        "astId": 1566,
        "contract": "05_StakingBaru.sol:StakingBaru2",
        "label": "stakingToken",
        "offset": 0,
        "slot": "1",
        "type": "t_address"
      },
      {
        "astId": 1568,
        "contract": "05_StakingBaru.sol:StakingBaru2",
        "label": "admin",
        "offset": 0,
        "slot": "2",
        "type": "t_address"
      },
      {
        "astId": 1570,
        "contract": "05_StakingBaru.sol:StakingBaru2",
        "label": "timeUnit",
        "offset": 20,
        "slot": "2",
        "type": "t_uint80"
      },
      {
        "astId": 1572,
        "contract": "05_StakingBaru.sol:StakingBaru2",
        "label": "rewardRatioNumerator",
        "offset": 0,
        "slot": "3",
        "type": "t_uint256"
      },
      {
        "astId": 1574,
        "contract": "05_StakingBaru.sol:StakingBaru2",
        "label": "rewardRatioDenominator",
        "offset": 0,
        "slot": "4",
        "type": "t_uint256"
      },
      {
        "astId": 1578,
        "contract": "05_StakingBaru.sol:StakingBaru2",
        "label": "stakedBalances",
        "offset": 0,
        "slot": "5",
        "type": "t_mapping(t_address,t_uint256)"
      },
      {
        "astId": 1582,
        "contract": "05_StakingBaru.sol:StakingBaru2",
        "label": "stakingTimestamps",
        "offset": 0,
        "slot": "6",
        "type": "t_mapping(t_address,t_uint256)"
      }
    ],
    "types": {
      "t_address": {
        "encoding": "inplace",
        "label": "address",
        "numberOfBytes": "20"
      },
      "t_mapping(t_address,t_uint256)": {
        "encoding": "mapping",
        "key": "t_address",
        "label": "mapping(address => uint256)",
        "numberOfBytes": "32",
        "value": "t_uint256"
      },
      "t_uint256": {
        "encoding": "inplace",
        "label": "uint256",
        "numberOfBytes": "32"
      },
      "t_uint80": {
        "encoding": "inplace",
        "label": "uint80",
        "numberOfBytes": "10"
      }
    }
  },
  "userdoc": {
    "kind": "user",
    "methods": {},
    "version": 1
  }
}