{
  "abi": [
    {
      "inputs": [
        {
          "internalType": "uint256",
          "name": "",
          "type": "uint256"
        }
      ],
      "name": "campaigns",
      "outputs": [
        {
          "internalType": "address",
          "name": "owner",
          "type": "address"
        },
        {
          "internalType": "string",
          "name": "nameOwner",
          "type": "string"
        },
        {
          "internalType": "string",
          "name": "instagram",
          "type": "string"
        },
        {
          "internalType": "string",
          "name": "twitter",
          "type": "string"
        },
        {
          "internalType": "string",
          "name": "telegram",
          "type": "string"
        },
        {
          "internalType": "string",
          "name": "title",
          "type": "string"
        },
        {
          "internalType": "string",
          "name": "description",
          "type": "string"
        },
        {
          "internalType": "uint256",
          "name": "target",
          "type": "uint256"
        },
        {
          "internalType": "uint256",
          "name": "deadline",
          "type": "uint256"
        },
        {
          "internalType": "uint256",
          "name": "amountCollected",
          "type": "uint256"
        },
        {
          "internalType": "string",
          "name": "image",
          "type": "string"
        }
      ],
      "stateMutability": "view",
      "type": "function"
    },
    {
      "inputs": [
        {
          "internalType": "address",
          "name": "_owner",
          "type": "address"
        },
        {
          "internalType": "string",
          "name": "_nameOwner",
          "type": "string"
        },
        {
          "internalType": "string",
          "name": "_instagram",
          "type": "string"
        },
        {
          "internalType": "string",
          "name": "_twitter",
          "type": "string"
        },
        {
          "internalType": "string",
          "name": "_telegram",
          "type": "string"
        },
        {
          "internalType": "string",
          "name": "_title",
          "type": "string"
        },
        {
          "internalType": "string",
          "name": "_description",
          "type": "string"
        },
        {
          "internalType": "uint256",
          "name": "_target",
          "type": "uint256"
        },
        {
          "internalType": "uint256",
          "name": "_deadline",
          "type": "uint256"
        },
        {
          "internalType": "string",
          "name": "_image",
          "type": "string"
        }
      ],
      "name": "createCampaign",
      "outputs": [
        {
          "internalType": "uint256",
          "name": "",
          "type": "uint256"
        }
      ],
      "stateMutability": "nonpayable",
      "type": "function"
    },
    {
      "inputs": [
        {
          "internalType": "uint256",
          "name": "_id",
          "type": "uint256"
        }
      ],
      "name": "donateToCampaign",
      "outputs": [],
      "stateMutability": "payable",
      "type": "function"
    },
    {
      "inputs": [],
      "name": "getCampaigns",
      "outputs": [
        {
          "components": [
            {
              "internalType": "address",
              "name": "owner",
              "type": "address"
            },
            {
              "internalType": "string",
              "name": "nameOwner",
              "type": "string"
            },
            {
              "internalType": "string",
              "name": "instagram",
              "type": "string"
            },
            {
              "internalType": "string",
              "name": "twitter",
              "type": "string"
            },
            {
              "internalType": "string",
              "name": "telegram",
              "type": "string"
            },
            {
              "internalType": "string",
              "name": "title",
              "type": "string"
            },
            {
              "internalType": "string",
              "name": "description",
              "type": "string"
            },
            {
              "internalType": "uint256",
              "name": "target",
              "type": "uint256"
            },
            {
              "internalType": "uint256",
              "name": "deadline",
              "type": "uint256"
            },
            {
              "internalType": "uint256",
              "name": "amountCollected",
              "type": "uint256"
            },
            {
              "internalType": "string",
              "name": "image",
              "type": "string"
            },
            {
              "internalType": "address[]",
              "name": "donators",
              "type": "address[]"
            },
            {
              "internalType": "uint256[]",
              "name": "donations",
              "type": "uint256[]"
            }
          ],
          "internalType": "struct Crowdfunding.Campaign[]",
          "name": "",
          "type": "tuple[]"
        }
      ],
      "stateMutability": "view",
      "type": "function"
    },
    {
      "inputs": [
        {
          "internalType": "uint256",
          "name": "_id",
          "type": "uint256"
        }
      ],
      "name": "getDonators",
      "outputs": [
        {
          "internalType": "address[]",
          "name": "",
          "type": "address[]"
        },
        {
          "internalType": "uint256[]",
          "name": "",
          "type": "uint256[]"
        }
      ],
      "stateMutability": "view",
      "type": "function"
    },
    {
      "inputs": [],
      "name": "numberOfCampaigns",
      "outputs": [
        {
          "internalType": "uint256",
          "name": "",
          "type": "uint256"
        }
      ],
      "stateMutability": "view",
      "type": "function"
    }
  ],
  "devdoc": {
    "kind": "dev",
    "methods": {},
    "version": 1
  },
  "evm": {
    "assembly": "    /* \"01_Crowdfunding.sol\":60:4176  contract Crowdfunding {... */\n  mstore(0x40, 0x80)\n    /* \"01_Crowdfunding.sol\":944:945  0 */\n  0x00\n    /* \"01_Crowdfunding.sol\":909:945  uint256 public numberOfCampaigns = 0 */\n  0x01\n  sstore\n    /* \"01_Crowdfunding.sol\":60:4176  contract Crowdfunding {... */\n  callvalue\n  dup1\n  iszero\n  tag_1\n  jumpi\n  0x00\n  dup1\n  revert\ntag_1:\n  pop\n  dataSize(sub_0)\n  dup1\n  dataOffset(sub_0)\n  0x00\n  codecopy\n  0x00\n  return\nstop\n\nsub_0: assembly {\n        /* \"01_Crowdfunding.sol\":60:4176  contract Crowdfunding {... */\n      mstore(0x40, 0x80)\n      jumpi(tag_1, lt(calldatasize, 0x04))\n      shr(0xe0, calldataload(0x00))\n      dup1\n      0x42a4fda8\n      gt\n      tag_8\n      jumpi\n      dup1\n      0x42a4fda8\n      eq\n      tag_5\n      jumpi\n      dup1\n      0xa6b03633\n      eq\n      tag_6\n      jumpi\n      dup1\n      0xda52d95f\n      eq\n      tag_7\n      jumpi\n      0x00\n      dup1\n      revert\n    tag_8:\n      dup1\n      0x07ca140d\n      eq\n      tag_2\n      jumpi\n      dup1\n      0x0fa91fa9\n      eq\n      tag_3\n      jumpi\n      dup1\n      0x141961bc\n      eq\n      tag_4\n      jumpi\n    tag_1:\n      0x00\n      dup1\n      revert\n        /* \"01_Crowdfunding.sol\":909:945  uint256 public numberOfCampaigns = 0 */\n    tag_2:\n      callvalue\n      dup1\n      iszero\n      tag_9\n      jumpi\n      0x00\n      dup1\n      revert\n    tag_9:\n      pop\n      tag_10\n      sload(0x01)\n      dup2\n      jump\n    tag_10:\n      mload(0x40)\n        /* \"#utility.yul\":160:185   */\n      swap1\n      dup2\n      mstore\n        /* \"#utility.yul\":148:150   */\n      0x20\n        /* \"#utility.yul\":133:151   */\n      add\n        /* \"01_Crowdfunding.sol\":909:945  uint256 public numberOfCampaigns = 0 */\n    tag_12:\n      mload(0x40)\n      dup1\n      swap2\n      sub\n      swap1\n      return\n        /* \"01_Crowdfunding.sol\":3422:3653  function getDonators(uint256 _id) public view returns (address[] memory, uint256[] memory) {... */\n    tag_3:\n      callvalue\n      dup1\n      iszero\n      tag_14\n      jumpi\n      0x00\n      dup1\n      revert\n    tag_14:\n      pop\n      tag_15\n      tag_16\n      calldatasize\n      0x04\n      tag_17\n      jump\t// in\n    tag_16:\n      tag_18\n      jump\t// in\n    tag_15:\n      mload(0x40)\n      tag_12\n      swap3\n      swap2\n      swap1\n      tag_20\n      jump\t// in\n        /* \"01_Crowdfunding.sol\":823:868  mapping(uint256 => Campaign) public campaigns */\n    tag_4:\n      callvalue\n      dup1\n      iszero\n      tag_21\n      jumpi\n      0x00\n      dup1\n      revert\n    tag_21:\n      pop\n      tag_22\n      tag_23\n      calldatasize\n      0x04\n      tag_17\n      jump\t// in\n    tag_23:\n      tag_24\n      jump\t// in\n    tag_22:\n      mload(0x40)\n      tag_12\n      swap12\n      swap11\n      swap10\n      swap9\n      swap8\n      swap7\n      swap6\n      swap5\n      swap4\n      swap3\n      swap2\n      swap1\n      tag_26\n      jump\t// in\n        /* \"01_Crowdfunding.sol\":2361:3382  function donateToCampaign(uint256 _id) public payable {... */\n    tag_5:\n      tag_27\n      tag_28\n      calldatasize\n      0x04\n      tag_17\n      jump\t// in\n    tag_28:\n      tag_29\n      jump\t// in\n    tag_27:\n      stop\n        /* \"01_Crowdfunding.sol\":3690:4173  function getCampaigns() public view returns (Campaign[] memory) {... */\n    tag_6:\n      callvalue\n      dup1\n      iszero\n      tag_30\n      jumpi\n      0x00\n      dup1\n      revert\n    tag_30:\n      pop\n      tag_31\n      tag_32\n      jump\t// in\n    tag_31:\n      mload(0x40)\n      tag_12\n      swap2\n      swap1\n      tag_34\n      jump\t// in\n        /* \"01_Crowdfunding.sol\":1003:2320  function createCampaign( ... */\n    tag_7:\n      callvalue\n      dup1\n      iszero\n      tag_35\n      jumpi\n      0x00\n      dup1\n      revert\n    tag_35:\n      pop\n      tag_10\n      tag_37\n      calldatasize\n      0x04\n      tag_38\n      jump\t// in\n    tag_37:\n      tag_39\n      jump\t// in\n        /* \"01_Crowdfunding.sol\":3422:3653  function getDonators(uint256 _id) public view returns (address[] memory, uint256[] memory) {... */\n    tag_18:\n        /* \"01_Crowdfunding.sol\":3595:3604  campaigns */\n      0x00\n        /* \"01_Crowdfunding.sol\":3595:3609  campaigns[_id] */\n      dup2\n      dup2\n      mstore\n      0x20\n      dup2\n      dup2\n      mstore\n      0x40\n      swap2\n      dup3\n      swap1\n      keccak256\n        /* \"01_Crowdfunding.sol\":3595:3618  campaigns[_id].donators */\n      0x0b\n      dup2\n      add\n        /* \"01_Crowdfunding.sol\":3587:3645  return (campaigns[_id].donators, campaigns[_id].donations) */\n      dup1\n      sload\n      dup5\n      mload\n      dup2\n      dup6\n      mul\n      dup2\n      add\n      dup6\n      add\n      swap1\n      swap6\n      mstore\n      dup1\n      dup6\n      mstore\n        /* \"01_Crowdfunding.sol\":3477:3493  address[] memory */\n      0x60\n      swap5\n      dup6\n      swap5\n        /* \"01_Crowdfunding.sol\":3595:3618  campaigns[_id].donators */\n      swap3\n      swap4\n        /* \"01_Crowdfunding.sol\":3620:3644  campaigns[_id].donations */\n      0x0c\n      add\n      swap3\n        /* \"01_Crowdfunding.sol\":3587:3645  return (campaigns[_id].donators, campaigns[_id].donations) */\n      swap1\n      swap2\n        /* \"01_Crowdfunding.sol\":3595:3618  campaigns[_id].donators */\n      dup5\n      swap2\n        /* \"01_Crowdfunding.sol\":3587:3645  return (campaigns[_id].donators, campaigns[_id].donations) */\n      dup4\n      add\n        /* \"01_Crowdfunding.sol\":3595:3618  campaigns[_id].donators */\n      dup3\n        /* \"01_Crowdfunding.sol\":3587:3645  return (campaigns[_id].donators, campaigns[_id].donations) */\n      dup3\n      dup1\n      iszero\n      tag_42\n      jumpi\n      0x20\n      mul\n      dup3\n      add\n      swap2\n      swap1\n      0x00\n      mstore\n      keccak256(0x00, 0x20)\n      swap1\n    tag_43:\n      dup2\n      sload\n      sub(shl(0xa0, 0x01), 0x01)\n      and\n      dup2\n      mstore\n      0x01\n      swap1\n      swap2\n      add\n      swap1\n      0x20\n      add\n      dup1\n      dup4\n      gt\n      tag_43\n      jumpi\n    tag_42:\n      pop\n      pop\n      pop\n      pop\n      pop\n      swap2\n      pop\n      dup1\n      dup1\n      sload\n      dup1\n      0x20\n      mul\n      0x20\n      add\n      mload(0x40)\n      swap1\n      dup2\n      add\n      0x40\n      mstore\n      dup1\n      swap3\n      swap2\n      swap1\n      dup2\n      dup2\n      mstore\n      0x20\n      add\n      dup3\n      dup1\n      sload\n      dup1\n      iszero\n      tag_44\n      jumpi\n      0x20\n      mul\n      dup3\n      add\n      swap2\n      swap1\n      0x00\n      mstore\n      keccak256(0x00, 0x20)\n      swap1\n    tag_45:\n      dup2\n      sload\n      dup2\n      mstore\n      0x20\n      add\n      swap1\n      0x01\n      add\n      swap1\n      dup1\n      dup4\n      gt\n      tag_45\n      jumpi\n    tag_44:\n      pop\n      pop\n      pop\n      pop\n      pop\n      swap1\n      pop\n      swap2\n      pop\n      swap2\n      pop\n        /* \"01_Crowdfunding.sol\":3422:3653  function getDonators(uint256 _id) public view returns (address[] memory, uint256[] memory) {... */\n      swap2\n      pop\n      swap2\n      jump\t// out\n        /* \"01_Crowdfunding.sol\":823:868  mapping(uint256 => Campaign) public campaigns */\n    tag_24:\n      0x00\n      0x20\n      dup2\n      swap1\n      mstore\n      swap1\n      dup2\n      mstore\n      0x40\n      swap1\n      keccak256\n      dup1\n      sload\n      0x01\n      dup3\n      add\n      dup1\n      sload\n      sub(shl(0xa0, 0x01), 0x01)\n      swap1\n      swap3\n      and\n      swap3\n      swap2\n      tag_46\n      swap1\n      tag_47\n      jump\t// in\n    tag_46:\n      dup1\n      0x1f\n      add\n      0x20\n      dup1\n      swap2\n      div\n      mul\n      0x20\n      add\n      mload(0x40)\n      swap1\n      dup2\n      add\n      0x40\n      mstore\n      dup1\n      swap3\n      swap2\n      swap1\n      dup2\n      dup2\n      mstore\n      0x20\n      add\n      dup3\n      dup1\n      sload\n      tag_48\n      swap1\n      tag_47\n      jump\t// in\n    tag_48:\n      dup1\n      iszero\n      tag_49\n      jumpi\n      dup1\n      0x1f\n      lt\n      tag_50\n      jumpi\n      0x0100\n      dup1\n      dup4\n      sload\n      div\n      mul\n      dup4\n      mstore\n      swap2\n      0x20\n      add\n      swap2\n      jump(tag_49)\n    tag_50:\n      dup3\n      add\n      swap2\n      swap1\n      0x00\n      mstore\n      keccak256(0x00, 0x20)\n      swap1\n    tag_51:\n      dup2\n      sload\n      dup2\n      mstore\n      swap1\n      0x01\n      add\n      swap1\n      0x20\n      add\n      dup1\n      dup4\n      gt\n      tag_51\n      jumpi\n      dup3\n      swap1\n      sub\n      0x1f\n      and\n      dup3\n      add\n      swap2\n    tag_49:\n      pop\n      pop\n      pop\n      pop\n      pop\n      swap1\n      dup1\n      0x02\n      add\n      dup1\n      sload\n      tag_52\n      swap1\n      tag_47\n      jump\t// in\n    tag_52:\n      dup1\n      0x1f\n      add\n      0x20\n      dup1\n      swap2\n      div\n      mul\n      0x20\n      add\n      mload(0x40)\n      swap1\n      dup2\n      add\n      0x40\n      mstore\n      dup1\n      swap3\n      swap2\n      swap1\n      dup2\n      dup2\n      mstore\n      0x20\n      add\n      dup3\n      dup1\n      sload\n      tag_53\n      swap1\n      tag_47\n      jump\t// in\n    tag_53:\n      dup1\n      iszero\n      tag_54\n      jumpi\n      dup1\n      0x1f\n      lt\n      tag_55\n      jumpi\n      0x0100\n      dup1\n      dup4\n      sload\n      div\n      mul\n      dup4\n      mstore\n      swap2\n      0x20\n      add\n      swap2\n      jump(tag_54)\n    tag_55:\n      dup3\n      add\n      swap2\n      swap1\n      0x00\n      mstore\n      keccak256(0x00, 0x20)\n      swap1\n    tag_56:\n      dup2\n      sload\n      dup2\n      mstore\n      swap1\n      0x01\n      add\n      swap1\n      0x20\n      add\n      dup1\n      dup4\n      gt\n      tag_56\n      jumpi\n      dup3\n      swap1\n      sub\n      0x1f\n      and\n      dup3\n      add\n      swap2\n    tag_54:\n      pop\n      pop\n      pop\n      pop\n      pop\n      swap1\n      dup1\n      0x03\n      add\n      dup1\n      sload\n      tag_57\n      swap1\n      tag_47\n      jump\t// in\n    tag_57:\n      dup1\n      0x1f\n      add\n      0x20\n      dup1\n      swap2\n      div\n      mul\n      0x20\n      add\n      mload(0x40)\n      swap1\n      dup2\n      add\n      0x40\n      mstore\n      dup1\n      swap3\n      swap2\n      swap1\n      dup2\n      dup2\n      mstore\n      0x20\n      add\n      dup3\n      dup1\n      sload\n      tag_58\n      swap1\n      tag_47\n      jump\t// in\n    tag_58:\n      dup1\n      iszero\n      tag_59\n      jumpi\n      dup1\n      0x1f\n      lt\n      tag_60\n      jumpi\n      0x0100\n      dup1\n      dup4\n      sload\n      div\n      mul\n      dup4\n      mstore\n      swap2\n      0x20\n      add\n      swap2\n      jump(tag_59)\n    tag_60:\n      dup3\n      add\n      swap2\n      swap1\n      0x00\n      mstore\n      keccak256(0x00, 0x20)\n      swap1\n    tag_61:\n      dup2\n      sload\n      dup2\n      mstore\n      swap1\n      0x01\n      add\n      swap1\n      0x20\n      add\n      dup1\n      dup4\n      gt\n      tag_61\n      jumpi\n      dup3\n      swap1\n      sub\n      0x1f\n      and\n      dup3\n      add\n      swap2\n    tag_59:\n      pop\n      pop\n      pop\n      pop\n      pop\n      swap1\n      dup1\n      0x04\n      add\n      dup1\n      sload\n      tag_62\n      swap1\n      tag_47\n      jump\t// in\n    tag_62:\n      dup1\n      0x1f\n      add\n      0x20\n      dup1\n      swap2\n      div\n      mul\n      0x20\n      add\n      mload(0x40)\n      swap1\n      dup2\n      add\n      0x40\n      mstore\n      dup1\n      swap3\n      swap2\n      swap1\n      dup2\n      dup2\n      mstore\n      0x20\n      add\n      dup3\n      dup1\n      sload\n      tag_63\n      swap1\n      tag_47\n      jump\t// in\n    tag_63:\n      dup1\n      iszero\n      tag_64\n      jumpi\n      dup1\n      0x1f\n      lt\n      tag_65\n      jumpi\n      0x0100\n      dup1\n      dup4\n      sload\n      div\n      mul\n      dup4\n      mstore\n      swap2\n      0x20\n      add\n      swap2\n      jump(tag_64)\n    tag_65:\n      dup3\n      add\n      swap2\n      swap1\n      0x00\n      mstore\n      keccak256(0x00, 0x20)\n      swap1\n    tag_66:\n      dup2\n      sload\n      dup2\n      mstore\n      swap1\n      0x01\n      add\n      swap1\n      0x20\n      add\n      dup1\n      dup4\n      gt\n      tag_66\n      jumpi\n      dup3\n      swap1\n      sub\n      0x1f\n      and\n      dup3\n      add\n      swap2\n    tag_64:\n      pop\n      pop\n      pop\n      pop\n      pop\n      swap1\n      dup1\n      0x05\n      add\n      dup1\n      sload\n      tag_67\n      swap1\n      tag_47\n      jump\t// in\n    tag_67:\n      dup1\n      0x1f\n      add\n      0x20\n      dup1\n      swap2\n      div\n      mul\n      0x20\n      add\n      mload(0x40)\n      swap1\n      dup2\n      add\n      0x40\n      mstore\n      dup1\n      swap3\n      swap2\n      swap1\n      dup2\n      dup2\n      mstore\n      0x20\n      add\n      dup3\n      dup1\n      sload\n      tag_68\n      swap1\n      tag_47\n      jump\t// in\n    tag_68:\n      dup1\n      iszero\n      tag_69\n      jumpi\n      dup1\n      0x1f\n      lt\n      tag_70\n      jumpi\n      0x0100\n      dup1\n      dup4\n      sload\n      div\n      mul\n      dup4\n      mstore\n      swap2\n      0x20\n      add\n      swap2\n      jump(tag_69)\n    tag_70:\n      dup3\n      add\n      swap2\n      swap1\n      0x00\n      mstore\n      keccak256(0x00, 0x20)\n      swap1\n    tag_71:\n      dup2\n      sload\n      dup2\n      mstore\n      swap1\n      0x01\n      add\n      swap1\n      0x20\n      add\n      dup1\n      dup4\n      gt\n      tag_71\n      jumpi\n      dup3\n      swap1\n      sub\n      0x1f\n      and\n      dup3\n      add\n      swap2\n    tag_69:\n      pop\n      pop\n      pop\n      pop\n      pop\n      swap1\n      dup1\n      0x06\n      add\n      dup1\n      sload\n      tag_72\n      swap1\n      tag_47\n      jump\t// in\n    tag_72:\n      dup1\n      0x1f\n      add\n      0x20\n      dup1\n      swap2\n      div\n      mul\n      0x20\n      add\n      mload(0x40)\n      swap1\n      dup2\n      add\n      0x40\n      mstore\n      dup1\n      swap3\n      swap2\n      swap1\n      dup2\n      dup2\n      mstore\n      0x20\n      add\n      dup3\n      dup1\n      sload\n      tag_73\n      swap1\n      tag_47\n      jump\t// in\n    tag_73:\n      dup1\n      iszero\n      tag_74\n      jumpi\n      dup1\n      0x1f\n      lt\n      tag_75\n      jumpi\n      0x0100\n      dup1\n      dup4\n      sload\n      div\n      mul\n      dup4\n      mstore\n      swap2\n      0x20\n      add\n      swap2\n      jump(tag_74)\n    tag_75:\n      dup3\n      add\n      swap2\n      swap1\n      0x00\n      mstore\n      keccak256(0x00, 0x20)\n      swap1\n    tag_76:\n      dup2\n      sload\n      dup2\n      mstore\n      swap1\n      0x01\n      add\n      swap1\n      0x20\n      add\n      dup1\n      dup4\n      gt\n      tag_76\n      jumpi\n      dup3\n      swap1\n      sub\n      0x1f\n      and\n      dup3\n      add\n      swap2\n    tag_74:\n      pop\n      pop\n      pop\n      pop\n      pop\n      swap1\n      dup1\n      0x07\n      add\n      sload\n      swap1\n      dup1\n      0x08\n      add\n      sload\n      swap1\n      dup1\n      0x09\n      add\n      sload\n      swap1\n      dup1\n      0x0a\n      add\n      dup1\n      sload\n      tag_77\n      swap1\n      tag_47\n      jump\t// in\n    tag_77:\n      dup1\n      0x1f\n      add\n      0x20\n      dup1\n      swap2\n      div\n      mul\n      0x20\n      add\n      mload(0x40)\n      swap1\n      dup2\n      add\n      0x40\n      mstore\n      dup1\n      swap3\n      swap2\n      swap1\n      dup2\n      dup2\n      mstore\n      0x20\n      add\n      dup3\n      dup1\n      sload\n      tag_78\n      swap1\n      tag_47\n      jump\t// in\n    tag_78:\n      dup1\n      iszero\n      tag_79\n      jumpi\n      dup1\n      0x1f\n      lt\n      tag_80\n      jumpi\n      0x0100\n      dup1\n      dup4\n      sload\n      div\n      mul\n      dup4\n      mstore\n      swap2\n      0x20\n      add\n      swap2\n      jump(tag_79)\n    tag_80:\n      dup3\n      add\n      swap2\n      swap1\n      0x00\n      mstore\n      keccak256(0x00, 0x20)\n      swap1\n    tag_81:\n      dup2\n      sload\n      dup2\n      mstore\n      swap1\n      0x01\n      add\n      swap1\n      0x20\n      add\n      dup1\n      dup4\n      gt\n      tag_81\n      jumpi\n      dup3\n      swap1\n      sub\n      0x1f\n      and\n      dup3\n      add\n      swap2\n    tag_79:\n      pop\n      pop\n      pop\n      pop\n      pop\n      swap1\n      pop\n      dup12\n      jump\t// out\n        /* \"01_Crowdfunding.sol\":2361:3382  function donateToCampaign(uint256 _id) public payable {... */\n    tag_29:\n        /* \"01_Crowdfunding.sol\":2475:2489  uint256 amount */\n      0x00\n        /* \"01_Crowdfunding.sol\":2580:2594  campaigns[_id] */\n      dup2\n      dup2\n      mstore\n      0x20\n      dup2\n      swap1\n      mstore\n      0x40\n      swap1\n      keccak256\n        /* \"01_Crowdfunding.sol\":2680:2697  campaign.deadline */\n      0x08\n      dup2\n      add\n      sload\n        /* \"01_Crowdfunding.sol\":2492:2501  msg.value */\n      callvalue\n      swap2\n        /* \"01_Crowdfunding.sol\":2580:2594  campaigns[_id] */\n      swap1\n        /* \"01_Crowdfunding.sol\":2662:2677  block.timestamp */\n      timestamp\n        /* \"01_Crowdfunding.sol\":2662:2697  block.timestamp < campaign.deadline */\n      lt\n        /* \"01_Crowdfunding.sol\":2654:2720  require(block.timestamp < campaign.deadline, \"Campaign has ended\") */\n      tag_83\n      jumpi\n      mload(0x40)\n      shl(0xe5, 0x461bcd)\n      dup2\n      mstore\n        /* \"#utility.yul\":10530:10532   */\n      0x20\n        /* \"01_Crowdfunding.sol\":2654:2720  require(block.timestamp < campaign.deadline, \"Campaign has ended\") */\n      0x04\n      dup3\n      add\n        /* \"#utility.yul\":10512:10533   */\n      mstore\n        /* \"#utility.yul\":10569:10571   */\n      0x12\n        /* \"#utility.yul\":10549:10567   */\n      0x24\n      dup3\n      add\n        /* \"#utility.yul\":10542:10572   */\n      mstore\n        /* \"#utility.yul\":10608:10628   */\n      0x43616d706169676e2068617320656e6465640000000000000000000000000000\n        /* \"#utility.yul\":10588:10606   */\n      0x44\n      dup3\n      add\n        /* \"#utility.yul\":10581:10629   */\n      mstore\n        /* \"#utility.yul\":10646:10664   */\n      0x64\n      add\n        /* \"01_Crowdfunding.sol\":2654:2720  require(block.timestamp < campaign.deadline, \"Campaign has ended\") */\n    tag_84:\n      mload(0x40)\n      dup1\n      swap2\n      sub\n      swap1\n      revert\n    tag_83:\n        /* \"01_Crowdfunding.sol\":2797:2798  0 */\n      0x00\n        /* \"01_Crowdfunding.sol\":2788:2794  amount */\n      dup3\n        /* \"01_Crowdfunding.sol\":2788:2798  amount > 0 */\n      gt\n        /* \"01_Crowdfunding.sol\":2780:2837  require(amount > 0, \"Donation must be greater than zero\") */\n      tag_86\n      jumpi\n      mload(0x40)\n      shl(0xe5, 0x461bcd)\n      dup2\n      mstore\n        /* \"#utility.yul\":10877:10879   */\n      0x20\n        /* \"01_Crowdfunding.sol\":2780:2837  require(amount > 0, \"Donation must be greater than zero\") */\n      0x04\n      dup3\n      add\n        /* \"#utility.yul\":10859:10880   */\n      mstore\n        /* \"#utility.yul\":10916:10918   */\n      0x22\n        /* \"#utility.yul\":10896:10914   */\n      0x24\n      dup3\n      add\n        /* \"#utility.yul\":10889:10919   */\n      mstore\n        /* \"#utility.yul\":10955:10989   */\n      0x446f6e6174696f6e206d7573742062652067726561746572207468616e207a65\n        /* \"#utility.yul\":10935:10953   */\n      0x44\n      dup3\n      add\n        /* \"#utility.yul\":10928:10990   */\n      mstore\n      shl(0xf0, 0x726f)\n        /* \"#utility.yul\":11006:11024   */\n      0x64\n      dup3\n      add\n        /* \"#utility.yul\":10999:11031   */\n      mstore\n        /* \"#utility.yul\":11048:11067   */\n      0x84\n      add\n        /* \"01_Crowdfunding.sol\":2780:2837  require(amount > 0, \"Donation must be greater than zero\") */\n      tag_84\n        /* \"#utility.yul\":10675:11073   */\n      jump\n        /* \"01_Crowdfunding.sol\":2780:2837  require(amount > 0, \"Donation must be greater than zero\") */\n    tag_86:\n        /* \"01_Crowdfunding.sol\":2896:2913  campaign.donators */\n      0x0b\n      dup2\n      add\n        /* \"01_Crowdfunding.sol\":2896:2930  campaign.donators.push(msg.sender) */\n      dup1\n      sload\n      0x01\n      dup2\n      dup2\n      add\n      dup4\n      sstore\n      0x00\n      swap3\n      dup4\n      mstore\n      0x20\n      dup1\n      dup5\n      keccak256\n      swap1\n      swap3\n      add\n      dup1\n      sload\n      not(0xffffffffffffffffffffffffffffffffffffffff)\n      and\n        /* \"01_Crowdfunding.sol\":2919:2929  msg.sender */\n      caller\n        /* \"01_Crowdfunding.sol\":2896:2930  campaign.donators.push(msg.sender) */\n      or\n      swap1\n      sstore\n        /* \"01_Crowdfunding.sol\":2993:3011  campaign.donations */\n      0x0c\n      dup5\n      add\n        /* \"01_Crowdfunding.sol\":2993:3024  campaign.donations.push(amount) */\n      dup1\n      sload\n      swap2\n      dup3\n      add\n      dup2\n      sstore\n      dup4\n      mstore\n      swap1\n      dup3\n      keccak256\n      add\n      dup4\n      swap1\n      sstore\n        /* \"01_Crowdfunding.sol\":3087:3111  campaign.amountCollected */\n      0x09\n      dup3\n      add\n        /* \"01_Crowdfunding.sol\":3087:3121  campaign.amountCollected += amount */\n      dup1\n      sload\n        /* \"01_Crowdfunding.sol\":3017:3023  amount */\n      dup5\n      swap3\n      swap1\n        /* \"01_Crowdfunding.sol\":3087:3121  campaign.amountCollected += amount */\n      tag_91\n      swap1\n        /* \"01_Crowdfunding.sol\":3017:3023  amount */\n      dup5\n      swap1\n        /* \"01_Crowdfunding.sol\":3087:3121  campaign.amountCollected += amount */\n      tag_92\n      jump\t// in\n    tag_91:\n      swap1\n      swap2\n      sstore\n      pop\n      pop\n        /* \"01_Crowdfunding.sol\":3227:3241  campaign.owner */\n      dup1\n      sload\n        /* \"01_Crowdfunding.sol\":3219:3266  payable(campaign.owner).call{value: amount}(\"\") */\n      mload(0x40)\n        /* \"01_Crowdfunding.sol\":3205:3214  bool sent */\n      0x00\n      swap2\n      sub(shl(0xa0, 0x01), 0x01)\n        /* \"01_Crowdfunding.sol\":3227:3241  campaign.owner */\n      and\n      swap1\n        /* \"01_Crowdfunding.sol\":3255:3261  amount */\n      dup5\n      swap1\n        /* \"01_Crowdfunding.sol\":3205:3214  bool sent */\n      dup4\n        /* \"01_Crowdfunding.sol\":3219:3266  payable(campaign.owner).call{value: amount}(\"\") */\n      dup2\n        /* \"01_Crowdfunding.sol\":3205:3214  bool sent */\n      dup2\n        /* \"01_Crowdfunding.sol\":3219:3266  payable(campaign.owner).call{value: amount}(\"\") */\n      dup2\n        /* \"01_Crowdfunding.sol\":3255:3261  amount */\n      dup6\n        /* \"01_Crowdfunding.sol\":3227:3241  campaign.owner */\n      dup8\n        /* \"01_Crowdfunding.sol\":3219:3266  payable(campaign.owner).call{value: amount}(\"\") */\n      gas\n      call\n      swap3\n      pop\n      pop\n      pop\n      returndatasize\n      dup1\n      0x00\n      dup2\n      eq\n      tag_97\n      jumpi\n      mload(0x40)\n      swap2\n      pop\n      and(add(returndatasize, 0x3f), not(0x1f))\n      dup3\n      add\n      0x40\n      mstore\n      returndatasize\n      dup3\n      mstore\n      returndatasize\n      0x00\n      0x20\n      dup5\n      add\n      returndatacopy\n      jump(tag_96)\n    tag_97:\n      0x60\n      swap2\n      pop\n    tag_96:\n      pop\n        /* \"01_Crowdfunding.sol\":3204:3266  (bool sent,) = payable(campaign.owner).call{value: amount}(\"\") */\n      pop\n      swap1\n      pop\n        /* \"01_Crowdfunding.sol\":3324:3328  sent */\n      dup1\n        /* \"01_Crowdfunding.sol\":3316:3374  require(sent, \"Failed to send donation to campaign owner\") */\n      tag_98\n      jumpi\n      mload(0x40)\n      shl(0xe5, 0x461bcd)\n      dup2\n      mstore\n        /* \"#utility.yul\":11752:11754   */\n      0x20\n        /* \"01_Crowdfunding.sol\":3316:3374  require(sent, \"Failed to send donation to campaign owner\") */\n      0x04\n      dup3\n      add\n        /* \"#utility.yul\":11734:11755   */\n      mstore\n        /* \"#utility.yul\":11791:11793   */\n      0x29\n        /* \"#utility.yul\":11771:11789   */\n      0x24\n      dup3\n      add\n        /* \"#utility.yul\":11764:11794   */\n      mstore\n        /* \"#utility.yul\":11830:11864   */\n      0x4661696c656420746f2073656e6420646f6e6174696f6e20746f2063616d7061\n        /* \"#utility.yul\":11810:11828   */\n      0x44\n      dup3\n      add\n        /* \"#utility.yul\":11803:11865   */\n      mstore\n        /* \"#utility.yul\":11901:11912   */\n      0x69676e206f776e65720000000000000000000000000000000000000000000000\n        /* \"#utility.yul\":11881:11899   */\n      0x64\n      dup3\n      add\n        /* \"#utility.yul\":11874:11913   */\n      mstore\n        /* \"#utility.yul\":11930:11949   */\n      0x84\n      add\n        /* \"01_Crowdfunding.sol\":3316:3374  require(sent, \"Failed to send donation to campaign owner\") */\n      tag_84\n        /* \"#utility.yul\":11550:11955   */\n      jump\n        /* \"01_Crowdfunding.sol\":3316:3374  require(sent, \"Failed to send donation to campaign owner\") */\n    tag_98:\n        /* \"01_Crowdfunding.sol\":2415:3382  {... */\n      pop\n      pop\n      pop\n        /* \"01_Crowdfunding.sol\":2361:3382  function donateToCampaign(uint256 _id) public payable {... */\n      pop\n      jump\t// out\n        /* \"01_Crowdfunding.sol\":3690:4173  function getCampaigns() public view returns (Campaign[] memory) {... */\n    tag_32:\n        /* \"01_Crowdfunding.sol\":3735:3752  Campaign[] memory */\n      0x60\n        /* \"01_Crowdfunding.sol\":3811:3841  Campaign[] memory allCampaigns */\n      0x00\n        /* \"01_Crowdfunding.sol\":3859:3876  numberOfCampaigns */\n      sload(0x01)\n        /* \"01_Crowdfunding.sol\":3844:3877  new Campaign[](numberOfCampaigns) */\n      0xffffffffffffffff\n      dup2\n      gt\n      iszero\n      tag_103\n      jumpi\n      tag_103\n      tag_104\n      jump\t// in\n    tag_103:\n      mload(0x40)\n      swap1\n      dup1\n      dup3\n      mstore\n      dup1\n      0x20\n      mul\n      0x20\n      add\n      dup3\n      add\n      0x40\n      mstore\n      dup1\n      iszero\n      tag_105\n      jumpi\n      dup2\n      0x20\n      add\n    tag_106:\n      tag_107\n      mload(0x40)\n      dup1\n      0x01a0\n      add\n      0x40\n      mstore\n      dup1\n      and(sub(shl(0xa0, 0x01), 0x01), 0x00)\n      dup2\n      mstore\n      0x20\n      add\n      0x60\n      dup2\n      mstore\n      0x20\n      add\n      0x60\n      dup2\n      mstore\n      0x20\n      add\n      0x60\n      dup2\n      mstore\n      0x20\n      add\n      0x60\n      dup2\n      mstore\n      0x20\n      add\n      0x60\n      dup2\n      mstore\n      0x20\n      add\n      0x60\n      dup2\n      mstore\n      0x20\n      add\n      0x00\n      dup2\n      mstore\n      0x20\n      add\n      0x00\n      dup2\n      mstore\n      0x20\n      add\n      0x00\n      dup2\n      mstore\n      0x20\n      add\n      0x60\n      dup2\n      mstore\n      0x20\n      add\n      0x60\n      dup2\n      mstore\n      0x20\n      add\n      0x60\n      dup2\n      mstore\n      pop\n      swap1\n      jump\n    tag_107:\n      dup2\n      mstore\n      0x20\n      add\n      swap1\n      0x01\n      swap1\n      sub\n      swap1\n      dup2\n      tag_106\n      jumpi\n      swap1\n      pop\n    tag_105:\n      pop\n        /* \"01_Crowdfunding.sol\":3811:3877  Campaign[] memory allCampaigns = new Campaign[](numberOfCampaigns) */\n      swap1\n      pop\n        /* \"01_Crowdfunding.sol\":3945:3954  uint256 i */\n      0x00\n        /* \"01_Crowdfunding.sol\":3940:4088  for (uint256 i = 0; i < numberOfCampaigns; i++) {... */\n    tag_109:\n        /* \"01_Crowdfunding.sol\":3964:3981  numberOfCampaigns */\n      sload(0x01)\n        /* \"01_Crowdfunding.sol\":3960:3961  i */\n      dup2\n        /* \"01_Crowdfunding.sol\":3960:3981  i < numberOfCampaigns */\n      lt\n        /* \"01_Crowdfunding.sol\":3940:4088  for (uint256 i = 0; i < numberOfCampaigns; i++) {... */\n      iszero\n      tag_110\n      jumpi\n        /* \"01_Crowdfunding.sol\":4003:4024  Campaign storage item */\n      0x00\n        /* \"01_Crowdfunding.sol\":4027:4039  campaigns[i] */\n      dup2\n      dup2\n      mstore\n      0x20\n      dup2\n      dup2\n      mstore\n      0x40\n      swap2\n      dup3\n      swap1\n      keccak256\n        /* \"01_Crowdfunding.sol\":4054:4076  allCampaigns[i] = item */\n      dup3\n      mload\n      0x01a0\n      dup2\n      add\n      swap1\n      swap4\n      mstore\n      dup1\n      sload\n      sub(shl(0xa0, 0x01), 0x01)\n      and\n      dup4\n      mstore\n      0x01\n      dup2\n      add\n      dup1\n      sload\n        /* \"01_Crowdfunding.sol\":4027:4039  campaigns[i] */\n      swap2\n      swap4\n        /* \"01_Crowdfunding.sol\":4054:4076  allCampaigns[i] = item */\n      swap3\n        /* \"01_Crowdfunding.sol\":4027:4039  campaigns[i] */\n      dup5\n      swap3\n        /* \"01_Crowdfunding.sol\":4054:4076  allCampaigns[i] = item */\n      swap1\n      dup5\n      add\n      swap2\n      swap1\n      tag_112\n      swap1\n      tag_47\n      jump\t// in\n    tag_112:\n      dup1\n      0x1f\n      add\n      0x20\n      dup1\n      swap2\n      div\n      mul\n      0x20\n      add\n      mload(0x40)\n      swap1\n      dup2\n      add\n      0x40\n      mstore\n      dup1\n      swap3\n      swap2\n      swap1\n      dup2\n      dup2\n      mstore\n      0x20\n      add\n      dup3\n      dup1\n      sload\n      tag_113\n      swap1\n      tag_47\n      jump\t// in\n    tag_113:\n      dup1\n      iszero\n      tag_114\n      jumpi\n      dup1\n      0x1f\n      lt\n      tag_115\n      jumpi\n      0x0100\n      dup1\n      dup4\n      sload\n      div\n      mul\n      dup4\n      mstore\n      swap2\n      0x20\n      add\n      swap2\n      jump(tag_114)\n    tag_115:\n      dup3\n      add\n      swap2\n      swap1\n      0x00\n      mstore\n      keccak256(0x00, 0x20)\n      swap1\n    tag_116:\n      dup2\n      sload\n      dup2\n      mstore\n      swap1\n      0x01\n      add\n      swap1\n      0x20\n      add\n      dup1\n      dup4\n      gt\n      tag_116\n      jumpi\n      dup3\n      swap1\n      sub\n      0x1f\n      and\n      dup3\n      add\n      swap2\n    tag_114:\n      pop\n      pop\n      pop\n      pop\n      pop\n      dup2\n      mstore\n      0x20\n      add\n      0x02\n      dup3\n      add\n      dup1\n      sload\n      tag_117\n      swap1\n      tag_47\n      jump\t// in\n    tag_117:\n      dup1\n      0x1f\n      add\n      0x20\n      dup1\n      swap2\n      div\n      mul\n      0x20\n      add\n      mload(0x40)\n      swap1\n      dup2\n      add\n      0x40\n      mstore\n      dup1\n      swap3\n      swap2\n      swap1\n      dup2\n      dup2\n      mstore\n      0x20\n      add\n      dup3\n      dup1\n      sload\n      tag_118\n      swap1\n      tag_47\n      jump\t// in\n    tag_118:\n      dup1\n      iszero\n      tag_119\n      jumpi\n      dup1\n      0x1f\n      lt\n      tag_120\n      jumpi\n      0x0100\n      dup1\n      dup4\n      sload\n      div\n      mul\n      dup4\n      mstore\n      swap2\n      0x20\n      add\n      swap2\n      jump(tag_119)\n    tag_120:\n      dup3\n      add\n      swap2\n      swap1\n      0x00\n      mstore\n      keccak256(0x00, 0x20)\n      swap1\n    tag_121:\n      dup2\n      sload\n      dup2\n      mstore\n      swap1\n      0x01\n      add\n      swap1\n      0x20\n      add\n      dup1\n      dup4\n      gt\n      tag_121\n      jumpi\n      dup3\n      swap1\n      sub\n      0x1f\n      and\n      dup3\n      add\n      swap2\n    tag_119:\n      pop\n      pop\n      pop\n      pop\n      pop\n      dup2\n      mstore\n      0x20\n      add\n      0x03\n      dup3\n      add\n      dup1\n      sload\n      tag_122\n      swap1\n      tag_47\n      jump\t// in\n    tag_122:\n      dup1\n      0x1f\n      add\n      0x20\n      dup1\n      swap2\n      div\n      mul\n      0x20\n      add\n      mload(0x40)\n      swap1\n      dup2\n      add\n      0x40\n      mstore\n      dup1\n      swap3\n      swap2\n      swap1\n      dup2\n      dup2\n      mstore\n      0x20\n      add\n      dup3\n      dup1\n      sload\n      tag_123\n      swap1\n      tag_47\n      jump\t// in\n    tag_123:\n      dup1\n      iszero\n      tag_124\n      jumpi\n      dup1\n      0x1f\n      lt\n      tag_125\n      jumpi\n      0x0100\n      dup1\n      dup4\n      sload\n      div\n      mul\n      dup4\n      mstore\n      swap2\n      0x20\n      add\n      swap2\n      jump(tag_124)\n    tag_125:\n      dup3\n      add\n      swap2\n      swap1\n      0x00\n      mstore\n      keccak256(0x00, 0x20)\n      swap1\n    tag_126:\n      dup2\n      sload\n      dup2\n      mstore\n      swap1\n      0x01\n      add\n      swap1\n      0x20\n      add\n      dup1\n      dup4\n      gt\n      tag_126\n      jumpi\n      dup3\n      swap1\n      sub\n      0x1f\n      and\n      dup3\n      add\n      swap2\n    tag_124:\n      pop\n      pop\n      pop\n      pop\n      pop\n      dup2\n      mstore\n      0x20\n      add\n      0x04\n      dup3\n      add\n      dup1\n      sload\n      tag_127\n      swap1\n      tag_47\n      jump\t// in\n    tag_127:\n      dup1\n      0x1f\n      add\n      0x20\n      dup1\n      swap2\n      div\n      mul\n      0x20\n      add\n      mload(0x40)\n      swap1\n      dup2\n      add\n      0x40\n      mstore\n      dup1\n      swap3\n      swap2\n      swap1\n      dup2\n      dup2\n      mstore\n      0x20\n      add\n      dup3\n      dup1\n      sload\n      tag_128\n      swap1\n      tag_47\n      jump\t// in\n    tag_128:\n      dup1\n      iszero\n      tag_129\n      jumpi\n      dup1\n      0x1f\n      lt\n      tag_130\n      jumpi\n      0x0100\n      dup1\n      dup4\n      sload\n      div\n      mul\n      dup4\n      mstore\n      swap2\n      0x20\n      add\n      swap2\n      jump(tag_129)\n    tag_130:\n      dup3\n      add\n      swap2\n      swap1\n      0x00\n      mstore\n      keccak256(0x00, 0x20)\n      swap1\n    tag_131:\n      dup2\n      sload\n      dup2\n      mstore\n      swap1\n      0x01\n      add\n      swap1\n      0x20\n      add\n      dup1\n      dup4\n      gt\n      tag_131\n      jumpi\n      dup3\n      swap1\n      sub\n      0x1f\n      and\n      dup3\n      add\n      swap2\n    tag_129:\n      pop\n      pop\n      pop\n      pop\n      pop\n      dup2\n      mstore\n      0x20\n      add\n      0x05\n      dup3\n      add\n      dup1\n      sload\n      tag_132\n      swap1\n      tag_47\n      jump\t// in\n    tag_132:\n      dup1\n      0x1f\n      add\n      0x20\n      dup1\n      swap2\n      div\n      mul\n      0x20\n      add\n      mload(0x40)\n      swap1\n      dup2\n      add\n      0x40\n      mstore\n      dup1\n      swap3\n      swap2\n      swap1\n      dup2\n      dup2\n      mstore\n      0x20\n      add\n      dup3\n      dup1\n      sload\n      tag_133\n      swap1\n      tag_47\n      jump\t// in\n    tag_133:\n      dup1\n      iszero\n      tag_134\n      jumpi\n      dup1\n      0x1f\n      lt\n      tag_135\n      jumpi\n      0x0100\n      dup1\n      dup4\n      sload\n      div\n      mul\n      dup4\n      mstore\n      swap2\n      0x20\n      add\n      swap2\n      jump(tag_134)\n    tag_135:\n      dup3\n      add\n      swap2\n      swap1\n      0x00\n      mstore\n      keccak256(0x00, 0x20)\n      swap1\n    tag_136:\n      dup2\n      sload\n      dup2\n      mstore\n      swap1\n      0x01\n      add\n      swap1\n      0x20\n      add\n      dup1\n      dup4\n      gt\n      tag_136\n      jumpi\n      dup3\n      swap1\n      sub\n      0x1f\n      and\n      dup3\n      add\n      swap2\n    tag_134:\n      pop\n      pop\n      pop\n      pop\n      pop\n      dup2\n      mstore\n      0x20\n      add\n      0x06\n      dup3\n      add\n      dup1\n      sload\n      tag_137\n      swap1\n      tag_47\n      jump\t// in\n    tag_137:\n      dup1\n      0x1f\n      add\n      0x20\n      dup1\n      swap2\n      div\n      mul\n      0x20\n      add\n      mload(0x40)\n      swap1\n      dup2\n      add\n      0x40\n      mstore\n      dup1\n      swap3\n      swap2\n      swap1\n      dup2\n      dup2\n      mstore\n      0x20\n      add\n      dup3\n      dup1\n      sload\n      tag_138\n      swap1\n      tag_47\n      jump\t// in\n    tag_138:\n      dup1\n      iszero\n      tag_139\n      jumpi\n      dup1\n      0x1f\n      lt\n      tag_140\n      jumpi\n      0x0100\n      dup1\n      dup4\n      sload\n      div\n      mul\n      dup4\n      mstore\n      swap2\n      0x20\n      add\n      swap2\n      jump(tag_139)\n    tag_140:\n      dup3\n      add\n      swap2\n      swap1\n      0x00\n      mstore\n      keccak256(0x00, 0x20)\n      swap1\n    tag_141:\n      dup2\n      sload\n      dup2\n      mstore\n      swap1\n      0x01\n      add\n      swap1\n      0x20\n      add\n      dup1\n      dup4\n      gt\n      tag_141\n      jumpi\n      dup3\n      swap1\n      sub\n      0x1f\n      and\n      dup3\n      add\n      swap2\n    tag_139:\n      pop\n      pop\n      pop\n      pop\n      pop\n      dup2\n      mstore\n      0x20\n      add\n      0x07\n      dup3\n      add\n      sload\n      dup2\n      mstore\n      0x20\n      add\n      0x08\n      dup3\n      add\n      sload\n      dup2\n      mstore\n      0x20\n      add\n      0x09\n      dup3\n      add\n      sload\n      dup2\n      mstore\n      0x20\n      add\n      0x0a\n      dup3\n      add\n      dup1\n      sload\n      tag_142\n      swap1\n      tag_47\n      jump\t// in\n    tag_142:\n      dup1\n      0x1f\n      add\n      0x20\n      dup1\n      swap2\n      div\n      mul\n      0x20\n      add\n      mload(0x40)\n      swap1\n      dup2\n      add\n      0x40\n      mstore\n      dup1\n      swap3\n      swap2\n      swap1\n      dup2\n      dup2\n      mstore\n      0x20\n      add\n      dup3\n      dup1\n      sload\n      tag_143\n      swap1\n      tag_47\n      jump\t// in\n    tag_143:\n      dup1\n      iszero\n      tag_144\n      jumpi\n      dup1\n      0x1f\n      lt\n      tag_145\n      jumpi\n      0x0100\n      dup1\n      dup4\n      sload\n      div\n      mul\n      dup4\n      mstore\n      swap2\n      0x20\n      add\n      swap2\n      jump(tag_144)\n    tag_145:\n      dup3\n      add\n      swap2\n      swap1\n      0x00\n      mstore\n      keccak256(0x00, 0x20)\n      swap1\n    tag_146:\n      dup2\n      sload\n      dup2\n      mstore\n      swap1\n      0x01\n      add\n      swap1\n      0x20\n      add\n      dup1\n      dup4\n      gt\n      tag_146\n      jumpi\n      dup3\n      swap1\n      sub\n      0x1f\n      and\n      dup3\n      add\n      swap2\n    tag_144:\n      pop\n      pop\n      pop\n      pop\n      pop\n      dup2\n      mstore\n      0x20\n      add\n      0x0b\n      dup3\n      add\n      dup1\n      sload\n      dup1\n      0x20\n      mul\n      0x20\n      add\n      mload(0x40)\n      swap1\n      dup2\n      add\n      0x40\n      mstore\n      dup1\n      swap3\n      swap2\n      swap1\n      dup2\n      dup2\n      mstore\n      0x20\n      add\n      dup3\n      dup1\n      sload\n      dup1\n      iszero\n      tag_147\n      jumpi\n      0x20\n      mul\n      dup3\n      add\n      swap2\n      swap1\n      0x00\n      mstore\n      keccak256(0x00, 0x20)\n      swap1\n    tag_148:\n      dup2\n      sload\n      sub(shl(0xa0, 0x01), 0x01)\n      and\n      dup2\n      mstore\n      0x01\n      swap1\n      swap2\n      add\n      swap1\n      0x20\n      add\n      dup1\n      dup4\n      gt\n      tag_148\n      jumpi\n    tag_147:\n      pop\n      pop\n      pop\n      pop\n      pop\n      dup2\n      mstore\n      0x20\n      add\n      0x0c\n      dup3\n      add\n      dup1\n      sload\n      dup1\n      0x20\n      mul\n      0x20\n      add\n      mload(0x40)\n      swap1\n      dup2\n      add\n      0x40\n      mstore\n      dup1\n      swap3\n      swap2\n      swap1\n      dup2\n      dup2\n      mstore\n      0x20\n      add\n      dup3\n      dup1\n      sload\n      dup1\n      iszero\n      tag_149\n      jumpi\n      0x20\n      mul\n      dup3\n      add\n      swap2\n      swap1\n      0x00\n      mstore\n      keccak256(0x00, 0x20)\n      swap1\n    tag_150:\n      dup2\n      sload\n      dup2\n      mstore\n      0x20\n      add\n      swap1\n      0x01\n      add\n      swap1\n      dup1\n      dup4\n      gt\n      tag_150\n      jumpi\n    tag_149:\n      pop\n      pop\n      pop\n      pop\n      pop\n      dup2\n      mstore\n      pop\n      pop\n        /* \"01_Crowdfunding.sol\":4054:4066  allCampaigns */\n      dup4\n        /* \"01_Crowdfunding.sol\":4067:4068  i */\n      dup4\n        /* \"01_Crowdfunding.sol\":4054:4069  allCampaigns[i] */\n      dup2\n      mload\n      dup2\n      lt\n      tag_152\n      jumpi\n      tag_152\n      tag_153\n      jump\t// in\n    tag_152:\n      0x20\n      swap1\n      dup2\n      mul\n      swap2\n      swap1\n      swap2\n      add\n      add\n        /* \"01_Crowdfunding.sol\":4054:4076  allCampaigns[i] = item */\n      mstore\n      pop\n        /* \"01_Crowdfunding.sol\":3983:3986  i++ */\n      0x01\n      add\n        /* \"01_Crowdfunding.sol\":3940:4088  for (uint256 i = 0; i < numberOfCampaigns; i++) {... */\n      jump(tag_109)\n    tag_110:\n      pop\n        /* \"01_Crowdfunding.sol\":4153:4165  allCampaigns */\n      swap2\n        /* \"01_Crowdfunding.sol\":3690:4173  function getCampaigns() public view returns (Campaign[] memory) {... */\n      swap1\n      pop\n      jump\t// out\n        /* \"01_Crowdfunding.sol\":1003:2320  function createCampaign( ... */\n    tag_39:\n        /* \"01_Crowdfunding.sol\":1418:1425  uint256 */\n      0x00\n        /* \"01_Crowdfunding.sol\":1517:1532  block.timestamp */\n      timestamp\n        /* \"01_Crowdfunding.sol\":1505:1514  _deadline */\n      dup4\n        /* \"01_Crowdfunding.sol\":1505:1532  _deadline > block.timestamp */\n      gt\n        /* \"01_Crowdfunding.sol\":1497:1580  require(_deadline > block.timestamp, \"The deadline should be a date in the future\") */\n      tag_155\n      jumpi\n      mload(0x40)\n      shl(0xe5, 0x461bcd)\n      dup2\n      mstore\n        /* \"#utility.yul\":12294:12296   */\n      0x20\n        /* \"01_Crowdfunding.sol\":1497:1580  require(_deadline > block.timestamp, \"The deadline should be a date in the future\") */\n      0x04\n      dup3\n      add\n        /* \"#utility.yul\":12276:12297   */\n      mstore\n        /* \"#utility.yul\":12333:12335   */\n      0x2b\n        /* \"#utility.yul\":12313:12331   */\n      0x24\n      dup3\n      add\n        /* \"#utility.yul\":12306:12336   */\n      mstore\n        /* \"#utility.yul\":12372:12406   */\n      0x54686520646561646c696e652073686f756c642062652061206461746520696e\n        /* \"#utility.yul\":12352:12370   */\n      0x44\n      dup3\n      add\n        /* \"#utility.yul\":12345:12407   */\n      mstore\n        /* \"#utility.yul\":12443:12456   */\n      0x2074686520667574757265000000000000000000000000000000000000000000\n        /* \"#utility.yul\":12423:12441   */\n      0x64\n      dup3\n      add\n        /* \"#utility.yul\":12416:12457   */\n      mstore\n        /* \"#utility.yul\":12474:12493   */\n      0x84\n      add\n        /* \"01_Crowdfunding.sol\":1497:1580  require(_deadline > block.timestamp, \"The deadline should be a date in the future\") */\n      tag_84\n        /* \"#utility.yul\":12092:12499   */\n      jump\n        /* \"01_Crowdfunding.sol\":1497:1580  require(_deadline > block.timestamp, \"The deadline should be a date in the future\") */\n    tag_155:\n        /* \"01_Crowdfunding.sol\":1713:1730  numberOfCampaigns */\n      0x01\n      dup1\n      sload\n        /* \"01_Crowdfunding.sol\":1675:1700  Campaign storage campaign */\n      0x00\n        /* \"01_Crowdfunding.sol\":1703:1731  campaigns[numberOfCampaigns] */\n      swap1\n      dup2\n      mstore\n      0x20\n      dup2\n      swap1\n      mstore\n      0x40\n      swap1\n      keccak256\n        /* \"01_Crowdfunding.sol\":1743:1766  campaign.owner = _owner */\n      dup1\n      sload\n      not(0xffffffffffffffffffffffffffffffffffffffff)\n      and\n      sub(shl(0xa0, 0x01), 0x01)\n      dup15\n      and\n      or\n      dup2\n      sstore\n        /* \"01_Crowdfunding.sol\":1703:1731  campaigns[numberOfCampaigns] */\n      swap1\n        /* \"01_Crowdfunding.sol\":1777:1795  campaign.nameOwner */\n      dup2\n      add\n        /* \"01_Crowdfunding.sol\":1777:1808  campaign.nameOwner = _nameOwner */\n      tag_158\n        /* \"01_Crowdfunding.sol\":1798:1808  _nameOwner */\n      dup13\n        /* \"01_Crowdfunding.sol\":1777:1795  campaign.nameOwner */\n      dup3\n        /* \"01_Crowdfunding.sol\":1777:1808  campaign.nameOwner = _nameOwner */\n      tag_159\n      jump\t// in\n    tag_158:\n      pop\n        /* \"01_Crowdfunding.sol\":1819:1837  campaign.instagram */\n      0x02\n      dup2\n      add\n        /* \"01_Crowdfunding.sol\":1819:1850  campaign.instagram = _instagram */\n      tag_160\n        /* \"01_Crowdfunding.sol\":1840:1850  _instagram */\n      dup12\n        /* \"01_Crowdfunding.sol\":1819:1837  campaign.instagram */\n      dup3\n        /* \"01_Crowdfunding.sol\":1819:1850  campaign.instagram = _instagram */\n      tag_159\n      jump\t// in\n    tag_160:\n      pop\n        /* \"01_Crowdfunding.sol\":1861:1877  campaign.twitter */\n      0x03\n      dup2\n      add\n        /* \"01_Crowdfunding.sol\":1861:1888  campaign.twitter = _twitter */\n      tag_161\n        /* \"01_Crowdfunding.sol\":1880:1888  _twitter */\n      dup11\n        /* \"01_Crowdfunding.sol\":1861:1877  campaign.twitter */\n      dup3\n        /* \"01_Crowdfunding.sol\":1861:1888  campaign.twitter = _twitter */\n      tag_159\n      jump\t// in\n    tag_161:\n      pop\n        /* \"01_Crowdfunding.sol\":1899:1916  campaign.telegram */\n      0x04\n      dup2\n      add\n        /* \"01_Crowdfunding.sol\":1899:1928  campaign.telegram = _telegram */\n      tag_162\n        /* \"01_Crowdfunding.sol\":1919:1928  _telegram */\n      dup10\n        /* \"01_Crowdfunding.sol\":1899:1916  campaign.telegram */\n      dup3\n        /* \"01_Crowdfunding.sol\":1899:1928  campaign.telegram = _telegram */\n      tag_159\n      jump\t// in\n    tag_162:\n      pop\n        /* \"01_Crowdfunding.sol\":1939:1953  campaign.title */\n      0x05\n      dup2\n      add\n        /* \"01_Crowdfunding.sol\":1939:1962  campaign.title = _title */\n      tag_163\n        /* \"01_Crowdfunding.sol\":1956:1962  _title */\n      dup9\n        /* \"01_Crowdfunding.sol\":1939:1953  campaign.title */\n      dup3\n        /* \"01_Crowdfunding.sol\":1939:1962  campaign.title = _title */\n      tag_159\n      jump\t// in\n    tag_163:\n      pop\n        /* \"01_Crowdfunding.sol\":1973:1993  campaign.description */\n      0x06\n      dup2\n      add\n        /* \"01_Crowdfunding.sol\":1973:2008  campaign.description = _description */\n      tag_164\n        /* \"01_Crowdfunding.sol\":1996:2008  _description */\n      dup8\n        /* \"01_Crowdfunding.sol\":1973:1993  campaign.description */\n      dup3\n        /* \"01_Crowdfunding.sol\":1973:2008  campaign.description = _description */\n      tag_159\n      jump\t// in\n    tag_164:\n      pop\n        /* \"01_Crowdfunding.sol\":2019:2034  campaign.target */\n      0x07\n      dup2\n      add\n        /* \"01_Crowdfunding.sol\":2019:2044  campaign.target = _target */\n      dup6\n      swap1\n      sstore\n        /* \"01_Crowdfunding.sol\":2055:2072  campaign.deadline */\n      0x08\n      dup2\n      add\n        /* \"01_Crowdfunding.sol\":2055:2084  campaign.deadline = _deadline */\n      dup5\n      swap1\n      sstore\n      0x00\n        /* \"01_Crowdfunding.sol\":2095:2119  campaign.amountCollected */\n      0x09\n      dup3\n      add\n        /* \"01_Crowdfunding.sol\":2095:2123  campaign.amountCollected = 0 */\n      sstore\n        /* \"01_Crowdfunding.sol\":2134:2148  campaign.image */\n      0x0a\n      dup2\n      add\n        /* \"01_Crowdfunding.sol\":2134:2157  campaign.image = _image */\n      tag_165\n        /* \"01_Crowdfunding.sol\":2151:2157  _image */\n      dup5\n        /* \"01_Crowdfunding.sol\":2134:2148  campaign.image */\n      dup3\n        /* \"01_Crowdfunding.sol\":2134:2157  campaign.image = _image */\n      tag_159\n      jump\t// in\n    tag_165:\n      pop\n        /* \"01_Crowdfunding.sol\":2209:2226  numberOfCampaigns */\n      0x01\n        /* \"01_Crowdfunding.sol\":2209:2228  numberOfCampaigns++ */\n      dup1\n      sload\n      swap1\n        /* \"01_Crowdfunding.sol\":2209:2226  numberOfCampaigns */\n      0x00\n        /* \"01_Crowdfunding.sol\":2209:2228  numberOfCampaigns++ */\n      tag_166\n      dup4\n      tag_167\n      jump\t// in\n    tag_166:\n      swap2\n      swap1\n      pop\n      sstore\n      pop\n        /* \"01_Crowdfunding.sol\":2311:2312  1 */\n      0x01\n        /* \"01_Crowdfunding.sol\":2291:2308  numberOfCampaigns */\n      dup1\n      sload\n        /* \"01_Crowdfunding.sol\":2291:2312  numberOfCampaigns - 1 */\n      tag_168\n      swap2\n      swap1\n      tag_169\n      jump\t// in\n    tag_168:\n        /* \"01_Crowdfunding.sol\":2284:2312  return numberOfCampaigns - 1 */\n      swap13\n        /* \"01_Crowdfunding.sol\":1003:2320  function createCampaign( ... */\n      swap12\n      pop\n      pop\n      pop\n      pop\n      pop\n      pop\n      pop\n      pop\n      pop\n      pop\n      pop\n      pop\n      jump\t// out\n        /* \"#utility.yul\":196:376   */\n    tag_17:\n        /* \"#utility.yul\":255:261   */\n      0x00\n        /* \"#utility.yul\":308:310   */\n      0x20\n        /* \"#utility.yul\":296:305   */\n      dup3\n        /* \"#utility.yul\":287:294   */\n      dup5\n        /* \"#utility.yul\":283:306   */\n      sub\n        /* \"#utility.yul\":279:311   */\n      slt\n        /* \"#utility.yul\":276:328   */\n      iszero\n      tag_183\n      jumpi\n        /* \"#utility.yul\":324:325   */\n      0x00\n        /* \"#utility.yul\":321:322   */\n      dup1\n        /* \"#utility.yul\":314:326   */\n      revert\n        /* \"#utility.yul\":276:328   */\n    tag_183:\n      pop\n        /* \"#utility.yul\":347:370   */\n      calldataload\n      swap2\n        /* \"#utility.yul\":196:376   */\n      swap1\n      pop\n      jump\t// out\n        /* \"#utility.yul\":513:952   */\n    tag_171:\n        /* \"#utility.yul\":566:569   */\n      0x00\n        /* \"#utility.yul\":604:609   */\n      dup2\n        /* \"#utility.yul\":598:610   */\n      mload\n        /* \"#utility.yul\":631:637   */\n      dup1\n        /* \"#utility.yul\":626:629   */\n      dup5\n        /* \"#utility.yul\":619:638   */\n      mstore\n        /* \"#utility.yul\":657:661   */\n      0x20\n        /* \"#utility.yul\":686:690   */\n      dup1\n        /* \"#utility.yul\":681:684   */\n      dup6\n        /* \"#utility.yul\":677:691   */\n      add\n        /* \"#utility.yul\":670:691   */\n      swap5\n      pop\n        /* \"#utility.yul\":725:729   */\n      0x20\n        /* \"#utility.yul\":718:723   */\n      dup5\n        /* \"#utility.yul\":714:730   */\n      add\n        /* \"#utility.yul\":748:749   */\n      0x00\n        /* \"#utility.yul\":758:927   */\n    tag_186:\n        /* \"#utility.yul\":772:778   */\n      dup4\n        /* \"#utility.yul\":769:770   */\n      dup2\n        /* \"#utility.yul\":766:779   */\n      lt\n        /* \"#utility.yul\":758:927   */\n      iszero\n      tag_188\n      jumpi\n        /* \"#utility.yul\":833:846   */\n      dup2\n      mload\n        /* \"#utility.yul\":821:847   */\n      dup8\n      mstore\n        /* \"#utility.yul\":867:879   */\n      swap6\n      dup3\n      add\n      swap6\n        /* \"#utility.yul\":902:917   */\n      swap1\n      dup3\n      add\n      swap1\n        /* \"#utility.yul\":794:795   */\n      0x01\n        /* \"#utility.yul\":787:796   */\n      add\n        /* \"#utility.yul\":758:927   */\n      jump(tag_186)\n    tag_188:\n      pop\n        /* \"#utility.yul\":943:946   */\n      swap5\n      swap6\n        /* \"#utility.yul\":513:952   */\n      swap5\n      pop\n      pop\n      pop\n      pop\n      pop\n      jump\t// out\n        /* \"#utility.yul\":957:1816   */\n    tag_20:\n        /* \"#utility.yul\":1225:1227   */\n      0x40\n        /* \"#utility.yul\":1237:1258   */\n      dup1\n      dup3\n      mstore\n        /* \"#utility.yul\":1307:1320   */\n      dup4\n      mload\n        /* \"#utility.yul\":1210:1228   */\n      swap1\n      dup3\n      add\n        /* \"#utility.yul\":1329:1351   */\n      dup2\n      swap1\n      mstore\n        /* \"#utility.yul\":1177:1181   */\n      0x00\n      swap1\n        /* \"#utility.yul\":1404:1408   */\n      0x20\n      swap1\n        /* \"#utility.yul\":1382:1384   */\n      0x60\n        /* \"#utility.yul\":1367:1385   */\n      dup5\n      add\n      swap1\n        /* \"#utility.yul\":1431:1448   */\n      dup3\n      dup8\n      add\n        /* \"#utility.yul\":1177:1181   */\n      dup5\n        /* \"#utility.yul\":1476:1694   */\n    tag_190:\n        /* \"#utility.yul\":1490:1496   */\n      dup3\n        /* \"#utility.yul\":1487:1488   */\n      dup2\n        /* \"#utility.yul\":1484:1497   */\n      lt\n        /* \"#utility.yul\":1476:1694   */\n      iszero\n      tag_192\n      jumpi\n        /* \"#utility.yul\":1555:1568   */\n      dup2\n      mload\n      sub(shl(0xa0, 0x01), 0x01)\n        /* \"#utility.yul\":1551:1613   */\n      and\n        /* \"#utility.yul\":1539:1614   */\n      dup5\n      mstore\n        /* \"#utility.yul\":1634:1646   */\n      swap3\n      dup5\n      add\n      swap3\n        /* \"#utility.yul\":1669:1684   */\n      swap1\n      dup5\n      add\n      swap1\n        /* \"#utility.yul\":1512:1513   */\n      0x01\n        /* \"#utility.yul\":1505:1514   */\n      add\n        /* \"#utility.yul\":1476:1694   */\n      jump(tag_190)\n    tag_192:\n        /* \"#utility.yul\":1480:1483   */\n      pop\n      pop\n      pop\n        /* \"#utility.yul\":1741:1750   */\n      dup4\n        /* \"#utility.yul\":1736:1739   */\n      dup2\n        /* \"#utility.yul\":1732:1751   */\n      sub\n        /* \"#utility.yul\":1725:1729   */\n      0x20\n        /* \"#utility.yul\":1714:1723   */\n      dup6\n        /* \"#utility.yul\":1710:1730   */\n      add\n        /* \"#utility.yul\":1703:1752   */\n      mstore\n        /* \"#utility.yul\":1769:1810   */\n      tag_193\n        /* \"#utility.yul\":1806:1809   */\n      dup2\n        /* \"#utility.yul\":1798:1804   */\n      dup7\n        /* \"#utility.yul\":1769:1810   */\n      tag_171\n      jump\t// in\n    tag_193:\n        /* \"#utility.yul\":1761:1810   */\n      swap7\n        /* \"#utility.yul\":957:1816   */\n      swap6\n      pop\n      pop\n      pop\n      pop\n      pop\n      pop\n      jump\t// out\n        /* \"#utility.yul\":1821:2110   */\n    tag_172:\n        /* \"#utility.yul\":1863:1866   */\n      0x00\n        /* \"#utility.yul\":1901:1906   */\n      dup2\n        /* \"#utility.yul\":1895:1907   */\n      mload\n        /* \"#utility.yul\":1928:1934   */\n      dup1\n        /* \"#utility.yul\":1923:1926   */\n      dup5\n        /* \"#utility.yul\":1916:1935   */\n      mstore\n        /* \"#utility.yul\":1984:1990   */\n      dup1\n        /* \"#utility.yul\":1977:1981   */\n      0x20\n        /* \"#utility.yul\":1970:1975   */\n      dup5\n        /* \"#utility.yul\":1966:1982   */\n      add\n        /* \"#utility.yul\":1959:1963   */\n      0x20\n        /* \"#utility.yul\":1954:1957   */\n      dup7\n        /* \"#utility.yul\":1950:1964   */\n      add\n        /* \"#utility.yul\":1944:1991   */\n      mcopy\n        /* \"#utility.yul\":2036:2037   */\n      0x00\n        /* \"#utility.yul\":2029:2033   */\n      0x20\n        /* \"#utility.yul\":2020:2026   */\n      dup3\n        /* \"#utility.yul\":2015:2018   */\n      dup7\n        /* \"#utility.yul\":2011:2027   */\n      add\n        /* \"#utility.yul\":2007:2034   */\n      add\n        /* \"#utility.yul\":2000:2038   */\n      mstore\n        /* \"#utility.yul\":2099:2103   */\n      0x20\n        /* \"#utility.yul\":2092:2094   */\n      0x1f\n        /* \"#utility.yul\":2088:2095   */\n      not\n        /* \"#utility.yul\":2083:2085   */\n      0x1f\n        /* \"#utility.yul\":2075:2081   */\n      dup4\n        /* \"#utility.yul\":2071:2086   */\n      add\n        /* \"#utility.yul\":2067:2096   */\n      and\n        /* \"#utility.yul\":2062:2065   */\n      dup6\n        /* \"#utility.yul\":2058:2097   */\n      add\n        /* \"#utility.yul\":2054:2104   */\n      add\n        /* \"#utility.yul\":2047:2104   */\n      swap2\n      pop\n      pop\n        /* \"#utility.yul\":1821:2110   */\n      swap3\n      swap2\n      pop\n      pop\n      jump\t// out\n        /* \"#utility.yul\":2115:3640   */\n    tag_26:\n      sub(shl(0xa0, 0x01), 0x01)\n        /* \"#utility.yul\":447:501   */\n      dup13\n      and\n        /* \"#utility.yul\":435:502   */\n      dup2\n      mstore\n        /* \"#utility.yul\":2628:2632   */\n      0x00\n        /* \"#utility.yul\":2657:2660   */\n      0x0160\n        /* \"#utility.yul\":2742:2744   */\n      dup1\n        /* \"#utility.yul\":2737:2739   */\n      0x20\n        /* \"#utility.yul\":2726:2735   */\n      dup5\n        /* \"#utility.yul\":2722:2740   */\n      add\n        /* \"#utility.yul\":2715:2745   */\n      mstore\n        /* \"#utility.yul\":2768:2813   */\n      tag_197\n        /* \"#utility.yul\":2809:2811   */\n      dup2\n        /* \"#utility.yul\":2798:2807   */\n      dup5\n        /* \"#utility.yul\":2794:2812   */\n      add\n        /* \"#utility.yul\":2786:2792   */\n      dup15\n        /* \"#utility.yul\":2768:2813   */\n      tag_172\n      jump\t// in\n    tag_197:\n        /* \"#utility.yul\":2754:2813   */\n      swap1\n      pop\n        /* \"#utility.yul\":2861:2870   */\n      dup3\n        /* \"#utility.yul\":2853:2859   */\n      dup2\n        /* \"#utility.yul\":2849:2871   */\n      sub\n        /* \"#utility.yul\":2844:2846   */\n      0x40\n        /* \"#utility.yul\":2833:2842   */\n      dup5\n        /* \"#utility.yul\":2829:2847   */\n      add\n        /* \"#utility.yul\":2822:2872   */\n      mstore\n        /* \"#utility.yul\":2895:2928   */\n      tag_198\n        /* \"#utility.yul\":2921:2927   */\n      dup2\n        /* \"#utility.yul\":2913:2919   */\n      dup14\n        /* \"#utility.yul\":2895:2928   */\n      tag_172\n      jump\t// in\n    tag_198:\n        /* \"#utility.yul\":2881:2928   */\n      swap1\n      pop\n        /* \"#utility.yul\":2976:2985   */\n      dup3\n        /* \"#utility.yul\":2968:2974   */\n      dup2\n        /* \"#utility.yul\":2964:2986   */\n      sub\n        /* \"#utility.yul\":2959:2961   */\n      0x60\n        /* \"#utility.yul\":2948:2957   */\n      dup5\n        /* \"#utility.yul\":2944:2962   */\n      add\n        /* \"#utility.yul\":2937:2987   */\n      mstore\n        /* \"#utility.yul\":3010:3043   */\n      tag_199\n        /* \"#utility.yul\":3036:3042   */\n      dup2\n        /* \"#utility.yul\":3028:3034   */\n      dup13\n        /* \"#utility.yul\":3010:3043   */\n      tag_172\n      jump\t// in\n    tag_199:\n        /* \"#utility.yul\":2996:3043   */\n      swap1\n      pop\n        /* \"#utility.yul\":3092:3101   */\n      dup3\n        /* \"#utility.yul\":3084:3090   */\n      dup2\n        /* \"#utility.yul\":3080:3102   */\n      sub\n        /* \"#utility.yul\":3074:3077   */\n      0x80\n        /* \"#utility.yul\":3063:3072   */\n      dup5\n        /* \"#utility.yul\":3059:3078   */\n      add\n        /* \"#utility.yul\":3052:3103   */\n      mstore\n        /* \"#utility.yul\":3126:3159   */\n      tag_200\n        /* \"#utility.yul\":3152:3158   */\n      dup2\n        /* \"#utility.yul\":3144:3150   */\n      dup12\n        /* \"#utility.yul\":3126:3159   */\n      tag_172\n      jump\t// in\n    tag_200:\n        /* \"#utility.yul\":3112:3159   */\n      swap1\n      pop\n        /* \"#utility.yul\":3208:3217   */\n      dup3\n        /* \"#utility.yul\":3200:3206   */\n      dup2\n        /* \"#utility.yul\":3196:3218   */\n      sub\n        /* \"#utility.yul\":3190:3193   */\n      0xa0\n        /* \"#utility.yul\":3179:3188   */\n      dup5\n        /* \"#utility.yul\":3175:3194   */\n      add\n        /* \"#utility.yul\":3168:3219   */\n      mstore\n        /* \"#utility.yul\":3242:3275   */\n      tag_201\n        /* \"#utility.yul\":3268:3274   */\n      dup2\n        /* \"#utility.yul\":3260:3266   */\n      dup11\n        /* \"#utility.yul\":3242:3275   */\n      tag_172\n      jump\t// in\n    tag_201:\n        /* \"#utility.yul\":3228:3275   */\n      swap1\n      pop\n        /* \"#utility.yul\":3324:3333   */\n      dup3\n        /* \"#utility.yul\":3316:3322   */\n      dup2\n        /* \"#utility.yul\":3312:3334   */\n      sub\n        /* \"#utility.yul\":3306:3309   */\n      0xc0\n        /* \"#utility.yul\":3295:3304   */\n      dup5\n        /* \"#utility.yul\":3291:3310   */\n      add\n        /* \"#utility.yul\":3284:3335   */\n      mstore\n        /* \"#utility.yul\":3358:3391   */\n      tag_202\n        /* \"#utility.yul\":3384:3390   */\n      dup2\n        /* \"#utility.yul\":3376:3382   */\n      dup10\n        /* \"#utility.yul\":3358:3391   */\n      tag_172\n      jump\t// in\n    tag_202:\n        /* \"#utility.yul\":3344:3391   */\n      swap1\n      pop\n        /* \"#utility.yul\":3428:3434   */\n      dup7\n        /* \"#utility.yul\":3422:3425   */\n      0xe0\n        /* \"#utility.yul\":3411:3420   */\n      dup5\n        /* \"#utility.yul\":3407:3426   */\n      add\n        /* \"#utility.yul\":3400:3435   */\n      mstore\n        /* \"#utility.yul\":3472:3478   */\n      dup6\n        /* \"#utility.yul\":3466:3469   */\n      0x0100\n        /* \"#utility.yul\":3455:3464   */\n      dup5\n        /* \"#utility.yul\":3451:3470   */\n      add\n        /* \"#utility.yul\":3444:3479   */\n      mstore\n        /* \"#utility.yul\":3516:3522   */\n      dup5\n        /* \"#utility.yul\":3510:3513   */\n      0x0120\n        /* \"#utility.yul\":3499:3508   */\n      dup5\n        /* \"#utility.yul\":3495:3514   */\n      add\n        /* \"#utility.yul\":3488:3523   */\n      mstore\n        /* \"#utility.yul\":3572:3581   */\n      dup3\n        /* \"#utility.yul\":3564:3570   */\n      dup2\n        /* \"#utility.yul\":3560:3582   */\n      sub\n        /* \"#utility.yul\":3554:3557   */\n      0x0140\n        /* \"#utility.yul\":3543:3552   */\n      dup5\n        /* \"#utility.yul\":3539:3558   */\n      add\n        /* \"#utility.yul\":3532:3583   */\n      mstore\n        /* \"#utility.yul\":3600:3634   */\n      tag_203\n        /* \"#utility.yul\":3627:3633   */\n      dup2\n        /* \"#utility.yul\":3618:3625   */\n      dup6\n        /* \"#utility.yul\":3600:3634   */\n      tag_172\n      jump\t// in\n    tag_203:\n        /* \"#utility.yul\":3592:3634   */\n      swap15\n        /* \"#utility.yul\":2115:3640   */\n      swap14\n      pop\n      pop\n      pop\n      pop\n      pop\n      pop\n      pop\n      pop\n      pop\n      pop\n      pop\n      pop\n      pop\n      pop\n      jump\t// out\n        /* \"#utility.yul\":3645:4133   */\n    tag_173:\n        /* \"#utility.yul\":3698:3701   */\n      0x00\n        /* \"#utility.yul\":3736:3741   */\n      dup2\n        /* \"#utility.yul\":3730:3742   */\n      mload\n        /* \"#utility.yul\":3763:3769   */\n      dup1\n        /* \"#utility.yul\":3758:3761   */\n      dup5\n        /* \"#utility.yul\":3751:3770   */\n      mstore\n        /* \"#utility.yul\":3789:3793   */\n      0x20\n        /* \"#utility.yul\":3818:3822   */\n      dup1\n        /* \"#utility.yul\":3813:3816   */\n      dup6\n        /* \"#utility.yul\":3809:3823   */\n      add\n        /* \"#utility.yul\":3802:3823   */\n      swap5\n      pop\n        /* \"#utility.yul\":3857:3861   */\n      0x20\n        /* \"#utility.yul\":3850:3855   */\n      dup5\n        /* \"#utility.yul\":3846:3862   */\n      add\n        /* \"#utility.yul\":3880:3881   */\n      0x00\n        /* \"#utility.yul\":3890:4108   */\n    tag_205:\n        /* \"#utility.yul\":3904:3910   */\n      dup4\n        /* \"#utility.yul\":3901:3902   */\n      dup2\n        /* \"#utility.yul\":3898:3911   */\n      lt\n        /* \"#utility.yul\":3890:4108   */\n      iszero\n      tag_188\n      jumpi\n        /* \"#utility.yul\":3969:3982   */\n      dup2\n      mload\n      sub(shl(0xa0, 0x01), 0x01)\n        /* \"#utility.yul\":3965:4027   */\n      and\n        /* \"#utility.yul\":3953:4028   */\n      dup8\n      mstore\n        /* \"#utility.yul\":4048:4060   */\n      swap6\n      dup3\n      add\n      swap6\n        /* \"#utility.yul\":4083:4098   */\n      swap1\n      dup3\n      add\n      swap1\n        /* \"#utility.yul\":3926:3927   */\n      0x01\n        /* \"#utility.yul\":3919:3928   */\n      add\n        /* \"#utility.yul\":3890:4108   */\n      jump(tag_205)\n        /* \"#utility.yul\":4138:7116   */\n    tag_34:\n        /* \"#utility.yul\":4328:4332   */\n      0x00\n        /* \"#utility.yul\":4357:4359   */\n      0x20\n        /* \"#utility.yul\":4397:4399   */\n      dup1\n        /* \"#utility.yul\":4386:4395   */\n      dup4\n        /* \"#utility.yul\":4382:4400   */\n      add\n        /* \"#utility.yul\":4427:4429   */\n      dup2\n        /* \"#utility.yul\":4416:4425   */\n      dup5\n        /* \"#utility.yul\":4409:4430   */\n      mstore\n        /* \"#utility.yul\":4450:4456   */\n      dup1\n        /* \"#utility.yul\":4485:4491   */\n      dup6\n        /* \"#utility.yul\":4479:4492   */\n      mload\n        /* \"#utility.yul\":4516:4522   */\n      dup1\n        /* \"#utility.yul\":4508:4514   */\n      dup4\n        /* \"#utility.yul\":4501:4523   */\n      mstore\n        /* \"#utility.yul\":4542:4544   */\n      0x40\n        /* \"#utility.yul\":4532:4544   */\n      swap3\n      pop\n        /* \"#utility.yul\":4575:4577   */\n      0x40\n        /* \"#utility.yul\":4564:4573   */\n      dup7\n        /* \"#utility.yul\":4560:4578   */\n      add\n        /* \"#utility.yul\":4553:4578   */\n      swap2\n      pop\n        /* \"#utility.yul\":4637:4639   */\n      0x40\n        /* \"#utility.yul\":4627:4633   */\n      dup2\n        /* \"#utility.yul\":4624:4625   */\n      0x05\n        /* \"#utility.yul\":4620:4634   */\n      shl\n        /* \"#utility.yul\":4609:4618   */\n      dup8\n        /* \"#utility.yul\":4605:4635   */\n      add\n        /* \"#utility.yul\":4601:4640   */\n      add\n        /* \"#utility.yul\":4675:4677   */\n      dup5\n        /* \"#utility.yul\":4667:4673   */\n      dup9\n        /* \"#utility.yul\":4663:4678   */\n      add\n        /* \"#utility.yul\":4696:4697   */\n      0x00\n        /* \"#utility.yul\":4706:7087   */\n    tag_209:\n        /* \"#utility.yul\":4720:4726   */\n      dup4\n        /* \"#utility.yul\":4717:4718   */\n      dup2\n        /* \"#utility.yul\":4714:4727   */\n      lt\n        /* \"#utility.yul\":4706:7087   */\n      iszero\n      tag_211\n      jumpi\n        /* \"#utility.yul\":4785:4807   */\n      dup9\n      dup4\n      sub\n      not(0x3f)\n        /* \"#utility.yul\":4781:4817   */\n      add\n        /* \"#utility.yul\":4769:4818   */\n      dup6\n      mstore\n        /* \"#utility.yul\":4841:4854   */\n      dup2\n      mload\n        /* \"#utility.yul\":4915:4924   */\n      dup1\n      mload\n      sub(shl(0xa0, 0x01), 0x01)\n        /* \"#utility.yul\":447:501   */\n      and\n        /* \"#utility.yul\":435:502   */\n      dup5\n      mstore\n        /* \"#utility.yul\":4877:4883   */\n      0x01a0\n        /* \"#utility.yul\":4980:4982   */\n      dup9\n        /* \"#utility.yul\":4976:4978   */\n      dup3\n        /* \"#utility.yul\":4972:4983   */\n      add\n        /* \"#utility.yul\":4966:4984   */\n      mload\n        /* \"#utility.yul\":5021:5023   */\n      dup2\n        /* \"#utility.yul\":5016:5018   */\n      dup11\n        /* \"#utility.yul\":5008:5014   */\n      dup8\n        /* \"#utility.yul\":5004:5019   */\n      add\n        /* \"#utility.yul\":4997:5024   */\n      mstore\n        /* \"#utility.yul\":5051:5099   */\n      tag_213\n        /* \"#utility.yul\":5095:5097   */\n      dup3\n        /* \"#utility.yul\":5087:5093   */\n      dup8\n        /* \"#utility.yul\":5083:5098   */\n      add\n        /* \"#utility.yul\":5069:5081   */\n      dup3\n        /* \"#utility.yul\":5051:5099   */\n      tag_172\n      jump\t// in\n    tag_213:\n        /* \"#utility.yul\":5037:5099   */\n      swap2\n      pop\n      pop\n        /* \"#utility.yul\":5148:5150   */\n      dup8\n        /* \"#utility.yul\":5144:5146   */\n      dup3\n        /* \"#utility.yul\":5140:5151   */\n      add\n        /* \"#utility.yul\":5134:5152   */\n      mload\n        /* \"#utility.yul\":5201:5207   */\n      dup6\n        /* \"#utility.yul\":5193:5199   */\n      dup3\n        /* \"#utility.yul\":5189:5208   */\n      sub\n        /* \"#utility.yul\":5184:5186   */\n      dup10\n        /* \"#utility.yul\":5176:5182   */\n      dup8\n        /* \"#utility.yul\":5172:5187   */\n      add\n        /* \"#utility.yul\":5165:5209   */\n      mstore\n        /* \"#utility.yul\":5236:5277   */\n      tag_214\n        /* \"#utility.yul\":5270:5276   */\n      dup3\n        /* \"#utility.yul\":5254:5268   */\n      dup3\n        /* \"#utility.yul\":5236:5277   */\n      tag_172\n      jump\t// in\n    tag_214:\n        /* \"#utility.yul\":5222:5277   */\n      swap2\n      pop\n      pop\n        /* \"#utility.yul\":5300:5304   */\n      0x60\n        /* \"#utility.yul\":5353:5355   */\n      dup1\n        /* \"#utility.yul\":5349:5351   */\n      dup4\n        /* \"#utility.yul\":5345:5356   */\n      add\n        /* \"#utility.yul\":5339:5357   */\n      mload\n        /* \"#utility.yul\":5406:5412   */\n      dup7\n        /* \"#utility.yul\":5398:5404   */\n      dup4\n        /* \"#utility.yul\":5394:5413   */\n      sub\n        /* \"#utility.yul\":5389:5391   */\n      dup3\n        /* \"#utility.yul\":5381:5387   */\n      dup9\n        /* \"#utility.yul\":5377:5392   */\n      add\n        /* \"#utility.yul\":5370:5414   */\n      mstore\n        /* \"#utility.yul\":5441:5482   */\n      tag_215\n        /* \"#utility.yul\":5475:5481   */\n      dup4\n        /* \"#utility.yul\":5459:5473   */\n      dup3\n        /* \"#utility.yul\":5441:5482   */\n      tag_172\n      jump\t// in\n    tag_215:\n        /* \"#utility.yul\":5427:5482   */\n      swap3\n      pop\n      pop\n      pop\n        /* \"#utility.yul\":5505:5509   */\n      0x80\n        /* \"#utility.yul\":5558:5560   */\n      dup1\n        /* \"#utility.yul\":5554:5556   */\n      dup4\n        /* \"#utility.yul\":5550:5561   */\n      add\n        /* \"#utility.yul\":5544:5562   */\n      mload\n        /* \"#utility.yul\":5611:5617   */\n      dup7\n        /* \"#utility.yul\":5603:5609   */\n      dup4\n        /* \"#utility.yul\":5599:5618   */\n      sub\n        /* \"#utility.yul\":5594:5596   */\n      dup3\n        /* \"#utility.yul\":5586:5592   */\n      dup9\n        /* \"#utility.yul\":5582:5597   */\n      add\n        /* \"#utility.yul\":5575:5619   */\n      mstore\n        /* \"#utility.yul\":5646:5687   */\n      tag_216\n        /* \"#utility.yul\":5680:5686   */\n      dup4\n        /* \"#utility.yul\":5664:5678   */\n      dup3\n        /* \"#utility.yul\":5646:5687   */\n      tag_172\n      jump\t// in\n    tag_216:\n        /* \"#utility.yul\":5632:5687   */\n      swap3\n      pop\n      pop\n      pop\n        /* \"#utility.yul\":5710:5714   */\n      0xa0\n        /* \"#utility.yul\":5763:5765   */\n      dup1\n        /* \"#utility.yul\":5759:5761   */\n      dup4\n        /* \"#utility.yul\":5755:5766   */\n      add\n        /* \"#utility.yul\":5749:5767   */\n      mload\n        /* \"#utility.yul\":5816:5822   */\n      dup7\n        /* \"#utility.yul\":5808:5814   */\n      dup4\n        /* \"#utility.yul\":5804:5823   */\n      sub\n        /* \"#utility.yul\":5799:5801   */\n      dup3\n        /* \"#utility.yul\":5791:5797   */\n      dup9\n        /* \"#utility.yul\":5787:5802   */\n      add\n        /* \"#utility.yul\":5780:5824   */\n      mstore\n        /* \"#utility.yul\":5851:5892   */\n      tag_217\n        /* \"#utility.yul\":5885:5891   */\n      dup4\n        /* \"#utility.yul\":5869:5883   */\n      dup3\n        /* \"#utility.yul\":5851:5892   */\n      tag_172\n      jump\t// in\n    tag_217:\n        /* \"#utility.yul\":5837:5892   */\n      swap3\n      pop\n      pop\n      pop\n        /* \"#utility.yul\":5915:5919   */\n      0xc0\n        /* \"#utility.yul\":5968:5970   */\n      dup1\n        /* \"#utility.yul\":5964:5966   */\n      dup4\n        /* \"#utility.yul\":5960:5971   */\n      add\n        /* \"#utility.yul\":5954:5972   */\n      mload\n        /* \"#utility.yul\":6021:6027   */\n      dup7\n        /* \"#utility.yul\":6013:6019   */\n      dup4\n        /* \"#utility.yul\":6009:6028   */\n      sub\n        /* \"#utility.yul\":6004:6006   */\n      dup3\n        /* \"#utility.yul\":5996:6002   */\n      dup9\n        /* \"#utility.yul\":5992:6007   */\n      add\n        /* \"#utility.yul\":5985:6029   */\n      mstore\n        /* \"#utility.yul\":6056:6097   */\n      tag_218\n        /* \"#utility.yul\":6090:6096   */\n      dup4\n        /* \"#utility.yul\":6074:6088   */\n      dup3\n        /* \"#utility.yul\":6056:6097   */\n      tag_172\n      jump\t// in\n    tag_218:\n        /* \"#utility.yul\":6042:6097   */\n      swap3\n      pop\n      pop\n      pop\n        /* \"#utility.yul\":6120:6124   */\n      0xe0\n        /* \"#utility.yul\":6175:6177   */\n      dup1\n        /* \"#utility.yul\":6171:6173   */\n      dup4\n        /* \"#utility.yul\":6167:6178   */\n      add\n        /* \"#utility.yul\":6161:6179   */\n      mload\n        /* \"#utility.yul\":6156:6158   */\n      dup2\n        /* \"#utility.yul\":6148:6154   */\n      dup8\n        /* \"#utility.yul\":6144:6159   */\n      add\n        /* \"#utility.yul\":6137:6180   */\n      mstore\n      pop\n        /* \"#utility.yul\":6204:6210   */\n      0x0100\n        /* \"#utility.yul\":6262:6265   */\n      dup1\n        /* \"#utility.yul\":6258:6260   */\n      dup4\n        /* \"#utility.yul\":6254:6266   */\n      add\n        /* \"#utility.yul\":6248:6267   */\n      mload\n        /* \"#utility.yul\":6242:6245   */\n      dup2\n        /* \"#utility.yul\":6234:6240   */\n      dup8\n        /* \"#utility.yul\":6230:6246   */\n      add\n        /* \"#utility.yul\":6223:6268   */\n      mstore\n      pop\n        /* \"#utility.yul\":6292:6298   */\n      0x0120\n        /* \"#utility.yul\":6350:6353   */\n      dup1\n        /* \"#utility.yul\":6346:6348   */\n      dup4\n        /* \"#utility.yul\":6342:6354   */\n      add\n        /* \"#utility.yul\":6336:6355   */\n      mload\n        /* \"#utility.yul\":6330:6333   */\n      dup2\n        /* \"#utility.yul\":6322:6328   */\n      dup8\n        /* \"#utility.yul\":6318:6334   */\n      add\n        /* \"#utility.yul\":6311:6356   */\n      mstore\n      pop\n        /* \"#utility.yul\":6380:6386   */\n      0x0140\n        /* \"#utility.yul\":6435:6438   */\n      dup1\n        /* \"#utility.yul\":6431:6433   */\n      dup4\n        /* \"#utility.yul\":6427:6439   */\n      add\n        /* \"#utility.yul\":6421:6440   */\n      mload\n        /* \"#utility.yul\":6490:6496   */\n      dup7\n        /* \"#utility.yul\":6482:6488   */\n      dup4\n        /* \"#utility.yul\":6478:6497   */\n      sub\n        /* \"#utility.yul\":6472:6475   */\n      dup3\n        /* \"#utility.yul\":6464:6470   */\n      dup9\n        /* \"#utility.yul\":6460:6476   */\n      add\n        /* \"#utility.yul\":6453:6498   */\n      mstore\n        /* \"#utility.yul\":6525:6566   */\n      tag_219\n        /* \"#utility.yul\":6559:6565   */\n      dup4\n        /* \"#utility.yul\":6543:6557   */\n      dup3\n        /* \"#utility.yul\":6525:6566   */\n      tag_172\n      jump\t// in\n    tag_219:\n        /* \"#utility.yul\":6511:6566   */\n      swap3\n      pop\n      pop\n      pop\n        /* \"#utility.yul\":6590:6596   */\n      0x0160\n        /* \"#utility.yul\":6645:6648   */\n      dup1\n        /* \"#utility.yul\":6641:6643   */\n      dup4\n        /* \"#utility.yul\":6637:6649   */\n      add\n        /* \"#utility.yul\":6631:6650   */\n      mload\n        /* \"#utility.yul\":6700:6706   */\n      dup7\n        /* \"#utility.yul\":6692:6698   */\n      dup4\n        /* \"#utility.yul\":6688:6707   */\n      sub\n        /* \"#utility.yul\":6682:6685   */\n      dup3\n        /* \"#utility.yul\":6674:6680   */\n      dup9\n        /* \"#utility.yul\":6670:6686   */\n      add\n        /* \"#utility.yul\":6663:6708   */\n      mstore\n        /* \"#utility.yul\":6736:6788   */\n      tag_220\n        /* \"#utility.yul\":6781:6787   */\n      dup4\n        /* \"#utility.yul\":6765:6779   */\n      dup3\n        /* \"#utility.yul\":6736:6788   */\n      tag_173\n      jump\t// in\n    tag_220:\n        /* \"#utility.yul\":6721:6788   */\n      swap3\n      pop\n      pop\n      pop\n        /* \"#utility.yul\":6812:6818   */\n      0x0180\n        /* \"#utility.yul\":6867:6870   */\n      dup1\n        /* \"#utility.yul\":6863:6865   */\n      dup4\n        /* \"#utility.yul\":6859:6871   */\n      add\n        /* \"#utility.yul\":6853:6872   */\n      mload\n        /* \"#utility.yul\":6831:6872   */\n      swap3\n      pop\n        /* \"#utility.yul\":6923:6929   */\n      dup6\n        /* \"#utility.yul\":6914:6921   */\n      dup3\n        /* \"#utility.yul\":6910:6930   */\n      sub\n        /* \"#utility.yul\":6904:6907   */\n      dup2\n        /* \"#utility.yul\":6896:6902   */\n      dup8\n        /* \"#utility.yul\":6892:6908   */\n      add\n        /* \"#utility.yul\":6885:6931   */\n      mstore\n      pop\n        /* \"#utility.yul\":6954:7007   */\n      tag_221\n        /* \"#utility.yul\":6999:7006   */\n      dup2\n        /* \"#utility.yul\":6983:6997   */\n      dup4\n        /* \"#utility.yul\":6954:7007   */\n      tag_171\n      jump\t// in\n    tag_221:\n        /* \"#utility.yul\":7065:7077   */\n      swap7\n      dup10\n      add\n      swap7\n        /* \"#utility.yul\":6944:7007   */\n      swap5\n      pop\n      pop\n      pop\n        /* \"#utility.yul\":7030:7045   */\n      swap1\n      dup7\n      add\n      swap1\n        /* \"#utility.yul\":4742:4743   */\n      0x01\n        /* \"#utility.yul\":4735:4744   */\n      add\n        /* \"#utility.yul\":4706:7087   */\n      jump(tag_209)\n    tag_211:\n      pop\n        /* \"#utility.yul\":7104:7110   */\n      swap1\n      swap9\n        /* \"#utility.yul\":4138:7116   */\n      swap8\n      pop\n      pop\n      pop\n      pop\n      pop\n      pop\n      pop\n      pop\n      jump\t// out\n        /* \"#utility.yul\":7121:7317   */\n    tag_174:\n        /* \"#utility.yul\":7189:7209   */\n      dup1\n      calldataload\n      sub(shl(0xa0, 0x01), 0x01)\n        /* \"#utility.yul\":7238:7292   */\n      dup2\n      and\n        /* \"#utility.yul\":7228:7293   */\n      dup2\n      eq\n        /* \"#utility.yul\":7218:7311   */\n      tag_223\n      jumpi\n        /* \"#utility.yul\":7307:7308   */\n      0x00\n        /* \"#utility.yul\":7304:7305   */\n      dup1\n        /* \"#utility.yul\":7297:7309   */\n      revert\n        /* \"#utility.yul\":7218:7311   */\n    tag_223:\n        /* \"#utility.yul\":7121:7317   */\n      swap2\n      swap1\n      pop\n      jump\t// out\n        /* \"#utility.yul\":7322:7449   */\n    tag_104:\n        /* \"#utility.yul\":7383:7393   */\n      0x4e487b71\n        /* \"#utility.yul\":7378:7381   */\n      0xe0\n        /* \"#utility.yul\":7374:7394   */\n      shl\n        /* \"#utility.yul\":7371:7372   */\n      0x00\n        /* \"#utility.yul\":7364:7395   */\n      mstore\n        /* \"#utility.yul\":7414:7418   */\n      0x41\n        /* \"#utility.yul\":7411:7412   */\n      0x04\n        /* \"#utility.yul\":7404:7419   */\n      mstore\n        /* \"#utility.yul\":7438:7442   */\n      0x24\n        /* \"#utility.yul\":7435:7436   */\n      0x00\n        /* \"#utility.yul\":7428:7443   */\n      revert\n        /* \"#utility.yul\":7454:8173   */\n    tag_175:\n        /* \"#utility.yul\":7497:7502   */\n      0x00\n        /* \"#utility.yul\":7550:7553   */\n      dup3\n        /* \"#utility.yul\":7543:7547   */\n      0x1f\n        /* \"#utility.yul\":7535:7541   */\n      dup4\n        /* \"#utility.yul\":7531:7548   */\n      add\n        /* \"#utility.yul\":7527:7554   */\n      slt\n        /* \"#utility.yul\":7517:7572   */\n      tag_226\n      jumpi\n        /* \"#utility.yul\":7568:7569   */\n      0x00\n        /* \"#utility.yul\":7565:7566   */\n      dup1\n        /* \"#utility.yul\":7558:7570   */\n      revert\n        /* \"#utility.yul\":7517:7572   */\n    tag_226:\n        /* \"#utility.yul\":7604:7610   */\n      dup2\n        /* \"#utility.yul\":7591:7611   */\n      calldataload\n        /* \"#utility.yul\":7630:7648   */\n      0xffffffffffffffff\n        /* \"#utility.yul\":7667:7669   */\n      dup1\n        /* \"#utility.yul\":7663:7665   */\n      dup3\n        /* \"#utility.yul\":7660:7670   */\n      gt\n        /* \"#utility.yul\":7657:7693   */\n      iszero\n      tag_228\n      jumpi\n        /* \"#utility.yul\":7673:7691   */\n      tag_228\n      tag_104\n      jump\t// in\n    tag_228:\n        /* \"#utility.yul\":7748:7750   */\n      0x40\n        /* \"#utility.yul\":7742:7751   */\n      mload\n        /* \"#utility.yul\":7716:7718   */\n      0x1f\n        /* \"#utility.yul\":7802:7815   */\n      dup4\n      add\n      not(0x1f)\n        /* \"#utility.yul\":7798:7820   */\n      swap1\n      dup2\n      and\n        /* \"#utility.yul\":7822:7824   */\n      0x3f\n        /* \"#utility.yul\":7794:7825   */\n      add\n        /* \"#utility.yul\":7790:7830   */\n      and\n        /* \"#utility.yul\":7778:7831   */\n      dup2\n      add\n      swap1\n        /* \"#utility.yul\":7846:7864   */\n      dup3\n      dup3\n      gt\n        /* \"#utility.yul\":7866:7888   */\n      dup2\n      dup4\n      lt\n        /* \"#utility.yul\":7843:7889   */\n      or\n        /* \"#utility.yul\":7840:7912   */\n      iszero\n      tag_230\n      jumpi\n        /* \"#utility.yul\":7892:7910   */\n      tag_230\n      tag_104\n      jump\t// in\n    tag_230:\n        /* \"#utility.yul\":7932:7942   */\n      dup2\n        /* \"#utility.yul\":7928:7930   */\n      0x40\n        /* \"#utility.yul\":7921:7943   */\n      mstore\n        /* \"#utility.yul\":7967:7969   */\n      dup4\n        /* \"#utility.yul\":7959:7965   */\n      dup2\n        /* \"#utility.yul\":7952:7970   */\n      mstore\n        /* \"#utility.yul\":8013:8016   */\n      dup7\n        /* \"#utility.yul\":8006:8010   */\n      0x20\n        /* \"#utility.yul\":8001:8003   */\n      dup6\n        /* \"#utility.yul\":7993:7999   */\n      dup9\n        /* \"#utility.yul\":7989:8004   */\n      add\n        /* \"#utility.yul\":7985:8011   */\n      add\n        /* \"#utility.yul\":7982:8017   */\n      gt\n        /* \"#utility.yul\":7979:8034   */\n      iszero\n      tag_231\n      jumpi\n        /* \"#utility.yul\":8030:8031   */\n      0x00\n        /* \"#utility.yul\":8027:8028   */\n      dup1\n        /* \"#utility.yul\":8020:8032   */\n      revert\n        /* \"#utility.yul\":7979:8034   */\n    tag_231:\n        /* \"#utility.yul\":8094:8096   */\n      dup4\n        /* \"#utility.yul\":8087:8091   */\n      0x20\n        /* \"#utility.yul\":8079:8085   */\n      dup8\n        /* \"#utility.yul\":8075:8092   */\n      add\n        /* \"#utility.yul\":8068:8072   */\n      0x20\n        /* \"#utility.yul\":8060:8066   */\n      dup4\n        /* \"#utility.yul\":8056:8073   */\n      add\n        /* \"#utility.yul\":8043:8097   */\n      calldatacopy\n        /* \"#utility.yul\":8141:8142   */\n      0x00\n        /* \"#utility.yul\":8134:8138   */\n      0x20\n        /* \"#utility.yul\":8129:8131   */\n      dup6\n        /* \"#utility.yul\":8121:8127   */\n      dup4\n        /* \"#utility.yul\":8117:8132   */\n      add\n        /* \"#utility.yul\":8113:8139   */\n      add\n        /* \"#utility.yul\":8106:8143   */\n      mstore\n        /* \"#utility.yul\":8161:8167   */\n      dup1\n        /* \"#utility.yul\":8152:8167   */\n      swap5\n      pop\n      pop\n      pop\n      pop\n      pop\n        /* \"#utility.yul\":7454:8173   */\n      swap3\n      swap2\n      pop\n      pop\n      jump\t// out\n        /* \"#utility.yul\":8178:9938   */\n    tag_38:\n        /* \"#utility.yul\":8388:8394   */\n      0x00\n        /* \"#utility.yul\":8396:8402   */\n      dup1\n        /* \"#utility.yul\":8404:8410   */\n      0x00\n        /* \"#utility.yul\":8412:8418   */\n      dup1\n        /* \"#utility.yul\":8420:8426   */\n      0x00\n        /* \"#utility.yul\":8428:8434   */\n      dup1\n        /* \"#utility.yul\":8436:8442   */\n      0x00\n        /* \"#utility.yul\":8444:8450   */\n      dup1\n        /* \"#utility.yul\":8452:8458   */\n      0x00\n        /* \"#utility.yul\":8460:8466   */\n      dup1\n        /* \"#utility.yul\":8513:8516   */\n      0x0140\n        /* \"#utility.yul\":8501:8510   */\n      dup12\n        /* \"#utility.yul\":8492:8499   */\n      dup14\n        /* \"#utility.yul\":8488:8511   */\n      sub\n        /* \"#utility.yul\":8484:8517   */\n      slt\n        /* \"#utility.yul\":8481:8534   */\n      iszero\n      tag_233\n      jumpi\n        /* \"#utility.yul\":8530:8531   */\n      0x00\n        /* \"#utility.yul\":8527:8528   */\n      dup1\n        /* \"#utility.yul\":8520:8532   */\n      revert\n        /* \"#utility.yul\":8481:8534   */\n    tag_233:\n        /* \"#utility.yul\":8553:8582   */\n      tag_234\n        /* \"#utility.yul\":8572:8581   */\n      dup12\n        /* \"#utility.yul\":8553:8582   */\n      tag_174\n      jump\t// in\n    tag_234:\n        /* \"#utility.yul\":8543:8582   */\n      swap10\n      pop\n        /* \"#utility.yul\":8633:8635   */\n      0x20\n        /* \"#utility.yul\":8622:8631   */\n      dup12\n        /* \"#utility.yul\":8618:8636   */\n      add\n        /* \"#utility.yul\":8605:8637   */\n      calldataload\n        /* \"#utility.yul\":8656:8674   */\n      0xffffffffffffffff\n        /* \"#utility.yul\":8697:8699   */\n      dup1\n        /* \"#utility.yul\":8689:8695   */\n      dup3\n        /* \"#utility.yul\":8686:8700   */\n      gt\n        /* \"#utility.yul\":8683:8717   */\n      iszero\n      tag_235\n      jumpi\n        /* \"#utility.yul\":8713:8714   */\n      0x00\n        /* \"#utility.yul\":8710:8711   */\n      dup1\n        /* \"#utility.yul\":8703:8715   */\n      revert\n        /* \"#utility.yul\":8683:8717   */\n    tag_235:\n        /* \"#utility.yul\":8736:8786   */\n      tag_236\n        /* \"#utility.yul\":8778:8785   */\n      dup15\n        /* \"#utility.yul\":8769:8775   */\n      dup4\n        /* \"#utility.yul\":8758:8767   */\n      dup16\n        /* \"#utility.yul\":8754:8776   */\n      add\n        /* \"#utility.yul\":8736:8786   */\n      tag_175\n      jump\t// in\n    tag_236:\n        /* \"#utility.yul\":8726:8786   */\n      swap11\n      pop\n        /* \"#utility.yul\":8839:8841   */\n      0x40\n        /* \"#utility.yul\":8828:8837   */\n      dup14\n        /* \"#utility.yul\":8824:8842   */\n      add\n        /* \"#utility.yul\":8811:8843   */\n      calldataload\n        /* \"#utility.yul\":8795:8843   */\n      swap2\n      pop\n        /* \"#utility.yul\":8868:8870   */\n      dup1\n        /* \"#utility.yul\":8858:8866   */\n      dup3\n        /* \"#utility.yul\":8855:8871   */\n      gt\n        /* \"#utility.yul\":8852:8888   */\n      iszero\n      tag_237\n      jumpi\n        /* \"#utility.yul\":8884:8885   */\n      0x00\n        /* \"#utility.yul\":8881:8882   */\n      dup1\n        /* \"#utility.yul\":8874:8886   */\n      revert\n        /* \"#utility.yul\":8852:8888   */\n    tag_237:\n        /* \"#utility.yul\":8907:8959   */\n      tag_238\n        /* \"#utility.yul\":8951:8958   */\n      dup15\n        /* \"#utility.yul\":8940:8948   */\n      dup4\n        /* \"#utility.yul\":8929:8938   */\n      dup16\n        /* \"#utility.yul\":8925:8949   */\n      add\n        /* \"#utility.yul\":8907:8959   */\n      tag_175\n      jump\t// in\n    tag_238:\n        /* \"#utility.yul\":8897:8959   */\n      swap10\n      pop\n        /* \"#utility.yul\":9012:9014   */\n      0x60\n        /* \"#utility.yul\":9001:9010   */\n      dup14\n        /* \"#utility.yul\":8997:9015   */\n      add\n        /* \"#utility.yul\":8984:9016   */\n      calldataload\n        /* \"#utility.yul\":8968:9016   */\n      swap2\n      pop\n        /* \"#utility.yul\":9041:9043   */\n      dup1\n        /* \"#utility.yul\":9031:9039   */\n      dup3\n        /* \"#utility.yul\":9028:9044   */\n      gt\n        /* \"#utility.yul\":9025:9061   */\n      iszero\n      tag_239\n      jumpi\n        /* \"#utility.yul\":9057:9058   */\n      0x00\n        /* \"#utility.yul\":9054:9055   */\n      dup1\n        /* \"#utility.yul\":9047:9059   */\n      revert\n        /* \"#utility.yul\":9025:9061   */\n    tag_239:\n        /* \"#utility.yul\":9080:9132   */\n      tag_240\n        /* \"#utility.yul\":9124:9131   */\n      dup15\n        /* \"#utility.yul\":9113:9121   */\n      dup4\n        /* \"#utility.yul\":9102:9111   */\n      dup16\n        /* \"#utility.yul\":9098:9122   */\n      add\n        /* \"#utility.yul\":9080:9132   */\n      tag_175\n      jump\t// in\n    tag_240:\n        /* \"#utility.yul\":9070:9132   */\n      swap9\n      pop\n        /* \"#utility.yul\":9185:9188   */\n      0x80\n        /* \"#utility.yul\":9174:9183   */\n      dup14\n        /* \"#utility.yul\":9170:9189   */\n      add\n        /* \"#utility.yul\":9157:9190   */\n      calldataload\n        /* \"#utility.yul\":9141:9190   */\n      swap2\n      pop\n        /* \"#utility.yul\":9215:9217   */\n      dup1\n        /* \"#utility.yul\":9205:9213   */\n      dup3\n        /* \"#utility.yul\":9202:9218   */\n      gt\n        /* \"#utility.yul\":9199:9235   */\n      iszero\n      tag_241\n      jumpi\n        /* \"#utility.yul\":9231:9232   */\n      0x00\n        /* \"#utility.yul\":9228:9229   */\n      dup1\n        /* \"#utility.yul\":9221:9233   */\n      revert\n        /* \"#utility.yul\":9199:9235   */\n    tag_241:\n        /* \"#utility.yul\":9254:9306   */\n      tag_242\n        /* \"#utility.yul\":9298:9305   */\n      dup15\n        /* \"#utility.yul\":9287:9295   */\n      dup4\n        /* \"#utility.yul\":9276:9285   */\n      dup16\n        /* \"#utility.yul\":9272:9296   */\n      add\n        /* \"#utility.yul\":9254:9306   */\n      tag_175\n      jump\t// in\n    tag_242:\n        /* \"#utility.yul\":9244:9306   */\n      swap8\n      pop\n        /* \"#utility.yul\":9359:9362   */\n      0xa0\n        /* \"#utility.yul\":9348:9357   */\n      dup14\n        /* \"#utility.yul\":9344:9363   */\n      add\n        /* \"#utility.yul\":9331:9364   */\n      calldataload\n        /* \"#utility.yul\":9315:9364   */\n      swap2\n      pop\n        /* \"#utility.yul\":9389:9391   */\n      dup1\n        /* \"#utility.yul\":9379:9387   */\n      dup3\n        /* \"#utility.yul\":9376:9392   */\n      gt\n        /* \"#utility.yul\":9373:9409   */\n      iszero\n      tag_243\n      jumpi\n        /* \"#utility.yul\":9405:9406   */\n      0x00\n        /* \"#utility.yul\":9402:9403   */\n      dup1\n        /* \"#utility.yul\":9395:9407   */\n      revert\n        /* \"#utility.yul\":9373:9409   */\n    tag_243:\n        /* \"#utility.yul\":9428:9480   */\n      tag_244\n        /* \"#utility.yul\":9472:9479   */\n      dup15\n        /* \"#utility.yul\":9461:9469   */\n      dup4\n        /* \"#utility.yul\":9450:9459   */\n      dup16\n        /* \"#utility.yul\":9446:9470   */\n      add\n        /* \"#utility.yul\":9428:9480   */\n      tag_175\n      jump\t// in\n    tag_244:\n        /* \"#utility.yul\":9418:9480   */\n      swap7\n      pop\n        /* \"#utility.yul\":9533:9536   */\n      0xc0\n        /* \"#utility.yul\":9522:9531   */\n      dup14\n        /* \"#utility.yul\":9518:9537   */\n      add\n        /* \"#utility.yul\":9505:9538   */\n      calldataload\n        /* \"#utility.yul\":9489:9538   */\n      swap2\n      pop\n        /* \"#utility.yul\":9563:9565   */\n      dup1\n        /* \"#utility.yul\":9553:9561   */\n      dup3\n        /* \"#utility.yul\":9550:9566   */\n      gt\n        /* \"#utility.yul\":9547:9583   */\n      iszero\n      tag_245\n      jumpi\n        /* \"#utility.yul\":9579:9580   */\n      0x00\n        /* \"#utility.yul\":9576:9577   */\n      dup1\n        /* \"#utility.yul\":9569:9581   */\n      revert\n        /* \"#utility.yul\":9547:9583   */\n    tag_245:\n        /* \"#utility.yul\":9602:9654   */\n      tag_246\n        /* \"#utility.yul\":9646:9653   */\n      dup15\n        /* \"#utility.yul\":9635:9643   */\n      dup4\n        /* \"#utility.yul\":9624:9633   */\n      dup16\n        /* \"#utility.yul\":9620:9644   */\n      add\n        /* \"#utility.yul\":9602:9654   */\n      tag_175\n      jump\t// in\n    tag_246:\n        /* \"#utility.yul\":9592:9654   */\n      swap6\n      pop\n        /* \"#utility.yul\":9701:9704   */\n      0xe0\n        /* \"#utility.yul\":9690:9699   */\n      dup14\n        /* \"#utility.yul\":9686:9705   */\n      add\n        /* \"#utility.yul\":9673:9706   */\n      calldataload\n        /* \"#utility.yul\":9663:9706   */\n      swap5\n      pop\n        /* \"#utility.yul\":9753:9756   */\n      0x0100\n        /* \"#utility.yul\":9742:9751   */\n      dup14\n        /* \"#utility.yul\":9738:9757   */\n      add\n        /* \"#utility.yul\":9725:9758   */\n      calldataload\n        /* \"#utility.yul\":9715:9758   */\n      swap4\n      pop\n        /* \"#utility.yul\":9811:9814   */\n      0x0120\n        /* \"#utility.yul\":9800:9809   */\n      dup14\n        /* \"#utility.yul\":9796:9815   */\n      add\n        /* \"#utility.yul\":9783:9816   */\n      calldataload\n        /* \"#utility.yul\":9767:9816   */\n      swap2\n      pop\n        /* \"#utility.yul\":9841:9843   */\n      dup1\n        /* \"#utility.yul\":9831:9839   */\n      dup3\n        /* \"#utility.yul\":9828:9844   */\n      gt\n        /* \"#utility.yul\":9825:9861   */\n      iszero\n      tag_247\n      jumpi\n        /* \"#utility.yul\":9857:9858   */\n      0x00\n        /* \"#utility.yul\":9854:9855   */\n      dup1\n        /* \"#utility.yul\":9847:9859   */\n      revert\n        /* \"#utility.yul\":9825:9861   */\n    tag_247:\n      pop\n        /* \"#utility.yul\":9880:9932   */\n      tag_248\n        /* \"#utility.yul\":9924:9931   */\n      dup14\n        /* \"#utility.yul\":9913:9921   */\n      dup3\n        /* \"#utility.yul\":9902:9911   */\n      dup15\n        /* \"#utility.yul\":9898:9922   */\n      add\n        /* \"#utility.yul\":9880:9932   */\n      tag_175\n      jump\t// in\n    tag_248:\n        /* \"#utility.yul\":9870:9932   */\n      swap2\n      pop\n      pop\n        /* \"#utility.yul\":8178:9938   */\n      swap3\n      swap6\n      swap9\n      swap12\n      swap2\n      swap5\n      swap8\n      swap11\n      pop\n      swap3\n      swap6\n      swap9\n      pop\n      jump\t// out\n        /* \"#utility.yul\":9943:10323   */\n    tag_47:\n        /* \"#utility.yul\":10022:10023   */\n      0x01\n        /* \"#utility.yul\":10018:10030   */\n      dup2\n      dup2\n      shr\n      swap1\n        /* \"#utility.yul\":10065:10077   */\n      dup3\n      and\n      dup1\n        /* \"#utility.yul\":10086:10147   */\n      tag_250\n      jumpi\n        /* \"#utility.yul\":10140:10144   */\n      0x7f\n        /* \"#utility.yul\":10132:10138   */\n      dup3\n        /* \"#utility.yul\":10128:10145   */\n      and\n        /* \"#utility.yul\":10118:10145   */\n      swap2\n      pop\n        /* \"#utility.yul\":10086:10147   */\n    tag_250:\n        /* \"#utility.yul\":10193:10195   */\n      0x20\n        /* \"#utility.yul\":10185:10191   */\n      dup3\n        /* \"#utility.yul\":10182:10196   */\n      lt\n        /* \"#utility.yul\":10162:10180   */\n      dup2\n        /* \"#utility.yul\":10159:10197   */\n      sub\n        /* \"#utility.yul\":10156:10317   */\n      tag_110\n      jumpi\n        /* \"#utility.yul\":10239:10249   */\n      0x4e487b71\n        /* \"#utility.yul\":10234:10237   */\n      0xe0\n        /* \"#utility.yul\":10230:10250   */\n      shl\n        /* \"#utility.yul\":10227:10228   */\n      0x00\n        /* \"#utility.yul\":10220:10251   */\n      mstore\n        /* \"#utility.yul\":10274:10278   */\n      0x22\n        /* \"#utility.yul\":10271:10272   */\n      0x04\n        /* \"#utility.yul\":10264:10279   */\n      mstore\n        /* \"#utility.yul\":10302:10306   */\n      0x24\n        /* \"#utility.yul\":10299:10300   */\n      0x00\n        /* \"#utility.yul\":10292:10307   */\n      revert\n        /* \"#utility.yul\":11078:11205   */\n    tag_176:\n        /* \"#utility.yul\":11139:11149   */\n      0x4e487b71\n        /* \"#utility.yul\":11134:11137   */\n      0xe0\n        /* \"#utility.yul\":11130:11150   */\n      shl\n        /* \"#utility.yul\":11127:11128   */\n      0x00\n        /* \"#utility.yul\":11120:11151   */\n      mstore\n        /* \"#utility.yul\":11170:11174   */\n      0x11\n        /* \"#utility.yul\":11167:11168   */\n      0x04\n        /* \"#utility.yul\":11160:11175   */\n      mstore\n        /* \"#utility.yul\":11194:11198   */\n      0x24\n        /* \"#utility.yul\":11191:11192   */\n      0x00\n        /* \"#utility.yul\":11184:11199   */\n      revert\n        /* \"#utility.yul\":11210:11335   */\n    tag_92:\n        /* \"#utility.yul\":11275:11284   */\n      dup1\n      dup3\n      add\n        /* \"#utility.yul\":11296:11306   */\n      dup1\n      dup3\n      gt\n        /* \"#utility.yul\":11293:11329   */\n      iszero\n      tag_257\n      jumpi\n        /* \"#utility.yul\":11309:11327   */\n      tag_257\n      tag_176\n      jump\t// in\n    tag_257:\n        /* \"#utility.yul\":11210:11335   */\n      swap3\n      swap2\n      pop\n      pop\n      jump\t// out\n        /* \"#utility.yul\":11960:12087   */\n    tag_153:\n        /* \"#utility.yul\":12021:12031   */\n      0x4e487b71\n        /* \"#utility.yul\":12016:12019   */\n      0xe0\n        /* \"#utility.yul\":12012:12032   */\n      shl\n        /* \"#utility.yul\":12009:12010   */\n      0x00\n        /* \"#utility.yul\":12002:12033   */\n      mstore\n        /* \"#utility.yul\":12052:12056   */\n      0x32\n        /* \"#utility.yul\":12049:12050   */\n      0x04\n        /* \"#utility.yul\":12042:12057   */\n      mstore\n        /* \"#utility.yul\":12076:12080   */\n      0x24\n        /* \"#utility.yul\":12073:12074   */\n      0x00\n        /* \"#utility.yul\":12066:12081   */\n      revert\n        /* \"#utility.yul\":12630:13148   */\n    tag_178:\n        /* \"#utility.yul\":12732:12734   */\n      0x1f\n        /* \"#utility.yul\":12727:12730   */\n      dup3\n        /* \"#utility.yul\":12724:12735   */\n      gt\n        /* \"#utility.yul\":12721:13142   */\n      iszero\n      tag_264\n      jumpi\n        /* \"#utility.yul\":12768:12773   */\n      dup1\n        /* \"#utility.yul\":12765:12766   */\n      0x00\n        /* \"#utility.yul\":12758:12774   */\n      mstore\n        /* \"#utility.yul\":12812:12816   */\n      0x20\n        /* \"#utility.yul\":12809:12810   */\n      0x00\n        /* \"#utility.yul\":12799:12817   */\n      keccak256\n        /* \"#utility.yul\":12882:12884   */\n      0x1f\n        /* \"#utility.yul\":12870:12880   */\n      dup5\n        /* \"#utility.yul\":12866:12885   */\n      add\n        /* \"#utility.yul\":12863:12864   */\n      0x05\n        /* \"#utility.yul\":12859:12886   */\n      shr\n        /* \"#utility.yul\":12853:12857   */\n      dup2\n        /* \"#utility.yul\":12849:12887   */\n      add\n        /* \"#utility.yul\":12918:12922   */\n      0x20\n        /* \"#utility.yul\":12906:12916   */\n      dup6\n        /* \"#utility.yul\":12903:12923   */\n      lt\n        /* \"#utility.yul\":12900:12947   */\n      iszero\n      tag_265\n      jumpi\n      pop\n        /* \"#utility.yul\":12941:12945   */\n      dup1\n        /* \"#utility.yul\":12900:12947   */\n    tag_265:\n        /* \"#utility.yul\":12996:12998   */\n      0x1f\n        /* \"#utility.yul\":12991:12994   */\n      dup5\n        /* \"#utility.yul\":12987:12999   */\n      add\n        /* \"#utility.yul\":12984:12985   */\n      0x05\n        /* \"#utility.yul\":12980:13000   */\n      shr\n        /* \"#utility.yul\":12974:12978   */\n      dup3\n        /* \"#utility.yul\":12970:13001   */\n      add\n        /* \"#utility.yul\":12960:13001   */\n      swap2\n      pop\n        /* \"#utility.yul\":13051:13132   */\n    tag_266:\n        /* \"#utility.yul\":13069:13071   */\n      dup2\n        /* \"#utility.yul\":13062:13067   */\n      dup2\n        /* \"#utility.yul\":13059:13072   */\n      lt\n        /* \"#utility.yul\":13051:13132   */\n      iszero\n      tag_268\n      jumpi\n        /* \"#utility.yul\":13128:13129   */\n      0x00\n        /* \"#utility.yul\":13114:13130   */\n      dup2\n      sstore\n        /* \"#utility.yul\":13095:13096   */\n      0x01\n        /* \"#utility.yul\":13084:13097   */\n      add\n        /* \"#utility.yul\":13051:13132   */\n      jump(tag_266)\n    tag_268:\n        /* \"#utility.yul\":13055:13058   */\n      pop\n      pop\n        /* \"#utility.yul\":12721:13142   */\n    tag_264:\n        /* \"#utility.yul\":12630:13148   */\n      pop\n      pop\n      pop\n      jump\t// out\n        /* \"#utility.yul\":13324:14669   */\n    tag_159:\n        /* \"#utility.yul\":13450:13453   */\n      dup2\n        /* \"#utility.yul\":13444:13454   */\n      mload\n        /* \"#utility.yul\":13477:13495   */\n      0xffffffffffffffff\n        /* \"#utility.yul\":13469:13475   */\n      dup2\n        /* \"#utility.yul\":13466:13496   */\n      gt\n        /* \"#utility.yul\":13463:13519   */\n      iszero\n      tag_272\n      jumpi\n        /* \"#utility.yul\":13499:13517   */\n      tag_272\n      tag_104\n      jump\t// in\n    tag_272:\n        /* \"#utility.yul\":13528:13625   */\n      tag_273\n        /* \"#utility.yul\":13618:13624   */\n      dup2\n        /* \"#utility.yul\":13578:13616   */\n      tag_274\n        /* \"#utility.yul\":13610:13614   */\n      dup5\n        /* \"#utility.yul\":13604:13615   */\n      sload\n        /* \"#utility.yul\":13578:13616   */\n      tag_47\n      jump\t// in\n    tag_274:\n        /* \"#utility.yul\":13572:13576   */\n      dup5\n        /* \"#utility.yul\":13528:13625   */\n      tag_178\n      jump\t// in\n    tag_273:\n        /* \"#utility.yul\":13680:13684   */\n      0x20\n      dup1\n        /* \"#utility.yul\":13737:13739   */\n      0x1f\n        /* \"#utility.yul\":13726:13740   */\n      dup4\n      gt\n        /* \"#utility.yul\":13754:13755   */\n      0x01\n        /* \"#utility.yul\":13749:14412   */\n      dup2\n      eq\n      tag_276\n      jumpi\n        /* \"#utility.yul\":14456:14457   */\n      0x00\n        /* \"#utility.yul\":14473:14479   */\n      dup5\n        /* \"#utility.yul\":14470:14559   */\n      iszero\n      tag_277\n      jumpi\n      pop\n        /* \"#utility.yul\":14525:14544   */\n      dup6\n      dup4\n      add\n        /* \"#utility.yul\":14519:14545   */\n      mload\n        /* \"#utility.yul\":14470:14559   */\n    tag_277:\n      not(0x00)\n        /* \"#utility.yul\":13281:13282   */\n      0x03\n        /* \"#utility.yul\":13277:13288   */\n      dup7\n      swap1\n      shl\n        /* \"#utility.yul\":13273:13297   */\n      shr\n        /* \"#utility.yul\":13269:13298   */\n      not\n        /* \"#utility.yul\":13259:13299   */\n      and\n        /* \"#utility.yul\":13305:13306   */\n      0x01\n        /* \"#utility.yul\":13301:13312   */\n      dup6\n      swap1\n      shl\n        /* \"#utility.yul\":13256:13313   */\n      or\n        /* \"#utility.yul\":14572:14653   */\n      dup6\n      sstore\n        /* \"#utility.yul\":13719:14663   */\n      jump(tag_275)\n        /* \"#utility.yul\":13749:14412   */\n    tag_276:\n        /* \"#utility.yul\":12577:12578   */\n      0x00\n        /* \"#utility.yul\":12570:12584   */\n      dup6\n      dup2\n      mstore\n        /* \"#utility.yul\":12614:12618   */\n      0x20\n        /* \"#utility.yul\":12601:12619   */\n      dup2\n      keccak256\n      not(0x1f)\n        /* \"#utility.yul\":13785:13805   */\n      dup7\n      and\n      swap2\n        /* \"#utility.yul\":13903:14139   */\n    tag_280:\n        /* \"#utility.yul\":13917:13924   */\n      dup3\n        /* \"#utility.yul\":13914:13915   */\n      dup2\n        /* \"#utility.yul\":13911:13925   */\n      lt\n        /* \"#utility.yul\":13903:14139   */\n      iszero\n      tag_282\n      jumpi\n        /* \"#utility.yul\":14006:14025   */\n      dup9\n      dup7\n      add\n        /* \"#utility.yul\":14000:14026   */\n      mload\n        /* \"#utility.yul\":13985:14027   */\n      dup3\n      sstore\n        /* \"#utility.yul\":14098:14125   */\n      swap5\n      dup5\n      add\n      swap5\n        /* \"#utility.yul\":14066:14067   */\n      0x01\n        /* \"#utility.yul\":14054:14068   */\n      swap1\n      swap2\n      add\n      swap1\n        /* \"#utility.yul\":13933:13952   */\n      dup5\n      add\n        /* \"#utility.yul\":13903:14139   */\n      jump(tag_280)\n    tag_282:\n        /* \"#utility.yul\":13907:13910   */\n      pop\n        /* \"#utility.yul\":14167:14173   */\n      dup6\n        /* \"#utility.yul\":14158:14165   */\n      dup3\n        /* \"#utility.yul\":14155:14174   */\n      lt\n        /* \"#utility.yul\":14152:14353   */\n      iszero\n      tag_283\n      jumpi\n        /* \"#utility.yul\":14228:14247   */\n      dup8\n      dup6\n      add\n        /* \"#utility.yul\":14222:14248   */\n      mload\n      not(0x00)\n        /* \"#utility.yul\":14311:14312   */\n      0x03\n        /* \"#utility.yul\":14307:14321   */\n      dup9\n      swap1\n      shl\n        /* \"#utility.yul\":14323:14326   */\n      0xf8\n        /* \"#utility.yul\":14303:14327   */\n      and\n        /* \"#utility.yul\":14299:14336   */\n      shr\n        /* \"#utility.yul\":14295:14337   */\n      not\n        /* \"#utility.yul\":14280:14338   */\n      and\n        /* \"#utility.yul\":14265:14339   */\n      dup2\n      sstore\n        /* \"#utility.yul\":14152:14353   */\n    tag_283:\n      pop\n      pop\n        /* \"#utility.yul\":14399:14400   */\n      0x01\n        /* \"#utility.yul\":14390:14396   */\n      dup5\n        /* \"#utility.yul\":14387:14388   */\n      0x01\n        /* \"#utility.yul\":14383:14397   */\n      shl\n        /* \"#utility.yul\":14379:14401   */\n      add\n        /* \"#utility.yul\":14373:14377   */\n      dup6\n        /* \"#utility.yul\":14366:14402   */\n      sstore\n        /* \"#utility.yul\":13719:14663   */\n    tag_275:\n      pop\n      pop\n      pop\n      pop\n        /* \"#utility.yul\":13324:14669   */\n      pop\n      pop\n      jump\t// out\n        /* \"#utility.yul\":14674:14809   */\n    tag_167:\n        /* \"#utility.yul\":14713:14716   */\n      0x00\n        /* \"#utility.yul\":14734:14751   */\n      0x01\n      dup3\n      add\n        /* \"#utility.yul\":14731:14774   */\n      tag_286\n      jumpi\n        /* \"#utility.yul\":14754:14772   */\n      tag_286\n      tag_176\n      jump\t// in\n    tag_286:\n      pop\n        /* \"#utility.yul\":14801:14802   */\n      0x01\n        /* \"#utility.yul\":14790:14803   */\n      add\n      swap1\n        /* \"#utility.yul\":14674:14809   */\n      jump\t// out\n        /* \"#utility.yul\":14814:14942   */\n    tag_169:\n        /* \"#utility.yul\":14881:14890   */\n      dup2\n      dup2\n      sub\n        /* \"#utility.yul\":14902:14913   */\n      dup2\n      dup2\n      gt\n        /* \"#utility.yul\":14899:14936   */\n      iszero\n      tag_257\n      jumpi\n        /* \"#utility.yul\":14916:14934   */\n      tag_257\n      tag_176\n      jump\t// in\n\n    auxdata: 0xa2646970667358221220ffc1e593b659ef507be5235f55e60c1b53d85c2bf2fec38ad472d32834a0e08964736f6c63430008190033\n}\n",
    "bytecode": {
      "linkReferences": {},
      "object": "60806040525f6001553480156012575f80fd5b50611671806100205f395ff3fe608060405260043610610063575f3560e01c806342a4fda81161004157806342a4fda8146100f2578063a6b0363314610107578063da52d95f14610128575f80fd5b806307ca140d146100675780630fa91fa91461008f578063141961bc146100bc575b5f80fd5b348015610072575f80fd5b5061007c60015481565b6040519081526020015b60405180910390f35b34801561009a575f80fd5b506100ae6100a9366004610f4f565b610147565b604051610086929190610fa0565b3480156100c7575f80fd5b506100db6100d6366004610f4f565b610211565b6040516100869b9a9998979695949392919061102e565b610105610100366004610f4f565b610617565b005b348015610112575f80fd5b5061011b610807565b6040516100869190611127565b348015610133575f80fd5b5061007c61014236600461135d565b610df4565b5f8181526020818152604091829020600b8101805484518185028101850190955280855260609485949293600c0192909184918301828280156101b157602002820191905f5260205f20905b81546001600160a01b03168152600190910190602001808311610193575b505050505091508080548060200260200160405190810160405280929190818152602001828054801561020157602002820191905f5260205f20905b8154815260200190600101908083116101ed575b5050505050905091509150915091565b5f60208190529081526040902080546001820180546001600160a01b03909216929161023c90611491565b80601f016020809104026020016040519081016040528092919081815260200182805461026890611491565b80156102b35780601f1061028a576101008083540402835291602001916102b3565b820191905f5260205f20905b81548152906001019060200180831161029657829003601f168201915b5050505050908060020180546102c890611491565b80601f01602080910402602001604051908101604052809291908181526020018280546102f490611491565b801561033f5780601f106103165761010080835404028352916020019161033f565b820191905f5260205f20905b81548152906001019060200180831161032257829003601f168201915b50505050509080600301805461035490611491565b80601f016020809104026020016040519081016040528092919081815260200182805461038090611491565b80156103cb5780601f106103a2576101008083540402835291602001916103cb565b820191905f5260205f20905b8154815290600101906020018083116103ae57829003601f168201915b5050505050908060040180546103e090611491565b80601f016020809104026020016040519081016040528092919081815260200182805461040c90611491565b80156104575780601f1061042e57610100808354040283529160200191610457565b820191905f5260205f20905b81548152906001019060200180831161043a57829003601f168201915b50505050509080600501805461046c90611491565b80601f016020809104026020016040519081016040528092919081815260200182805461049890611491565b80156104e35780601f106104ba576101008083540402835291602001916104e3565b820191905f5260205f20905b8154815290600101906020018083116104c657829003601f168201915b5050505050908060060180546104f890611491565b80601f016020809104026020016040519081016040528092919081815260200182805461052490611491565b801561056f5780601f106105465761010080835404028352916020019161056f565b820191905f5260205f20905b81548152906001019060200180831161055257829003601f168201915b50505050509080600701549080600801549080600901549080600a01805461059690611491565b80601f01602080910402602001604051908101604052809291908181526020018280546105c290611491565b801561060d5780601f106105e45761010080835404028352916020019161060d565b820191905f5260205f20905b8154815290600101906020018083116105f057829003601f168201915b505050505090508b565b5f8181526020819052604090206008810154349190421061067f5760405162461bcd60e51b815260206004820152601260248201527f43616d706169676e2068617320656e646564000000000000000000000000000060448201526064015b60405180910390fd5b5f82116106d95760405162461bcd60e51b815260206004820152602260248201527f446f6e6174696f6e206d7573742062652067726561746572207468616e207a65604482015261726f60f01b6064820152608401610676565b600b81018054600181810183555f9283526020808420909201805473ffffffffffffffffffffffffffffffffffffffff191633179055600c8401805491820181558352908220018390556009820180548492906107379084906114d7565b909155505080546040515f916001600160a01b03169084908381818185875af1925050503d805f8114610785576040519150601f19603f3d011682016040523d82523d5f602084013e61078a565b606091505b50509050806108015760405162461bcd60e51b815260206004820152602960248201527f4661696c656420746f2073656e6420646f6e6174696f6e20746f2063616d706160448201527f69676e206f776e657200000000000000000000000000000000000000000000006064820152608401610676565b50505050565b60605f60015467ffffffffffffffff811115610825576108256112c0565b6040519080825280602002602001820160405280156108c657816020015b6108b3604051806101a001604052805f6001600160a01b031681526020016060815260200160608152602001606081526020016060815260200160608152602001606081526020015f81526020015f81526020015f81526020016060815260200160608152602001606081525090565b8152602001906001900390816108435790505b5090505f5b600154811015610dee575f818152602081815260409182902082516101a0810190935280546001600160a01b031683526001810180549193928492908401919061091490611491565b80601f016020809104026020016040519081016040528092919081815260200182805461094090611491565b801561098b5780601f106109625761010080835404028352916020019161098b565b820191905f5260205f20905b81548152906001019060200180831161096e57829003601f168201915b505050505081526020016002820180546109a490611491565b80601f01602080910402602001604051908101604052809291908181526020018280546109d090611491565b8015610a1b5780601f106109f257610100808354040283529160200191610a1b565b820191905f5260205f20905b8154815290600101906020018083116109fe57829003601f168201915b50505050508152602001600382018054610a3490611491565b80601f0160208091040260200160405190810160405280929190818152602001828054610a6090611491565b8015610aab5780601f10610a8257610100808354040283529160200191610aab565b820191905f5260205f20905b815481529060010190602001808311610a8e57829003601f168201915b50505050508152602001600482018054610ac490611491565b80601f0160208091040260200160405190810160405280929190818152602001828054610af090611491565b8015610b3b5780601f10610b1257610100808354040283529160200191610b3b565b820191905f5260205f20905b815481529060010190602001808311610b1e57829003601f168201915b50505050508152602001600582018054610b5490611491565b80601f0160208091040260200160405190810160405280929190818152602001828054610b8090611491565b8015610bcb5780601f10610ba257610100808354040283529160200191610bcb565b820191905f5260205f20905b815481529060010190602001808311610bae57829003601f168201915b50505050508152602001600682018054610be490611491565b80601f0160208091040260200160405190810160405280929190818152602001828054610c1090611491565b8015610c5b5780601f10610c3257610100808354040283529160200191610c5b565b820191905f5260205f20905b815481529060010190602001808311610c3e57829003601f168201915b50505050508152602001600782015481526020016008820154815260200160098201548152602001600a82018054610c9290611491565b80601f0160208091040260200160405190810160405280929190818152602001828054610cbe90611491565b8015610d095780601f10610ce057610100808354040283529160200191610d09565b820191905f5260205f20905b815481529060010190602001808311610cec57829003601f168201915b50505050508152602001600b8201805480602002602001604051908101604052809291908181526020018280548015610d6957602002820191905f5260205f20905b81546001600160a01b03168152600190910190602001808311610d4b575b50505050508152602001600c8201805480602002602001604051908101604052809291908181526020018280548015610dbf57602002820191905f5260205f20905b815481526020019060010190808311610dab575b505050505081525050838381518110610dda57610dda6114f0565b6020908102919091010152506001016108cb565b50919050565b5f428311610e6a5760405162461bcd60e51b815260206004820152602b60248201527f54686520646561646c696e652073686f756c642062652061206461746520696e60448201527f20746865206675747572650000000000000000000000000000000000000000006064820152608401610676565b600180545f908152602081905260409020805473ffffffffffffffffffffffffffffffffffffffff19166001600160a01b038e16178155908101610eae8c82611550565b5060028101610ebd8b82611550565b5060038101610ecc8a82611550565b5060048101610edb8982611550565b5060058101610eea8882611550565b5060068101610ef98782611550565b5060078101859055600881018490555f6009820155600a8101610f1c8482611550565b5060018054905f610f2c83611610565b919050555060018054610f3f9190611628565b9c9b505050505050505050505050565b5f60208284031215610f5f575f80fd5b5035919050565b5f815180845260208085019450602084015f5b83811015610f9557815187529582019590820190600101610f79565b509495945050505050565b604080825283519082018190525f906020906060840190828701845b82811015610fe15781516001600160a01b031684529284019290840190600101610fbc565b5050508381036020850152610ff68186610f66565b9695505050505050565b5f81518084528060208401602086015e5f602082860101526020601f19601f83011685010191505092915050565b6001600160a01b038c1681525f6101608060208401526110508184018e611000565b90508281036040840152611064818d611000565b90508281036060840152611078818c611000565b9050828103608084015261108c818b611000565b905082810360a08401526110a0818a611000565b905082810360c08401526110b48189611000565b90508660e084015285610100840152846101208401528281036101408401526110dd8185611000565b9e9d5050505050505050505050505050565b5f815180845260208085019450602084015f5b83811015610f955781516001600160a01b031687529582019590820190600101611102565b5f60208083018184528085518083526040925060408601915060408160051b8701018488015f5b8381101561129757888303603f19018552815180516001600160a01b031684526101a088820151818a87015261118682870182611000565b915050878201518582038987015261119e8282611000565b915050606080830151868303828801526111b88382611000565b92505050608080830151868303828801526111d38382611000565b9250505060a080830151868303828801526111ee8382611000565b9250505060c080830151868303828801526112098382611000565b9250505060e080830151818701525061010080830151818701525061012080830151818701525061014080830151868303828801526112488382611000565b92505050610160808301518683038288015261126483826110ef565b9250505061018080830151925085820381870152506112838183610f66565b96890196945050509086019060010161114e565b509098975050505050505050565b80356001600160a01b03811681146112bb575f80fd5b919050565b634e487b7160e01b5f52604160045260245ffd5b5f82601f8301126112e3575f80fd5b813567ffffffffffffffff808211156112fe576112fe6112c0565b604051601f8301601f19908116603f01168101908282118183101715611326576113266112c0565b8160405283815286602085880101111561133e575f80fd5b836020870160208301375f602085830101528094505050505092915050565b5f805f805f805f805f806101408b8d031215611377575f80fd5b6113808b6112a5565b995060208b013567ffffffffffffffff8082111561139c575f80fd5b6113a88e838f016112d4565b9a5060408d01359150808211156113bd575f80fd5b6113c98e838f016112d4565b995060608d01359150808211156113de575f80fd5b6113ea8e838f016112d4565b985060808d01359150808211156113ff575f80fd5b61140b8e838f016112d4565b975060a08d0135915080821115611420575f80fd5b61142c8e838f016112d4565b965060c08d0135915080821115611441575f80fd5b61144d8e838f016112d4565b955060e08d013594506101008d013593506101208d0135915080821115611472575f80fd5b5061147f8d828e016112d4565b9150509295989b9194979a5092959850565b600181811c908216806114a557607f821691505b602082108103610dee57634e487b7160e01b5f52602260045260245ffd5b634e487b7160e01b5f52601160045260245ffd5b808201808211156114ea576114ea6114c3565b92915050565b634e487b7160e01b5f52603260045260245ffd5b601f82111561154b57805f5260205f20601f840160051c810160208510156115295750805b601f840160051c820191505b81811015611548575f8155600101611535565b50505b505050565b815167ffffffffffffffff81111561156a5761156a6112c0565b61157e816115788454611491565b84611504565b602080601f8311600181146115b1575f841561159a5750858301515b5f19600386901b1c1916600185901b178555611608565b5f85815260208120601f198616915b828110156115df578886015182559484019460019091019084016115c0565b50858210156115fc57878501515f19600388901b60f8161c191681555b505060018460011b0185555b505050505050565b5f60018201611621576116216114c3565b5060010190565b818103818111156114ea576114ea6114c356fea2646970667358221220ffc1e593b659ef507be5235f55e60c1b53d85c2bf2fec38ad472d32834a0e08964736f6c63430008190033",
      "opcodes": "PUSH1 0x80 PUSH1 0x40 MSTORE PUSH0 PUSH1 0x1 SSTORE CALLVALUE DUP1 ISZERO PUSH1 0x12 JUMPI PUSH0 DUP1 REVERT JUMPDEST POP PUSH2 0x1671 DUP1 PUSH2 0x20 PUSH0 CODECOPY PUSH0 RETURN INVALID PUSH1 0x80 PUSH1 0x40 MSTORE PUSH1 0x4 CALLDATASIZE LT PUSH2 0x63 JUMPI PUSH0 CALLDATALOAD PUSH1 0xE0 SHR DUP1 PUSH4 0x42A4FDA8 GT PUSH2 0x41 JUMPI DUP1 PUSH4 0x42A4FDA8 EQ PUSH2 0xF2 JUMPI DUP1 PUSH4 0xA6B03633 EQ PUSH2 0x107 JUMPI DUP1 PUSH4 0xDA52D95F EQ PUSH2 0x128 JUMPI PUSH0 DUP1 REVERT JUMPDEST DUP1 PUSH4 0x7CA140D EQ PUSH2 0x67 JUMPI DUP1 PUSH4 0xFA91FA9 EQ PUSH2 0x8F JUMPI DUP1 PUSH4 0x141961BC EQ PUSH2 0xBC JUMPI JUMPDEST PUSH0 DUP1 REVERT JUMPDEST CALLVALUE DUP1 ISZERO PUSH2 0x72 JUMPI PUSH0 DUP1 REVERT JUMPDEST POP PUSH2 0x7C PUSH1 0x1 SLOAD DUP2 JUMP JUMPDEST PUSH1 0x40 MLOAD SWAP1 DUP2 MSTORE PUSH1 0x20 ADD JUMPDEST PUSH1 0x40 MLOAD DUP1 SWAP2 SUB SWAP1 RETURN JUMPDEST CALLVALUE DUP1 ISZERO PUSH2 0x9A JUMPI PUSH0 DUP1 REVERT JUMPDEST POP PUSH2 0xAE PUSH2 0xA9 CALLDATASIZE PUSH1 0x4 PUSH2 0xF4F JUMP JUMPDEST PUSH2 0x147 JUMP JUMPDEST PUSH1 0x40 MLOAD PUSH2 0x86 SWAP3 SWAP2 SWAP1 PUSH2 0xFA0 JUMP JUMPDEST CALLVALUE DUP1 ISZERO PUSH2 0xC7 JUMPI PUSH0 DUP1 REVERT JUMPDEST POP PUSH2 0xDB PUSH2 0xD6 CALLDATASIZE PUSH1 0x4 PUSH2 0xF4F JUMP JUMPDEST PUSH2 0x211 JUMP JUMPDEST PUSH1 0x40 MLOAD PUSH2 0x86 SWAP12 SWAP11 SWAP10 SWAP9 SWAP8 SWAP7 SWAP6 SWAP5 SWAP4 SWAP3 SWAP2 SWAP1 PUSH2 0x102E JUMP JUMPDEST PUSH2 0x105 PUSH2 0x100 CALLDATASIZE PUSH1 0x4 PUSH2 0xF4F JUMP JUMPDEST PUSH2 0x617 JUMP JUMPDEST STOP JUMPDEST CALLVALUE DUP1 ISZERO PUSH2 0x112 JUMPI PUSH0 DUP1 REVERT JUMPDEST POP PUSH2 0x11B PUSH2 0x807 JUMP JUMPDEST PUSH1 0x40 MLOAD PUSH2 0x86 SWAP2 SWAP1 PUSH2 0x1127 JUMP JUMPDEST CALLVALUE DUP1 ISZERO PUSH2 0x133 JUMPI PUSH0 DUP1 REVERT JUMPDEST POP PUSH2 0x7C PUSH2 0x142 CALLDATASIZE PUSH1 0x4 PUSH2 0x135D JUMP JUMPDEST PUSH2 0xDF4 JUMP JUMPDEST PUSH0 DUP2 DUP2 MSTORE PUSH1 0x20 DUP2 DUP2 MSTORE PUSH1 0x40 SWAP2 DUP3 SWAP1 KECCAK256 PUSH1 0xB DUP2 ADD DUP1 SLOAD DUP5 MLOAD DUP2 DUP6 MUL DUP2 ADD DUP6 ADD SWAP1 SWAP6 MSTORE DUP1 DUP6 MSTORE PUSH1 0x60 SWAP5 DUP6 SWAP5 SWAP3 SWAP4 PUSH1 0xC ADD SWAP3 SWAP1 SWAP2 DUP5 SWAP2 DUP4 ADD DUP3 DUP3 DUP1 ISZERO PUSH2 0x1B1 JUMPI PUSH1 0x20 MUL DUP3 ADD SWAP2 SWAP1 PUSH0 MSTORE PUSH1 0x20 PUSH0 KECCAK256 SWAP1 JUMPDEST DUP2 SLOAD PUSH1 0x1 PUSH1 0x1 PUSH1 0xA0 SHL SUB AND DUP2 MSTORE PUSH1 0x1 SWAP1 SWAP2 ADD SWAP1 PUSH1 0x20 ADD DUP1 DUP4 GT PUSH2 0x193 JUMPI JUMPDEST POP POP POP POP POP SWAP2 POP DUP1 DUP1 SLOAD DUP1 PUSH1 0x20 MUL PUSH1 0x20 ADD PUSH1 0x40 MLOAD SWAP1 DUP2 ADD PUSH1 0x40 MSTORE DUP1 SWAP3 SWAP2 SWAP1 DUP2 DUP2 MSTORE PUSH1 0x20 ADD DUP3 DUP1 SLOAD DUP1 ISZERO PUSH2 0x201 JUMPI PUSH1 0x20 MUL DUP3 ADD SWAP2 SWAP1 PUSH0 MSTORE PUSH1 0x20 PUSH0 KECCAK256 SWAP1 JUMPDEST DUP2 SLOAD DUP2 MSTORE PUSH1 0x20 ADD SWAP1 PUSH1 0x1 ADD SWAP1 DUP1 DUP4 GT PUSH2 0x1ED JUMPI JUMPDEST POP POP POP POP POP SWAP1 POP SWAP2 POP SWAP2 POP SWAP2 POP SWAP2 JUMP JUMPDEST PUSH0 PUSH1 0x20 DUP2 SWAP1 MSTORE SWAP1 DUP2 MSTORE PUSH1 0x40 SWAP1 KECCAK256 DUP1 SLOAD PUSH1 0x1 DUP3 ADD DUP1 SLOAD PUSH1 0x1 PUSH1 0x1 PUSH1 0xA0 SHL SUB SWAP1 SWAP3 AND SWAP3 SWAP2 PUSH2 0x23C SWAP1 PUSH2 0x1491 JUMP JUMPDEST DUP1 PUSH1 0x1F ADD PUSH1 0x20 DUP1 SWAP2 DIV MUL PUSH1 0x20 ADD PUSH1 0x40 MLOAD SWAP1 DUP2 ADD PUSH1 0x40 MSTORE DUP1 SWAP3 SWAP2 SWAP1 DUP2 DUP2 MSTORE PUSH1 0x20 ADD DUP3 DUP1 SLOAD PUSH2 0x268 SWAP1 PUSH2 0x1491 JUMP JUMPDEST DUP1 ISZERO PUSH2 0x2B3 JUMPI DUP1 PUSH1 0x1F LT PUSH2 0x28A JUMPI PUSH2 0x100 DUP1 DUP4 SLOAD DIV MUL DUP4 MSTORE SWAP2 PUSH1 0x20 ADD SWAP2 PUSH2 0x2B3 JUMP JUMPDEST DUP3 ADD SWAP2 SWAP1 PUSH0 MSTORE PUSH1 0x20 PUSH0 KECCAK256 SWAP1 JUMPDEST DUP2 SLOAD DUP2 MSTORE SWAP1 PUSH1 0x1 ADD SWAP1 PUSH1 0x20 ADD DUP1 DUP4 GT PUSH2 0x296 JUMPI DUP3 SWAP1 SUB PUSH1 0x1F AND DUP3 ADD SWAP2 JUMPDEST POP POP POP POP POP SWAP1 DUP1 PUSH1 0x2 ADD DUP1 SLOAD PUSH2 0x2C8 SWAP1 PUSH2 0x1491 JUMP JUMPDEST DUP1 PUSH1 0x1F ADD PUSH1 0x20 DUP1 SWAP2 DIV MUL PUSH1 0x20 ADD PUSH1 0x40 MLOAD SWAP1 DUP2 ADD PUSH1 0x40 MSTORE DUP1 SWAP3 SWAP2 SWAP1 DUP2 DUP2 MSTORE PUSH1 0x20 ADD DUP3 DUP1 SLOAD PUSH2 0x2F4 SWAP1 PUSH2 0x1491 JUMP JUMPDEST DUP1 ISZERO PUSH2 0x33F JUMPI DUP1 PUSH1 0x1F LT PUSH2 0x316 JUMPI PUSH2 0x100 DUP1 DUP4 SLOAD DIV MUL DUP4 MSTORE SWAP2 PUSH1 0x20 ADD SWAP2 PUSH2 0x33F JUMP JUMPDEST DUP3 ADD SWAP2 SWAP1 PUSH0 MSTORE PUSH1 0x20 PUSH0 KECCAK256 SWAP1 JUMPDEST DUP2 SLOAD DUP2 MSTORE SWAP1 PUSH1 0x1 ADD SWAP1 PUSH1 0x20 ADD DUP1 DUP4 GT PUSH2 0x322 JUMPI DUP3 SWAP1 SUB PUSH1 0x1F AND DUP3 ADD SWAP2 JUMPDEST POP POP POP POP POP SWAP1 DUP1 PUSH1 0x3 ADD DUP1 SLOAD PUSH2 0x354 SWAP1 PUSH2 0x1491 JUMP JUMPDEST DUP1 PUSH1 0x1F ADD PUSH1 0x20 DUP1 SWAP2 DIV MUL PUSH1 0x20 ADD PUSH1 0x40 MLOAD SWAP1 DUP2 ADD PUSH1 0x40 MSTORE DUP1 SWAP3 SWAP2 SWAP1 DUP2 DUP2 MSTORE PUSH1 0x20 ADD DUP3 DUP1 SLOAD PUSH2 0x380 SWAP1 PUSH2 0x1491 JUMP JUMPDEST DUP1 ISZERO PUSH2 0x3CB JUMPI DUP1 PUSH1 0x1F LT PUSH2 0x3A2 JUMPI PUSH2 0x100 DUP1 DUP4 SLOAD DIV MUL DUP4 MSTORE SWAP2 PUSH1 0x20 ADD SWAP2 PUSH2 0x3CB JUMP JUMPDEST DUP3 ADD SWAP2 SWAP1 PUSH0 MSTORE PUSH1 0x20 PUSH0 KECCAK256 SWAP1 JUMPDEST DUP2 SLOAD DUP2 MSTORE SWAP1 PUSH1 0x1 ADD SWAP1 PUSH1 0x20 ADD DUP1 DUP4 GT PUSH2 0x3AE JUMPI DUP3 SWAP1 SUB PUSH1 0x1F AND DUP3 ADD SWAP2 JUMPDEST POP POP POP POP POP SWAP1 DUP1 PUSH1 0x4 ADD DUP1 SLOAD PUSH2 0x3E0 SWAP1 PUSH2 0x1491 JUMP JUMPDEST DUP1 PUSH1 0x1F ADD PUSH1 0x20 DUP1 SWAP2 DIV MUL PUSH1 0x20 ADD PUSH1 0x40 MLOAD SWAP1 DUP2 ADD PUSH1 0x40 MSTORE DUP1 SWAP3 SWAP2 SWAP1 DUP2 DUP2 MSTORE PUSH1 0x20 ADD DUP3 DUP1 SLOAD PUSH2 0x40C SWAP1 PUSH2 0x1491 JUMP JUMPDEST DUP1 ISZERO PUSH2 0x457 JUMPI DUP1 PUSH1 0x1F LT PUSH2 0x42E JUMPI PUSH2 0x100 DUP1 DUP4 SLOAD DIV MUL DUP4 MSTORE SWAP2 PUSH1 0x20 ADD SWAP2 PUSH2 0x457 JUMP JUMPDEST DUP3 ADD SWAP2 SWAP1 PUSH0 MSTORE PUSH1 0x20 PUSH0 KECCAK256 SWAP1 JUMPDEST DUP2 SLOAD DUP2 MSTORE SWAP1 PUSH1 0x1 ADD SWAP1 PUSH1 0x20 ADD DUP1 DUP4 GT PUSH2 0x43A JUMPI DUP3 SWAP1 SUB PUSH1 0x1F AND DUP3 ADD SWAP2 JUMPDEST POP POP POP POP POP SWAP1 DUP1 PUSH1 0x5 ADD DUP1 SLOAD PUSH2 0x46C SWAP1 PUSH2 0x1491 JUMP JUMPDEST DUP1 PUSH1 0x1F ADD PUSH1 0x20 DUP1 SWAP2 DIV MUL PUSH1 0x20 ADD PUSH1 0x40 MLOAD SWAP1 DUP2 ADD PUSH1 0x40 MSTORE DUP1 SWAP3 SWAP2 SWAP1 DUP2 DUP2 MSTORE PUSH1 0x20 ADD DUP3 DUP1 SLOAD PUSH2 0x498 SWAP1 PUSH2 0x1491 JUMP JUMPDEST DUP1 ISZERO PUSH2 0x4E3 JUMPI DUP1 PUSH1 0x1F LT PUSH2 0x4BA JUMPI PUSH2 0x100 DUP1 DUP4 SLOAD DIV MUL DUP4 MSTORE SWAP2 PUSH1 0x20 ADD SWAP2 PUSH2 0x4E3 JUMP JUMPDEST DUP3 ADD SWAP2 SWAP1 PUSH0 MSTORE PUSH1 0x20 PUSH0 KECCAK256 SWAP1 JUMPDEST DUP2 SLOAD DUP2 MSTORE SWAP1 PUSH1 0x1 ADD SWAP1 PUSH1 0x20 ADD DUP1 DUP4 GT PUSH2 0x4C6 JUMPI DUP3 SWAP1 SUB PUSH1 0x1F AND DUP3 ADD SWAP2 JUMPDEST POP POP POP POP POP SWAP1 DUP1 PUSH1 0x6 ADD DUP1 SLOAD PUSH2 0x4F8 SWAP1 PUSH2 0x1491 JUMP JUMPDEST DUP1 PUSH1 0x1F ADD PUSH1 0x20 DUP1 SWAP2 DIV MUL PUSH1 0x20 ADD PUSH1 0x40 MLOAD SWAP1 DUP2 ADD PUSH1 0x40 MSTORE DUP1 SWAP3 SWAP2 SWAP1 DUP2 DUP2 MSTORE PUSH1 0x20 ADD DUP3 DUP1 SLOAD PUSH2 0x524 SWAP1 PUSH2 0x1491 JUMP JUMPDEST DUP1 ISZERO PUSH2 0x56F JUMPI DUP1 PUSH1 0x1F LT PUSH2 0x546 JUMPI PUSH2 0x100 DUP1 DUP4 SLOAD DIV MUL DUP4 MSTORE SWAP2 PUSH1 0x20 ADD SWAP2 PUSH2 0x56F JUMP JUMPDEST DUP3 ADD SWAP2 SWAP1 PUSH0 MSTORE PUSH1 0x20 PUSH0 KECCAK256 SWAP1 JUMPDEST DUP2 SLOAD DUP2 MSTORE SWAP1 PUSH1 0x1 ADD SWAP1 PUSH1 0x20 ADD DUP1 DUP4 GT PUSH2 0x552 JUMPI DUP3 SWAP1 SUB PUSH1 0x1F AND DUP3 ADD SWAP2 JUMPDEST POP POP POP POP POP SWAP1 DUP1 PUSH1 0x7 ADD SLOAD SWAP1 DUP1 PUSH1 0x8 ADD SLOAD SWAP1 DUP1 PUSH1 0x9 ADD SLOAD SWAP1 DUP1 PUSH1 0xA ADD DUP1 SLOAD PUSH2 0x596 SWAP1 PUSH2 0x1491 JUMP JUMPDEST DUP1 PUSH1 0x1F ADD PUSH1 0x20 DUP1 SWAP2 DIV MUL PUSH1 0x20 ADD PUSH1 0x40 MLOAD SWAP1 DUP2 ADD PUSH1 0x40 MSTORE DUP1 SWAP3 SWAP2 SWAP1 DUP2 DUP2 MSTORE PUSH1 0x20 ADD DUP3 DUP1 SLOAD PUSH2 0x5C2 SWAP1 PUSH2 0x1491 JUMP JUMPDEST DUP1 ISZERO PUSH2 0x60D JUMPI DUP1 PUSH1 0x1F LT PUSH2 0x5E4 JUMPI PUSH2 0x100 DUP1 DUP4 SLOAD DIV MUL DUP4 MSTORE SWAP2 PUSH1 0x20 ADD SWAP2 PUSH2 0x60D JUMP JUMPDEST DUP3 ADD SWAP2 SWAP1 PUSH0 MSTORE PUSH1 0x20 PUSH0 KECCAK256 SWAP1 JUMPDEST DUP2 SLOAD DUP2 MSTORE SWAP1 PUSH1 0x1 ADD SWAP1 PUSH1 0x20 ADD DUP1 DUP4 GT PUSH2 0x5F0 JUMPI DUP3 SWAP1 SUB PUSH1 0x1F AND DUP3 ADD SWAP2 JUMPDEST POP POP POP POP POP SWAP1 POP DUP12 JUMP JUMPDEST PUSH0 DUP2 DUP2 MSTORE PUSH1 0x20 DUP2 SWAP1 MSTORE PUSH1 0x40 SWAP1 KECCAK256 PUSH1 0x8 DUP2 ADD SLOAD CALLVALUE SWAP2 SWAP1 TIMESTAMP LT PUSH2 0x67F JUMPI PUSH1 0x40 MLOAD PUSH3 0x461BCD PUSH1 0xE5 SHL DUP2 MSTORE PUSH1 0x20 PUSH1 0x4 DUP3 ADD MSTORE PUSH1 0x12 PUSH1 0x24 DUP3 ADD MSTORE PUSH32 0x43616D706169676E2068617320656E6465640000000000000000000000000000 PUSH1 0x44 DUP3 ADD MSTORE PUSH1 0x64 ADD JUMPDEST PUSH1 0x40 MLOAD DUP1 SWAP2 SUB SWAP1 REVERT JUMPDEST PUSH0 DUP3 GT PUSH2 0x6D9 JUMPI PUSH1 0x40 MLOAD PUSH3 0x461BCD PUSH1 0xE5 SHL DUP2 MSTORE PUSH1 0x20 PUSH1 0x4 DUP3 ADD MSTORE PUSH1 0x22 PUSH1 0x24 DUP3 ADD MSTORE PUSH32 0x446F6E6174696F6E206D7573742062652067726561746572207468616E207A65 PUSH1 0x44 DUP3 ADD MSTORE PUSH2 0x726F PUSH1 0xF0 SHL PUSH1 0x64 DUP3 ADD MSTORE PUSH1 0x84 ADD PUSH2 0x676 JUMP JUMPDEST PUSH1 0xB DUP2 ADD DUP1 SLOAD PUSH1 0x1 DUP2 DUP2 ADD DUP4 SSTORE PUSH0 SWAP3 DUP4 MSTORE PUSH1 0x20 DUP1 DUP5 KECCAK256 SWAP1 SWAP3 ADD DUP1 SLOAD PUSH20 0xFFFFFFFFFFFFFFFFFFFFFFFFFFFFFFFFFFFFFFFF NOT AND CALLER OR SWAP1 SSTORE PUSH1 0xC DUP5 ADD DUP1 SLOAD SWAP2 DUP3 ADD DUP2 SSTORE DUP4 MSTORE SWAP1 DUP3 KECCAK256 ADD DUP4 SWAP1 SSTORE PUSH1 0x9 DUP3 ADD DUP1 SLOAD DUP5 SWAP3 SWAP1 PUSH2 0x737 SWAP1 DUP5 SWAP1 PUSH2 0x14D7 JUMP JUMPDEST SWAP1 SWAP2 SSTORE POP POP DUP1 SLOAD PUSH1 0x40 MLOAD PUSH0 SWAP2 PUSH1 0x1 PUSH1 0x1 PUSH1 0xA0 SHL SUB AND SWAP1 DUP5 SWAP1 DUP4 DUP2 DUP2 DUP2 DUP6 DUP8 GAS CALL SWAP3 POP POP POP RETURNDATASIZE DUP1 PUSH0 DUP2 EQ PUSH2 0x785 JUMPI PUSH1 0x40 MLOAD SWAP2 POP PUSH1 0x1F NOT PUSH1 0x3F RETURNDATASIZE ADD AND DUP3 ADD PUSH1 0x40 MSTORE RETURNDATASIZE DUP3 MSTORE RETURNDATASIZE PUSH0 PUSH1 0x20 DUP5 ADD RETURNDATACOPY PUSH2 0x78A JUMP JUMPDEST PUSH1 0x60 SWAP2 POP JUMPDEST POP POP SWAP1 POP DUP1 PUSH2 0x801 JUMPI PUSH1 0x40 MLOAD PUSH3 0x461BCD PUSH1 0xE5 SHL DUP2 MSTORE PUSH1 0x20 PUSH1 0x4 DUP3 ADD MSTORE PUSH1 0x29 PUSH1 0x24 DUP3 ADD MSTORE PUSH32 0x4661696C656420746F2073656E6420646F6E6174696F6E20746F2063616D7061 PUSH1 0x44 DUP3 ADD MSTORE PUSH32 0x69676E206F776E65720000000000000000000000000000000000000000000000 PUSH1 0x64 DUP3 ADD MSTORE PUSH1 0x84 ADD PUSH2 0x676 JUMP JUMPDEST POP POP POP POP JUMP JUMPDEST PUSH1 0x60 PUSH0 PUSH1 0x1 SLOAD PUSH8 0xFFFFFFFFFFFFFFFF DUP2 GT ISZERO PUSH2 0x825 JUMPI PUSH2 0x825 PUSH2 0x12C0 JUMP JUMPDEST PUSH1 0x40 MLOAD SWAP1 DUP1 DUP3 MSTORE DUP1 PUSH1 0x20 MUL PUSH1 0x20 ADD DUP3 ADD PUSH1 0x40 MSTORE DUP1 ISZERO PUSH2 0x8C6 JUMPI DUP2 PUSH1 0x20 ADD JUMPDEST PUSH2 0x8B3 PUSH1 0x40 MLOAD DUP1 PUSH2 0x1A0 ADD PUSH1 0x40 MSTORE DUP1 PUSH0 PUSH1 0x1 PUSH1 0x1 PUSH1 0xA0 SHL SUB AND DUP2 MSTORE PUSH1 0x20 ADD PUSH1 0x60 DUP2 MSTORE PUSH1 0x20 ADD PUSH1 0x60 DUP2 MSTORE PUSH1 0x20 ADD PUSH1 0x60 DUP2 MSTORE PUSH1 0x20 ADD PUSH1 0x60 DUP2 MSTORE PUSH1 0x20 ADD PUSH1 0x60 DUP2 MSTORE PUSH1 0x20 ADD PUSH1 0x60 DUP2 MSTORE PUSH1 0x20 ADD PUSH0 DUP2 MSTORE PUSH1 0x20 ADD PUSH0 DUP2 MSTORE PUSH1 0x20 ADD PUSH0 DUP2 MSTORE PUSH1 0x20 ADD PUSH1 0x60 DUP2 MSTORE PUSH1 0x20 ADD PUSH1 0x60 DUP2 MSTORE PUSH1 0x20 ADD PUSH1 0x60 DUP2 MSTORE POP SWAP1 JUMP JUMPDEST DUP2 MSTORE PUSH1 0x20 ADD SWAP1 PUSH1 0x1 SWAP1 SUB SWAP1 DUP2 PUSH2 0x843 JUMPI SWAP1 POP JUMPDEST POP SWAP1 POP PUSH0 JUMPDEST PUSH1 0x1 SLOAD DUP2 LT ISZERO PUSH2 0xDEE JUMPI PUSH0 DUP2 DUP2 MSTORE PUSH1 0x20 DUP2 DUP2 MSTORE PUSH1 0x40 SWAP2 DUP3 SWAP1 KECCAK256 DUP3 MLOAD PUSH2 0x1A0 DUP2 ADD SWAP1 SWAP4 MSTORE DUP1 SLOAD PUSH1 0x1 PUSH1 0x1 PUSH1 0xA0 SHL SUB AND DUP4 MSTORE PUSH1 0x1 DUP2 ADD DUP1 SLOAD SWAP2 SWAP4 SWAP3 DUP5 SWAP3 SWAP1 DUP5 ADD SWAP2 SWAP1 PUSH2 0x914 SWAP1 PUSH2 0x1491 JUMP JUMPDEST DUP1 PUSH1 0x1F ADD PUSH1 0x20 DUP1 SWAP2 DIV MUL PUSH1 0x20 ADD PUSH1 0x40 MLOAD SWAP1 DUP2 ADD PUSH1 0x40 MSTORE DUP1 SWAP3 SWAP2 SWAP1 DUP2 DUP2 MSTORE PUSH1 0x20 ADD DUP3 DUP1 SLOAD PUSH2 0x940 SWAP1 PUSH2 0x1491 JUMP JUMPDEST DUP1 ISZERO PUSH2 0x98B JUMPI DUP1 PUSH1 0x1F LT PUSH2 0x962 JUMPI PUSH2 0x100 DUP1 DUP4 SLOAD DIV MUL DUP4 MSTORE SWAP2 PUSH1 0x20 ADD SWAP2 PUSH2 0x98B JUMP JUMPDEST DUP3 ADD SWAP2 SWAP1 PUSH0 MSTORE PUSH1 0x20 PUSH0 KECCAK256 SWAP1 JUMPDEST DUP2 SLOAD DUP2 MSTORE SWAP1 PUSH1 0x1 ADD SWAP1 PUSH1 0x20 ADD DUP1 DUP4 GT PUSH2 0x96E JUMPI DUP3 SWAP1 SUB PUSH1 0x1F AND DUP3 ADD SWAP2 JUMPDEST POP POP POP POP POP DUP2 MSTORE PUSH1 0x20 ADD PUSH1 0x2 DUP3 ADD DUP1 SLOAD PUSH2 0x9A4 SWAP1 PUSH2 0x1491 JUMP JUMPDEST DUP1 PUSH1 0x1F ADD PUSH1 0x20 DUP1 SWAP2 DIV MUL PUSH1 0x20 ADD PUSH1 0x40 MLOAD SWAP1 DUP2 ADD PUSH1 0x40 MSTORE DUP1 SWAP3 SWAP2 SWAP1 DUP2 DUP2 MSTORE PUSH1 0x20 ADD DUP3 DUP1 SLOAD PUSH2 0x9D0 SWAP1 PUSH2 0x1491 JUMP JUMPDEST DUP1 ISZERO PUSH2 0xA1B JUMPI DUP1 PUSH1 0x1F LT PUSH2 0x9F2 JUMPI PUSH2 0x100 DUP1 DUP4 SLOAD DIV MUL DUP4 MSTORE SWAP2 PUSH1 0x20 ADD SWAP2 PUSH2 0xA1B JUMP JUMPDEST DUP3 ADD SWAP2 SWAP1 PUSH0 MSTORE PUSH1 0x20 PUSH0 KECCAK256 SWAP1 JUMPDEST DUP2 SLOAD DUP2 MSTORE SWAP1 PUSH1 0x1 ADD SWAP1 PUSH1 0x20 ADD DUP1 DUP4 GT PUSH2 0x9FE JUMPI DUP3 SWAP1 SUB PUSH1 0x1F AND DUP3 ADD SWAP2 JUMPDEST POP POP POP POP POP DUP2 MSTORE PUSH1 0x20 ADD PUSH1 0x3 DUP3 ADD DUP1 SLOAD PUSH2 0xA34 SWAP1 PUSH2 0x1491 JUMP JUMPDEST DUP1 PUSH1 0x1F ADD PUSH1 0x20 DUP1 SWAP2 DIV MUL PUSH1 0x20 ADD PUSH1 0x40 MLOAD SWAP1 DUP2 ADD PUSH1 0x40 MSTORE DUP1 SWAP3 SWAP2 SWAP1 DUP2 DUP2 MSTORE PUSH1 0x20 ADD DUP3 DUP1 SLOAD PUSH2 0xA60 SWAP1 PUSH2 0x1491 JUMP JUMPDEST DUP1 ISZERO PUSH2 0xAAB JUMPI DUP1 PUSH1 0x1F LT PUSH2 0xA82 JUMPI PUSH2 0x100 DUP1 DUP4 SLOAD DIV MUL DUP4 MSTORE SWAP2 PUSH1 0x20 ADD SWAP2 PUSH2 0xAAB JUMP JUMPDEST DUP3 ADD SWAP2 SWAP1 PUSH0 MSTORE PUSH1 0x20 PUSH0 KECCAK256 SWAP1 JUMPDEST DUP2 SLOAD DUP2 MSTORE SWAP1 PUSH1 0x1 ADD SWAP1 PUSH1 0x20 ADD DUP1 DUP4 GT PUSH2 0xA8E JUMPI DUP3 SWAP1 SUB PUSH1 0x1F AND DUP3 ADD SWAP2 JUMPDEST POP POP POP POP POP DUP2 MSTORE PUSH1 0x20 ADD PUSH1 0x4 DUP3 ADD DUP1 SLOAD PUSH2 0xAC4 SWAP1 PUSH2 0x1491 JUMP JUMPDEST DUP1 PUSH1 0x1F ADD PUSH1 0x20 DUP1 SWAP2 DIV MUL PUSH1 0x20 ADD PUSH1 0x40 MLOAD SWAP1 DUP2 ADD PUSH1 0x40 MSTORE DUP1 SWAP3 SWAP2 SWAP1 DUP2 DUP2 MSTORE PUSH1 0x20 ADD DUP3 DUP1 SLOAD PUSH2 0xAF0 SWAP1 PUSH2 0x1491 JUMP JUMPDEST DUP1 ISZERO PUSH2 0xB3B JUMPI DUP1 PUSH1 0x1F LT PUSH2 0xB12 JUMPI PUSH2 0x100 DUP1 DUP4 SLOAD DIV MUL DUP4 MSTORE SWAP2 PUSH1 0x20 ADD SWAP2 PUSH2 0xB3B JUMP JUMPDEST DUP3 ADD SWAP2 SWAP1 PUSH0 MSTORE PUSH1 0x20 PUSH0 KECCAK256 SWAP1 JUMPDEST DUP2 SLOAD DUP2 MSTORE SWAP1 PUSH1 0x1 ADD SWAP1 PUSH1 0x20 ADD DUP1 DUP4 GT PUSH2 0xB1E JUMPI DUP3 SWAP1 SUB PUSH1 0x1F AND DUP3 ADD SWAP2 JUMPDEST POP POP POP POP POP DUP2 MSTORE PUSH1 0x20 ADD PUSH1 0x5 DUP3 ADD DUP1 SLOAD PUSH2 0xB54 SWAP1 PUSH2 0x1491 JUMP JUMPDEST DUP1 PUSH1 0x1F ADD PUSH1 0x20 DUP1 SWAP2 DIV MUL PUSH1 0x20 ADD PUSH1 0x40 MLOAD SWAP1 DUP2 ADD PUSH1 0x40 MSTORE DUP1 SWAP3 SWAP2 SWAP1 DUP2 DUP2 MSTORE PUSH1 0x20 ADD DUP3 DUP1 SLOAD PUSH2 0xB80 SWAP1 PUSH2 0x1491 JUMP JUMPDEST DUP1 ISZERO PUSH2 0xBCB JUMPI DUP1 PUSH1 0x1F LT PUSH2 0xBA2 JUMPI PUSH2 0x100 DUP1 DUP4 SLOAD DIV MUL DUP4 MSTORE SWAP2 PUSH1 0x20 ADD SWAP2 PUSH2 0xBCB JUMP JUMPDEST DUP3 ADD SWAP2 SWAP1 PUSH0 MSTORE PUSH1 0x20 PUSH0 KECCAK256 SWAP1 JUMPDEST DUP2 SLOAD DUP2 MSTORE SWAP1 PUSH1 0x1 ADD SWAP1 PUSH1 0x20 ADD DUP1 DUP4 GT PUSH2 0xBAE JUMPI DUP3 SWAP1 SUB PUSH1 0x1F AND DUP3 ADD SWAP2 JUMPDEST POP POP POP POP POP DUP2 MSTORE PUSH1 0x20 ADD PUSH1 0x6 DUP3 ADD DUP1 SLOAD PUSH2 0xBE4 SWAP1 PUSH2 0x1491 JUMP JUMPDEST DUP1 PUSH1 0x1F ADD PUSH1 0x20 DUP1 SWAP2 DIV MUL PUSH1 0x20 ADD PUSH1 0x40 MLOAD SWAP1 DUP2 ADD PUSH1 0x40 MSTORE DUP1 SWAP3 SWAP2 SWAP1 DUP2 DUP2 MSTORE PUSH1 0x20 ADD DUP3 DUP1 SLOAD PUSH2 0xC10 SWAP1 PUSH2 0x1491 JUMP JUMPDEST DUP1 ISZERO PUSH2 0xC5B JUMPI DUP1 PUSH1 0x1F LT PUSH2 0xC32 JUMPI PUSH2 0x100 DUP1 DUP4 SLOAD DIV MUL DUP4 MSTORE SWAP2 PUSH1 0x20 ADD SWAP2 PUSH2 0xC5B JUMP JUMPDEST DUP3 ADD SWAP2 SWAP1 PUSH0 MSTORE PUSH1 0x20 PUSH0 KECCAK256 SWAP1 JUMPDEST DUP2 SLOAD DUP2 MSTORE SWAP1 PUSH1 0x1 ADD SWAP1 PUSH1 0x20 ADD DUP1 DUP4 GT PUSH2 0xC3E JUMPI DUP3 SWAP1 SUB PUSH1 0x1F AND DUP3 ADD SWAP2 JUMPDEST POP POP POP POP POP DUP2 MSTORE PUSH1 0x20 ADD PUSH1 0x7 DUP3 ADD SLOAD DUP2 MSTORE PUSH1 0x20 ADD PUSH1 0x8 DUP3 ADD SLOAD DUP2 MSTORE PUSH1 0x20 ADD PUSH1 0x9 DUP3 ADD SLOAD DUP2 MSTORE PUSH1 0x20 ADD PUSH1 0xA DUP3 ADD DUP1 SLOAD PUSH2 0xC92 SWAP1 PUSH2 0x1491 JUMP JUMPDEST DUP1 PUSH1 0x1F ADD PUSH1 0x20 DUP1 SWAP2 DIV MUL PUSH1 0x20 ADD PUSH1 0x40 MLOAD SWAP1 DUP2 ADD PUSH1 0x40 MSTORE DUP1 SWAP3 SWAP2 SWAP1 DUP2 DUP2 MSTORE PUSH1 0x20 ADD DUP3 DUP1 SLOAD PUSH2 0xCBE SWAP1 PUSH2 0x1491 JUMP JUMPDEST DUP1 ISZERO PUSH2 0xD09 JUMPI DUP1 PUSH1 0x1F LT PUSH2 0xCE0 JUMPI PUSH2 0x100 DUP1 DUP4 SLOAD DIV MUL DUP4 MSTORE SWAP2 PUSH1 0x20 ADD SWAP2 PUSH2 0xD09 JUMP JUMPDEST DUP3 ADD SWAP2 SWAP1 PUSH0 MSTORE PUSH1 0x20 PUSH0 KECCAK256 SWAP1 JUMPDEST DUP2 SLOAD DUP2 MSTORE SWAP1 PUSH1 0x1 ADD SWAP1 PUSH1 0x20 ADD DUP1 DUP4 GT PUSH2 0xCEC JUMPI DUP3 SWAP1 SUB PUSH1 0x1F AND DUP3 ADD SWAP2 JUMPDEST POP POP POP POP POP DUP2 MSTORE PUSH1 0x20 ADD PUSH1 0xB DUP3 ADD DUP1 SLOAD DUP1 PUSH1 0x20 MUL PUSH1 0x20 ADD PUSH1 0x40 MLOAD SWAP1 DUP2 ADD PUSH1 0x40 MSTORE DUP1 SWAP3 SWAP2 SWAP1 DUP2 DUP2 MSTORE PUSH1 0x20 ADD DUP3 DUP1 SLOAD DUP1 ISZERO PUSH2 0xD69 JUMPI PUSH1 0x20 MUL DUP3 ADD SWAP2 SWAP1 PUSH0 MSTORE PUSH1 0x20 PUSH0 KECCAK256 SWAP1 JUMPDEST DUP2 SLOAD PUSH1 0x1 PUSH1 0x1 PUSH1 0xA0 SHL SUB AND DUP2 MSTORE PUSH1 0x1 SWAP1 SWAP2 ADD SWAP1 PUSH1 0x20 ADD DUP1 DUP4 GT PUSH2 0xD4B JUMPI JUMPDEST POP POP POP POP POP DUP2 MSTORE PUSH1 0x20 ADD PUSH1 0xC DUP3 ADD DUP1 SLOAD DUP1 PUSH1 0x20 MUL PUSH1 0x20 ADD PUSH1 0x40 MLOAD SWAP1 DUP2 ADD PUSH1 0x40 MSTORE DUP1 SWAP3 SWAP2 SWAP1 DUP2 DUP2 MSTORE PUSH1 0x20 ADD DUP3 DUP1 SLOAD DUP1 ISZERO PUSH2 0xDBF JUMPI PUSH1 0x20 MUL DUP3 ADD SWAP2 SWAP1 PUSH0 MSTORE PUSH1 0x20 PUSH0 KECCAK256 SWAP1 JUMPDEST DUP2 SLOAD DUP2 MSTORE PUSH1 0x20 ADD SWAP1 PUSH1 0x1 ADD SWAP1 DUP1 DUP4 GT PUSH2 0xDAB JUMPI JUMPDEST POP POP POP POP POP DUP2 MSTORE POP POP DUP4 DUP4 DUP2 MLOAD DUP2 LT PUSH2 0xDDA JUMPI PUSH2 0xDDA PUSH2 0x14F0 JUMP JUMPDEST PUSH1 0x20 SWAP1 DUP2 MUL SWAP2 SWAP1 SWAP2 ADD ADD MSTORE POP PUSH1 0x1 ADD PUSH2 0x8CB JUMP JUMPDEST POP SWAP2 SWAP1 POP JUMP JUMPDEST PUSH0 TIMESTAMP DUP4 GT PUSH2 0xE6A JUMPI PUSH1 0x40 MLOAD PUSH3 0x461BCD PUSH1 0xE5 SHL DUP2 MSTORE PUSH1 0x20 PUSH1 0x4 DUP3 ADD MSTORE PUSH1 0x2B PUSH1 0x24 DUP3 ADD MSTORE PUSH32 0x54686520646561646C696E652073686F756C642062652061206461746520696E PUSH1 0x44 DUP3 ADD MSTORE PUSH32 0x2074686520667574757265000000000000000000000000000000000000000000 PUSH1 0x64 DUP3 ADD MSTORE PUSH1 0x84 ADD PUSH2 0x676 JUMP JUMPDEST PUSH1 0x1 DUP1 SLOAD PUSH0 SWAP1 DUP2 MSTORE PUSH1 0x20 DUP2 SWAP1 MSTORE PUSH1 0x40 SWAP1 KECCAK256 DUP1 SLOAD PUSH20 0xFFFFFFFFFFFFFFFFFFFFFFFFFFFFFFFFFFFFFFFF NOT AND PUSH1 0x1 PUSH1 0x1 PUSH1 0xA0 SHL SUB DUP15 AND OR DUP2 SSTORE SWAP1 DUP2 ADD PUSH2 0xEAE DUP13 DUP3 PUSH2 0x1550 JUMP JUMPDEST POP PUSH1 0x2 DUP2 ADD PUSH2 0xEBD DUP12 DUP3 PUSH2 0x1550 JUMP JUMPDEST POP PUSH1 0x3 DUP2 ADD PUSH2 0xECC DUP11 DUP3 PUSH2 0x1550 JUMP JUMPDEST POP PUSH1 0x4 DUP2 ADD PUSH2 0xEDB DUP10 DUP3 PUSH2 0x1550 JUMP JUMPDEST POP PUSH1 0x5 DUP2 ADD PUSH2 0xEEA DUP9 DUP3 PUSH2 0x1550 JUMP JUMPDEST POP PUSH1 0x6 DUP2 ADD PUSH2 0xEF9 DUP8 DUP3 PUSH2 0x1550 JUMP JUMPDEST POP PUSH1 0x7 DUP2 ADD DUP6 SWAP1 SSTORE PUSH1 0x8 DUP2 ADD DUP5 SWAP1 SSTORE PUSH0 PUSH1 0x9 DUP3 ADD SSTORE PUSH1 0xA DUP2 ADD PUSH2 0xF1C DUP5 DUP3 PUSH2 0x1550 JUMP JUMPDEST POP PUSH1 0x1 DUP1 SLOAD SWAP1 PUSH0 PUSH2 0xF2C DUP4 PUSH2 0x1610 JUMP JUMPDEST SWAP2 SWAP1 POP SSTORE POP PUSH1 0x1 DUP1 SLOAD PUSH2 0xF3F SWAP2 SWAP1 PUSH2 0x1628 JUMP JUMPDEST SWAP13 SWAP12 POP POP POP POP POP POP POP POP POP POP POP POP JUMP JUMPDEST PUSH0 PUSH1 0x20 DUP3 DUP5 SUB SLT ISZERO PUSH2 0xF5F JUMPI PUSH0 DUP1 REVERT JUMPDEST POP CALLDATALOAD SWAP2 SWAP1 POP JUMP JUMPDEST PUSH0 DUP2 MLOAD DUP1 DUP5 MSTORE PUSH1 0x20 DUP1 DUP6 ADD SWAP5 POP PUSH1 0x20 DUP5 ADD PUSH0 JUMPDEST DUP4 DUP2 LT ISZERO PUSH2 0xF95 JUMPI DUP2 MLOAD DUP8 MSTORE SWAP6 DUP3 ADD SWAP6 SWAP1 DUP3 ADD SWAP1 PUSH1 0x1 ADD PUSH2 0xF79 JUMP JUMPDEST POP SWAP5 SWAP6 SWAP5 POP POP POP POP POP JUMP JUMPDEST PUSH1 0x40 DUP1 DUP3 MSTORE DUP4 MLOAD SWAP1 DUP3 ADD DUP2 SWAP1 MSTORE PUSH0 SWAP1 PUSH1 0x20 SWAP1 PUSH1 0x60 DUP5 ADD SWAP1 DUP3 DUP8 ADD DUP5 JUMPDEST DUP3 DUP2 LT ISZERO PUSH2 0xFE1 JUMPI DUP2 MLOAD PUSH1 0x1 PUSH1 0x1 PUSH1 0xA0 SHL SUB AND DUP5 MSTORE SWAP3 DUP5 ADD SWAP3 SWAP1 DUP5 ADD SWAP1 PUSH1 0x1 ADD PUSH2 0xFBC JUMP JUMPDEST POP POP POP DUP4 DUP2 SUB PUSH1 0x20 DUP6 ADD MSTORE PUSH2 0xFF6 DUP2 DUP7 PUSH2 0xF66 JUMP JUMPDEST SWAP7 SWAP6 POP POP POP POP POP POP JUMP JUMPDEST PUSH0 DUP2 MLOAD DUP1 DUP5 MSTORE DUP1 PUSH1 0x20 DUP5 ADD PUSH1 0x20 DUP7 ADD MCOPY PUSH0 PUSH1 0x20 DUP3 DUP7 ADD ADD MSTORE PUSH1 0x20 PUSH1 0x1F NOT PUSH1 0x1F DUP4 ADD AND DUP6 ADD ADD SWAP2 POP POP SWAP3 SWAP2 POP POP JUMP JUMPDEST PUSH1 0x1 PUSH1 0x1 PUSH1 0xA0 SHL SUB DUP13 AND DUP2 MSTORE PUSH0 PUSH2 0x160 DUP1 PUSH1 0x20 DUP5 ADD MSTORE PUSH2 0x1050 DUP2 DUP5 ADD DUP15 PUSH2 0x1000 JUMP JUMPDEST SWAP1 POP DUP3 DUP2 SUB PUSH1 0x40 DUP5 ADD MSTORE PUSH2 0x1064 DUP2 DUP14 PUSH2 0x1000 JUMP JUMPDEST SWAP1 POP DUP3 DUP2 SUB PUSH1 0x60 DUP5 ADD MSTORE PUSH2 0x1078 DUP2 DUP13 PUSH2 0x1000 JUMP JUMPDEST SWAP1 POP DUP3 DUP2 SUB PUSH1 0x80 DUP5 ADD MSTORE PUSH2 0x108C DUP2 DUP12 PUSH2 0x1000 JUMP JUMPDEST SWAP1 POP DUP3 DUP2 SUB PUSH1 0xA0 DUP5 ADD MSTORE PUSH2 0x10A0 DUP2 DUP11 PUSH2 0x1000 JUMP JUMPDEST SWAP1 POP DUP3 DUP2 SUB PUSH1 0xC0 DUP5 ADD MSTORE PUSH2 0x10B4 DUP2 DUP10 PUSH2 0x1000 JUMP JUMPDEST SWAP1 POP DUP7 PUSH1 0xE0 DUP5 ADD MSTORE DUP6 PUSH2 0x100 DUP5 ADD MSTORE DUP5 PUSH2 0x120 DUP5 ADD MSTORE DUP3 DUP2 SUB PUSH2 0x140 DUP5 ADD MSTORE PUSH2 0x10DD DUP2 DUP6 PUSH2 0x1000 JUMP JUMPDEST SWAP15 SWAP14 POP POP POP POP POP POP POP POP POP POP POP POP POP POP JUMP JUMPDEST PUSH0 DUP2 MLOAD DUP1 DUP5 MSTORE PUSH1 0x20 DUP1 DUP6 ADD SWAP5 POP PUSH1 0x20 DUP5 ADD PUSH0 JUMPDEST DUP4 DUP2 LT ISZERO PUSH2 0xF95 JUMPI DUP2 MLOAD PUSH1 0x1 PUSH1 0x1 PUSH1 0xA0 SHL SUB AND DUP8 MSTORE SWAP6 DUP3 ADD SWAP6 SWAP1 DUP3 ADD SWAP1 PUSH1 0x1 ADD PUSH2 0x1102 JUMP JUMPDEST PUSH0 PUSH1 0x20 DUP1 DUP4 ADD DUP2 DUP5 MSTORE DUP1 DUP6 MLOAD DUP1 DUP4 MSTORE PUSH1 0x40 SWAP3 POP PUSH1 0x40 DUP7 ADD SWAP2 POP PUSH1 0x40 DUP2 PUSH1 0x5 SHL DUP8 ADD ADD DUP5 DUP9 ADD PUSH0 JUMPDEST DUP4 DUP2 LT ISZERO PUSH2 0x1297 JUMPI DUP9 DUP4 SUB PUSH1 0x3F NOT ADD DUP6 MSTORE DUP2 MLOAD DUP1 MLOAD PUSH1 0x1 PUSH1 0x1 PUSH1 0xA0 SHL SUB AND DUP5 MSTORE PUSH2 0x1A0 DUP9 DUP3 ADD MLOAD DUP2 DUP11 DUP8 ADD MSTORE PUSH2 0x1186 DUP3 DUP8 ADD DUP3 PUSH2 0x1000 JUMP JUMPDEST SWAP2 POP POP DUP8 DUP3 ADD MLOAD DUP6 DUP3 SUB DUP10 DUP8 ADD MSTORE PUSH2 0x119E DUP3 DUP3 PUSH2 0x1000 JUMP JUMPDEST SWAP2 POP POP PUSH1 0x60 DUP1 DUP4 ADD MLOAD DUP7 DUP4 SUB DUP3 DUP9 ADD MSTORE PUSH2 0x11B8 DUP4 DUP3 PUSH2 0x1000 JUMP JUMPDEST SWAP3 POP POP POP PUSH1 0x80 DUP1 DUP4 ADD MLOAD DUP7 DUP4 SUB DUP3 DUP9 ADD MSTORE PUSH2 0x11D3 DUP4 DUP3 PUSH2 0x1000 JUMP JUMPDEST SWAP3 POP POP POP PUSH1 0xA0 DUP1 DUP4 ADD MLOAD DUP7 DUP4 SUB DUP3 DUP9 ADD MSTORE PUSH2 0x11EE DUP4 DUP3 PUSH2 0x1000 JUMP JUMPDEST SWAP3 POP POP POP PUSH1 0xC0 DUP1 DUP4 ADD MLOAD DUP7 DUP4 SUB DUP3 DUP9 ADD MSTORE PUSH2 0x1209 DUP4 DUP3 PUSH2 0x1000 JUMP JUMPDEST SWAP3 POP POP POP PUSH1 0xE0 DUP1 DUP4 ADD MLOAD DUP2 DUP8 ADD MSTORE POP PUSH2 0x100 DUP1 DUP4 ADD MLOAD DUP2 DUP8 ADD MSTORE POP PUSH2 0x120 DUP1 DUP4 ADD MLOAD DUP2 DUP8 ADD MSTORE POP PUSH2 0x140 DUP1 DUP4 ADD MLOAD DUP7 DUP4 SUB DUP3 DUP9 ADD MSTORE PUSH2 0x1248 DUP4 DUP3 PUSH2 0x1000 JUMP JUMPDEST SWAP3 POP POP POP PUSH2 0x160 DUP1 DUP4 ADD MLOAD DUP7 DUP4 SUB DUP3 DUP9 ADD MSTORE PUSH2 0x1264 DUP4 DUP3 PUSH2 0x10EF JUMP JUMPDEST SWAP3 POP POP POP PUSH2 0x180 DUP1 DUP4 ADD MLOAD SWAP3 POP DUP6 DUP3 SUB DUP2 DUP8 ADD MSTORE POP PUSH2 0x1283 DUP2 DUP4 PUSH2 0xF66 JUMP JUMPDEST SWAP7 DUP10 ADD SWAP7 SWAP5 POP POP POP SWAP1 DUP7 ADD SWAP1 PUSH1 0x1 ADD PUSH2 0x114E JUMP JUMPDEST POP SWAP1 SWAP9 SWAP8 POP POP POP POP POP POP POP POP JUMP JUMPDEST DUP1 CALLDATALOAD PUSH1 0x1 PUSH1 0x1 PUSH1 0xA0 SHL SUB DUP2 AND DUP2 EQ PUSH2 0x12BB JUMPI PUSH0 DUP1 REVERT JUMPDEST SWAP2 SWAP1 POP JUMP JUMPDEST PUSH4 0x4E487B71 PUSH1 0xE0 SHL PUSH0 MSTORE PUSH1 0x41 PUSH1 0x4 MSTORE PUSH1 0x24 PUSH0 REVERT JUMPDEST PUSH0 DUP3 PUSH1 0x1F DUP4 ADD SLT PUSH2 0x12E3 JUMPI PUSH0 DUP1 REVERT JUMPDEST DUP2 CALLDATALOAD PUSH8 0xFFFFFFFFFFFFFFFF DUP1 DUP3 GT ISZERO PUSH2 0x12FE JUMPI PUSH2 0x12FE PUSH2 0x12C0 JUMP JUMPDEST PUSH1 0x40 MLOAD PUSH1 0x1F DUP4 ADD PUSH1 0x1F NOT SWAP1 DUP2 AND PUSH1 0x3F ADD AND DUP2 ADD SWAP1 DUP3 DUP3 GT DUP2 DUP4 LT OR ISZERO PUSH2 0x1326 JUMPI PUSH2 0x1326 PUSH2 0x12C0 JUMP JUMPDEST DUP2 PUSH1 0x40 MSTORE DUP4 DUP2 MSTORE DUP7 PUSH1 0x20 DUP6 DUP9 ADD ADD GT ISZERO PUSH2 0x133E JUMPI PUSH0 DUP1 REVERT JUMPDEST DUP4 PUSH1 0x20 DUP8 ADD PUSH1 0x20 DUP4 ADD CALLDATACOPY PUSH0 PUSH1 0x20 DUP6 DUP4 ADD ADD MSTORE DUP1 SWAP5 POP POP POP POP POP SWAP3 SWAP2 POP POP JUMP JUMPDEST PUSH0 DUP1 PUSH0 DUP1 PUSH0 DUP1 PUSH0 DUP1 PUSH0 DUP1 PUSH2 0x140 DUP12 DUP14 SUB SLT ISZERO PUSH2 0x1377 JUMPI PUSH0 DUP1 REVERT JUMPDEST PUSH2 0x1380 DUP12 PUSH2 0x12A5 JUMP JUMPDEST SWAP10 POP PUSH1 0x20 DUP12 ADD CALLDATALOAD PUSH8 0xFFFFFFFFFFFFFFFF DUP1 DUP3 GT ISZERO PUSH2 0x139C JUMPI PUSH0 DUP1 REVERT JUMPDEST PUSH2 0x13A8 DUP15 DUP4 DUP16 ADD PUSH2 0x12D4 JUMP JUMPDEST SWAP11 POP PUSH1 0x40 DUP14 ADD CALLDATALOAD SWAP2 POP DUP1 DUP3 GT ISZERO PUSH2 0x13BD JUMPI PUSH0 DUP1 REVERT JUMPDEST PUSH2 0x13C9 DUP15 DUP4 DUP16 ADD PUSH2 0x12D4 JUMP JUMPDEST SWAP10 POP PUSH1 0x60 DUP14 ADD CALLDATALOAD SWAP2 POP DUP1 DUP3 GT ISZERO PUSH2 0x13DE JUMPI PUSH0 DUP1 REVERT JUMPDEST PUSH2 0x13EA DUP15 DUP4 DUP16 ADD PUSH2 0x12D4 JUMP JUMPDEST SWAP9 POP PUSH1 0x80 DUP14 ADD CALLDATALOAD SWAP2 POP DUP1 DUP3 GT ISZERO PUSH2 0x13FF JUMPI PUSH0 DUP1 REVERT JUMPDEST PUSH2 0x140B DUP15 DUP4 DUP16 ADD PUSH2 0x12D4 JUMP JUMPDEST SWAP8 POP PUSH1 0xA0 DUP14 ADD CALLDATALOAD SWAP2 POP DUP1 DUP3 GT ISZERO PUSH2 0x1420 JUMPI PUSH0 DUP1 REVERT JUMPDEST PUSH2 0x142C DUP15 DUP4 DUP16 ADD PUSH2 0x12D4 JUMP JUMPDEST SWAP7 POP PUSH1 0xC0 DUP14 ADD CALLDATALOAD SWAP2 POP DUP1 DUP3 GT ISZERO PUSH2 0x1441 JUMPI PUSH0 DUP1 REVERT JUMPDEST PUSH2 0x144D DUP15 DUP4 DUP16 ADD PUSH2 0x12D4 JUMP JUMPDEST SWAP6 POP PUSH1 0xE0 DUP14 ADD CALLDATALOAD SWAP5 POP PUSH2 0x100 DUP14 ADD CALLDATALOAD SWAP4 POP PUSH2 0x120 DUP14 ADD CALLDATALOAD SWAP2 POP DUP1 DUP3 GT ISZERO PUSH2 0x1472 JUMPI PUSH0 DUP1 REVERT JUMPDEST POP PUSH2 0x147F DUP14 DUP3 DUP15 ADD PUSH2 0x12D4 JUMP JUMPDEST SWAP2 POP POP SWAP3 SWAP6 SWAP9 SWAP12 SWAP2 SWAP5 SWAP8 SWAP11 POP SWAP3 SWAP6 SWAP9 POP JUMP JUMPDEST PUSH1 0x1 DUP2 DUP2 SHR SWAP1 DUP3 AND DUP1 PUSH2 0x14A5 JUMPI PUSH1 0x7F DUP3 AND SWAP2 POP JUMPDEST PUSH1 0x20 DUP3 LT DUP2 SUB PUSH2 0xDEE JUMPI PUSH4 0x4E487B71 PUSH1 0xE0 SHL PUSH0 MSTORE PUSH1 0x22 PUSH1 0x4 MSTORE PUSH1 0x24 PUSH0 REVERT JUMPDEST PUSH4 0x4E487B71 PUSH1 0xE0 SHL PUSH0 MSTORE PUSH1 0x11 PUSH1 0x4 MSTORE PUSH1 0x24 PUSH0 REVERT JUMPDEST DUP1 DUP3 ADD DUP1 DUP3 GT ISZERO PUSH2 0x14EA JUMPI PUSH2 0x14EA PUSH2 0x14C3 JUMP JUMPDEST SWAP3 SWAP2 POP POP JUMP JUMPDEST PUSH4 0x4E487B71 PUSH1 0xE0 SHL PUSH0 MSTORE PUSH1 0x32 PUSH1 0x4 MSTORE PUSH1 0x24 PUSH0 REVERT JUMPDEST PUSH1 0x1F DUP3 GT ISZERO PUSH2 0x154B JUMPI DUP1 PUSH0 MSTORE PUSH1 0x20 PUSH0 KECCAK256 PUSH1 0x1F DUP5 ADD PUSH1 0x5 SHR DUP2 ADD PUSH1 0x20 DUP6 LT ISZERO PUSH2 0x1529 JUMPI POP DUP1 JUMPDEST PUSH1 0x1F DUP5 ADD PUSH1 0x5 SHR DUP3 ADD SWAP2 POP JUMPDEST DUP2 DUP2 LT ISZERO PUSH2 0x1548 JUMPI PUSH0 DUP2 SSTORE PUSH1 0x1 ADD PUSH2 0x1535 JUMP JUMPDEST POP POP JUMPDEST POP POP POP JUMP JUMPDEST DUP2 MLOAD PUSH8 0xFFFFFFFFFFFFFFFF DUP2 GT ISZERO PUSH2 0x156A JUMPI PUSH2 0x156A PUSH2 0x12C0 JUMP JUMPDEST PUSH2 0x157E DUP2 PUSH2 0x1578 DUP5 SLOAD PUSH2 0x1491 JUMP JUMPDEST DUP5 PUSH2 0x1504 JUMP JUMPDEST PUSH1 0x20 DUP1 PUSH1 0x1F DUP4 GT PUSH1 0x1 DUP2 EQ PUSH2 0x15B1 JUMPI PUSH0 DUP5 ISZERO PUSH2 0x159A JUMPI POP DUP6 DUP4 ADD MLOAD JUMPDEST PUSH0 NOT PUSH1 0x3 DUP7 SWAP1 SHL SHR NOT AND PUSH1 0x1 DUP6 SWAP1 SHL OR DUP6 SSTORE PUSH2 0x1608 JUMP JUMPDEST PUSH0 DUP6 DUP2 MSTORE PUSH1 0x20 DUP2 KECCAK256 PUSH1 0x1F NOT DUP7 AND SWAP2 JUMPDEST DUP3 DUP2 LT ISZERO PUSH2 0x15DF JUMPI DUP9 DUP7 ADD MLOAD DUP3 SSTORE SWAP5 DUP5 ADD SWAP5 PUSH1 0x1 SWAP1 SWAP2 ADD SWAP1 DUP5 ADD PUSH2 0x15C0 JUMP JUMPDEST POP DUP6 DUP3 LT ISZERO PUSH2 0x15FC JUMPI DUP8 DUP6 ADD MLOAD PUSH0 NOT PUSH1 0x3 DUP9 SWAP1 SHL PUSH1 0xF8 AND SHR NOT AND DUP2 SSTORE JUMPDEST POP POP PUSH1 0x1 DUP5 PUSH1 0x1 SHL ADD DUP6 SSTORE JUMPDEST POP POP POP POP POP POP JUMP JUMPDEST PUSH0 PUSH1 0x1 DUP3 ADD PUSH2 0x1621 JUMPI PUSH2 0x1621 PUSH2 0x14C3 JUMP JUMPDEST POP PUSH1 0x1 ADD SWAP1 JUMP JUMPDEST DUP2 DUP2 SUB DUP2 DUP2 GT ISZERO PUSH2 0x14EA JUMPI PUSH2 0x14EA PUSH2 0x14C3 JUMP INVALID LOG2 PUSH5 0x6970667358 0x22 SLT KECCAK256 SELFDESTRUCT 0xC1 0xE5 SWAP4 0xB6 MSIZE 0xEF POP PUSH28 0xE5235F55E60C1B53D85C2BF2FEC38AD472D32834A0E08964736F6C63 NUMBER STOP ADDMOD NOT STOP CALLER "
    },
    "gasEstimates": {
      "creation": {
        "codeDepositCost": "1149000",
        "executionCost": "6197",
        "totalCost": "1155197"
      },
      "external": {
        "campaigns(uint256)": "infinite",
        "createCampaign(address,string,string,string,string,string,string,uint256,uint256,string)": "infinite",
        "donateToCampaign(uint256)": "infinite",
        "getCampaigns()": "infinite",
        "getDonators(uint256)": "infinite",
        "numberOfCampaigns()": "2284"
      }
    },
    "methodIdentifiers": {
      "campaigns(uint256)": "141961bc",
      "createCampaign(address,string,string,string,string,string,string,uint256,uint256,string)": "da52d95f",
      "donateToCampaign(uint256)": "42a4fda8",
      "getCampaigns()": "a6b03633",
      "getDonators(uint256)": "0fa91fa9",
      "numberOfCampaigns()": "07ca140d"
    }
  },
  "storageLayout": {
    "storage": [
      {
        "astId": 35,
        "contract": "01_Crowdfunding.sol:Crowdfunding",
        "label": "campaigns",
        "offset": 0,
        "slot": "0",
        "type": "t_mapping(t_uint256,t_struct(Campaign)30_storage)"
      },
      {
        "astId": 38,
        "contract": "01_Crowdfunding.sol:Crowdfunding",
        "label": "numberOfCampaigns",
        "offset": 0,
        "slot": "1",
        "type": "t_uint256"
      }
    ],
    "types": {
      "t_address": {
        "encoding": "inplace",
        "label": "address",
        "numberOfBytes": "20"
      },
      "t_array(t_address)dyn_storage": {
        "base": "t_address",
        "encoding": "dynamic_array",
        "label": "address[]",
        "numberOfBytes": "32"
      },
      "t_array(t_uint256)dyn_storage": {
        "base": "t_uint256",
        "encoding": "dynamic_array",
        "label": "uint256[]",
        "numberOfBytes": "32"
      },
      "t_mapping(t_uint256,t_struct(Campaign)30_storage)": {
        "encoding": "mapping",
        "key": "t_uint256",
        "label": "mapping(uint256 => struct Crowdfunding.Campaign)",
        "numberOfBytes": "32",
        "value": "t_struct(Campaign)30_storage"
      },
      "t_string_storage": {
        "encoding": "bytes",
        "label": "string",
        "numberOfBytes": "32"
      },
      "t_struct(Campaign)30_storage": {
        "encoding": "inplace",
        "label": "struct Crowdfunding.Campaign",
        "members": [
          {
            "astId": 3,
            "contract": "01_Crowdfunding.sol:Crowdfunding",
            "label": "owner",
            "offset": 0,
            "slot": "0",
            "type": "t_address"
          },
          {
            "astId": 5,
            "contract": "01_Crowdfunding.sol:Crowdfunding",
            "label": "nameOwner",
            "offset": 0,
            "slot": "1",
            "type": "t_string_storage"
          },
          {
            "astId": 7,
            "contract": "01_Crowdfunding.sol:Crowdfunding",
            "label": "instagram",
            "offset": 0,
            "slot": "2",
            "type": "t_string_storage"
          },
          {
            "astId": 9,
            "contract": "01_Crowdfunding.sol:Crowdfunding",
            "label": "twitter",
            "offset": 0,
            "slot": "3",
            "type": "t_string_storage"
          },
          {
            "astId": 11,
            "contract": "01_Crowdfunding.sol:Crowdfunding",
            "label": "telegram",
            "offset": 0,
            "slot": "4",
            "type": "t_string_storage"
          },
          {
            "astId": 13,
            "contract": "01_Crowdfunding.sol:Crowdfunding",
            "label": "title",
            "offset": 0,
            "slot": "5",
            "type": "t_string_storage"
          },
          {
            "astId": 15,
            "contract": "01_Crowdfunding.sol:Crowdfunding",
            "label": "description",
            "offset": 0,
            "slot": "6",
            "type": "t_string_storage"
          },
          {
            "astId": 17,
            "contract": "01_Crowdfunding.sol:Crowdfunding",
            "label": "target",
            "offset": 0,
            "slot": "7",
            "type": "t_uint256"
          },
          {
            "astId": 19,
            "contract": "01_Crowdfunding.sol:Crowdfunding",
            "label": "deadline",
            "offset": 0,
            "slot": "8",
            "type": "t_uint256"
          },
          {
            "astId": 21,
            "contract": "01_Crowdfunding.sol:Crowdfunding",
            "label": "amountCollected",
            "offset": 0,
            "slot": "9",
            "type": "t_uint256"
          },
          {
            "astId": 23,
            "contract": "01_Crowdfunding.sol:Crowdfunding",
            "label": "image",
            "offset": 0,
            "slot": "10",
            "type": "t_string_storage"
          },
          {
            "astId": 26,
            "contract": "01_Crowdfunding.sol:Crowdfunding",
            "label": "donators",
            "offset": 0,
            "slot": "11",
            "type": "t_array(t_address)dyn_storage"
          },
          {
            "astId": 29,
            "contract": "01_Crowdfunding.sol:Crowdfunding",
            "label": "donations",
            "offset": 0,
            "slot": "12",
            "type": "t_array(t_uint256)dyn_storage"
          }
        ],
        "numberOfBytes": "416"
      },
      "t_uint256": {
        "encoding": "inplace",
        "label": "uint256",
        "numberOfBytes": "32"
      }
    }
  },
  "userdoc": {
    "kind": "user",
    "methods": {},
    "version": 1
  }
}