{
  "abi": [
    {
      "inputs": [
        {
          "internalType": "address",
          "name": "_rewardToken",
          "type": "address"
        },
        {
          "internalType": "address",
          "name": "_stakingToken",
          "type": "address"
        },
        {
          "internalType": "uint80",
          "name": "_timeUnit",
          "type": "uint80"
        },
        {
          "internalType": "uint256",
          "name": "_rewardRatioNumerator",
          "type": "uint256"
        },
        {
          "internalType": "uint256",
          "name": "_rewardRatioDenominator",
          "type": "uint256"
        }
      ],
      "stateMutability": "nonpayable",
      "type": "constructor"
    },
    {
      "anonymous": false,
      "inputs": [
        {
          "indexed": true,
          "internalType": "address",
          "name": "user",
          "type": "address"
        },
        {
          "indexed": false,
          "internalType": "uint256",
          "name": "amount",
          "type": "uint256"
        }
      ],
      "name": "RewardClaimed",
      "type": "event"
    },
    {
      "anonymous": false,
      "inputs": [
        {
          "indexed": false,
          "internalType": "uint256",
          "name": "amount",
          "type": "uint256"
        }
      ],
      "name": "RewardDeposited",
      "type": "event"
    },
    {
      "anonymous": false,
      "inputs": [
        {
          "indexed": false,
          "internalType": "uint256",
          "name": "amount",
          "type": "uint256"
        }
      ],
      "name": "RewardWithdrawn",
      "type": "event"
    },
    {
      "anonymous": false,
      "inputs": [
        {
          "indexed": true,
          "internalType": "address",
          "name": "user",
          "type": "address"
        },
        {
          "indexed": false,
          "internalType": "uint256",
          "name": "amount",
          "type": "uint256"
        }
      ],
      "name": "Staked",
      "type": "event"
    },
    {
      "anonymous": false,
      "inputs": [
        {
          "indexed": true,
          "internalType": "address",
          "name": "user",
          "type": "address"
        },
        {
          "indexed": false,
          "internalType": "uint256",
          "name": "amount",
          "type": "uint256"
        }
      ],
      "name": "Unstaked",
      "type": "event"
    },
    {
      "inputs": [],
      "name": "admin",
      "outputs": [
        {
          "internalType": "address",
          "name": "",
          "type": "address"
        }
      ],
      "stateMutability": "view",
      "type": "function"
    },
    {
      "inputs": [],
      "name": "claimRewards",
      "outputs": [],
      "stateMutability": "nonpayable",
      "type": "function"
    },
    {
      "inputs": [
        {
          "internalType": "uint256",
          "name": "_amount",
          "type": "uint256"
        }
      ],
      "name": "depositRewardTokens",
      "outputs": [],
      "stateMutability": "nonpayable",
      "type": "function"
    },
    {
      "inputs": [
        {
          "internalType": "address",
          "name": "_user",
          "type": "address"
        }
      ],
      "name": "getStakeInfo",
      "outputs": [
        {
          "internalType": "uint256",
          "name": "stakedAmount",
          "type": "uint256"
        },
        {
          "internalType": "uint256",
          "name": "rewardAmount",
          "type": "uint256"
        }
      ],
      "stateMutability": "view",
      "type": "function"
    },
    {
      "inputs": [],
      "name": "rewardRatioDenominator",
      "outputs": [
        {
          "internalType": "uint256",
          "name": "",
          "type": "uint256"
        }
      ],
      "stateMutability": "view",
      "type": "function"
    },
    {
      "inputs": [],
      "name": "rewardRatioNumerator",
      "outputs": [
        {
          "internalType": "uint256",
          "name": "",
          "type": "uint256"
        }
      ],
      "stateMutability": "view",
      "type": "function"
    },
    {
      "inputs": [],
      "name": "rewardToken",
      "outputs": [
        {
          "internalType": "address",
          "name": "",
          "type": "address"
        }
      ],
      "stateMutability": "view",
      "type": "function"
    },
    {
      "inputs": [],
      "name": "rewardTokenBalance",
      "outputs": [
        {
          "internalType": "uint256",
          "name": "",
          "type": "uint256"
        }
      ],
      "stateMutability": "view",
      "type": "function"
    },
    {
      "inputs": [
        {
          "internalType": "uint256",
          "name": "_amount",
          "type": "uint256"
        }
      ],
      "name": "stake",
      "outputs": [],
      "stateMutability": "nonpayable",
      "type": "function"
    },
    {
      "inputs": [
        {
          "internalType": "address",
          "name": "",
          "type": "address"
        }
      ],
      "name": "stakedBalances",
      "outputs": [
        {
          "internalType": "uint256",
          "name": "",
          "type": "uint256"
        }
      ],
      "stateMutability": "view",
      "type": "function"
    },
    {
      "inputs": [
        {
          "internalType": "address",
          "name": "",
          "type": "address"
        }
      ],
      "name": "stakingTimestamps",
      "outputs": [
        {
          "internalType": "uint256",
          "name": "",
          "type": "uint256"
        }
      ],
      "stateMutability": "view",
      "type": "function"
    },
    {
      "inputs": [],
      "name": "stakingToken",
      "outputs": [
        {
          "internalType": "address",
          "name": "",
          "type": "address"
        }
      ],
      "stateMutability": "view",
      "type": "function"
    },
    {
      "inputs": [],
      "name": "stakingTokenBalance",
      "outputs": [
        {
          "internalType": "uint256",
          "name": "",
          "type": "uint256"
        }
      ],
      "stateMutability": "view",
      "type": "function"
    },
    {
      "inputs": [],
      "name": "timeUnit",
      "outputs": [
        {
          "internalType": "uint80",
          "name": "",
          "type": "uint80"
        }
      ],
      "stateMutability": "view",
      "type": "function"
    },
    {
      "inputs": [
        {
          "internalType": "uint256",
          "name": "_amount",
          "type": "uint256"
        }
      ],
      "name": "unstake",
      "outputs": [],
      "stateMutability": "nonpayable",
      "type": "function"
    },
    {
      "inputs": [
        {
          "internalType": "uint256",
          "name": "_amount",
          "type": "uint256"
        }
      ],
      "name": "withdrawRewardTokens",
      "outputs": [],
      "stateMutability": "nonpayable",
      "type": "function"
    }
  ],
  "devdoc": {
    "kind": "dev",
    "methods": {},
    "version": 1
  },
  "evm": {
    "assembly": "    /* \"05_Staking.sol\":60:3274  contract Staking {... */\n  mstore(0x40, 0x80)\n    /* \"05_Staking.sol\":873:1322  constructor(... */\n  callvalue\n  dup1\n  iszero\n  tag_1\n  jumpi\n  0x00\n  dup1\n  revert\ntag_1:\n  pop\n  mload(0x40)\n  sub(codesize, bytecodeSize)\n  dup1\n  bytecodeSize\n  dup4\n  codecopy\n  dup2\n  add\n  0x40\n  dup2\n  swap1\n  mstore\n  tag_2\n  swap2\n  tag_3\n  jump\t// in\ntag_2:\n    /* \"05_Staking.sol\":1075:1080  admin */\n  0x02\n    /* \"05_Staking.sol\":1075:1093  admin = msg.sender */\n  dup1\n  sload\n    /* \"05_Staking.sol\":1083:1093  msg.sender */\n  caller\n  not(sub(shl(0xa0, 0x01), 0x01))\n    /* \"05_Staking.sol\":1075:1093  admin = msg.sender */\n  swap2\n  dup3\n  and\n  or\n  swap1\n  swap2\n  sstore\n  0x00\n    /* \"05_Staking.sol\":1104:1130  rewardToken = _rewardToken */\n  dup1\n  sload\n  dup3\n  and\n  sub(shl(0xa0, 0x01), 0x01)\n  swap8\n  dup9\n  and\n  or\n  swap1\n  sstore\n  0x01\n    /* \"05_Staking.sol\":1141:1169  stakingToken = _stakingToken */\n  dup1\n  sload\n  swap1\n  swap2\n  and\n  swap5\n  swap1\n  swap6\n  and\n  swap4\n  swap1\n  swap4\n  or\n  swap1\n  swap4\n  sstore\n    /* \"05_Staking.sol\":1180:1188  timeUnit */\n  0x05\n    /* \"05_Staking.sol\":1180:1200  timeUnit = _timeUnit */\n  dup1\n  sload\n  not(sub(shl(0x50, 0x01), 0x01))\n  and\n  sub(shl(0x50, 0x01), 0x01)\n  swap3\n  swap1\n  swap3\n  and\n  swap2\n  swap1\n  swap2\n  or\n  swap1\n  sstore\n    /* \"05_Staking.sol\":1211:1231  rewardRatioNumerator */\n  0x06\n    /* \"05_Staking.sol\":1211:1255  rewardRatioNumerator = _rewardRatioNumerator */\n  swap2\n  swap1\n  swap2\n  sstore\n    /* \"05_Staking.sol\":1266:1288  rewardRatioDenominator */\n  0x07\n    /* \"05_Staking.sol\":1266:1314  rewardRatioDenominator = _rewardRatioDenominator */\n  sstore\n    /* \"05_Staking.sol\":60:3274  contract Staking {... */\n  jump(tag_8)\n    /* \"#utility.yul\":14:191   */\ntag_7:\n    /* \"#utility.yul\":93:106   */\n  dup1\n  mload\n  sub(shl(0xa0, 0x01), 0x01)\n    /* \"#utility.yul\":135:166   */\n  dup2\n  and\n    /* \"#utility.yul\":125:167   */\n  dup2\n  eq\n    /* \"#utility.yul\":115:185   */\n  tag_10\n  jumpi\n    /* \"#utility.yul\":181:182   */\n  0x00\n    /* \"#utility.yul\":178:179   */\n  dup1\n    /* \"#utility.yul\":171:183   */\n  revert\n    /* \"#utility.yul\":115:185   */\ntag_10:\n    /* \"#utility.yul\":14:191   */\n  swap2\n  swap1\n  pop\n  jump\t// out\n    /* \"#utility.yul\":196:778   */\ntag_3:\n    /* \"#utility.yul\":301:307   */\n  0x00\n    /* \"#utility.yul\":309:315   */\n  dup1\n    /* \"#utility.yul\":317:323   */\n  0x00\n    /* \"#utility.yul\":325:331   */\n  dup1\n    /* \"#utility.yul\":333:339   */\n  0x00\n    /* \"#utility.yul\":386:389   */\n  0xa0\n    /* \"#utility.yul\":374:383   */\n  dup7\n    /* \"#utility.yul\":365:372   */\n  dup9\n    /* \"#utility.yul\":361:384   */\n  sub\n    /* \"#utility.yul\":357:390   */\n  slt\n    /* \"#utility.yul\":354:407   */\n  iszero\n  tag_12\n  jumpi\n    /* \"#utility.yul\":403:404   */\n  0x00\n    /* \"#utility.yul\":400:401   */\n  dup1\n    /* \"#utility.yul\":393:405   */\n  revert\n    /* \"#utility.yul\":354:407   */\ntag_12:\n    /* \"#utility.yul\":426:466   */\n  tag_13\n    /* \"#utility.yul\":456:465   */\n  dup7\n    /* \"#utility.yul\":426:466   */\n  tag_7\n  jump\t// in\ntag_13:\n    /* \"#utility.yul\":416:466   */\n  swap5\n  pop\n    /* \"#utility.yul\":485:534   */\n  tag_14\n    /* \"#utility.yul\":530:532   */\n  0x20\n    /* \"#utility.yul\":519:528   */\n  dup8\n    /* \"#utility.yul\":515:533   */\n  add\n    /* \"#utility.yul\":485:534   */\n  tag_7\n  jump\t// in\ntag_14:\n    /* \"#utility.yul\":577:579   */\n  0x40\n    /* \"#utility.yul\":562:580   */\n  dup8\n  add\n    /* \"#utility.yul\":556:581   */\n  mload\n    /* \"#utility.yul\":475:534   */\n  swap1\n  swap5\n  pop\n  sub(shl(0x50, 0x01), 0x01)\n    /* \"#utility.yul\":610:640   */\n  dup2\n  and\n    /* \"#utility.yul\":600:641   */\n  dup2\n  eq\n    /* \"#utility.yul\":590:659   */\n  tag_15\n  jumpi\n    /* \"#utility.yul\":655:656   */\n  0x00\n    /* \"#utility.yul\":652:653   */\n  dup1\n    /* \"#utility.yul\":645:657   */\n  revert\n    /* \"#utility.yul\":590:659   */\ntag_15:\n    /* \"#utility.yul\":723:725   */\n  0x60\n    /* \"#utility.yul\":708:726   */\n  dup8\n  add\n    /* \"#utility.yul\":702:727   */\n  mload\n    /* \"#utility.yul\":767:770   */\n  0x80\n    /* \"#utility.yul\":752:771   */\n  swap1\n  swap8\n  add\n    /* \"#utility.yul\":746:772   */\n  mload\n    /* \"#utility.yul\":196:778   */\n  swap6\n  swap9\n  swap5\n  swap8\n  pop\n    /* \"#utility.yul\":678:683   */\n  swap6\n    /* \"#utility.yul\":702:727   */\n  swap5\n    /* \"#utility.yul\":746:772   */\n  swap4\n    /* \"#utility.yul\":196:778   */\n  swap3\n  pop\n  pop\n  pop\n  jump\t// out\ntag_8:\n    /* \"05_Staking.sol\":60:3274  contract Staking {... */\n  dataSize(sub_0)\n  dup1\n  dataOffset(sub_0)\n  0x00\n  codecopy\n  0x00\n  return\nstop\n\nsub_0: assembly {\n        /* \"05_Staking.sol\":60:3274  contract Staking {... */\n      mstore(0x40, 0x80)\n      callvalue\n      dup1\n      iszero\n      tag_1\n      jumpi\n      0x00\n      dup1\n      revert\n    tag_1:\n      pop\n      jumpi(tag_2, lt(calldatasize, 0x04))\n      shr(0xe0, calldataload(0x00))\n      dup1\n      0x937b983b\n      gt\n      tag_19\n      jumpi\n      dup1\n      0xcb43b2dd\n      gt\n      tag_20\n      jumpi\n      dup1\n      0xcb43b2dd\n      eq\n      tag_15\n      jumpi\n      dup1\n      0xcc317f31\n      eq\n      tag_16\n      jumpi\n      dup1\n      0xf7c618c1\n      eq\n      tag_17\n      jumpi\n      dup1\n      0xf851a440\n      eq\n      tag_18\n      jumpi\n      0x00\n      dup1\n      revert\n    tag_20:\n      dup1\n      0x937b983b\n      eq\n      tag_11\n      jumpi\n      dup1\n      0xa694fc3a\n      eq\n      tag_12\n      jumpi\n      dup1\n      0xb5d90dc0\n      eq\n      tag_13\n      jumpi\n      dup1\n      0xc3453153\n      eq\n      tag_14\n      jumpi\n      0x00\n      dup1\n      revert\n    tag_19:\n      dup1\n      0x3c6a7f9b\n      gt\n      tag_21\n      jumpi\n      dup1\n      0x3c6a7f9b\n      eq\n      tag_7\n      jumpi\n      dup1\n      0x72f702f3\n      eq\n      tag_8\n      jumpi\n      dup1\n      0x75824f23\n      eq\n      tag_9\n      jumpi\n      dup1\n      0x8caaa271\n      eq\n      tag_10\n      jumpi\n      0x00\n      dup1\n      revert\n    tag_21:\n      dup1\n      0x1460fa87\n      eq\n      tag_3\n      jumpi\n      dup1\n      0x16c621e0\n      eq\n      tag_4\n      jumpi\n      dup1\n      0x2e17de78\n      eq\n      tag_5\n      jumpi\n      dup1\n      0x372500ab\n      eq\n      tag_6\n      jumpi\n    tag_2:\n      0x00\n      dup1\n      revert\n        /* \"05_Staking.sol\":376:425  mapping(address => uint256) public stakedBalances */\n    tag_3:\n      tag_22\n      tag_23\n      calldatasize\n      0x04\n      tag_24\n      jump\t// in\n    tag_23:\n      mstore(0x20, 0x08)\n      0x00\n      swap1\n      dup2\n      mstore\n      0x40\n      swap1\n      keccak256\n      sload\n      dup2\n      jump\n    tag_22:\n      mload(0x40)\n        /* \"#utility.yul\":474:499   */\n      swap1\n      dup2\n      mstore\n        /* \"#utility.yul\":462:464   */\n      0x20\n        /* \"#utility.yul\":447:465   */\n      add\n        /* \"05_Staking.sol\":376:425  mapping(address => uint256) public stakedBalances */\n    tag_26:\n      mload(0x40)\n      dup1\n      swap2\n      sub\n      swap1\n      return\n        /* \"05_Staking.sol\":2297:2517  function depositRewardTokens(uint256 _amount) external onlyAdmin {... */\n    tag_4:\n      tag_28\n      tag_29\n      calldatasize\n      0x04\n      tag_30\n      jump\t// in\n    tag_29:\n      tag_31\n      jump\t// in\n    tag_28:\n      stop\n        /* \"05_Staking.sol\":1626:1899  function unstake(uint256 _amount) external {... */\n    tag_5:\n      tag_28\n      tag_33\n      calldatasize\n      0x04\n      tag_30\n      jump\t// in\n    tag_33:\n      tag_34\n      jump\t// in\n        /* \"05_Staking.sol\":1907:2289  function claimRewards() external {... */\n    tag_6:\n      tag_28\n      tag_36\n      jump\t// in\n        /* \"05_Staking.sol\":259:281  uint80 public timeUnit */\n    tag_7:\n      sload(0x05)\n      tag_37\n      swap1\n      0xffffffffffffffffffff\n      and\n      dup2\n      jump\n    tag_37:\n      mload(0x40)\n        /* \"#utility.yul\":869:891   */\n      0xffffffffffffffffffff\n        /* \"#utility.yul\":857:892   */\n      swap1\n      swap2\n      and\n        /* \"#utility.yul\":839:893   */\n      dup2\n      mstore\n        /* \"#utility.yul\":827:829   */\n      0x20\n        /* \"#utility.yul\":812:830   */\n      add\n        /* \"05_Staking.sol\":259:281  uint80 public timeUnit */\n      tag_26\n        /* \"#utility.yul\":695:899   */\n      jump\n        /* \"05_Staking.sol\":117:144  address public stakingToken */\n    tag_8:\n      sload(0x01)\n      tag_41\n      swap1\n      sub(shl(0xa0, 0x01), 0x01)\n      and\n      dup2\n      jump\n    tag_41:\n      mload(0x40)\n      sub(shl(0xa0, 0x01), 0x01)\n        /* \"#utility.yul\":1068:1123   */\n      swap1\n      swap2\n      and\n        /* \"#utility.yul\":1050:1124   */\n      dup2\n      mstore\n        /* \"#utility.yul\":1038:1040   */\n      0x20\n        /* \"#utility.yul\":1023:1041   */\n      add\n        /* \"05_Staking.sol\":117:144  address public stakingToken */\n      tag_26\n        /* \"#utility.yul\":904:1130   */\n      jump\n        /* \"05_Staking.sol\":178:211  uint256 public rewardTokenBalance */\n    tag_9:\n      tag_22\n      sload(0x03)\n      dup2\n      jump\n        /* \"05_Staking.sol\":218:252  uint256 public stakingTokenBalance */\n    tag_10:\n      tag_22\n      sload(0x04)\n      dup2\n      jump\n        /* \"05_Staking.sol\":432:484  mapping(address => uint256) public stakingTimestamps */\n    tag_11:\n      tag_22\n      tag_52\n      calldatasize\n      0x04\n      tag_24\n      jump\t// in\n    tag_52:\n      mstore(0x20, 0x09)\n      0x00\n      swap1\n      dup2\n      mstore\n      0x40\n      swap1\n      keccak256\n      sload\n      dup2\n      jump\n        /* \"05_Staking.sol\":1330:1618  function stake(uint256 _amount) external {... */\n    tag_12:\n      tag_28\n      tag_56\n      calldatasize\n      0x04\n      tag_30\n      jump\t// in\n    tag_56:\n      tag_57\n      jump\t// in\n        /* \"05_Staking.sol\":330:367  uint256 public rewardRatioDenominator */\n    tag_13:\n      tag_22\n      sload(0x07)\n      dup2\n      jump\n        /* \"05_Staking.sol\":3064:3271  function getStakeInfo(address _user) external view returns (uint256 stakedAmount, uint256 rewardAmount) {... */\n    tag_14:\n      tag_61\n      tag_62\n      calldatasize\n      0x04\n      tag_24\n      jump\t// in\n    tag_62:\n      tag_63\n      jump\t// in\n    tag_61:\n      0x40\n      dup1\n      mload\n        /* \"#utility.yul\":1309:1334   */\n      swap3\n      dup4\n      mstore\n        /* \"#utility.yul\":1365:1367   */\n      0x20\n        /* \"#utility.yul\":1350:1368   */\n      dup4\n      add\n        /* \"#utility.yul\":1343:1377   */\n      swap2\n      swap1\n      swap2\n      mstore\n        /* \"#utility.yul\":1282:1300   */\n      add\n        /* \"05_Staking.sol\":3064:3271  function getStakeInfo(address _user) external view returns (uint256 stakedAmount, uint256 rewardAmount) {... */\n      tag_26\n        /* \"#utility.yul\":1135:1383   */\n      jump\n        /* \"05_Staking.sol\":2525:2756  function withdrawRewardTokens(uint256 _amount) external onlyAdmin {... */\n    tag_15:\n      tag_28\n      tag_67\n      calldatasize\n      0x04\n      tag_30\n      jump\t// in\n    tag_67:\n      tag_68\n      jump\t// in\n        /* \"05_Staking.sol\":288:323  uint256 public rewardRatioNumerator */\n    tag_16:\n      tag_22\n      sload(0x06)\n      dup2\n      jump\n        /* \"05_Staking.sol\":84:110  address public rewardToken */\n    tag_17:\n      sload(0x00)\n      tag_41\n      swap1\n      sub(shl(0xa0, 0x01), 0x01)\n      and\n      dup2\n      jump\n        /* \"05_Staking.sol\":151:171  address public admin */\n    tag_18:\n      sload(0x02)\n      tag_41\n      swap1\n      sub(shl(0xa0, 0x01), 0x01)\n      and\n      dup2\n      jump\n        /* \"05_Staking.sol\":2297:2517  function depositRewardTokens(uint256 _amount) external onlyAdmin {... */\n    tag_31:\n        /* \"05_Staking.sol\":821:826  admin */\n      and(sub(shl(0xa0, 0x01), 0x01), sload(0x02))\n        /* \"05_Staking.sol\":807:817  msg.sender */\n      caller\n        /* \"05_Staking.sol\":807:826  msg.sender == admin */\n      eq\n        /* \"05_Staking.sol\":799:845  require(msg.sender == admin, \"Not authorized\") */\n      tag_79\n      jumpi\n      mload(0x40)\n      shl(0xe5, 0x461bcd)\n      dup2\n      mstore\n        /* \"#utility.yul\":1590:1592   */\n      0x20\n        /* \"05_Staking.sol\":799:845  require(msg.sender == admin, \"Not authorized\") */\n      0x04\n      dup3\n      add\n        /* \"#utility.yul\":1572:1593   */\n      mstore\n        /* \"#utility.yul\":1629:1631   */\n      0x0e\n        /* \"#utility.yul\":1609:1627   */\n      0x24\n      dup3\n      add\n        /* \"#utility.yul\":1602:1632   */\n      mstore\n      shl(0x92, 0x139bdd08185d5d1a1bdc9a5e9959)\n        /* \"#utility.yul\":1648:1666   */\n      0x44\n      dup3\n      add\n        /* \"#utility.yul\":1641:1685   */\n      mstore\n        /* \"#utility.yul\":1702:1720   */\n      0x64\n      add\n        /* \"05_Staking.sol\":799:845  require(msg.sender == admin, \"Not authorized\") */\n    tag_80:\n      mload(0x40)\n      dup1\n      swap2\n      sub\n      swap1\n      revert\n    tag_79:\n        /* \"05_Staking.sol\":2391:2392  0 */\n      0x00\n        /* \"05_Staking.sol\":2381:2388  _amount */\n      dup2\n        /* \"05_Staking.sol\":2381:2392  _amount > 0 */\n      gt\n        /* \"05_Staking.sol\":2373:2429  require(_amount > 0, \"Amount must be greater than zero\") */\n      tag_83\n      jumpi\n      mload(0x40)\n      shl(0xe5, 0x461bcd)\n      dup2\n      mstore\n        /* \"#utility.yul\":1933:1935   */\n      0x20\n        /* \"05_Staking.sol\":2373:2429  require(_amount > 0, \"Amount must be greater than zero\") */\n      0x04\n      dup3\n      add\n        /* \"#utility.yul\":1915:1936   */\n      dup2\n      swap1\n      mstore\n        /* \"#utility.yul\":1952:1970   */\n      0x24\n      dup3\n      add\n        /* \"#utility.yul\":1945:1975   */\n      mstore\n        /* \"#utility.yul\":2011:2045   */\n      0x416d6f756e74206d7573742062652067726561746572207468616e207a65726f\n        /* \"#utility.yul\":1991:2009   */\n      0x44\n      dup3\n      add\n        /* \"#utility.yul\":1984:2046   */\n      mstore\n        /* \"#utility.yul\":2063:2081   */\n      0x64\n      add\n        /* \"05_Staking.sol\":2373:2429  require(_amount > 0, \"Amount must be greater than zero\") */\n      tag_80\n        /* \"#utility.yul\":1731:2087   */\n      jump\n        /* \"05_Staking.sol\":2373:2429  require(_amount > 0, \"Amount must be greater than zero\") */\n    tag_83:\n        /* \"05_Staking.sol\":2462:2469  _amount */\n      dup1\n        /* \"05_Staking.sol\":2440:2458  rewardTokenBalance */\n      0x03\n      0x00\n        /* \"05_Staking.sol\":2440:2469  rewardTokenBalance += _amount */\n      dup3\n      dup3\n      sload\n      tag_86\n      swap2\n      swap1\n      tag_87\n      jump\t// in\n    tag_86:\n      swap1\n      swap2\n      sstore\n      pop\n      pop\n        /* \"05_Staking.sol\":2485:2509  RewardDeposited(_amount) */\n      mload(0x40)\n        /* \"#utility.yul\":474:499   */\n      dup2\n      dup2\n      mstore\n        /* \"05_Staking.sol\":2485:2509  RewardDeposited(_amount) */\n      0x4b19cb5d8df041d8b4d367efa19af33a21d398f599fb445a29acd9d5e56318c6\n      swap1\n        /* \"#utility.yul\":462:464   */\n      0x20\n        /* \"#utility.yul\":447:465   */\n      add\n        /* \"05_Staking.sol\":2485:2509  RewardDeposited(_amount) */\n    tag_88:\n      mload(0x40)\n      dup1\n      swap2\n      sub\n      swap1\n      log1\n        /* \"05_Staking.sol\":2297:2517  function depositRewardTokens(uint256 _amount) external onlyAdmin {... */\n      pop\n      jump\t// out\n        /* \"05_Staking.sol\":1626:1899  function unstake(uint256 _amount) external {... */\n    tag_34:\n        /* \"05_Staking.sol\":1703:1713  msg.sender */\n      caller\n        /* \"05_Staking.sol\":1688:1714  stakedBalances[msg.sender] */\n      0x00\n      swap1\n      dup2\n      mstore\n        /* \"05_Staking.sol\":1688:1702  stakedBalances */\n      0x08\n        /* \"05_Staking.sol\":1688:1714  stakedBalances[msg.sender] */\n      0x20\n      mstore\n      0x40\n      swap1\n      keccak256\n      sload\n        /* \"05_Staking.sol\":1688:1725  stakedBalances[msg.sender] >= _amount */\n      dup2\n      gt\n      iszero\n        /* \"05_Staking.sol\":1680:1757  require(stakedBalances[msg.sender] >= _amount, \"Insufficient staked balance\") */\n      tag_90\n      jumpi\n      mload(0x40)\n      shl(0xe5, 0x461bcd)\n      dup2\n      mstore\n        /* \"#utility.yul\":2556:2558   */\n      0x20\n        /* \"05_Staking.sol\":1680:1757  require(stakedBalances[msg.sender] >= _amount, \"Insufficient staked balance\") */\n      0x04\n      dup3\n      add\n        /* \"#utility.yul\":2538:2559   */\n      mstore\n        /* \"#utility.yul\":2595:2597   */\n      0x1b\n        /* \"#utility.yul\":2575:2593   */\n      0x24\n      dup3\n      add\n        /* \"#utility.yul\":2568:2598   */\n      mstore\n        /* \"#utility.yul\":2634:2663   */\n      0x496e73756666696369656e74207374616b65642062616c616e63650000000000\n        /* \"#utility.yul\":2614:2632   */\n      0x44\n      dup3\n      add\n        /* \"#utility.yul\":2607:2664   */\n      mstore\n        /* \"#utility.yul\":2681:2699   */\n      0x64\n      add\n        /* \"05_Staking.sol\":1680:1757  require(stakedBalances[msg.sender] >= _amount, \"Insufficient staked balance\") */\n      tag_80\n        /* \"#utility.yul\":2354:2705   */\n      jump\n        /* \"05_Staking.sol\":1680:1757  require(stakedBalances[msg.sender] >= _amount, \"Insufficient staked balance\") */\n    tag_90:\n        /* \"05_Staking.sol\":1783:1793  msg.sender */\n      caller\n        /* \"05_Staking.sol\":1768:1794  stakedBalances[msg.sender] */\n      0x00\n      swap1\n      dup2\n      mstore\n        /* \"05_Staking.sol\":1768:1782  stakedBalances */\n      0x08\n        /* \"05_Staking.sol\":1768:1794  stakedBalances[msg.sender] */\n      0x20\n      mstore\n      0x40\n      dup2\n      keccak256\n        /* \"05_Staking.sol\":1768:1805  stakedBalances[msg.sender] -= _amount */\n      dup1\n      sload\n        /* \"05_Staking.sol\":1798:1805  _amount */\n      dup4\n      swap3\n        /* \"05_Staking.sol\":1768:1794  stakedBalances[msg.sender] */\n      swap1\n        /* \"05_Staking.sol\":1768:1805  stakedBalances[msg.sender] -= _amount */\n      tag_93\n      swap1\n        /* \"05_Staking.sol\":1798:1805  _amount */\n      dup5\n      swap1\n        /* \"05_Staking.sol\":1768:1805  stakedBalances[msg.sender] -= _amount */\n      tag_94\n      jump\t// in\n    tag_93:\n      swap3\n      pop\n      pop\n      dup2\n      swap1\n      sstore\n      pop\n        /* \"05_Staking.sol\":1839:1846  _amount */\n      dup1\n        /* \"05_Staking.sol\":1816:1835  stakingTokenBalance */\n      0x04\n      0x00\n        /* \"05_Staking.sol\":1816:1846  stakingTokenBalance -= _amount */\n      dup3\n      dup3\n      sload\n      tag_95\n      swap2\n      swap1\n      tag_94\n      jump\t// in\n    tag_95:\n      swap1\n      swap2\n      sstore\n      pop\n      pop\n        /* \"05_Staking.sol\":1862:1891  Unstaked(msg.sender, _amount) */\n      mload(0x40)\n        /* \"#utility.yul\":474:499   */\n      dup2\n      dup2\n      mstore\n        /* \"05_Staking.sol\":1871:1881  msg.sender */\n      caller\n      swap1\n        /* \"05_Staking.sol\":1862:1891  Unstaked(msg.sender, _amount) */\n      0x0f5bb82176feb1b5e747e28471aa92156a04d9f3ab9f45f28e2d704232b93f75\n      swap1\n        /* \"#utility.yul\":462:464   */\n      0x20\n        /* \"#utility.yul\":447:465   */\n      add\n        /* \"05_Staking.sol\":1862:1891  Unstaked(msg.sender, _amount) */\n    tag_96:\n      mload(0x40)\n      dup1\n      swap2\n      sub\n      swap1\n      log2\n        /* \"05_Staking.sol\":1626:1899  function unstake(uint256 _amount) external {... */\n      pop\n      jump\t// out\n        /* \"05_Staking.sol\":1907:2289  function claimRewards() external {... */\n    tag_36:\n        /* \"05_Staking.sol\":1974:1984  msg.sender */\n      caller\n        /* \"05_Staking.sol\":1988:1989  0 */\n      0x00\n        /* \"05_Staking.sol\":1959:1985  stakedBalances[msg.sender] */\n      swap1\n      dup2\n      mstore\n        /* \"05_Staking.sol\":1959:1973  stakedBalances */\n      0x08\n        /* \"05_Staking.sol\":1959:1985  stakedBalances[msg.sender] */\n      0x20\n      mstore\n      0x40\n      swap1\n      keccak256\n      sload\n        /* \"05_Staking.sol\":1951:2010  require(stakedBalances[msg.sender] > 0, \"No staked tokens\") */\n      tag_98\n      jumpi\n      mload(0x40)\n      shl(0xe5, 0x461bcd)\n      dup2\n      mstore\n        /* \"#utility.yul\":3045:3047   */\n      0x20\n        /* \"05_Staking.sol\":1951:2010  require(stakedBalances[msg.sender] > 0, \"No staked tokens\") */\n      0x04\n      dup3\n      add\n        /* \"#utility.yul\":3027:3048   */\n      mstore\n        /* \"#utility.yul\":3084:3086   */\n      0x10\n        /* \"#utility.yul\":3064:3082   */\n      0x24\n      dup3\n      add\n        /* \"#utility.yul\":3057:3087   */\n      mstore\n        /* \"#utility.yul\":3123:3141   */\n      0x4e6f207374616b656420746f6b656e7300000000000000000000000000000000\n        /* \"#utility.yul\":3103:3121   */\n      0x44\n      dup3\n      add\n        /* \"#utility.yul\":3096:3142   */\n      mstore\n        /* \"#utility.yul\":3159:3177   */\n      0x64\n      add\n        /* \"05_Staking.sol\":1951:2010  require(stakedBalances[msg.sender] > 0, \"No staked tokens\") */\n      tag_80\n        /* \"#utility.yul\":2843:3183   */\n      jump\n        /* \"05_Staking.sol\":1951:2010  require(stakedBalances[msg.sender] > 0, \"No staked tokens\") */\n    tag_98:\n        /* \"05_Staking.sol\":2021:2035  uint256 reward */\n      0x00\n        /* \"05_Staking.sol\":2038:2065  calculateReward(msg.sender) */\n      tag_101\n        /* \"05_Staking.sol\":2054:2064  msg.sender */\n      caller\n        /* \"05_Staking.sol\":2038:2053  calculateReward */\n      tag_102\n        /* \"05_Staking.sol\":2038:2065  calculateReward(msg.sender) */\n      jump\t// in\n    tag_101:\n        /* \"05_Staking.sol\":2021:2065  uint256 reward = calculateReward(msg.sender) */\n      swap1\n      pop\n        /* \"05_Staking.sol\":2094:2112  rewardTokenBalance */\n      sload(0x03)\n        /* \"05_Staking.sol\":2084:2090  reward */\n      dup2\n        /* \"05_Staking.sol\":2084:2112  reward <= rewardTokenBalance */\n      gt\n      iszero\n        /* \"05_Staking.sol\":2076:2135  require(reward <= rewardTokenBalance, \"Not enough rewards\") */\n      tag_103\n      jumpi\n      mload(0x40)\n      shl(0xe5, 0x461bcd)\n      dup2\n      mstore\n        /* \"#utility.yul\":3390:3392   */\n      0x20\n        /* \"05_Staking.sol\":2076:2135  require(reward <= rewardTokenBalance, \"Not enough rewards\") */\n      0x04\n      dup3\n      add\n        /* \"#utility.yul\":3372:3393   */\n      mstore\n        /* \"#utility.yul\":3429:3431   */\n      0x12\n        /* \"#utility.yul\":3409:3427   */\n      0x24\n      dup3\n      add\n        /* \"#utility.yul\":3402:3432   */\n      mstore\n        /* \"#utility.yul\":3468:3488   */\n      0x4e6f7420656e6f75676820726577617264730000000000000000000000000000\n        /* \"#utility.yul\":3448:3466   */\n      0x44\n      dup3\n      add\n        /* \"#utility.yul\":3441:3489   */\n      mstore\n        /* \"#utility.yul\":3506:3524   */\n      0x64\n      add\n        /* \"05_Staking.sol\":2076:2135  require(reward <= rewardTokenBalance, \"Not enough rewards\") */\n      tag_80\n        /* \"#utility.yul\":3188:3530   */\n      jump\n        /* \"05_Staking.sol\":2076:2135  require(reward <= rewardTokenBalance, \"Not enough rewards\") */\n    tag_103:\n        /* \"05_Staking.sol\":2168:2174  reward */\n      dup1\n        /* \"05_Staking.sol\":2146:2164  rewardTokenBalance */\n      0x03\n      0x00\n        /* \"05_Staking.sol\":2146:2174  rewardTokenBalance -= reward */\n      dup3\n      dup3\n      sload\n      tag_106\n      swap2\n      swap1\n      tag_94\n      jump\t// in\n    tag_106:\n      swap1\n      swap2\n      sstore\n      pop\n      pop\n        /* \"05_Staking.sol\":2203:2213  msg.sender */\n      caller\n        /* \"05_Staking.sol\":2185:2214  stakingTimestamps[msg.sender] */\n      0x00\n      dup2\n      dup2\n      mstore\n        /* \"05_Staking.sol\":2185:2202  stakingTimestamps */\n      0x09\n        /* \"05_Staking.sol\":2185:2214  stakingTimestamps[msg.sender] */\n      0x20\n      mstore\n      0x40\n      swap1\n      dup2\n      swap1\n      keccak256\n        /* \"05_Staking.sol\":2217:2232  block.timestamp */\n      timestamp\n        /* \"05_Staking.sol\":2185:2232  stakingTimestamps[msg.sender] = block.timestamp */\n      swap1\n      sstore\n        /* \"05_Staking.sol\":2248:2281  RewardClaimed(msg.sender, reward) */\n      mload\n      0x106f923f993c2149d49b4255ff723acafa1f2d94393f561d3eda32ae348f7241\n      swap1\n      tag_96\n      swap1\n        /* \"05_Staking.sol\":2274:2280  reward */\n      dup5\n        /* \"#utility.yul\":474:499   */\n      dup2\n      mstore\n        /* \"#utility.yul\":462:464   */\n      0x20\n        /* \"#utility.yul\":447:465   */\n      add\n      swap1\n        /* \"#utility.yul\":328:505   */\n      jump\n        /* \"05_Staking.sol\":1330:1618  function stake(uint256 _amount) external {... */\n    tag_57:\n        /* \"05_Staking.sol\":1400:1401  0 */\n      0x00\n        /* \"05_Staking.sol\":1390:1397  _amount */\n      dup2\n        /* \"05_Staking.sol\":1390:1401  _amount > 0 */\n      gt\n        /* \"05_Staking.sol\":1382:1420  require(_amount > 0, \"Cannot stake 0\") */\n      tag_109\n      jumpi\n      mload(0x40)\n      shl(0xe5, 0x461bcd)\n      dup2\n      mstore\n        /* \"#utility.yul\":3737:3739   */\n      0x20\n        /* \"05_Staking.sol\":1382:1420  require(_amount > 0, \"Cannot stake 0\") */\n      0x04\n      dup3\n      add\n        /* \"#utility.yul\":3719:3740   */\n      mstore\n        /* \"#utility.yul\":3776:3778   */\n      0x0e\n        /* \"#utility.yul\":3756:3774   */\n      0x24\n      dup3\n      add\n        /* \"#utility.yul\":3749:3779   */\n      mstore\n        /* \"#utility.yul\":3815:3831   */\n      0x43616e6e6f74207374616b652030000000000000000000000000000000000000\n        /* \"#utility.yul\":3795:3813   */\n      0x44\n      dup3\n      add\n        /* \"#utility.yul\":3788:3832   */\n      mstore\n        /* \"#utility.yul\":3849:3867   */\n      0x64\n      add\n        /* \"05_Staking.sol\":1382:1420  require(_amount > 0, \"Cannot stake 0\") */\n      tag_80\n        /* \"#utility.yul\":3535:3873   */\n      jump\n        /* \"05_Staking.sol\":1382:1420  require(_amount > 0, \"Cannot stake 0\") */\n    tag_109:\n        /* \"05_Staking.sol\":1446:1456  msg.sender */\n      caller\n        /* \"05_Staking.sol\":1431:1457  stakedBalances[msg.sender] */\n      0x00\n      swap1\n      dup2\n      mstore\n        /* \"05_Staking.sol\":1431:1445  stakedBalances */\n      0x08\n        /* \"05_Staking.sol\":1431:1457  stakedBalances[msg.sender] */\n      0x20\n      mstore\n      0x40\n      dup2\n      keccak256\n        /* \"05_Staking.sol\":1431:1468  stakedBalances[msg.sender] += _amount */\n      dup1\n      sload\n        /* \"05_Staking.sol\":1461:1468  _amount */\n      dup4\n      swap3\n        /* \"05_Staking.sol\":1431:1457  stakedBalances[msg.sender] */\n      swap1\n        /* \"05_Staking.sol\":1431:1468  stakedBalances[msg.sender] += _amount */\n      tag_112\n      swap1\n        /* \"05_Staking.sol\":1461:1468  _amount */\n      dup5\n      swap1\n        /* \"05_Staking.sol\":1431:1468  stakedBalances[msg.sender] += _amount */\n      tag_87\n      jump\t// in\n    tag_112:\n      swap1\n      swap2\n      sstore\n      pop\n      pop\n        /* \"05_Staking.sol\":1497:1507  msg.sender */\n      caller\n        /* \"05_Staking.sol\":1479:1508  stakingTimestamps[msg.sender] */\n      0x00\n      swap1\n      dup2\n      mstore\n        /* \"05_Staking.sol\":1479:1496  stakingTimestamps */\n      0x09\n        /* \"05_Staking.sol\":1479:1508  stakingTimestamps[msg.sender] */\n      0x20\n      mstore\n      0x40\n      dup2\n      keccak256\n        /* \"05_Staking.sol\":1511:1526  block.timestamp */\n      timestamp\n        /* \"05_Staking.sol\":1479:1526  stakingTimestamps[msg.sender] = block.timestamp */\n      swap1\n      sstore\n        /* \"05_Staking.sol\":1537:1556  stakingTokenBalance */\n      0x04\n        /* \"05_Staking.sol\":1537:1567  stakingTokenBalance += _amount */\n      dup1\n      sload\n        /* \"05_Staking.sol\":1560:1567  _amount */\n      dup4\n      swap3\n        /* \"05_Staking.sol\":1479:1508  stakingTimestamps[msg.sender] */\n      swap1\n        /* \"05_Staking.sol\":1537:1567  stakingTokenBalance += _amount */\n      tag_113\n      swap1\n        /* \"05_Staking.sol\":1560:1567  _amount */\n      dup5\n      swap1\n        /* \"05_Staking.sol\":1537:1567  stakingTokenBalance += _amount */\n      tag_87\n      jump\t// in\n    tag_113:\n      swap1\n      swap2\n      sstore\n      pop\n      pop\n        /* \"05_Staking.sol\":1583:1610  Staked(msg.sender, _amount) */\n      mload(0x40)\n        /* \"#utility.yul\":474:499   */\n      dup2\n      dup2\n      mstore\n        /* \"05_Staking.sol\":1590:1600  msg.sender */\n      caller\n      swap1\n        /* \"05_Staking.sol\":1583:1610  Staked(msg.sender, _amount) */\n      0x9e71bc8eea02a63969f509818f2dafb9254532904319f9dbda79b67bd34a5f3d\n      swap1\n        /* \"#utility.yul\":462:464   */\n      0x20\n        /* \"#utility.yul\":447:465   */\n      add\n        /* \"05_Staking.sol\":1583:1610  Staked(msg.sender, _amount) */\n      tag_96\n        /* \"#utility.yul\":328:505   */\n      jump\n        /* \"05_Staking.sol\":3064:3271  function getStakeInfo(address _user) external view returns (uint256 stakedAmount, uint256 rewardAmount) {... */\n    tag_63:\n      sub(shl(0xa0, 0x01), 0x01)\n        /* \"05_Staking.sol\":3194:3215  stakedBalances[_user] */\n      dup2\n      and\n        /* \"05_Staking.sol\":3124:3144  uint256 stakedAmount */\n      0x00\n        /* \"05_Staking.sol\":3194:3215  stakedBalances[_user] */\n      swap1\n      dup2\n      mstore\n        /* \"05_Staking.sol\":3194:3208  stakedBalances */\n      0x08\n        /* \"05_Staking.sol\":3194:3215  stakedBalances[_user] */\n      0x20\n      mstore\n      0x40\n      dup2\n      keccak256\n      sload\n      swap1\n        /* \"05_Staking.sol\":3241:3263  calculateReward(_user) */\n      tag_116\n        /* \"05_Staking.sol\":3209:3214  _user */\n      dup4\n        /* \"05_Staking.sol\":3241:3256  calculateReward */\n      tag_102\n        /* \"05_Staking.sol\":3241:3263  calculateReward(_user) */\n      jump\t// in\n    tag_116:\n        /* \"05_Staking.sol\":3226:3263  rewardAmount = calculateReward(_user) */\n      swap1\n      pop\n        /* \"05_Staking.sol\":3064:3271  function getStakeInfo(address _user) external view returns (uint256 stakedAmount, uint256 rewardAmount) {... */\n      swap2\n      pop\n      swap2\n      jump\t// out\n        /* \"05_Staking.sol\":2525:2756  function withdrawRewardTokens(uint256 _amount) external onlyAdmin {... */\n    tag_68:\n        /* \"05_Staking.sol\":821:826  admin */\n      and(sub(shl(0xa0, 0x01), 0x01), sload(0x02))\n        /* \"05_Staking.sol\":807:817  msg.sender */\n      caller\n        /* \"05_Staking.sol\":807:826  msg.sender == admin */\n      eq\n        /* \"05_Staking.sol\":799:845  require(msg.sender == admin, \"Not authorized\") */\n      tag_118\n      jumpi\n      mload(0x40)\n      shl(0xe5, 0x461bcd)\n      dup2\n      mstore\n        /* \"#utility.yul\":1590:1592   */\n      0x20\n        /* \"05_Staking.sol\":799:845  require(msg.sender == admin, \"Not authorized\") */\n      0x04\n      dup3\n      add\n        /* \"#utility.yul\":1572:1593   */\n      mstore\n        /* \"#utility.yul\":1629:1631   */\n      0x0e\n        /* \"#utility.yul\":1609:1627   */\n      0x24\n      dup3\n      add\n        /* \"#utility.yul\":1602:1632   */\n      mstore\n      shl(0x92, 0x139bdd08185d5d1a1bdc9a5e9959)\n        /* \"#utility.yul\":1648:1666   */\n      0x44\n      dup3\n      add\n        /* \"#utility.yul\":1641:1685   */\n      mstore\n        /* \"#utility.yul\":1702:1720   */\n      0x64\n      add\n        /* \"05_Staking.sol\":799:845  require(msg.sender == admin, \"Not authorized\") */\n      tag_80\n        /* \"#utility.yul\":1388:1726   */\n      jump\n        /* \"05_Staking.sol\":799:845  require(msg.sender == admin, \"Not authorized\") */\n    tag_118:\n        /* \"05_Staking.sol\":2621:2639  rewardTokenBalance */\n      sload(0x03)\n        /* \"05_Staking.sol\":2610:2617  _amount */\n      dup2\n        /* \"05_Staking.sol\":2610:2639  _amount <= rewardTokenBalance */\n      gt\n      iszero\n        /* \"05_Staking.sol\":2602:2668  require(_amount <= rewardTokenBalance, \"Not enough reward tokens\") */\n      tag_121\n      jumpi\n      mload(0x40)\n      shl(0xe5, 0x461bcd)\n      dup2\n      mstore\n        /* \"#utility.yul\":4080:4082   */\n      0x20\n        /* \"05_Staking.sol\":2602:2668  require(_amount <= rewardTokenBalance, \"Not enough reward tokens\") */\n      0x04\n      dup3\n      add\n        /* \"#utility.yul\":4062:4083   */\n      mstore\n        /* \"#utility.yul\":4119:4121   */\n      0x18\n        /* \"#utility.yul\":4099:4117   */\n      0x24\n      dup3\n      add\n        /* \"#utility.yul\":4092:4122   */\n      mstore\n        /* \"#utility.yul\":4158:4184   */\n      0x4e6f7420656e6f7567682072657761726420746f6b656e730000000000000000\n        /* \"#utility.yul\":4138:4156   */\n      0x44\n      dup3\n      add\n        /* \"#utility.yul\":4131:4185   */\n      mstore\n        /* \"#utility.yul\":4202:4220   */\n      0x64\n      add\n        /* \"05_Staking.sol\":2602:2668  require(_amount <= rewardTokenBalance, \"Not enough reward tokens\") */\n      tag_80\n        /* \"#utility.yul\":3878:4226   */\n      jump\n        /* \"05_Staking.sol\":2602:2668  require(_amount <= rewardTokenBalance, \"Not enough reward tokens\") */\n    tag_121:\n        /* \"05_Staking.sol\":2701:2708  _amount */\n      dup1\n        /* \"05_Staking.sol\":2679:2697  rewardTokenBalance */\n      0x03\n      0x00\n        /* \"05_Staking.sol\":2679:2708  rewardTokenBalance -= _amount */\n      dup3\n      dup3\n      sload\n      tag_124\n      swap2\n      swap1\n      tag_94\n      jump\t// in\n    tag_124:\n      swap1\n      swap2\n      sstore\n      pop\n      pop\n        /* \"05_Staking.sol\":2724:2748  RewardWithdrawn(_amount) */\n      mload(0x40)\n        /* \"#utility.yul\":474:499   */\n      dup2\n      dup2\n      mstore\n        /* \"05_Staking.sol\":2724:2748  RewardWithdrawn(_amount) */\n      0x150a6ec0e6f4e9ddcaaaa1674f157d91165a42d60653016f87a9fc870a39f050\n      swap1\n        /* \"#utility.yul\":462:464   */\n      0x20\n        /* \"#utility.yul\":447:465   */\n      add\n        /* \"05_Staking.sol\":2724:2748  RewardWithdrawn(_amount) */\n      tag_88\n        /* \"#utility.yul\":328:505   */\n      jump\n        /* \"05_Staking.sol\":2764:3056  function calculateReward(address _user) internal view returns (uint256) {... */\n    tag_102:\n      sub(shl(0xa0, 0x01), 0x01)\n        /* \"05_Staking.sol\":2891:2915  stakingTimestamps[_user] */\n      dup2\n      and\n        /* \"05_Staking.sol\":2827:2834  uint256 */\n      0x00\n        /* \"05_Staking.sol\":2891:2915  stakingTimestamps[_user] */\n      swap1\n      dup2\n      mstore\n        /* \"05_Staking.sol\":2891:2908  stakingTimestamps */\n      0x09\n        /* \"05_Staking.sol\":2891:2915  stakingTimestamps[_user] */\n      0x20\n      mstore\n      0x40\n      dup2\n      keccak256\n      sload\n        /* \"05_Staking.sol\":2827:2834  uint256 */\n      dup2\n      swap1\n        /* \"05_Staking.sol\":2873:2915  block.timestamp - stakingTimestamps[_user] */\n      tag_127\n      swap1\n        /* \"05_Staking.sol\":2873:2888  block.timestamp */\n      timestamp\n        /* \"05_Staking.sol\":2873:2915  block.timestamp - stakingTimestamps[_user] */\n      tag_94\n      jump\t// in\n    tag_127:\n        /* \"05_Staking.sol\":3025:3047  rewardRatioDenominator */\n      sload(0x07)\n        /* \"05_Staking.sol\":3014:3022  timeUnit */\n      sload(0x05)\n        /* \"05_Staking.sol\":2847:2915  uint256 stakingDuration = block.timestamp - stakingTimestamps[_user] */\n      swap2\n      swap3\n      pop\n        /* \"05_Staking.sol\":3014:3047  timeUnit * rewardRatioDenominator */\n      tag_128\n      swap2\n        /* \"05_Staking.sol\":3014:3022  timeUnit */\n      0xffffffffffffffffffff\n      and\n        /* \"05_Staking.sol\":3014:3047  timeUnit * rewardRatioDenominator */\n      tag_129\n      jump\t// in\n    tag_128:\n        /* \"05_Staking.sol\":2976:2996  rewardRatioNumerator */\n      sload(0x06)\n      sub(shl(0xa0, 0x01), 0x01)\n        /* \"05_Staking.sol\":2934:2955  stakedBalances[_user] */\n      dup6\n      and\n      0x00\n      swap1\n      dup2\n      mstore\n        /* \"05_Staking.sol\":2934:2948  stakedBalances */\n      0x08\n        /* \"05_Staking.sol\":2934:2955  stakedBalances[_user] */\n      0x20\n      mstore\n      0x40\n      swap1\n      keccak256\n      sload\n        /* \"05_Staking.sol\":2934:2973  stakedBalances[_user] * stakingDuration */\n      tag_130\n      swap1\n        /* \"05_Staking.sol\":2958:2973  stakingDuration */\n      dup5\n      swap1\n        /* \"05_Staking.sol\":2934:2973  stakedBalances[_user] * stakingDuration */\n      tag_129\n      jump\t// in\n    tag_130:\n        /* \"05_Staking.sol\":2934:2996  stakedBalances[_user] * stakingDuration * rewardRatioNumerator */\n      tag_131\n      swap2\n      swap1\n      tag_129\n      jump\t// in\n    tag_131:\n        /* \"05_Staking.sol\":2933:3048  (stakedBalances[_user] * stakingDuration * rewardRatioNumerator) /... */\n      tag_132\n      swap2\n      swap1\n      tag_133\n      jump\t// in\n    tag_132:\n        /* \"05_Staking.sol\":2926:3048  return (stakedBalances[_user] * stakingDuration * rewardRatioNumerator) /... */\n      swap4\n        /* \"05_Staking.sol\":2764:3056  function calculateReward(address _user) internal view returns (uint256) {... */\n      swap3\n      pop\n      pop\n      pop\n      jump\t// out\n        /* \"#utility.yul\":14:323   */\n    tag_24:\n        /* \"#utility.yul\":73:79   */\n      0x00\n        /* \"#utility.yul\":126:128   */\n      0x20\n        /* \"#utility.yul\":114:123   */\n      dup3\n        /* \"#utility.yul\":105:112   */\n      dup5\n        /* \"#utility.yul\":101:124   */\n      sub\n        /* \"#utility.yul\":97:129   */\n      slt\n        /* \"#utility.yul\":94:146   */\n      iszero\n      tag_137\n      jumpi\n        /* \"#utility.yul\":142:143   */\n      0x00\n        /* \"#utility.yul\":139:140   */\n      dup1\n        /* \"#utility.yul\":132:144   */\n      revert\n        /* \"#utility.yul\":94:146   */\n    tag_137:\n        /* \"#utility.yul\":181:190   */\n      dup2\n        /* \"#utility.yul\":168:191   */\n      calldataload\n      sub(shl(0xa0, 0x01), 0x01)\n        /* \"#utility.yul\":224:229   */\n      dup2\n        /* \"#utility.yul\":220:274   */\n      and\n        /* \"#utility.yul\":213:218   */\n      dup2\n        /* \"#utility.yul\":210:275   */\n      eq\n        /* \"#utility.yul\":200:293   */\n      tag_132\n      jumpi\n        /* \"#utility.yul\":289:290   */\n      0x00\n        /* \"#utility.yul\":286:287   */\n      dup1\n        /* \"#utility.yul\":279:291   */\n      revert\n        /* \"#utility.yul\":510:690   */\n    tag_30:\n        /* \"#utility.yul\":569:575   */\n      0x00\n        /* \"#utility.yul\":622:624   */\n      0x20\n        /* \"#utility.yul\":610:619   */\n      dup3\n        /* \"#utility.yul\":601:608   */\n      dup5\n        /* \"#utility.yul\":597:620   */\n      sub\n        /* \"#utility.yul\":593:625   */\n      slt\n        /* \"#utility.yul\":590:642   */\n      iszero\n      tag_141\n      jumpi\n        /* \"#utility.yul\":638:639   */\n      0x00\n        /* \"#utility.yul\":635:636   */\n      dup1\n        /* \"#utility.yul\":628:640   */\n      revert\n        /* \"#utility.yul\":590:642   */\n    tag_141:\n      pop\n        /* \"#utility.yul\":661:684   */\n      calldataload\n      swap2\n        /* \"#utility.yul\":510:690   */\n      swap1\n      pop\n      jump\t// out\n        /* \"#utility.yul\":2092:2219   */\n    tag_134:\n        /* \"#utility.yul\":2153:2163   */\n      0x4e487b71\n        /* \"#utility.yul\":2148:2151   */\n      0xe0\n        /* \"#utility.yul\":2144:2164   */\n      shl\n        /* \"#utility.yul\":2141:2142   */\n      0x00\n        /* \"#utility.yul\":2134:2165   */\n      mstore\n        /* \"#utility.yul\":2184:2188   */\n      0x11\n        /* \"#utility.yul\":2181:2182   */\n      0x04\n        /* \"#utility.yul\":2174:2189   */\n      mstore\n        /* \"#utility.yul\":2208:2212   */\n      0x24\n        /* \"#utility.yul\":2205:2206   */\n      0x00\n        /* \"#utility.yul\":2198:2213   */\n      revert\n        /* \"#utility.yul\":2224:2349   */\n    tag_87:\n        /* \"#utility.yul\":2289:2298   */\n      dup1\n      dup3\n      add\n        /* \"#utility.yul\":2310:2320   */\n      dup1\n      dup3\n      gt\n        /* \"#utility.yul\":2307:2343   */\n      iszero\n      tag_150\n      jumpi\n        /* \"#utility.yul\":2323:2341   */\n      tag_150\n      tag_134\n      jump\t// in\n    tag_150:\n        /* \"#utility.yul\":2224:2349   */\n      swap3\n      swap2\n      pop\n      pop\n      jump\t// out\n        /* \"#utility.yul\":2710:2838   */\n    tag_94:\n        /* \"#utility.yul\":2777:2786   */\n      dup2\n      dup2\n      sub\n        /* \"#utility.yul\":2798:2809   */\n      dup2\n      dup2\n      gt\n        /* \"#utility.yul\":2795:2832   */\n      iszero\n      tag_150\n      jumpi\n        /* \"#utility.yul\":2812:2830   */\n      tag_150\n      tag_134\n      jump\t// in\n        /* \"#utility.yul\":4231:4399   */\n    tag_129:\n        /* \"#utility.yul\":4304:4313   */\n      dup1\n      dup3\n      mul\n        /* \"#utility.yul\":4335:4344   */\n      dup2\n      iszero\n        /* \"#utility.yul\":4352:4367   */\n      dup3\n      dup3\n      div\n        /* \"#utility.yul\":4346:4368   */\n      dup5\n      eq\n        /* \"#utility.yul\":4332:4369   */\n      or\n        /* \"#utility.yul\":4322:4393   */\n      tag_150\n      jumpi\n        /* \"#utility.yul\":4373:4391   */\n      tag_150\n      tag_134\n      jump\t// in\n        /* \"#utility.yul\":4404:4621   */\n    tag_133:\n        /* \"#utility.yul\":4444:4445   */\n      0x00\n        /* \"#utility.yul\":4470:4471   */\n      dup3\n        /* \"#utility.yul\":4460:4592   */\n      tag_163\n      jumpi\n        /* \"#utility.yul\":4514:4524   */\n      0x4e487b71\n        /* \"#utility.yul\":4509:4512   */\n      0xe0\n        /* \"#utility.yul\":4505:4525   */\n      shl\n        /* \"#utility.yul\":4502:4503   */\n      0x00\n        /* \"#utility.yul\":4495:4526   */\n      mstore\n        /* \"#utility.yul\":4549:4553   */\n      0x12\n        /* \"#utility.yul\":4546:4547   */\n      0x04\n        /* \"#utility.yul\":4539:4554   */\n      mstore\n        /* \"#utility.yul\":4577:4581   */\n      0x24\n        /* \"#utility.yul\":4574:4575   */\n      0x00\n        /* \"#utility.yul\":4567:4582   */\n      revert\n        /* \"#utility.yul\":4460:4592   */\n    tag_163:\n      pop\n        /* \"#utility.yul\":4606:4615   */\n      div\n      swap1\n        /* \"#utility.yul\":4404:4621   */\n      jump\t// out\n\n    auxdata: 0xa264697066735822122076112cc059869f834d69753fdf8c1d649455225c58bff8f8d8bb3d9b90f324c464736f6c63430008190033\n}\n",
    "bytecode": {
      "linkReferences": {},
      "object": "608060405234801561000f575f80fd5b506040516109a53803806109a583398101604081905261002e916100b1565b60028054336001600160a01b0319918216179091555f805482166001600160a01b03978816179055600180549091169490951693909317909355600580546001600160501b0319166001600160501b0392909216919091179055600691909155600755610111565b80516001600160a01b03811681146100ac575f80fd5b919050565b5f805f805f60a086880312156100c5575f80fd5b6100ce86610096565b94506100dc60208701610096565b60408701519094506001600160501b03811681146100f8575f80fd5b6060870151608090970151959894975095949392505050565b6108878061011e5f395ff3fe608060405234801561000f575f80fd5b50600436106100fb575f3560e01c8063937b983b11610093578063cb43b2dd11610063578063cb43b2dd14610232578063cc317f3114610245578063f7c618c11461024e578063f851a44014610260575f80fd5b8063937b983b146101cf578063a694fc3a146101ee578063b5d90dc014610201578063c34531531461020a575f80fd5b80633c6a7f9b116100ce5780633c6a7f9b1461016157806372f702f31461019257806375824f23146101bd5780638caaa271146101c6575f80fd5b80631460fa87146100ff57806316c621e0146101315780632e17de7814610146578063372500ab14610159575b5f80fd5b61011e61010d36600461079e565b60086020525f908152604090205481565b6040519081526020015b60405180910390f35b61014461013f3660046107c4565b610273565b005b6101446101543660046107c4565b61035f565b610144610431565b6005546101779069ffffffffffffffffffff1681565b60405169ffffffffffffffffffff9091168152602001610128565b6001546101a5906001600160a01b031681565b6040516001600160a01b039091168152602001610128565b61011e60035481565b61011e60045481565b61011e6101dd36600461079e565b60096020525f908152604090205481565b6101446101fc3660046107c4565b610543565b61011e60075481565b61021d61021836600461079e565b61060f565b60408051928352602083019190915201610128565b6101446102403660046107c4565b610638565b61011e60065481565b5f546101a5906001600160a01b031681565b6002546101a5906001600160a01b031681565b6002546001600160a01b031633146102c35760405162461bcd60e51b815260206004820152600e60248201526d139bdd08185d5d1a1bdc9a5e995960921b60448201526064015b60405180910390fd5b5f81116103125760405162461bcd60e51b815260206004820181905260248201527f416d6f756e74206d7573742062652067726561746572207468616e207a65726f60448201526064016102ba565b8060035f82825461032391906107ef565b90915550506040518181527f4b19cb5d8df041d8b4d367efa19af33a21d398f599fb445a29acd9d5e56318c6906020015b60405180910390a150565b335f908152600860205260409020548111156103bd5760405162461bcd60e51b815260206004820152601b60248201527f496e73756666696369656e74207374616b65642062616c616e6365000000000060448201526064016102ba565b335f90815260086020526040812080548392906103db908490610808565b925050819055508060045f8282546103f39190610808565b909155505060405181815233907f0f5bb82176feb1b5e747e28471aa92156a04d9f3ab9f45f28e2d704232b93f75906020015b60405180910390a250565b335f9081526008602052604090205461048c5760405162461bcd60e51b815260206004820152601060248201527f4e6f207374616b656420746f6b656e730000000000000000000000000000000060448201526064016102ba565b5f6104963361071b565b90506003548111156104ea5760405162461bcd60e51b815260206004820152601260248201527f4e6f7420656e6f7567682072657761726473000000000000000000000000000060448201526064016102ba565b8060035f8282546104fb9190610808565b9091555050335f8181526009602052604090819020429055517f106f923f993c2149d49b4255ff723acafa1f2d94393f561d3eda32ae348f7241906104269084815260200190565b5f81116105925760405162461bcd60e51b815260206004820152600e60248201527f43616e6e6f74207374616b65203000000000000000000000000000000000000060448201526064016102ba565b335f90815260086020526040812080548392906105b09084906107ef565b9091555050335f908152600960205260408120429055600480548392906105d89084906107ef565b909155505060405181815233907f9e71bc8eea02a63969f509818f2dafb9254532904319f9dbda79b67bd34a5f3d90602001610426565b6001600160a01b0381165f90815260086020526040812054906106318361071b565b9050915091565b6002546001600160a01b031633146106835760405162461bcd60e51b815260206004820152600e60248201526d139bdd08185d5d1a1bdc9a5e995960921b60448201526064016102ba565b6003548111156106d55760405162461bcd60e51b815260206004820152601860248201527f4e6f7420656e6f7567682072657761726420746f6b656e73000000000000000060448201526064016102ba565b8060035f8282546106e69190610808565b90915550506040518181527f150a6ec0e6f4e9ddcaaaa1674f157d91165a42d60653016f87a9fc870a39f05090602001610354565b6001600160a01b0381165f90815260096020526040812054819061073f9042610808565b60075460055491925061075d9169ffffffffffffffffffff1661081b565b6006546001600160a01b0385165f9081526008602052604090205461078390849061081b565b61078d919061081b565b6107979190610832565b9392505050565b5f602082840312156107ae575f80fd5b81356001600160a01b0381168114610797575f80fd5b5f602082840312156107d4575f80fd5b5035919050565b634e487b7160e01b5f52601160045260245ffd5b80820180821115610802576108026107db565b92915050565b81810381811115610802576108026107db565b8082028115828204841417610802576108026107db565b5f8261084c57634e487b7160e01b5f52601260045260245ffd5b50049056fea264697066735822122076112cc059869f834d69753fdf8c1d649455225c58bff8f8d8bb3d9b90f324c464736f6c63430008190033",
      "opcodes": "PUSH1 0x80 PUSH1 0x40 MSTORE CALLVALUE DUP1 ISZERO PUSH2 0xF JUMPI PUSH0 DUP1 REVERT JUMPDEST POP PUSH1 0x40 MLOAD PUSH2 0x9A5 CODESIZE SUB DUP1 PUSH2 0x9A5 DUP4 CODECOPY DUP2 ADD PUSH1 0x40 DUP2 SWAP1 MSTORE PUSH2 0x2E SWAP2 PUSH2 0xB1 JUMP JUMPDEST PUSH1 0x2 DUP1 SLOAD CALLER PUSH1 0x1 PUSH1 0x1 PUSH1 0xA0 SHL SUB NOT SWAP2 DUP3 AND OR SWAP1 SWAP2 SSTORE PUSH0 DUP1 SLOAD DUP3 AND PUSH1 0x1 PUSH1 0x1 PUSH1 0xA0 SHL SUB SWAP8 DUP9 AND OR SWAP1 SSTORE PUSH1 0x1 DUP1 SLOAD SWAP1 SWAP2 AND SWAP5 SWAP1 SWAP6 AND SWAP4 SWAP1 SWAP4 OR SWAP1 SWAP4 SSTORE PUSH1 0x5 DUP1 SLOAD PUSH1 0x1 PUSH1 0x1 PUSH1 0x50 SHL SUB NOT AND PUSH1 0x1 PUSH1 0x1 PUSH1 0x50 SHL SUB SWAP3 SWAP1 SWAP3 AND SWAP2 SWAP1 SWAP2 OR SWAP1 SSTORE PUSH1 0x6 SWAP2 SWAP1 SWAP2 SSTORE PUSH1 0x7 SSTORE PUSH2 0x111 JUMP JUMPDEST DUP1 MLOAD PUSH1 0x1 PUSH1 0x1 PUSH1 0xA0 SHL SUB DUP2 AND DUP2 EQ PUSH2 0xAC JUMPI PUSH0 DUP1 REVERT JUMPDEST SWAP2 SWAP1 POP JUMP JUMPDEST PUSH0 DUP1 PUSH0 DUP1 PUSH0 PUSH1 0xA0 DUP7 DUP9 SUB SLT ISZERO PUSH2 0xC5 JUMPI PUSH0 DUP1 REVERT JUMPDEST PUSH2 0xCE DUP7 PUSH2 0x96 JUMP JUMPDEST SWAP5 POP PUSH2 0xDC PUSH1 0x20 DUP8 ADD PUSH2 0x96 JUMP JUMPDEST PUSH1 0x40 DUP8 ADD MLOAD SWAP1 SWAP5 POP PUSH1 0x1 PUSH1 0x1 PUSH1 0x50 SHL SUB DUP2 AND DUP2 EQ PUSH2 0xF8 JUMPI PUSH0 DUP1 REVERT JUMPDEST PUSH1 0x60 DUP8 ADD MLOAD PUSH1 0x80 SWAP1 SWAP8 ADD MLOAD SWAP6 SWAP9 SWAP5 SWAP8 POP SWAP6 SWAP5 SWAP4 SWAP3 POP POP POP JUMP JUMPDEST PUSH2 0x887 DUP1 PUSH2 0x11E PUSH0 CODECOPY PUSH0 RETURN INVALID PUSH1 0x80 PUSH1 0x40 MSTORE CALLVALUE DUP1 ISZERO PUSH2 0xF JUMPI PUSH0 DUP1 REVERT JUMPDEST POP PUSH1 0x4 CALLDATASIZE LT PUSH2 0xFB JUMPI PUSH0 CALLDATALOAD PUSH1 0xE0 SHR DUP1 PUSH4 0x937B983B GT PUSH2 0x93 JUMPI DUP1 PUSH4 0xCB43B2DD GT PUSH2 0x63 JUMPI DUP1 PUSH4 0xCB43B2DD EQ PUSH2 0x232 JUMPI DUP1 PUSH4 0xCC317F31 EQ PUSH2 0x245 JUMPI DUP1 PUSH4 0xF7C618C1 EQ PUSH2 0x24E JUMPI DUP1 PUSH4 0xF851A440 EQ PUSH2 0x260 JUMPI PUSH0 DUP1 REVERT JUMPDEST DUP1 PUSH4 0x937B983B EQ PUSH2 0x1CF JUMPI DUP1 PUSH4 0xA694FC3A EQ PUSH2 0x1EE JUMPI DUP1 PUSH4 0xB5D90DC0 EQ PUSH2 0x201 JUMPI DUP1 PUSH4 0xC3453153 EQ PUSH2 0x20A JUMPI PUSH0 DUP1 REVERT JUMPDEST DUP1 PUSH4 0x3C6A7F9B GT PUSH2 0xCE JUMPI DUP1 PUSH4 0x3C6A7F9B EQ PUSH2 0x161 JUMPI DUP1 PUSH4 0x72F702F3 EQ PUSH2 0x192 JUMPI DUP1 PUSH4 0x75824F23 EQ PUSH2 0x1BD JUMPI DUP1 PUSH4 0x8CAAA271 EQ PUSH2 0x1C6 JUMPI PUSH0 DUP1 REVERT JUMPDEST DUP1 PUSH4 0x1460FA87 EQ PUSH2 0xFF JUMPI DUP1 PUSH4 0x16C621E0 EQ PUSH2 0x131 JUMPI DUP1 PUSH4 0x2E17DE78 EQ PUSH2 0x146 JUMPI DUP1 PUSH4 0x372500AB EQ PUSH2 0x159 JUMPI JUMPDEST PUSH0 DUP1 REVERT JUMPDEST PUSH2 0x11E PUSH2 0x10D CALLDATASIZE PUSH1 0x4 PUSH2 0x79E JUMP JUMPDEST PUSH1 0x8 PUSH1 0x20 MSTORE PUSH0 SWAP1 DUP2 MSTORE PUSH1 0x40 SWAP1 KECCAK256 SLOAD DUP2 JUMP JUMPDEST PUSH1 0x40 MLOAD SWAP1 DUP2 MSTORE PUSH1 0x20 ADD JUMPDEST PUSH1 0x40 MLOAD DUP1 SWAP2 SUB SWAP1 RETURN JUMPDEST PUSH2 0x144 PUSH2 0x13F CALLDATASIZE PUSH1 0x4 PUSH2 0x7C4 JUMP JUMPDEST PUSH2 0x273 JUMP JUMPDEST STOP JUMPDEST PUSH2 0x144 PUSH2 0x154 CALLDATASIZE PUSH1 0x4 PUSH2 0x7C4 JUMP JUMPDEST PUSH2 0x35F JUMP JUMPDEST PUSH2 0x144 PUSH2 0x431 JUMP JUMPDEST PUSH1 0x5 SLOAD PUSH2 0x177 SWAP1 PUSH10 0xFFFFFFFFFFFFFFFFFFFF AND DUP2 JUMP JUMPDEST PUSH1 0x40 MLOAD PUSH10 0xFFFFFFFFFFFFFFFFFFFF SWAP1 SWAP2 AND DUP2 MSTORE PUSH1 0x20 ADD PUSH2 0x128 JUMP JUMPDEST PUSH1 0x1 SLOAD PUSH2 0x1A5 SWAP1 PUSH1 0x1 PUSH1 0x1 PUSH1 0xA0 SHL SUB AND DUP2 JUMP JUMPDEST PUSH1 0x40 MLOAD PUSH1 0x1 PUSH1 0x1 PUSH1 0xA0 SHL SUB SWAP1 SWAP2 AND DUP2 MSTORE PUSH1 0x20 ADD PUSH2 0x128 JUMP JUMPDEST PUSH2 0x11E PUSH1 0x3 SLOAD DUP2 JUMP JUMPDEST PUSH2 0x11E PUSH1 0x4 SLOAD DUP2 JUMP JUMPDEST PUSH2 0x11E PUSH2 0x1DD CALLDATASIZE PUSH1 0x4 PUSH2 0x79E JUMP JUMPDEST PUSH1 0x9 PUSH1 0x20 MSTORE PUSH0 SWAP1 DUP2 MSTORE PUSH1 0x40 SWAP1 KECCAK256 SLOAD DUP2 JUMP JUMPDEST PUSH2 0x144 PUSH2 0x1FC CALLDATASIZE PUSH1 0x4 PUSH2 0x7C4 JUMP JUMPDEST PUSH2 0x543 JUMP JUMPDEST PUSH2 0x11E PUSH1 0x7 SLOAD DUP2 JUMP JUMPDEST PUSH2 0x21D PUSH2 0x218 CALLDATASIZE PUSH1 0x4 PUSH2 0x79E JUMP JUMPDEST PUSH2 0x60F JUMP JUMPDEST PUSH1 0x40 DUP1 MLOAD SWAP3 DUP4 MSTORE PUSH1 0x20 DUP4 ADD SWAP2 SWAP1 SWAP2 MSTORE ADD PUSH2 0x128 JUMP JUMPDEST PUSH2 0x144 PUSH2 0x240 CALLDATASIZE PUSH1 0x4 PUSH2 0x7C4 JUMP JUMPDEST PUSH2 0x638 JUMP JUMPDEST PUSH2 0x11E PUSH1 0x6 SLOAD DUP2 JUMP JUMPDEST PUSH0 SLOAD PUSH2 0x1A5 SWAP1 PUSH1 0x1 PUSH1 0x1 PUSH1 0xA0 SHL SUB AND DUP2 JUMP JUMPDEST PUSH1 0x2 SLOAD PUSH2 0x1A5 SWAP1 PUSH1 0x1 PUSH1 0x1 PUSH1 0xA0 SHL SUB AND DUP2 JUMP JUMPDEST PUSH1 0x2 SLOAD PUSH1 0x1 PUSH1 0x1 PUSH1 0xA0 SHL SUB AND CALLER EQ PUSH2 0x2C3 JUMPI PUSH1 0x40 MLOAD PUSH3 0x461BCD PUSH1 0xE5 SHL DUP2 MSTORE PUSH1 0x20 PUSH1 0x4 DUP3 ADD MSTORE PUSH1 0xE PUSH1 0x24 DUP3 ADD MSTORE PUSH14 0x139BDD08185D5D1A1BDC9A5E9959 PUSH1 0x92 SHL PUSH1 0x44 DUP3 ADD MSTORE PUSH1 0x64 ADD JUMPDEST PUSH1 0x40 MLOAD DUP1 SWAP2 SUB SWAP1 REVERT JUMPDEST PUSH0 DUP2 GT PUSH2 0x312 JUMPI PUSH1 0x40 MLOAD PUSH3 0x461BCD PUSH1 0xE5 SHL DUP2 MSTORE PUSH1 0x20 PUSH1 0x4 DUP3 ADD DUP2 SWAP1 MSTORE PUSH1 0x24 DUP3 ADD MSTORE PUSH32 0x416D6F756E74206D7573742062652067726561746572207468616E207A65726F PUSH1 0x44 DUP3 ADD MSTORE PUSH1 0x64 ADD PUSH2 0x2BA JUMP JUMPDEST DUP1 PUSH1 0x3 PUSH0 DUP3 DUP3 SLOAD PUSH2 0x323 SWAP2 SWAP1 PUSH2 0x7EF JUMP JUMPDEST SWAP1 SWAP2 SSTORE POP POP PUSH1 0x40 MLOAD DUP2 DUP2 MSTORE PUSH32 0x4B19CB5D8DF041D8B4D367EFA19AF33A21D398F599FB445A29ACD9D5E56318C6 SWAP1 PUSH1 0x20 ADD JUMPDEST PUSH1 0x40 MLOAD DUP1 SWAP2 SUB SWAP1 LOG1 POP JUMP JUMPDEST CALLER PUSH0 SWAP1 DUP2 MSTORE PUSH1 0x8 PUSH1 0x20 MSTORE PUSH1 0x40 SWAP1 KECCAK256 SLOAD DUP2 GT ISZERO PUSH2 0x3BD JUMPI PUSH1 0x40 MLOAD PUSH3 0x461BCD PUSH1 0xE5 SHL DUP2 MSTORE PUSH1 0x20 PUSH1 0x4 DUP3 ADD MSTORE PUSH1 0x1B PUSH1 0x24 DUP3 ADD MSTORE PUSH32 0x496E73756666696369656E74207374616B65642062616C616E63650000000000 PUSH1 0x44 DUP3 ADD MSTORE PUSH1 0x64 ADD PUSH2 0x2BA JUMP JUMPDEST CALLER PUSH0 SWAP1 DUP2 MSTORE PUSH1 0x8 PUSH1 0x20 MSTORE PUSH1 0x40 DUP2 KECCAK256 DUP1 SLOAD DUP4 SWAP3 SWAP1 PUSH2 0x3DB SWAP1 DUP5 SWAP1 PUSH2 0x808 JUMP JUMPDEST SWAP3 POP POP DUP2 SWAP1 SSTORE POP DUP1 PUSH1 0x4 PUSH0 DUP3 DUP3 SLOAD PUSH2 0x3F3 SWAP2 SWAP1 PUSH2 0x808 JUMP JUMPDEST SWAP1 SWAP2 SSTORE POP POP PUSH1 0x40 MLOAD DUP2 DUP2 MSTORE CALLER SWAP1 PUSH32 0xF5BB82176FEB1B5E747E28471AA92156A04D9F3AB9F45F28E2D704232B93F75 SWAP1 PUSH1 0x20 ADD JUMPDEST PUSH1 0x40 MLOAD DUP1 SWAP2 SUB SWAP1 LOG2 POP JUMP JUMPDEST CALLER PUSH0 SWAP1 DUP2 MSTORE PUSH1 0x8 PUSH1 0x20 MSTORE PUSH1 0x40 SWAP1 KECCAK256 SLOAD PUSH2 0x48C JUMPI PUSH1 0x40 MLOAD PUSH3 0x461BCD PUSH1 0xE5 SHL DUP2 MSTORE PUSH1 0x20 PUSH1 0x4 DUP3 ADD MSTORE PUSH1 0x10 PUSH1 0x24 DUP3 ADD MSTORE PUSH32 0x4E6F207374616B656420746F6B656E7300000000000000000000000000000000 PUSH1 0x44 DUP3 ADD MSTORE PUSH1 0x64 ADD PUSH2 0x2BA JUMP JUMPDEST PUSH0 PUSH2 0x496 CALLER PUSH2 0x71B JUMP JUMPDEST SWAP1 POP PUSH1 0x3 SLOAD DUP2 GT ISZERO PUSH2 0x4EA JUMPI PUSH1 0x40 MLOAD PUSH3 0x461BCD PUSH1 0xE5 SHL DUP2 MSTORE PUSH1 0x20 PUSH1 0x4 DUP3 ADD MSTORE PUSH1 0x12 PUSH1 0x24 DUP3 ADD MSTORE PUSH32 0x4E6F7420656E6F75676820726577617264730000000000000000000000000000 PUSH1 0x44 DUP3 ADD MSTORE PUSH1 0x64 ADD PUSH2 0x2BA JUMP JUMPDEST DUP1 PUSH1 0x3 PUSH0 DUP3 DUP3 SLOAD PUSH2 0x4FB SWAP2 SWAP1 PUSH2 0x808 JUMP JUMPDEST SWAP1 SWAP2 SSTORE POP POP CALLER PUSH0 DUP2 DUP2 MSTORE PUSH1 0x9 PUSH1 0x20 MSTORE PUSH1 0x40 SWAP1 DUP2 SWAP1 KECCAK256 TIMESTAMP SWAP1 SSTORE MLOAD PUSH32 0x106F923F993C2149D49B4255FF723ACAFA1F2D94393F561D3EDA32AE348F7241 SWAP1 PUSH2 0x426 SWAP1 DUP5 DUP2 MSTORE PUSH1 0x20 ADD SWAP1 JUMP JUMPDEST PUSH0 DUP2 GT PUSH2 0x592 JUMPI PUSH1 0x40 MLOAD PUSH3 0x461BCD PUSH1 0xE5 SHL DUP2 MSTORE PUSH1 0x20 PUSH1 0x4 DUP3 ADD MSTORE PUSH1 0xE PUSH1 0x24 DUP3 ADD MSTORE PUSH32 0x43616E6E6F74207374616B652030000000000000000000000000000000000000 PUSH1 0x44 DUP3 ADD MSTORE PUSH1 0x64 ADD PUSH2 0x2BA JUMP JUMPDEST CALLER PUSH0 SWAP1 DUP2 MSTORE PUSH1 0x8 PUSH1 0x20 MSTORE PUSH1 0x40 DUP2 KECCAK256 DUP1 SLOAD DUP4 SWAP3 SWAP1 PUSH2 0x5B0 SWAP1 DUP5 SWAP1 PUSH2 0x7EF JUMP JUMPDEST SWAP1 SWAP2 SSTORE POP POP CALLER PUSH0 SWAP1 DUP2 MSTORE PUSH1 0x9 PUSH1 0x20 MSTORE PUSH1 0x40 DUP2 KECCAK256 TIMESTAMP SWAP1 SSTORE PUSH1 0x4 DUP1 SLOAD DUP4 SWAP3 SWAP1 PUSH2 0x5D8 SWAP1 DUP5 SWAP1 PUSH2 0x7EF JUMP JUMPDEST SWAP1 SWAP2 SSTORE POP POP PUSH1 0x40 MLOAD DUP2 DUP2 MSTORE CALLER SWAP1 PUSH32 0x9E71BC8EEA02A63969F509818F2DAFB9254532904319F9DBDA79B67BD34A5F3D SWAP1 PUSH1 0x20 ADD PUSH2 0x426 JUMP JUMPDEST PUSH1 0x1 PUSH1 0x1 PUSH1 0xA0 SHL SUB DUP2 AND PUSH0 SWAP1 DUP2 MSTORE PUSH1 0x8 PUSH1 0x20 MSTORE PUSH1 0x40 DUP2 KECCAK256 SLOAD SWAP1 PUSH2 0x631 DUP4 PUSH2 0x71B JUMP JUMPDEST SWAP1 POP SWAP2 POP SWAP2 JUMP JUMPDEST PUSH1 0x2 SLOAD PUSH1 0x1 PUSH1 0x1 PUSH1 0xA0 SHL SUB AND CALLER EQ PUSH2 0x683 JUMPI PUSH1 0x40 MLOAD PUSH3 0x461BCD PUSH1 0xE5 SHL DUP2 MSTORE PUSH1 0x20 PUSH1 0x4 DUP3 ADD MSTORE PUSH1 0xE PUSH1 0x24 DUP3 ADD MSTORE PUSH14 0x139BDD08185D5D1A1BDC9A5E9959 PUSH1 0x92 SHL PUSH1 0x44 DUP3 ADD MSTORE PUSH1 0x64 ADD PUSH2 0x2BA JUMP JUMPDEST PUSH1 0x3 SLOAD DUP2 GT ISZERO PUSH2 0x6D5 JUMPI PUSH1 0x40 MLOAD PUSH3 0x461BCD PUSH1 0xE5 SHL DUP2 MSTORE PUSH1 0x20 PUSH1 0x4 DUP3 ADD MSTORE PUSH1 0x18 PUSH1 0x24 DUP3 ADD MSTORE PUSH32 0x4E6F7420656E6F7567682072657761726420746F6B656E730000000000000000 PUSH1 0x44 DUP3 ADD MSTORE PUSH1 0x64 ADD PUSH2 0x2BA JUMP JUMPDEST DUP1 PUSH1 0x3 PUSH0 DUP3 DUP3 SLOAD PUSH2 0x6E6 SWAP2 SWAP1 PUSH2 0x808 JUMP JUMPDEST SWAP1 SWAP2 SSTORE POP POP PUSH1 0x40 MLOAD DUP2 DUP2 MSTORE PUSH32 0x150A6EC0E6F4E9DDCAAAA1674F157D91165A42D60653016F87A9FC870A39F050 SWAP1 PUSH1 0x20 ADD PUSH2 0x354 JUMP JUMPDEST PUSH1 0x1 PUSH1 0x1 PUSH1 0xA0 SHL SUB DUP2 AND PUSH0 SWAP1 DUP2 MSTORE PUSH1 0x9 PUSH1 0x20 MSTORE PUSH1 0x40 DUP2 KECCAK256 SLOAD DUP2 SWAP1 PUSH2 0x73F SWAP1 TIMESTAMP PUSH2 0x808 JUMP JUMPDEST PUSH1 0x7 SLOAD PUSH1 0x5 SLOAD SWAP2 SWAP3 POP PUSH2 0x75D SWAP2 PUSH10 0xFFFFFFFFFFFFFFFFFFFF AND PUSH2 0x81B JUMP JUMPDEST PUSH1 0x6 SLOAD PUSH1 0x1 PUSH1 0x1 PUSH1 0xA0 SHL SUB DUP6 AND PUSH0 SWAP1 DUP2 MSTORE PUSH1 0x8 PUSH1 0x20 MSTORE PUSH1 0x40 SWAP1 KECCAK256 SLOAD PUSH2 0x783 SWAP1 DUP5 SWAP1 PUSH2 0x81B JUMP JUMPDEST PUSH2 0x78D SWAP2 SWAP1 PUSH2 0x81B JUMP JUMPDEST PUSH2 0x797 SWAP2 SWAP1 PUSH2 0x832 JUMP JUMPDEST SWAP4 SWAP3 POP POP POP JUMP JUMPDEST PUSH0 PUSH1 0x20 DUP3 DUP5 SUB SLT ISZERO PUSH2 0x7AE JUMPI PUSH0 DUP1 REVERT JUMPDEST DUP2 CALLDATALOAD PUSH1 0x1 PUSH1 0x1 PUSH1 0xA0 SHL SUB DUP2 AND DUP2 EQ PUSH2 0x797 JUMPI PUSH0 DUP1 REVERT JUMPDEST PUSH0 PUSH1 0x20 DUP3 DUP5 SUB SLT ISZERO PUSH2 0x7D4 JUMPI PUSH0 DUP1 REVERT JUMPDEST POP CALLDATALOAD SWAP2 SWAP1 POP JUMP JUMPDEST PUSH4 0x4E487B71 PUSH1 0xE0 SHL PUSH0 MSTORE PUSH1 0x11 PUSH1 0x4 MSTORE PUSH1 0x24 PUSH0 REVERT JUMPDEST DUP1 DUP3 ADD DUP1 DUP3 GT ISZERO PUSH2 0x802 JUMPI PUSH2 0x802 PUSH2 0x7DB JUMP JUMPDEST SWAP3 SWAP2 POP POP JUMP JUMPDEST DUP2 DUP2 SUB DUP2 DUP2 GT ISZERO PUSH2 0x802 JUMPI PUSH2 0x802 PUSH2 0x7DB JUMP JUMPDEST DUP1 DUP3 MUL DUP2 ISZERO DUP3 DUP3 DIV DUP5 EQ OR PUSH2 0x802 JUMPI PUSH2 0x802 PUSH2 0x7DB JUMP JUMPDEST PUSH0 DUP3 PUSH2 0x84C JUMPI PUSH4 0x4E487B71 PUSH1 0xE0 SHL PUSH0 MSTORE PUSH1 0x12 PUSH1 0x4 MSTORE PUSH1 0x24 PUSH0 REVERT JUMPDEST POP DIV SWAP1 JUMP INVALID LOG2 PUSH5 0x6970667358 0x22 SLT KECCAK256 PUSH23 0x112CC059869F834D69753FDF8C1D649455225C58BFF8F8 0xD8 0xBB RETURNDATASIZE SWAP12 SWAP1 RETURN 0x24 0xC4 PUSH5 0x736F6C6343 STOP ADDMOD NOT STOP CALLER "
    },
    "gasEstimates": {
      "creation": {
        "codeDepositCost": "436600",
        "executionCost": "infinite",
        "totalCost": "infinite"
      },
      "external": {
        "admin()": "2424",
        "claimRewards()": "infinite",
        "depositRewardTokens(uint256)": "27786",
        "getStakeInfo(address)": "infinite",
        "rewardRatioDenominator()": "2350",
        "rewardRatioNumerator()": "2327",
        "rewardToken()": "2401",
        "rewardTokenBalance()": "2350",
        "stake(uint256)": "infinite",
        "stakedBalances(address)": "2494",
        "stakingTimestamps(address)": "2493",
        "stakingToken()": "2381",
        "stakingTokenBalance()": "2372",
        "timeUnit()": "2335",
        "unstake(uint256)": "infinite",
        "withdrawRewardTokens(uint256)": "29877"
      },
      "internal": {
        "calculateReward(address)": "infinite"
      }
    },
    "methodIdentifiers": {
      "admin()": "f851a440",
      "claimRewards()": "372500ab",
      "depositRewardTokens(uint256)": "16c621e0",
      "getStakeInfo(address)": "c3453153",
      "rewardRatioDenominator()": "b5d90dc0",
      "rewardRatioNumerator()": "cc317f31",
      "rewardToken()": "f7c618c1",
      "rewardTokenBalance()": "75824f23",
      "stake(uint256)": "a694fc3a",
      "stakedBalances(address)": "1460fa87",
      "stakingTimestamps(address)": "937b983b",
      "stakingToken()": "72f702f3",
      "stakingTokenBalance()": "8caaa271",
      "timeUnit()": "3c6a7f9b",
      "unstake(uint256)": "2e17de78",
      "withdrawRewardTokens(uint256)": "cb43b2dd"
    }
  },
  "storageLayout": {
    "storage": [
      {
        "astId": 1223,
        "contract": "05_Staking.sol:Staking",
        "label": "rewardToken",
        "offset": 0,
        "slot": "0",
        "type": "t_address"
      },
      {
        "astId": 1225,
        "contract": "05_Staking.sol:Staking",
        "label": "stakingToken",
        "offset": 0,
        "slot": "1",
        "type": "t_address"
      },
      {
        "astId": 1227,
        "contract": "05_Staking.sol:Staking",
        "label": "admin",
        "offset": 0,
        "slot": "2",
        "type": "t_address"
      },
      {
        "astId": 1229,
        "contract": "05_Staking.sol:Staking",
        "label": "rewardTokenBalance",
        "offset": 0,
        "slot": "3",
        "type": "t_uint256"
      },
      {
        "astId": 1231,
        "contract": "05_Staking.sol:Staking",
        "label": "stakingTokenBalance",
        "offset": 0,
        "slot": "4",
        "type": "t_uint256"
      },
      {
        "astId": 1233,
        "contract": "05_Staking.sol:Staking",
        "label": "timeUnit",
        "offset": 0,
        "slot": "5",
        "type": "t_uint80"
      },
      {
        "astId": 1235,
        "contract": "05_Staking.sol:Staking",
        "label": "rewardRatioNumerator",
        "offset": 0,
        "slot": "6",
        "type": "t_uint256"
      },
      {
        "astId": 1237,
        "contract": "05_Staking.sol:Staking",
        "label": "rewardRatioDenominator",
        "offset": 0,
        "slot": "7",
        "type": "t_uint256"
      },
      {
        "astId": 1241,
        "contract": "05_Staking.sol:Staking",
        "label": "stakedBalances",
        "offset": 0,
        "slot": "8",
        "type": "t_mapping(t_address,t_uint256)"
      },
      {
        "astId": 1245,
        "contract": "05_Staking.sol:Staking",
        "label": "stakingTimestamps",
        "offset": 0,
        "slot": "9",
        "type": "t_mapping(t_address,t_uint256)"
      }
    ],
    "types": {
      "t_address": {
        "encoding": "inplace",
        "label": "address",
        "numberOfBytes": "20"
      },
      "t_mapping(t_address,t_uint256)": {
        "encoding": "mapping",
        "key": "t_address",
        "label": "mapping(address => uint256)",
        "numberOfBytes": "32",
        "value": "t_uint256"
      },
      "t_uint256": {
        "encoding": "inplace",
        "label": "uint256",
        "numberOfBytes": "32"
      },
      "t_uint80": {
        "encoding": "inplace",
        "label": "uint80",
        "numberOfBytes": "10"
      }
    }
  },
  "userdoc": {
    "kind": "user",
    "methods": {},
    "version": 1
  }
}